:020000040800F2
:10000000D00E0020A10100080B370008E1310008E4
:1000100009370008790500080D42000800000000BB
:10002000000000000000000000000000C7380008C9
:10003000C90F0008000000000D37000899390008BA
:10004000BB010008BB010008BB010008BB010008A0
:10005000BB010008BB010008BB010008BB01000890
:10006000BB010008BB010008BB010008BB01000880
:10007000BB010008BB010008BB010008BB01000870
:10008000BB010008BB010008BB010008BB01000860
:100090000906000815060008BB010008BB0100089E
:1000A000BB010008413A0008BB010008BB01000881
:1000B000BB010008BB010008BB010008BB01000830
:1000C000BB010008BB010008BB010008BB01000820
:1000D000BB01000849410008BB010008BB01000842
:1000E000BB010008BB010008BB010008BB01000800
:1000F000BB010008BB010008BB010008BB010008F0
:10010000BB010008BB010008BB010008BB010008DF
:10011000BB010008BB010008BB010008BB010008CF
:10012000BB010008F50E0008010F0008BB01000824
:10013000BB010008BB010008BB010008BB010008AF
:10014000210600082D060008BB010008BB010008BD
:10015000BB0100080D0F0008190F000855410008E9
:10016000BB010008BB010008BB010008BB0100087F
:10017000BB010008BB010008BB0100080000000033
:10018000BB010008BB010008DFF810D000F0D2F876
:100190000048004765490008AFF30080D00E0020FA
:1001A0000648804706480047FEE7FEE7FEE7FEE711
:1001B000FEE7FEE7FEE7FEE7FEE7FEE7313A00086E
:1001C000890100082DE9F05F0546002092469B4614
:1001D00088460646814640241BE02846414647465D
:1001E000224600F053F853465A46C01A914110D3A4
:1001F00011461846224600F03AF82D1A67EB01081E
:100200004F4622460120002100F031F817EB00098B
:100210004E41201EA4F10104DFDC484631462A4647
:100220004346BDE8F09F40EA01039B0703D009E085
:1002300008C9121F08C0042AFAD203E011F8013BD2
:1002400000F8013B521EF9D27047D2B201E000F82B
:10025000012B491EFBD270470022F6E710B513466A
:100260000A4604461946FFF7F0FF204610BD202A33
:1002700004DB203A00FA02F1002070479140C2F1FD
:10028000200320FA03F3194390407047202A04DB2F
:10029000203A21FA02F00021704721FA02F3D040FF
:1002A000C2F120029140084319467047F0B400F0B3
:1002B000004221F0004120F00040CE0DC30DC1F3FB
:1002C000160141F40001C0F316004C42154640F4FB
:1002D0000000761E09E010EB440002D582F00042D7
:1002E00040428842F7D840005B1EB342F9DA18B1A9
:1002F000F0BC002100F039B82846F0BC7047002857
:1003000001DBC0F10040002901DBC1F10041814265
:1003100002D24FF0004004E04FF0005001D14FF006
:10032000C0404FEA2062EFF3008162F31F6181F366
:1003300000887047064C074D06E0E06840F0010376
:1003400094E8070098471034AC42F6D3FFF720FF3B
:10035000704D0008904D00080029A8BF7047401C50
:10036000490008BF20F00100704710B4B0FA80FCCB
:1003700000FA0CF050EA010404BF10BC704749B108
:10038000CCF1200421FA04F411FA0CF118BF012178
:1003900021430843A3EB0C01CB1D4FEA00614FEA58
:1003A000102042BF002010BC704700EBC350104427
:1003B0000029A4BF10BC7047401C490008BF20F0B2
:1003C000010010BC704710B500F09CF800F0CEF8AA
:1003D00000F094FE02F0D8FF00F0EEF802F002FF09
:1003E00000F0ECFC03F050FA03F012FFBDE81040FF
:1003F00000F022B970B5184C18480225217890F801
:100400002500042923D2DFE801F002050D1B01209D
:1004100020701CE0FFF7D7FF9FED110A03F08AFA66
:10042000257014E0012806D00320207002F0C6FFDA
:1004300000F0CEF80BE003F04DFF00F01DFBF5E7F8
:10044000012800D1257002F083FF00F097F8BDE885
:10045000704000F021BD0000000000206600002078
:100460000000C84270B504462DED028B056801EE10
:10047000105A30EE418AB5EEC08AF1EE10FA01DD75
:10048000A06800E0E068B0EEC80A01EE100A61EE74
:10049000200A04F029F810EE101A18EE100A00EEE7
:1004A000905A61F31E0000EE100A30EE800A10EE42
:1004B000101A2160626800EE101A00EE902AF1EE28
:1004C000600AB4EEE00AF1EE10FA04D200EE102A4F
:1004D000B1EE400A0DE000EE101A00EE902AB4EEE4
:1004E000E00AF1EE10FA02DD00EE102A01E000EE63
:1004F000101A10EE100A206000EE100ABDEC028BFC
:1005000070BD000010B5084801F002FA022106484B
:1005100000F02AFE054801F0FBF9BDE81040022179
:10052000024800F021BE0000DC0700200408002083
:1005300000B58BB0017A0591002106910121079148
:1005400030F8021F009130F8021C0191818802915D
:1005500041880391C1680491C179099101690891A9
:100560008068694600F07AFE0BB000BD014802F0D9
:10057000E1B800002C080020FEE700000C4810B590
:100580000178002913D04168B1F5FA7F0FD300211B
:100590004160001F0278012A05D00023054C246821
:1005A000E36312B102E00A23F8E70121017010BDF4
:1005B0002000002074080020034901200870082151
:1005C000024802F0BFBA000020000020740800209A
:1005D00006480178002908D04168B1F5FA7F04D3B4
:1005E0000021416002480068C1637047200000207C
:1005F0007408002003484168B1F5FA7F01D2491C14
:100600004160704720000020014800F028BF000032
:10061000DC070020014800F022BF0000DC070020BA
:10062000014800F01CBF000004080020014800F051
:1006300016BF00000408002070B5594C01202DEDB4
:10064000048B207004F10900054603F0FBF8DFED90
:10065000558AB0EE682A9FED549AF0EE491A9FED44
:10066000538AB3EE000A2846B0EE481AF0EE480A64
:1006700003F0F8F804F14200054603F0E3F8B0EEA9
:10068000682AF0EE491AB0EE481AF0EE480AB3EEC6
:10069000000A284603F0E6F804F17B00054603F063
:1006A000D1F8B0EE682AF0EE491AB0EE481AF0EE32
:1006B000480AB3EE000A284603F0D4F804F1B40067
:1006C000054603F0BFF8B0EE682AF0EE491AB0EE26
:1006D000481AF0EE480AB3EE000A284603F0C2F8C2
:1006E00004F1FD00054603F0ADF89FED319ADFED12
:1006F000338ADFED301AB0EE492A9FED2F1AF0EE63
:10070000480AB0EE680A284603F0ACF804F5997080
:10071000054603F097F8B0EE492AF0EE681AB0EEFD
:10072000481AF0EE480AB6EE000A284603F09AF896
:1007300004F26F10054603F085F89FED212AF0EED4
:10074000481AB0EE481AF0EE480AB3EE0E0A2846F0
:1007500003F088F8F0EE481A9FED1A1AF0EE480AF6
:10076000B0EE480A032104F5FA7000F0B1FB164818
:10077000C4F8C0011549C4F8C411154AC4F8BC2115
:10078000C4F8D001C4F8D411C4F8CC21C4F8E001F5
:10079000C4F8E4010F48C4F8DC01BDEC048B70BD63
:1007A000C400002000606A460000FA450000000016
:1007B00000409C4600409C450000C84300803B45EB
:1007C00000401C46CDCC4C3F00401C460000FA4582
:1007D00000007A4500803B4570B52DED088B82B056
:1007E000DFED8CAA9FED8C8A8C4CF0EE488AD4F811
:1007F000F100B0EE489A00EE100ADFED890A012000
:1008000070EE202AB0EE620A03F0AAFCB0EE40BA05
:10081000DFED849AB0EE620AF0EE690A03F088FE1A
:10082000B5EEC00AF1EE10FA01D230EE290ADFED82
:100830007E0A20EE200ADFED7D0AC0EE209AB0EE9F
:10084000690A03F0A9FDB0EE40AAB0EE690A03F010
:10085000C7FEF0EE409AF0EE480AB0EE4B0A74483C
:1008600002F056FF7349724891F82620693012B1A0
:10087000012A35D116E0D1F81920D1F8151000EE73
:10088000102AD4F8BC2100EE902A60EE608A00EEB7
:10089000101AD4F8CC1100EE901AD4F8A01120EE62
:1008A000209A15E0D1F81920D1F8151000EE102A81
:1008B000D4F8BC2100EE902A60EE608A00EE101A97
:1008C000D4F8CC1100EE901AD4F8DC1120EE209A66
:1008D00000EE101AF0EE6A0AFFF7C4FDB0EE408A8F
:1008E0005348F0EE6A0AB0EE680A4930FFF7BAFDE5
:1008F0004F48F0EE408AF0EE6A0AB0EE490A5930ED
:10090000FFF7B0FD6AEE280A4B4A49EEC00A10EE26
:10091000900A69EEA80AC4F8AC014AEE000A10EE8B
:10092000900AC4F8B00118EE100AC4F8B40100200F
:10093000D4F8AC11D4F8B03100EE101A00EB40013D
:1009400002EB8101D1ED000A91ED011A20EE200A9F
:1009500000EE903AD4F8B43100EE810A00EE903AFD
:1009600091ED021AC0EBC003C3EB8013234400EEE9
:10097000810A401C0428BDEEC00A10EE101AA3F82C
:100980000710D5DB5FF00005C5EBC500C0EB851097
:100990000619B6F9050000EE100AB6F90700F8EEE0
:1009A000C00A00EE100A06F10900B8EEC00A02F013
:1009B000AFFE10EE100A6D1CEDB2C6F83A00042D21
:1009C000E2D3D4F8E500002100EE100AD4F8AC0020
:1009D00000EE900ABDEEC00AFDEEE00ACDED000A81
:1009E0008DED010AD4F8730000EE100AD4F83A0035
:1009F000BDEEC00A10EE103A00EE100A0846BDEE39
:100A0000C00A10EE102A00F07BFB02B0BDEC088B90
:100A100070BD00000AD7233C00000000C400002085
:100A200000002C420000B443DB0F49400000344377
:100A30003302002066000020F849000830B50C4958
:100A400000200C4BD1F80A10052200BF00EB400437
:100A5000C0EBC005C5EB801502EB84040C441D44BB
:100A6000401C2488C0B2A5F805400428EED330BD50
:100A700030000020C40000200B4810B50178002988
:100A800010D0D0F801100A290CD30021C0F80110B1
:100A9000FFF7D4FF00F0CAF8FFF79EFEBDE8104054
:100AA00000F010B810BD0000C40000200448D0F8C9
:100AB00001100A2902D2491CC0F801107047000039
:100AC000C40000202DE9FC414C4D4D494D4CD5F85A
:100AD0002100D1ED010A00EE100A0A4630EE600A4C
:100AE000B2F9022010EE103AA34201DD521E05E0D9
:100AF00010EE103A444CA34201D9521C4A80B1F97D
:100B0000022000EE100A00EE902AF8EEE00A9FEDB7
:100B10003F1A3F4C002600EE810A81ED020A486030
:100B200010EE100AC4F8F1000A7812B1C4F8ED0012
:100B30000E70324995F827709FED360ADFED360AC0
:100B400091F82830D1F82A20012F07D0D1F80D10C4
:100B50009FED321A022F06D03FB10AE0012B48D098
:100B60009FED2F0A05E0012B43D000EE101A20EE76
:100B7000010A54F8ED1F00EE901A30EE800A00EEE4
:100B8000900A284810EE101A44F8041900EE101AC2
:100B900002F0BEFD10EE100ADFED230AC4F87A0061
:100BA000D5F81D1000EE101A20EE200ABDEEC00A86
:100BB00010EE101A09B200EE101A2180F8EEC00AE9
:100BC00000EE100A1748353802F0A2FD10EE100AA8
:100BD0000023C4F8450000EE100A00961946BDEE49
:100BE000C00A0120019610EE102A00F089FABDE833
:100BF000FC8100EE102A20EE200ABAE766000020F1
:100C00000400002000003443000034C30000B4435B
:100C1000C400002000000000295C0F3D9A9919BF14
:100C20006666E63EF6010020CDCCCC3DF0B5144919
:100C300000200525134C9FED141A9FED140AD1F8DE
:100C40001910012600EB400305EB83020A4406EB72
:100C500083031788C0EB801204EB42020B4422F896
:100C6000E97F1B68401C00EE903A10F0FF0060EE38
:100C7000810A60EE800A10EE903A9360E2D0F0BDF7
:100C800030000020C4000020000000390000B44300
:100C900010B502783D499FED3E0A012A2DD0022A67
:100CA0009FED3C1A43D0032A26D1427881F82920AF
:100CB000B0F90230B0F9042000EE903AB0F9060025
:100CC000F8EEE01AC1EE800A10EE903A00EE902A9B
:100CD000C1F82A30F8EEE01AC1EE800A00EE100AE0
:100CE00010EE902AF8EEC00AC1F82E2080EE810A9C
:100CF00010EE100AC1F8210010BD30F9012F00EEEE
:100D0000902AF8EEE00A10EE902A41F80D2FB0F983
:100D1000023000EE903AF8EEE00A10EE903A4B60A6
:100D200004790C7644794C76807988761FE030F926
:100D3000012F00EE902AF8EEE00A10EE902A41F81A
:100D4000152FB0F9023000EE903AF8EEE00A10EEFE
:100D5000903A4B60B0F90440807900EE904AC87434
:100D6000F8EEE01AC1EE810A10EE900A886000EEFB
:100D7000902A80EE801A00EE903A11EE100A80EE72
:100D8000801A086011EE100A486010BD660000204D
:100D900000007A440000C84200B503460888098A6A
:100DA0009B8880B289B2834201D1082901D00120F9
:100DB00000BD1046FFF76CFF002000BD0348012175
:100DC00001720021C0F8091000F002B8660000208E
:100DD00000B587B0BDF8020000F01F00ADF80200BA
:100DE00015480099014000919DF8001021F006017E
:100DF0008DF80010BDF8061001F01F01ADF80610C7
:100E00000199014001919DF8040040F006008DF821
:100E100004000E208DF8080008480068CDF80A008C
:100E20000020CDF80E000120CDF812006846FFF733
:100E30007FFB07B000BD00000700E0FF6600002058
:100E400000B587B0012306938388009300230293A3
:100E5000CDE903328DF814300A46006806AB6946C6
:100E600000F094F907B000BD1CB5002000900421EB
:100E70008DF8001001908DF80100054808226946A0
:100E800090F845008DF802000248FFF7D9FF1CBD1D
:100E90006D070020660000200648017A002908D06E
:100EA000D0F80910002904D00021C0F80910FFF77C
:100EB000DBBF7047660000200448D0F80910002905
:100EC00002D10121C0F8091070470000660000201F
:100ED00000280DD000F8011B10EE101A016010EE72
:100EE000901A416011EE101A816011EE901AC160E3
:100EF00070470000014800F099BD00000C0A002076
:100F0000014800F093BD00004C090020014800F0AA
:100F10008DBD00006C0A0020014800F087BD000074
:100F2000AC09002001681823CAB2103AB2FBF3F2F0
:100F3000054B6FF30901032A9B5CC36500D9091DAA
:100F400081650846704700002E4D000810B5014627
:100F500000208B698A6A4FF0C07453B1B3F5005F0B
:100F600015D072B1012A0CD0022A0AD0032A09D165
:100F700004E01AB1012A06D0022A03D1C96AC901C4
:100F800000D5012010BDC96AA142FAD010BD002AC7
:100F9000F7D0012AF2D0022AF3D0032AF3D010BDF1
:100FA00030B50468256825F48025256004686360F1
:100FB0008368402B036803D099600068C26030BD2D
:100FC0009A600068C16030BD7047000000B587B00E
:100FD0004FF40071BDF802004FF4FC6261F34F1052
:100FE000ADF8020014480099014000919DF80010EE
:100FF00021F006018DF80010BDF8061062F34F11C4
:10100000ADF806100199014001919DF804000B49CB
:1010100040F006008DF8040000208DF80800CDF89F
:101020000A10CDF80E000120CDF812006846FFF737
:101030007FFA07B000BD00000700E0FFDC070020DA
:10104000F0B54488038865BA848886791848C1EB6E
:101050000111084402EB420150F80A7F0B225BBAEF
:1010600002EB810200EE103ABE540368B8EE400A6B
:10107000012606EB810610EE102A64BA334424B22E
:101080001A6000EE104A0268052303EB8103B8EEF4
:10109000C00A1A44DFED070A1580006820EE200A16
:1010A000072303EB810110EE102A08440260F0BD13
:1010B000300000200000803830B514460A46014652
:1010C00010880D4AC1EB011313441D899A7B401B04
:1010D000401E80B2451C954201D9012030BDD3F895
:1010E0000A3000EB4005012203F82520C2B2204659
:1010F000FFF7A6FF002030BD30000020FFF766BFDD
:1011000070B58AB001260896C0EB00161448DDE9D8
:101110000E54304400EB4101898802910021049172
:10112000059108210691110A8DF800108DF8012013
:10113000190A8DF80210290A8DF804108DF805504F
:10114000210A8DF806108DF803308DF807400068ED
:1011500008AB6A4602A900F019F80AB070BD000099
:101160003000002072B6FEE790F82020012A07D058
:10117000022A05D0416A41F4802141620120704772
:10118000006842690A43426100207047F0B590F858
:1011900020500468A468012D05D0022D03D0416AB7
:1011A00041F4802157E014F0406F01D1E5004FD5A4
:1011B000C4F301640125A5401D608D684FF4C07320
:1011C0009DB1CE6835434E6845EAC605066803EB17
:1011D0000417F5514FF4C275076805EB04150E6945
:1011E0007E51097D012905D009E00E88CD6845EAC8
:1011F0004655EBE701684E5946F480764E51117919
:10120000D579567941EA056195792D0445EA062597
:1012100029434FF4C676056806EB0416A9511178E8
:10122000D57841EA0561957852782D0445EA022285
:1012300011434FF4C475026805EB04155151006861
:1012400003EB0411425842F0010242500020F0BD6D
:10125000416A41F4001141620120F0BD10B590F8DF
:101260002020012A07D0022A05D0416A41F48021BA
:101270004162012010BD3B48D0F8002242F001023B
:10128000C0F80022D0F8002222F47C52C0F80022DC
:10129000D0F800224B6A42EA0322C0F800220A7DFD
:1012A00002F01F0301229A40D0F81C329343C0F889
:1012B0001C32CB69B3B9D0F80C329343C0F80C326E
:1012C0008C894B6864F31F434C6900EBC404C4F879
:1012D00040320C890B6864F31F434C6900EBC40473
:1012E000C4F84432CB69012B16D1D0F80C32134329
:1012F000C0F80C320C884B6864F31F434C6900EB58
:10130000C404C4F840320C89CB6864F31F434C69B1
:1013100000EBC404C4F844328B69002BD0F80432CB
:101320000ED01343C0F804320B69002BD0F81432EE
:1013300008D01343C0F81432096A012904D008E028
:101340009343EFE79343F5E7D0F81C121143C0F83D
:101350001C12D0F8001221F00101C0F80012002088
:1013600010BD000000640040704770B590F8204048
:10137000012C05D0022C03D0416A41F4802128E0E1
:10138000046809B32469A40720D04FF4D874056811
:1013900004EB01142D5915F00405956005682D59CD
:1013A0001AD0ED08556005682C5904F00204D46089
:1013B0004FF4DA74056804EB01142E5906F00F0699
:1013C000082E0CD308250DE0E468DCE7416A41F4FF
:1013D00000114162012070BD6D0D1560E3E72D59CC
:1013E00005F00F05156105682D59C5F307259561B1
:1013F00005682C59240C54614FF4DC72046802EB2C
:101400000112A4581C700468A458240A5C70046873
:10141000A458240C9C700468A258120EDA704FF481
:10142000DE72046802EB0112A4581C710468A4580F
:10143000240A5C710468A458240C9C710468A258A6
:10144000120EDA71006829B1016941F020010161D1
:10145000002070BDC16841F02001C160F8E72DE9AE
:10146000F05F0546006800244669D0F8049087685C
:10147000D0F80CB0D0F810A0D0F81880F10748D000
:10148000F90714D001218160B80703D5284600F080
:101490006CFA0CE0780702D54FF4006407E03807D7
:1014A00002D54FF4805402E0284600F05DFAF805BA
:1014B00016D529684FF480708860B80503D5284692
:1014C00000F055FA0CE0780502D544F4005407E02A
:1014D000380502D544F4804402E0284600F046FA7C
:1014E000F80316D529684FF480308860B80303D517
:1014F000284600F03EFA0CE0780302D544F400449C
:1015000007E0380302D544F4803402E0284600F0B6
:101510002FFA300707D55FEACB6004D52968102081
:1015200044F40074C86070074FF0080707D55FEAFD
:101530000B7004D52868C760284600F0A9F9B007E9
:1015400006D52868C068800702D0284600F0A2F9B6
:10155000700607D55FEACA6004D52968102044F4F4
:1015600080640861B00607D55FEA0A7004D5286870
:101570000761284600F0C8F9F00606D5286800691A
:10158000800702D0284600F0C0F9B00308D55FEA12
:10159000C96005D5296810204860284600F0B6F9D2
:1015A000F00307D55FEA097004D52868476028462C
:1015B00000F0E0F9300446D55FEA497040D5F00507
:1015C00004D55FEAC87001D044F00104B00504D529
:1015D0005FEA887001D544F00204700504D55FEA23
:1015E000487001D544F00404300529D518F0700F77
:1015F00026D008F07000402815D006DC102809D04D
:1016000020280AD0302816D10AE050280ED06028B1
:1016100011D10EE044F008040DE044F010040AE09B
:1016200044F0200407E044F0400404E044F0800467
:1016300001E044F480742868816921F070018161BF
:10164000296804204860002C05D0686A204368623D
:101650002846FFF789FEBDE8F09F70B5040003D06F
:1016600094F8200010B104E0012070BD204600F085
:1016700081F82068016841F00101016000F060FC20
:101680000546052604E000F05BFC401B0A2811D843
:1016900020684068C007F6D02068016821F0020188
:1016A000016000F04DFC05460BE000F049FC401BDA
:1016B0000A2806D9606A40F40030606284F820602D
:1016C000D2E7206840688007EFD4207E0128206898
:1016D00001683DD021F080010160607E0128206812
:1016E000016838D021F040010160A07E0128206807
:1016F000016833D021F020010160E07E01282068DC
:1017000001682ED041F010010160207F012820687F
:10171000016829D021F008010160607F012820685C
:10172000016824D021F004010160D4E902010843DA
:10173000D4E90412114308436168491E0843216833
:10174000C86100206062012084F82000002070BD84
:1017500041F08001C0E741F04001C5E741F02001C0
:10176000CAE721F01001CFE741F00801D4E741F0CA
:101770000401D9E7F0B587B0044614216846FEF7A6
:101780006BFD3E4B3E48DFF8F0E01968D4F800C02E
:101790003B4A03250226092710300024491CF44542
:1017A0002AD11960012907D1016841F00071016057
:1017B000006800F000700590106840F008001060AC
:1017C0001068CDE9005600F00800CDE904706946C4
:1017D0002C48CDE9024500F0ADFA00221146142054
:1017E00000F01CFC142000F00BFC00221146152018
:1017F00000F014FC15203AE0DFF88CE0F44538D115
:10180000D0F800C04CF0806CC0F800C0D0F800C028
:1018100001290CF0806CCDF814C0196007D1016863
:1018200041F000710160006800F0007005901068E0
:1018300040F002001060106802AB00F0020005905A
:101840006020CDE9000683E8B00069460F4800F04B
:1018500071FA00221146402000F0E0FB402000F029
:10186000CFFB00221146412000F0D8FB412000F0C0
:10187000C7FB07B0F0BD000000640040AC000020D2
:1018800030380240000C0240006800400004024072
:101890007047000010B50446164888B0844212D143
:1018A000154B6A4600212046FFF75FFD08B1FFF7A0
:1018B00059FC114A69460020FFF7FEFB0E4A6946B3
:1018C0000120FFF7F9FB0D48844211D10C4B6A4609
:1018D00000212046FFF749FD08B1FFF743FC084A05
:1018E00069460848FFF758FA0549684601F0ECFFD9
:1018F00008B010BDDC0700209A000020040800207A
:10190000A20000206600002070477047704700006A
:1019100070B5044690F82000012804D0606A40F4B5
:101920000020606218E0022084F82000206801682E
:1019300021F00101016000F003FB05460EE000BF4D
:1019400000F0FEFA401B0A2808D9606A40F4003013
:101950006062052084F82000012070BD2068406886
:10196000C007EDD1606270BD704770477047704727
:101970007047704770472DE9F0410446876D00F0CD
:10198000DFFA064694F835000025022806D08020AC
:10199000606584F834500120BDE8F081206801685A
:1019A00021F0160101602068416921F08001416148
:1019B000206C08B9A06C20B12068016821F00801F2
:1019C00001602068016821F0010101600CE000F075
:1019D000B7FA801B052807D920206065032084F80A
:1019E000350084F83450D7E720680068C007EED18E
:1019F00094F85C103F208840B860012084F83500DE
:101A000084F834500020C7E790F83510022903D03D
:101A10008021416501207047052180F8351000685C
:101A2000016821F001010160002070472DE9F843B1
:101A300004464FF00009CDF8009063484FF416516A
:101A4000A56D0068B0FBF1F72E6894F85C100820D3
:101A500000FA01F131420FD021680A6852070BD514
:101A60000A6822F004020A6094F85C108840A860BA
:101A7000606D40F00100606594F85C104FF0010863
:101A800008FA01F0304208D021684969090604D5F6
:101A9000A860606D40F00200606594F85C1004205E
:101AA0008840304208D021680968890704D5A860B9
:101AB000606D40F00400606594F85C101020884070
:101AC000304218D021680968090714D5A860206839
:101AD0000168490304D50068000308D5A16C07E03C
:101AE0000168C90503D4016821F008010160216C77
:101AF00009B12046884794F85C1020208840304285
:101B000031D021680968C9062DD5A86094F8350040
:101B100005282068016806D0490347D500680003FE
:101B20001DD4616C1CE021F0160101602068416940
:101B300021F080014161206C08B9A06C20B12068BF
:101B4000016821F00801016094F85C103F20884092
:101B5000A86084F8358084F83490216D1FE0E16B33
:101B600009B120468847606D00282BD0606DC00702
:101B700014D0052084F835002068016821F00101A7
:101B800001600098401C0090B84203D820680068AB
:101B9000C007F6D184F8358084F83490E16C0029D0
:101BA00010D001B02046BDE8F04308470168C905E0
:101BB000D5D4016821F01001016084F8358084F8E3
:101BC0003490CCE7BDE8F883BC0000202DE9F0415B
:101BD000044600F0B5F906465CB1022084F83500F1
:101BE000002584F834502068016821F0010101606B
:101BF0000DE00120BDE8F08100F0A2F9801B05286E
:101C000005D920206065032084F83500F2E72068BC
:101C10000068C007F0D12268116820480140D4E96B
:101C200001031843D4E90336334318436369184367
:101C3000A3691843E3691843236A18430843616A98
:101C4000042903D1D4E90B13194308431060206819
:101C50004069666A20F0070130460E4301270428D8
:101C60000CD1A06A0643E06A40B12046FFF76EF946
:101C700020B14020606584F83570BAE7206846617D
:101C80002046FFF74FF994F85C203F219140816096
:101C9000656584F835700020ACE700003F8010F0E7
:101CA0002DE9F0410446866D90F8340000250128A6
:101CB0000DD0012084F8340094F835700020012FF5
:101CC00007D084F8340002252846BDE8F0810220C0
:101CD000FBE7022784F8357060652046FFF760F95E
:101CE00094F85C103F208840B0602068016841F0A3
:101CF00016010160206C20B12068016841F00801E4
:101D000001602068016841F001010160DCE700002A
:101D100070B5044600F014F90546601C02D0044872
:101D20000078044400F00CF9401BA042FAD370BDC7
:101D3000B00000202DE9F84FDFF8BCA100220125FA
:101D400003264FF00F090AF1040BAAF1040E00BF9D
:101D50000B6805FA02F42340A34270D10F7907F013
:101D60000307012F01D0022F16D187684FEA4208DE
:101D700006FA08FC27EA0C07D1F80CC00CFA08FC9C
:101D80004CEA070CC0F808C04768A7430C79C4F3B5
:101D9000001494403C4344600C79E443A4070AD007
:101DA000C4684FEA420C06FA0CF7BC438F6807FA86
:101DB0000CF72743C7600C7904F00304022C12D1FE
:101DC000D40800EB840CDCF820405707FF0E09FA1A
:101DD00007F824EA0804D1F8108008FA07F848EA5E
:101DE0000408CCF8208004684FEA420C06FA0CF78D
:101DF000BC430F7907F0030707FA0CF72743076086
:101E00004C6814F4403F70D03C4C276847F480473E
:101E10002760246822F0030704F480440094384CBF
:101E200007EB040CDCF8084897074FEA177809FA23
:101E300008F7BC43334FB84202D1002724E054E0F6
:101E4000314FB84201D101271EE0304FB84201D1D5
:101E5000022719E02E4FB84201D1032714E02D4F7D
:101E6000B84201D104270FE02B4FB84201D105271A
:101E70000AE02A4FB84201D1062705E0284FB842B0
:101E800001D1072700E0082707FA08F72743CCF815
:101E90000878DAF800405746D1F804C09C435FEA5E
:101EA000CC2C00D51C433C60DBF800405F46D1F8E9
:101EB00004C09C435FEA8C2C00D51C433C60DEF8D8
:101EC00000407746D1F804C09C435FEA8C3C00D5C3
:101ED0001C433C60084F083F3C68D1F804C09C4359
:101EE0005FEACC3C00D51C433C60521C102AFFF436
:101EF0002FAFBDE8F88F0000083C01404438024095
:101F0000003001400000024000040240000802408E
:101F1000000C024000100240001402400018024071
:101F2000001C0240426921EA02030A4043EA0241DE
:101F3000816170470AB1816170470904FBE70000C5
:101F40000148806870470000B000002002488168A6
:101F50000278114481607047B00000200B4810B532
:101F6000016841F400710160016841F48061016021
:101F7000016841F480710160032000F06FF80F20C8
:101F800000F006F800F024F8002010BD003C0240EC
:101F900070B50D4D04464FF47A712878B1FBF0F01E
:101FA0000A490968B1FBF0F000F00CFB48B9102CAD
:101FB00007D200222146501E00F030F800206C604D
:101FC00070BD012070BD0000B0000020BC000020EA
:101FD0000A4808B5016841F480410160006800F4D6
:101FE000804000900548001F016841F08051016069
:101FF000006800F08050009008BD000044380240A6
:10200000002809DB00F01F020121914040098000F7
:1020100000F1E020C0F8001170470000F0B40E4B52
:102020001B680C46C3F30223C3F10705042D00D936
:102030000425191D072901D2002300E0DB1E01261B
:1020400006FA05F1491E214099409E40761E164031
:102050003143F0BC02F08FB90CED00E0064900F00E
:10206000070208684FF6FF03184040EA0220034ABF
:1020700010430860704700000CED00E00000FA0516
:102080002DE9F0470E46050065D0DFF81481D8F839
:102090000000F7B200F00700B04207D288F80070E5
:1020A000D8F8000000F00700B04254D128683D4C39
:1020B000810712D5400703D5206840F4E050206026
:1020C0002878000703D5206840F46040206020682D
:1020D000A96820F0F000084320602878C0072DD0C0
:1020E000304968680839012812D0022813D0032823
:1020F00011D00968890700292DDA216821F0030130
:1021000001432160FFF71CFF814641F2883A0EE04F
:1021100009688903EFE709688901ECE7FFF710FF19
:10212000A0EB0901514502D90320BDE8F0872068E2
:10213000696800F00C00B0EB810FEFD1D8F8001007
:10214000404601F00701B14207D90770006800F06E
:102150000700B04201D00120E7E72878400705D505
:102160002068E96820F4E0500843206028780007E0
:1021700006D52068296920F4604040EAC10020604B
:1021800000F038F82168084AC1F30311515CC840D7
:102190000649086006480068FFF7FAFE0020C4E719
:1021A000003C024008380240364D0008BC000020C8
:1021B000B40000200448054900680968044AC1F3D6
:1021C0008221515CC8407047BC00002008380240A2
:1021D000464D00080448054900680968044AC1F3EF
:1021E0004231515CC8407047BC00002008380240B2
:1021F000464D0008154810B5006810F00C02144850
:1022000013D01449042A0FD0082A0ED10F4C241FD2
:102210002268236802F03F025B0207D52068C0F302
:102220008810A0FB010106E0084610BD2168C1F33B
:102230008811A1FB00010023FDF7C4FF2168C1F351
:102240000141491C4900B0FBF1F010BD08380240C3
:102250000024F400001BB7002DE9F84F04006ED0F5
:102260002078DFF84C93C007A9F104054AD009F1A2
:1022700004000168C1F38101012908D00068C0F39E
:10228000810002280AD1D9F80000400206D528684A
:10229000800337D560680028E1D033E06068B0F58E
:1022A000803F10D0B0F5A02F286810D020F48030E7
:1022B0002860286820F4802028606068A8B1FFF7B3
:1022C0003FFE06460DE0286840F48030F4E740F415
:1022D00080202860F7E700BFFFF732FE801B6428EC
:1022E00073D828688003F7D50CE0FFF729FE06466F
:1022F00005E000BFFFF724FE801B6428F0D82868A3
:102300008003F7D42078DFF8AC8280074FF0000A12
:102310003ED5A748001D016811F00C0F08D00068D9
:10232000C0F3810002280BD1D9F80000400207D485
:102330002868800716D5E068012800D112E033E153
:10234000E068B8B10120C8F80000FFF7F9FD0646C3
:1023500005E000BFFFF7F4FD801B0228C0D8286805
:102360008007F7D52868216920F0F80040EAC1000D
:1023700028600DE0C8F800A0FFF7E2FD064604E083
:10238000FFF7DEFD801B02281FD828688007F7D4DE
:102390002078000722D5864F87486169703771B170
:1023A00001210160FFF7CCFD064604E0FFF7C8FD00
:1023B000801B022809D838688007F7D50EE0C0F8DE
:1023C00000A0FFF7BDFD064605E082E0FFF7B8FD7F
:1023D000801B02287DD838688007F7D42078400712
:1023E00068D5DFF8CCB100270BF13C0BDBF800001F
:1023F000C0000BD4DBF8001041F08051CBF8001086
:10240000DBF80000012700F0805000906B4E306830
:10241000C00510D4306840F480703060FFF790FD44
:10242000009005E0FFF78CFD0099401A022850D873
:102430003068C005F6D55E4EA0686C3601280FD016
:102440000528306810D020F001003060306820F09E
:1024500004003060A068B8B1FFF772FD00900FE093
:10246000306840F00100F4E740F004003060F7E726
:10247000FFF766FD0099411A41F28830814266D823
:1024800030688007F4D50EE0FFF75AFD009007E0B2
:10249000FFF756FD0099411A41F28830814256D823
:1024A00030688007F4D42FB1DBF8001021F08051A0
:1024B000CBF80010A069C8B33D49091D0968C1F3F4
:1024C000810102294AD00228504607D0C8F860008E
:1024D00000E03CE0FFF734FD04463BE04746C8F827
:1024E0006000FFF72DFD064605E000BFFFF728FD61
:1024F000801B02282BD828688001F7D4D4E9070173
:102500000843A16A2E4A490802EB0141626A41EA86
:102510008211084394F82C1040EA0161C9F80010B8
:1025200001203866FFF70CFD044606E03EE000BFE0
:10253000FFF706FD001B022809D828688001F7D59F
:1025400034E000BFFFF7FCFC001B022802D9032087
:10255000BDE8F88F28688001F4D427E00128F7D07F
:10256000D9F80000E26900F4800191421CD1226A8E
:1025700000F03F01914217D147F6C071626A0140F5
:10258000B1EB821F10D1A26A4FF0FF3300F440314B
:1025900003EB5202B1EB024F06D194F82C1000F07D
:1025A0007060B0EB016F01D00120D1E70020CFE7D0
:1025B0000438024000004742800E4742007000404D
:1025C0000000FFFF10B5401EB0F1807F01D3012055
:1025D00010BD4FF0E02460610F21601701F0CBFEC9
:1025E0000020A06107202061002010BD70477047C7
:1025F00070B590F83C20012A32D0012480F83C408C
:10260000022280F83D2003685A689D6822F0700617
:102610000A6832435A60134B02689A4214D0B2F1EE
:10262000804F11D0104B9A420ED0104B9A420BD0D3
:102630000F4B9A4208D00F4B9A4205D00E4B9A424C
:1026400002D00E4B9A4204D1496825F08003194309
:10265000916080F83D40002180F83C10084670BD34
:10266000022070BD0000014000040040000800404E
:10267000000C0040000401400040014000180040F0
:1026800010B5040003D094F83D0010B107E001201C
:1026900010BD002084F83C00204600F01FF8022006
:1026A00084F83D00211D206801F0D0F9012084F854
:1026B000460084F83E0084F83F0084F8400084F827
:1026C000410084F8420084F8430084F8440084F810
:1026D000450084F83D00002010BD000008B50068EA
:1026E0001149884212D11148016841F0010101608D
:1026F0000068002200F00100009011461920FFF749
:102700008DFCBDE808401920FFF77ABC08498842D3
:1027100009D10648001F016841F00401016000680A
:1027200000F00400009008BD000001404438024061
:102730000008004090F83D10012901D001207047A9
:10274000022180F83D100168CA6842F00102CA60A7
:1027500000681149884214D0B0F1804F11D00F4960
:1027600088420ED00E4988420BD00E49884208D0CC
:102770000D49884205D00D49884202D00C49884253
:1027800004D1816801F00701062903D0016841F0F6
:10279000010101600020704700000140000400407A
:1027A00000080040000C00400004014000400140CF
:1027B0000018004070B5044690F83C000025012840
:1027C00017D0012684F83C60022084F83D00206880
:1027D000826822F0770222F47F42826008685028E3
:1027E00038D00DDC20284FD005DC90B3102811D153
:1027F0004AE0022070BD302846D040280AD13BE094
:1028000060282FD070280DD0B0F5805F03D0B0F5D0
:10281000005F12D0012584F83D60002084F83C0060
:10282000284670BDCB68D1E90121206801F083F909
:102830002068816841F0770109E0CB68D1E9012186
:10284000206801F078F92068816841F48041816056
:10285000E1E719E0CA684968206801F041FA5021AF
:10286000206806E0CA684968206801F04AFA6021D9
:10287000206801F06AF9CEE7CA684968206801F06B
:102880002FFA40212068F4E7226801461046F0E75D
:1028900070472DE9F04104460068C66805694FF0AD
:1028A0000007A90713D5B10711D5F91E0161012051
:1028B0002077206880698007204602D0FFF7E8FF74
:1028C00004E000F0A9F8204600F03BF927776807FC
:1028D00016D5700714D521686FF004000861022036
:1028E00020772068806910F4407F204602D0FFF7EF
:1028F000CFFF04E000F090F8204600F022F927779F
:10290000280715D5300713D521686FF00800086136
:10291000042020772068C0698007204602D0FFF796
:10292000B7FF04E000F078F8204600F00AF92777B6
:10293000E80616D5F00614D521686FF0100008617E
:10294000082020772068C06910F4407F204602D01C
:10295000FFF79EFF04E000F05FF8204600F0F1F87A
:102960002777E80708D0F00706D021686FF001004C
:102970000861204600F04AF9280608D5300606D539
:1029800021686FF0800008612046FFF72FFE68067F
:1029900008D5700606D521686FF040000861204612
:1029A00000F04AF9A8060AD5B00608D521686FF0EC
:1029B000200008612046BDE8F041FFF718BEBDE8E1
:1029C000F081000010B586B0044614216846FDF77A
:1029D00043FC0E492068884215D10D480021026849
:1029E00042F008020260006800F0080005904FF411
:1029F000804000900220CDE90101CDE90310694635
:102A00000448FFF797F906B010BD00000008004029
:102A100030380240000C0240704770B5044690F810
:102A20003C0000260D4601280FD0012084F83C0010
:102A30006AB1042A1DD0082A2FD00C2A3FD00126C3
:102A4000002084F83C00304670BD022070BD206834
:102A500001F084F82068816941F0080181612068F3
:102A6000816921F004018161206881692A6911432B
:102A700011E0206801F0A2F82068816941F400614A
:102A800081612068816921F48061816120688169A8
:102A90002A6941EA02218161D2E7206801F0C4F885
:102AA0002068C16941F00801C1612068C16921F055
:102AB0000401C1612068C1692A69114311E02068DD
:102AC00001F0E6F82068C16941F40061C161206845
:102AD000C16921F48061C1612068C1692A6941EA44
:102AE0000221C161ACE710B5040003D094F83D00A9
:102AF00010B107E0012010BD002084F83C00204602
:102B000000F01EF8022084F83D00211D206800F02E
:102B10009DFF012084F8460084F83E0084F83F00C1
:102B200084F8400084F8410084F8420084F84300AF
:102B300084F8440084F8450084F83D00002010BD6E
:102B40007047704710B50446022249B104290ED0DF
:102B5000082913D094F84100012816D0012010BD97
:102B600094F83E000128F9D184F83E200FE094F853
:102B70003F000128F2D184F83F2008E094F840009B
:102B80000128EBD184F8402001E084F841200122A3
:102B9000206800F0C3FF16492068164A884201D019
:102BA000904203D1436C43F400434364206888425D
:102BB00013D0B0F1804F10D00F4988420DD00F498B
:102BC00088420AD00E49884207D0904205D00D496C
:102BD000884202D00C49884204D1816801F0070183
:102BE000062903D0016841F001010160002010BDF9
:102BF00000000140000401400004004000080040C3
:102C0000000C0040004001400018004010B5006872
:102C1000084988420DD1FDF749FF01F08DFB00F016
:102C2000EBFBFDF7E7FC00F0F7FABDE81040FEF71C
:102C300043B910BD00000140704738B5044690F814
:102C40004200202801D0022038BD51B14AB10120F4
:102C5000206300206063204601F026FA216B0129E1
:102C600001D0012038BD21680A68496800912168B7
:102C70000C3151E8002F42F0100241E80023002BF4
:102C8000F5D138BD10B50C460649884209D0064931
:102C9000884206D100F00CFEE1B2BDE8104000F021
:102CA0000BBE10BDBC0800200409002070470000C6
:102CB000F8B5016804460868CA684B6910F00F0F40
:102CC0004FF0000559D003F0010602F49077374326
:102CD00065D0C10705D0D10503D5616C41F0010174
:102CE0006164410705D5D90703D0616C41F0020149
:102CF0006164810705D5D90703D0616C41F00401F7
:102D00006164010707D502F02001314303D0616CF3
:102D100041F008016164616C00293AD0800604D555
:102D2000900602D5204601F0D7F820684069616C12
:102D3000C0F38010090700D460B3204601F097F873
:102D400020684069400621D52068143050E8001FF3
:102D500021F0400140E80012002AF5D1E06BA8B153
:102D600072490165E06BFEF74FFE002811D0E06B61
:102D7000016D01B0BDE8F040084783060FD593060A
:102D80000DD52046BDE8F84001F0A6B82046FFF773
:102D90008DFFF8BD2046FFF789FF6564F8BD266BFF
:102DA0002023012E7ED1C6067CD5D6067AD50868AA
:102DB0004868009048694FF0020640064DD5E26B26
:102DC000106840684FF480770004000C3AD0A18D61
:102DD000814237D9E085D069B8422DD020680C30C7
:102DE00050E8001F21F4807140E80012002AF5D15C
:102DF0002068143050E8001F21F0010140E8001263
:102E0000002AF5D12068143050E8001F21F040015D
:102E100040E80012002AF5D184F84230256320688A
:102E20000C3050E8001F21F0100140E80012002A89
:102E3000F5D1E06BFEF79FFD6663A08DE18D401A32
:102E400081B206E0A18D8142A8D1D069B842A5D156
:102E500066632046FFF716FFF8BDA08DE18D401A8E
:102E600081B2E08D0028F7D00029F5D020680C3021
:102E700050E8002F22F4907240E80027002FF5D18F
:102E80002068143050E8002F22F0010240E80027AB
:102E9000002FF5D184F84230256320680C3050E8CB
:102EA000002F00E006E022F0100240E80023002B93
:102EB000F3D1CDE705062BD5150629D594F84100A9
:102EC0002128C9D1A068B0F5805F01D12069B0B1D7
:102ED000206A411C2162216800784860E08C401E15
:102EE0000004000CE084B7D12068C16821F08001A3
:102EF000C1602068C16841F04001C160F8BD206A2E
:102F00000088C0F308004860206A801C2062E5E762
:102F10004006F3D55006F1D5CA68204622F040029B
:102F2000CA6084F8413000F059F9F8BD273D000827
:102F300070B5040004D094F84100002510B106E0FB
:102F4000012070BD84F84050204600F023F8242072
:102F500084F841002068C16821F40051C160204616
:102F600001F01CF82068016921F49041016120689A
:102F7000416921F02A0141612068C16841F4005192
:102F8000C1606564202084F8410084F842006563D4
:102F9000002070BD2DE9F04786B004461421684634
:102FA000FDF75AF96348624B2268624914380226D9
:102FB000032700254FF0400A4FF480699A4260D100
:102FC0000A6842F010020A60096801F010010591D8
:102FD000016841F002010160016801F00201059100
:102FE000016841F001010160006802AA00F00100DF
:102FF00005908020CDE900064FF0070882E8A00187
:1030000069464D48FEF796FE3002CDE9000602AA59
:10301000694682E8A0014948FEF78CFE494E4848BF
:103020004FF000683060C6E90185C6E90359756153
:10303000B561F56135624F4630467562FEF7C6FDF3
:1030400008B1FEF78FF8E663B4633E4E3C48603645
:103050007830C6E903577561B561F561356275620F
:1030600086E801053046FEF7B1FD08B1FEF77AF8B3
:10307000A663002211462520B463FEF7CFFF25206A
:1030800051E0314B9A4250D10A6842F020020A6066
:10309000096801F020010591016841F040010160DB
:1030A0000068029500F0400005904FF48440CDE99F
:1030B00000060820CDE9037069462448FEF73AFE71
:1030C000204E1F48C036183830604FF02068C6E9DF
:1030D0000185C6E903597561B561F56135624F46F1
:1030E00030467562FEF772FD08B1FEF73BF8E66305
:1030F000B463174E1248C6E903577561B561F561AF
:1031000035626030756286E801053046FEF75EFD87
:1031100008B1FEF727F8A663002211464720B463E2
:10312000FEF77CFF4720FEF76BFF06B0BDE8F08797
:1031300000100140443802400004024000000240F8
:10314000406402404C090020001401400018024075
:103150006C0A00207047704770B5044690F8410033
:10316000202801D0022070BD01B3FAB12162A284EF
:10317000E28400206064212384F84130A56B144B65
:10318000EB63A56B134B2B64A56B134BEB64A36B29
:10319000186520681346A56B021D2846FEF780FDC2
:1031A00030B110206064202084F84100012070BDFF
:1031B00021686FF0400008602068143050E8001F5C
:1031C00041F0800140E80012002AF5D1002070BDD6
:1031D000233E0008653E0008353D000870477047F3
:1031E000FEE70000094910B5012001F8010B00209D
:1031F00041F8040B4FF480720548FFF71EFD0548A7
:103200000068016821F00801016010BD120500206E
:10321000BC0800204C0900200448D0F801100A29FD
:1032200002D2491CC0F801107047000012050020AE
:1032300070B50446002C6FD0444D2068C5F80600D8
:103240002079A8722078A5287FD10521204601F099
:10325000BEFB6E1E012871D161782046093101F054
:103260009CFB01286AD1B4F8050040F20322B0812A
:10327000A0F2032190423FD015DC40F20112A0F2EF
:103280000111904229D006DC012817D002281CD059
:10329000032853D11CE0B1F5807F23D0A1F58071C4
:1032A00001394BD123E0042937D004DC01292AD08D
:1032B000032943D12CE0052940D138E0B4F80700B8
:1032C000A5F80D00607AE87338E0E079287635E0FB
:1032D0001E482022E11D193012E0D4F80700C5F87D
:1032E00029002BE019480D22E11D2D3008E0174878
:1032F0001022E11D3A3003E014481022E11D48304D
:10330000FCF791FF1AE0D4F8070045F8540F08E0E5
:10331000E07985F85B0011E017E0D4F8070045F884
:103320005C0FB4F80B00A880607BA87106E0D4F8AD
:10333000070045F8630FB4F80B00A8803089093402
:10334000015DA52901D1044474E770BD6E0700201A
:103350000B4810B50178002911D0416864290ED3BB
:1033600000214160074C0A464FF400612046FEF7F9
:10337000E1FDA1142046BDE81040FEF7D3BD10BD0D
:1033800028000020001C024010B50A4901200A4C08
:103390000870810200222046FEF7CCFD0022E114D5
:1033A0002046FEF7C7FD0022A1142046BDE81040CC
:1033B000FEF7C0BD28000020001C02400C4810B5DC
:1033C0000178002912D0416864290FD3002141609F
:1033D000084C0A464FF480512046FEF7ABFD2046CC
:1033E0000122BDE81040D102FEF7A4BD10BD0000CF
:1033F00028000020001C024003484168642901D2D3
:10340000491C416070470000280000200F4810B59B
:103410000D4901600721416000214FF48032816035
:10342000C0E9031252014261017641768176C1768C
:1034300001774177FEF711F9002803D0BDE810406D
:10344000FDF790BE10BD000000640040DC070020C6
:103450000F4810B50D4901600721416000214FF46C
:1034600080328160C0E9031252014261017601227B
:1034700042768176C27601774177FEF7EEF8002832
:1034800003D0BDE81040FDF76DBE10BD00680040E0
:1034900004080020154808B5016841F48001016066
:1034A0000068002200F48000009011463920FEF7E9
:1034B000B5FD3920FEF7A4FD002211463A20FEF7A3
:1034C000ADFD3A20FEF79CFD002211464520FEF797
:1034D000A5FD4520FEF794FD002211464620FEF78B
:1034E0009DFDBDE808404620FEF78ABD3038024009
:1034F00070B586B014216846FCF7AEFE2248002461
:10350000016841F002010160016801F002010591CA
:10351000016841F040010160016801F0400105913E
:10352000016841F001010160016801F001010591AC
:10353000016841F008010160016801F0080105918E
:10354000016841F004010160016801F00401059186
:10355000016841F08001016000680C4E00F08000BD
:103560004FF4E0550590002229463046FEF7E2FC74
:1035700001200095CDE90104694630460394FEF729
:10358000D9FB06B070BD000030380240001C02407C
:1035900010B586B000241848009401940294039456
:1035A0000494144905940160A721C0E901144FF463
:1035B0007A71C0E903148021C0E90541FFF760F882
:1035C00008B1FDF7CFFD4FF48050009069460A48DE
:1035D000FFF7F0F808B1FDF7C5FD049404A906480B
:1035E0000594FFF705F8002801D0FDF7BBFD06B0F4
:1035F00010BD0000000001402C08002010B58EB066
:1036000000240794089409940A940B941C2168469A
:103610000C94FCF721FE1F481D4901601521C0E9EB
:10362000011440F2E731C0E9031480218161FFF702
:1036300027F808B1FDF796FD4FF48050079007A9D1
:103640001448FFF7B7F808B1FDF78CFD1148FFF7F4
:103650004AFA08B1FDF786FD0B940BA90D480C94AE
:10366000FEF7C6FF08B1FDF77DFD6020CDE900043F
:10367000022002900822694604940648FFF7CDF91B
:1036800008B1FDF76FFD0348FFF79CF90EB010BDC0
:1036900000080040740800200C4810B50A49016079
:1036A0004FF4E1314160002181600C22C160C0E92A
:1036B00004128161C161FFF73BFC002803D0BDE823
:1036C0001040FDF74FBD10BD00100140BC080020A8
:1036D0000C4810B50A4901604FF4E1314160002106
:1036E00081600C22C160C0E904128161C161FFF7F1
:1036F0001FFC002803D0BDE81040FDF733BD10BD0E
:103700000014014004090020FEE7FEE770470000B6
:1037100010EE101A10EE902A10B500EE101A00EEFE
:10372000902AC0F81D10C0F8212030EE600AD0F8B1
:103730001530C0F8193010EE102AC0F81520D0F856
:10374000011000EE102A00EE901A20EE800A10EE12
:10375000104A00EE102AC0F82540D0F8291000EEDB
:10376000901AD0F8051001EE101A41EE000A00EE92
:10377000102A10EE901A00EE903AC0F82910D0F8F6
:10378000092070EE600A00EE102A20EE800A00EE9A
:10379000901A10EE103AC0F82D30D0F80D2000EE3F
:1037A000102AF4EEC00AF1EE10FA02DDC0F829206A
:1037B00012E000EE902A00EE101AF1EE600AB4EE6C
:1037C000E00AF1EE10FA07D200EE102AB1EE400A3C
:1037D00010EE101AC0F82910D0F8291000EE104A87
:1037E00000EE901A70EE200A00EE103A30EE800AD9
:1037F00010EE102AC0F83120D0F8111000EE102A77
:1038000000EE901AB4EEE00AF1EE10FA03DD00BF0C
:10381000C0F8311011E000EE901A00EE102AF1EE1F
:10382000600AB4EEE00AF1EE10FA06D200EE101AC9
:10383000B1EE400A10EE101AEAE7D0F8310000EEBF
:10384000100A10BD002140F8011F41608160C16075
:10385000016141618161C161016241628162C16254
:103860000163704710EE101A40F8011F10EE901A15
:10387000416011EE101A816011EE901AC16012EED3
:10388000101A01617047000010B5FF220549064873
:10389000FFF7D3F905480068016821F008010160CD
:1038A00010BD00006E060020040900200C0A002054
:1038B000004870476E06002010B5FFF7B9FCBDE860
:1038C0001040FFF7E1BF704710B50068A0F5007227
:1038D000113A2AD108884B8800EE100A8A88C988D4
:1038E000B8EE401A9FED110A1148C1EE000A10EE21
:1038F000904A00EE903A8460B8EE601AC1EE000A79
:1039000010EE903A00EE902AC360B8EE601AC1EE55
:10391000000A10EE902A00EE901A0261B8EE601ACA
:10392000C1EE000A10EE901A416110BD0000C842BD
:103930004E00002000B589B001200021CDE906101D
:1039400010EE100A114A1044B0F1897F02D901200B
:1039500009B000BDDFED0E0A07AB20EE200ABCEE79
:10396000C00A10EE100A020A8DF818208DF819000E
:1039700008488288009208220291CDE9031200686B
:1039800006AA6946FDF702FCE2E70000000010BE4F
:103990000000C8424E000020FEF7D8BA30B593B000
:1039A00030216846FCF758FC14210CA8FCF754FCA5
:1039B0001D480025016841F080510160006800F059
:1039C000805011901948016841F4804101600068FD
:1039D000022400F480401190012000900004019026
:1039E0008001CDE9064006200890A820CDE9090411
:1039F00004200B906846FEF72FFC08B172B6FEE774
:103A00000CA90F2081E831004FF4A0500F904FF423
:103A10008050109005210CA8FEF732FB002801D041
:103A200072B6FEE713B030BD40380240007000406F
:103A30000248016841F470010160704788ED00E0C0
:103A40000148FEF726BF00002C080020F0B50268F0
:103A5000274B284D284E294F294C4FF0804C984237
:103A600009D0604507D0A84205D0B04203D0B84283
:103A700001D0A04204D122F0700E4A6842EA0E0240
:103A800098421BD0604519D0A84217D0B04215D03B
:103A9000B84213D0A04211D01A4DA8420ED01A4DF0
:103AA000A8420BD0194DA84208D0194DA84205D004
:103AB000184DA84202D0184DA84203D122F44075F7
:103AC000CA682A434D6922F080022A438D68C56284
:103AD0000D688562984201D0A04201D10969016355
:103AE000016841F004010160012141610260F0BD03
:103AF000000001400004004000080040000C0040AD
:103B000000040140004001400044014000480140E1
:103B100000180040001C00400020004010B501F0DB
:103B20001F030121046A99408C430462016A9A4090
:103B30001143016210BD10B5846842EA032224F4E7
:103B40007F440A432243826010BD826822F07002E3
:103B50000A4342F00701816070470000F0B5036A34
:103B6000026A22F00102026242688469124E24F065
:103B700073050C682C4323F002058B682B430D4D15
:103B8000A84201D0B04205D123F00807CB683B43DF
:103B900023F00403A84201D0B04205D14D6922F4BC
:103BA000407215438A692A434260846149684163CF
:103BB0000362F0BD0000014000040140F0B5026A5C
:103BC000036A23F010030362436884690D6824F4D8
:103BD000E64444EA05248D6822F0200242EA0512F8
:103BE0000F4D104EA84201D0B04206D1CF6822F04E
:103BF000800242EA071222F04002A84201D0B042FD
:103C000007D14D6923F4406343EA85038D6943EA94
:103C1000850343608461496881630262F0BD0000EE
:103C20000000014000040140F0B5026A036A23F479
:103C3000807303624368C46922F4007224F0730540
:103C40000C68124E2C438D6842EA05220E4DA842A4
:103C500001D0B04206D1CF6822F4006242EA0722C6
:103C600022F48062A84201D0B04207D14D6923F40A
:103C7000405343EA05138D6943EA05134360C46169
:103C80004968C1630262F0BD0000014000040140C8
:103C900030B5046A026A22F4805202624268C36943
:103CA0000D6823F4E64343EA05238D6824F40054A9
:103CB00044EA0534084DA84202D0084DA84204D178
:103CC0004D6922F4804242EA85124260C36149682C
:103CD0000164046230BD00000000014000040140A6
:103CE00010B5036A046A24F001040462846924F0B4
:103CF000F00444EA021423F00A020A4384610262D7
:103D000010BD10B5036A046A24F0100404628469CB
:103D100023F0A00324F4704444EA023243EA011180
:103D20008261016210BD10B5806B0021C185FEF774
:103D3000BDFF10BD70B5846B2068406994F84110D8
:103D4000C0F3C0100025212904D118B1E584204614
:103D500000F0B4F82068406994F84210C0F3801075
:103D6000222904D118B1E585204600F080F8606C66
:103D700040F0100060642046FEF798FF70BD10B55B
:103D80000146806B096809684FF00002C9052ED40E
:103D9000C28501680C3151E8003F23F4807341E88B
:103DA0000034002CF5D10168143151E8003F23F0B4
:103DB000010341E80034002CF5D10168143151E8C9
:103DC000003F23F0400341E80034002CF5D12021CE
:103DD00080F84210016B012909D101680C3151E8CA
:103DE000003F23F0100341E80034002CF5D142637A
:103DF000016B012902D0FFF7ADF910BD818DFEF7EF
:103E000041FF10BD10B5806B01214163016B012999
:103E100002D0FFF7A0F910BD818D4908FEF732FFEF
:103E200010BD10B50146806B09680968C90516D434
:103E30000021C1840168143151E8002F22F0800272
:103E400041E80023002BF5D101680C3151E8002F27
:103E500042F0400241E80023002BF5D110BDFFF7EE
:103E6000BDF910BD10B5806BFFF7B9F910BD016841
:103E70000C3151E8002F22F4907241E80023002B0E
:103E8000F5D10168143151E8002F22F0010241E818
:103E90000023002BF5D1016B012909D101680C31F8
:103EA00051E8002F22F0100241E80023002BF5D149
:103EB000202180F8421000210163704701680C3115
:103EC00051E8002F22F0C00241E80023002BF5D179
:103ED000202180F84110704708B590F8421022293F
:103EE00001D0022008BD82684FF480539A4201D16C
:103EF000016921B1816A9A421BD04AB10AE0026885
:103F0000816A5268C2F308020A80816A891C08E04B
:103F1000026972B10268526802F07F020A70816A17
:103F2000491C8162C18D491E0904090CC18503D059
:103F30001BE002685268F1E70168CA6822F02002BB
:103F4000CA600168CA6822F48072CA6001684A695E
:103F500022F001024A61202180F8421000214163D1
:103F6000026B012A03D0FFF7F5F8002008BD0163BA
:103F700001680C3151E8002F22F0100241E80023C3
:103F8000002BF5D101680A68D20602D50A68496893
:103F90000091818DFEF776FEE7E7000070B50446DC
:103FA00000680169E26821F440511143016121690F
:103FB000A068E26908436169114308432168CA683F
:103FC00049F20C639A430243CA6020684169A269BE
:103FD00021F440711143416131492068884202D087
:103FE0003049884202D1FEF7F5F801E0FEF7E2F829
:103FF000E2690023192164253226B2F5004F626878
:1040000028D0A0FB0101930F9200FCF7DBF80146DA
:10401000B0FBF5F06FF01802504301EB800006EBA7
:104020000010B0FBF5F000F0F002B1FBF5F002EB90
:104030000012B1FBF5F06FF01803584301EB80005C
:1040400006EB0010B0FBF5F000F00F002168104403
:10405000886070BDA0FB010192185B41FCF7B2F8CB
:104060000146B0FBF5F00201B1FBF5F06FF018036B
:10407000584301EB800006EBC000B0FBF5F000F008
:10408000F80002EB4002B1FBF5F0584301EB800071
:1040900006EBC000B0FBF5F000F00700D6E700002B
:1040A000001001400014014038B581620446828549
:1040B000002013466064222284F84220E56B1F4AE8
:1040C000EA63E56B1E4A2A64E56B1E4AEA64E26B0A
:1040D00010650A462168E06B091DFDF7E1FD30B16E
:1040E00010206064202084F84200012038BD206840
:1040F000016840680090206948B120680C3050E8A1
:10410000001F41F4807140E80012002AF5D12068B8
:10411000143050E8001F41F0010140E80012002A6D
:10412000F5D12068143050E8001F41F0400140E80C
:104130000012002AF5D1002038BD00007F3D0008A4
:10414000053E0008353D00080148FEF7B1BD0000FE
:10415000BC0800200148FEF7ABBD000004090020A8
:10416000234910B591ED031AF0EE400A0A4630EEED
:10417000C11A204C126911EE103AA34201DD521E01
:1041800005E011EE103A1C4CA34201D9521C0A6101
:1041900091ED041A9FED192A0128F8EEC11AB0EE2C
:1041A000601A01EE821A81ED051AC1ED030A16D1DB
:1041B000B421DFED130A81EE200ABDEEC00A10EE35
:1041C000100A484300EE100A0E49B8EEC00A31EE5C
:1041D000400A10EE100A884202DD30EE600A10BD7F
:1041E00010EE100A08498842F9D930EE200A10BDB5
:1041F0000400002000003443000034C30000B44336
:10420000000034430000B4420000B4C2FEE70000E6
:10421000184810B5012101700021C0F8011016499D
:10422000C0F80510491EC0F8091180210930FCF7BB
:1042300013F81048802189300446FCF70DF88021DE
:104240000E48FCF709F80D4880218030FCF704F88F
:10425000802221460A48FEF7F0FC0A4800680168FF
:1042600021F00801016006480068C16841F01001B2
:10427000C16010BDC9020020294A0008D6030020F1
:10428000BC0800204C09002070B500281CD0002973
:104290001AD00A2918D88C00251D802D14D8014663
:1042A0000A4822460646FBF7BEFF08482A46093858
:1042B0000119D0F805000068C1F809003146BDE8D1
:1042C00070400348FEF748BF70BD0000D2020020D6
:1042D000BC08002000B5154887B00178002922D01D
:1042E000D0F801100A291ED30021C0F8011010488F
:1042F00050F8ED1F0091406801900E48D0F8211051
:104300000291D0F82A100391D0F82E10049190F861
:104310002800062100EE100A6846B8EE400A8DED2E
:10432000050AFFF7B1FF07B000BD0000C902002079
:10433000C4000020660000200448D0F801100A29BB
:1043400002D2491CC0F8011070470000C9020020C9
:104350004100080218BF04200A0E18BF40F00100F7
:104360004FF07F4232EA010108BF40F0020001280D
:1043700008BF052070470907090E002804DB00F17B
:10438000E02080F80014704700F00F0000F1E020FA
:1043900080F8141D7047000010EE101A08B5444A4A
:1043A0006846B2EB410F28D94FF0E640B0EB410F21
:1043B00094BF00204FF0FF3000900098002861DB90
:1043C00060EE000A10F0010F45D010F0020FDFED93
:1043D000391A9FED391A00EEE11ADFED381A40EE76
:1043E000811A21EEA01AF0EE400A40EE010A08BF41
:1043F000F1EE600AB0EE600A08BD314B21F00042D8
:1044000093423CD911F0004FDFED2E0A20EE201A26
:10441000DFED2D0A19BF31EE601A71EE200A31EE80
:10442000201A71EE600ABDEEE01A11EE100A9FED3F
:10443000271A00F0030000EEC10A9FED251A009034
:1044400000EEC10A9FED231A00EEC10A9FED221A69
:1044500000EEC10AB1E79FED211A9FED210A10F08D
:10446000020F00EE810A9FED1F1A00EE801AB7EED0
:10447000000A00EE810A18BFB1EE400A08BD00F044
:104480008BF99AE710EE100A4000B0F17F4F3CBF65
:10449000B7EE000A08BD07D14FF0010000F036FA70
:1044A000BDE8084000F068B9BDE8084000F060B918
:1044B000B61F927E336D4C39DA82083CA0AA2ABE20
:1044C000490E494683F9223F0000004B0000C93FD6
:1044D00000A0FD390020A2331A61342CB93AB2BAD7
:1044E000CA9F2A3DDDFFFFBE10B52DED028BB0EE59
:1044F000608AF0EE408A18EE101A18EE900AFBF768
:10450000FEFE00F07040B0F1004F0CD018EE100A23
:1045100020F00040C0F1FF40C00F02BFB0EE480ADB
:10452000BDEC028B10BDB0EE680ABDEC028B10BD75
:1045300010B52DED028BF0EE408A18EE900AB0EE29
:10454000608A20F00040C0F1FF40C00F07D118EE94
:10455000100A20F00040C0F1FF40C00F2BD018EE31
:10456000101A18EE900AFBF7A1FE00EE100A10EEEA
:10457000100A6FEAD05010F0FF0F04BFBDEC028BA1
:1045800010BD18EE900A00F0004110EE100A00F085
:104590000040814204BFBDEC028B10BD18EE101A22
:1045A00010EE100ABDEC028B61F31E0000EE900AC3
:1045B00030EE600A10BD18EE900A4FF07F41B1EB6B
:1045C000400F1CBF18EE100A5FEA4000C7D101205F
:1045D00000F09CF9BDEC028BBDE8104000F0CCB8B7
:1045E00000B510EE101A2DED028B81B0524A6846CC
:1045F000B2EB410F2ED94FF0E640B0EB410F94BF24
:1046000000204FF0FF3000900098B0EE408A002864
:104610006ADB10F0010F4BD068EE080A9FED471AD5
:104620009FED470A00EE810A9FED461A10F0020F37
:1046300000EE801AB7EE000A00EE810A02BF01B058
:10464000BDEC028B00BD00BF01B0B1EE400ABDEC75
:10465000028B00BD3C4B21F00042934241D911F046
:10466000004FDFED3A0A20EE201ADFED390A19BFBC
:1046700031EE601A71EE200A31EE201A71EE600AF6
:10468000BDEEE01A11EE100A9FED321A00F00300A1
:1046900000EEC10A9FED301A009000EEC10A9FEDB6
:1046A0002F1A00EEC10A9FED2E1A00EEC10AABE7E9
:1046B00028EE080A9FED2B1ADFED2B0A10F0020FEF
:1046C00040EE410A9FED291A00EE201A61EE000A21
:1046D000B0EE480A08EE200AB6D101B0BDEC028B5C
:1046E00000BD00F059F88FE718EE100A4000B0F155
:1046F0007F4F0DD218EE100AFFF72AFE042808BFDC
:1047000000F042F8B0EE480A01B0BDEC028B00BDEB
:1047100009D1012000F0FAF801B0BDEC028B5DF880
:1047200004EB00F029B801B0B0EE480ABDEC028BF2
:104730005DF804EB00F01CB8B61F927EB93AB2BA2D
:10474000CA9F2A3DDDFFFFBE490E494683F9223F3D
:104750000000004B0000C93F00A0FD390020A2333B
:104760001A61342C336D4C39DA82083CA0AA2ABE77
:1047700030EE000A70470000DFED020A80EEA00A6A
:1047800070470000000000009FED020A20EE000AC2
:1047900070470000000000102DE9F0014FF07F424B
:1047A000B2EB410F9FBF4FF0FF310160BDE8F00158
:1047B00070474FF0004242EA0123C1F3C752783AF2
:1047C000551112F01F0C434CCCF120067C44C1F370
:1047D000C752A2F178024FEA621204EB820254F847
:1047E000254008BFD2E9015612D0556804FA0CF4EE
:1047F00025FA06F73C43976805FA0CF527FA06F800
:10480000D26807FA0CFCF24045EA08054CEA0206B9
:10481000A4FB034CA5FB0352A6FB03631D449D426E
:1048200034BF012600261319334416B1934202D92E
:1048300003E0934201D2012200E00022624402F12F
:10484000200C9206DC0C42EA443200EE102A5B0394
:10485000DFED210AF8EEC01A00EE103A4FEA9C1C78
:1048600011F0004FB8EE400AC0F800C020EE201A48
:1048700000EE105ADFED190AB8EE400A20EE200AC9
:1048800071EE810A70EE800A10EE902A02F5006245
:104890006FF30B0200EE902A70EEE11A31EEC11AAE
:1048A000DFED101A30EE411A9FED0D0A20EE800A5E
:1048B00001EE210A9FED0C1A00EE810A04BFBDE84B
:1048C000F0017047CCF180510160BDE8F001B1EE1C
:1048D000400A704780050000000000360000802C70
:1048E00022AAFD29DB0FC92F0000C92F02E008C84A
:1048F000121F08C1002AFAD170477047002001E05A
:1049000001C1121F002AFBD1704700000149086055
:1049100070470000C000002010B558B1084C491E77
:104920000BD310F8013B5340DBB234F8133083EA69
:104930001222F4E74FF6FF7010BD104610BD0000C4
:104940002E4B000810B5064C04E000BF10F8013BE8
:104950005340E25C491E89B2F8D2104610BD0000F7
:104960002E4A0008FDF7FAFAFFF718F8FEF7C0FD27
:10497000FEF790FDFEF742FEFEF748FDFEF78CFEC7
:10498000FEF706FEFEF7A4FEFEF762FD4FF4FA60A6
:10499000FDF7BEF9FBF72EFDFCE730B50C46050030
:1049A00013D0022C11D94FF6FF72A11EFFF7B4FFEE
:1049B0002919C2B211F8023C9A4206D111F8011C21
:1049C000B1EB102F01D1012030BD002030BD30B53A
:1049D0000C4605000ED0022C0CD9601E81B2FF22BD
:1049E0002846FFF7AFFF291911F8011C814201D1B8
:1049F000012030BD002030BDF30435BFF304353F46
:104A00000000803FF304353FF304353F0000803F52
:104A1000F304353FF30435BF0000803FF30435BF96
:104A2000F30435BF0000803F0A0000807F00005E75
:104A3000BCE2613FDD83C29C7E20A3FD1F419DC37C
:104A4000217FFCA2401E5F01E3BD3E6082DC237D2E
:104A50009FC1421CFEA0E1BF5D0380DE3C62BEE060
:104A6000025CDF81633D7C22C09E1D43A1FF46188E
:104A7000FAA427799BC584DA3866E5BB5907DB853C
:104A80006739BAE406581947A5FB7826C49A653BEE
:104A9000D987045AB8E6A7F91B45C6987A24F8A620
:104AA000441A99C7257B3A6486D85B05E7B98CD24E
:104AB000306EEDB3510F4E10F2AC2F7193CD114FFC
:104AC000ADF3702ECC92D38D6F31B2EC0E50AFF1AE
:104AD000134DCE90722C6D33D18F0C52B0EE326CE0
:104AE0008ED0530DEFB1F0AE4C1291CF2D73CA940E
:104AF0007628ABF517490856B4EA6937D58B5709BC
:104B0000EBB536688AD495CB2977F4AA4816E9B76D
:104B1000550B88D6346A2B7597C94A14F6A8742A9F
:104B2000C896154BA9F7B6E80A54D7896B3500002B
:104B3000891112239B322446AD573665BF74488CC9
:104B4000C19D5AAFD3BE6CCAE5DB7EE9F7F8811090
:104B5000080193331A22A5562C47B7753E64C99CA9
:104B6000408DDBBF52AEEDDA64CBFFF976E802216F
:104B70008B30100299132667AF763444BD554AAD89
:104B8000C3BC588ED19F6EEBE7FA7CC8F5D9833150
:104B90000A2091121803A7772E66B5543C45CBBD69
:104BA00042ACD99E508FEFFB66EAFDD874C904422F
:104BB0008D5316619F702004A9153227BB364CCE49
:104BC000C5DF5EEDD7FC6888E1997AABF3BA855210
:104BD0000C4397711E60A1142805B3373A26CDDE29
:104BE00044CFDFFD56ECE9986089FBBB72AA0663EF
:104BF0008F7214409D512225AB343006B9174EEF09
:104C0000C7FE5CCCD5DD6AA9E3B8788AF19B8773CF
:104C10000E6295501C41A3352A24B1163807CFFFE8
:104C200046EEDDDC54CDEBB962A8F99A708B0884AE
:104C300081951AA793B62CC2A5D33EE1B7F04008E0
:104C4000C919522BDB3A644EED5F766DFF7C899477
:104C500000859BB712A6ADD224C3BFF136E0C118C0
:104C60004809D33B5A2AE55E6C4FF77D7E6C0AA556
:104C700083B4188691972EE3A7F23CC0B5D14229A0
:104C8000CB38500AD91B666FEF7E744CFD5D8BB537
:104C900002A499961087AFF326E2BDD034C1C33980
:104CA0004A28D11A580BE77F6E6EF55C7C4D0CC616
:104CB00085D71EE597F42880A1913AA3B3B2444A60
:104CC000CD5B5669DF78600CE91D722FFB3E8DD6F7
:104CD00004C79FF516E4A9902081BBB332A2C55A40
:104CE0004C4BD7795E68E11C680DF33F7A2E0EE7D6
:104CF00087F61CC495D52AA1A3B03882B193466B20
:104D0000CF7A5448DD59622DEB3C700EF91F8FF7B6
:104D100006E69DD414C5ABB122A0B9923083C77BFF
:104D20004E6AD5585C49E33D6A2CF11E780F0006A7
:104D3000101600061016000000000000000001021E
:104D40000304060708090000000001020304000034
:104D5000000000006E83F9A22915444ED15727FCAC
:104D6000C0DD34F5999562DB4190433CAB6351FE65
:104D7000904D000800000020C4000000EC4800082E
:104D8000544E0008C40000200C0E0000FC4800082F
:104D90000000000001000000000000000000000012
:104DA0000000000000000000000000000000000003
:104DB00000000000000000000000000000000000F3
:104DC000DC0700200002FF010002D604002004DC02
:104DD000070020FF01FF020402060500200104086D
:104DE000002010021102000000000000000000007E
:104DF0000000000000000408002001010001000084
:104E000000000000000000000000000000000000A2
:104E10000000000000000000000000000000000092
:104E20000000000000000000000000000000000082
:104E30000000000000000000000000000000000072
:104E40000100000010000000000000000024F40039
:044E5000000000005E
:040000050800018965
:00000001FF
