:020000040800F2
:10000000B00C0020A1010008AF3A000891340008AC
:10001000AD3A000825080008C545000800000000AA
:100020000000000000000000000000002B3C000861
:10003000FD11000800000000B13A0008FD3C000876
:10004000BB010008BB010008BB010008BB010008A0
:10005000BB010008BB010008BB010008BB01000890
:10006000BB010008BB010008BB010008BB01000880
:1000700029110008BB010008BB010008BB010008F2
:10008000BB010008BB010008BB010008BB01000860
:10009000B5080008C1080008BB010008BB01000842
:1000A000BB010008A53D0008BB010008BB0100081A
:1000B000BB010008BB010008BB010008BB01000830
:1000C000BB010008BB010008BB010008BB01000820
:1000D000BB010008AD440008BB010008B94400089A
:1000E000BB010008BB010008BB010008BB01000800
:1000F000BB010008BB010008BB010008BB010008F0
:10010000BB010008BB010008BB010008BB010008DF
:10011000BB010008BB010008BB010008BB010008CF
:10012000BB0100083511000841110008BB0100089F
:10013000BB010008BB010008BB010008BB010008AF
:10014000CD080008D9080008BB010008BB01000861
:10015000BB0100084D110008BB010008C5440008A0
:10016000BB010008BB010008BB010008BB0100087F
:10017000BB010008BB010008BB0100080000000033
:10018000BB010008BB010008DFF810D000F0D2F876
:10019000004800478D4C0008AFF30080B00C0020F1
:1001A0000648804706480047FEE7FEE7FEE7FEE711
:1001B000FEE7FEE7FEE7FEE7FEE7FEE7953D000807
:1001C000890100082DE9F05F0546002092469B4614
:1001D00088460646814640241BE02846414647465D
:1001E000224600F053F853465A46C01A914110D3A4
:1001F00011461846224600F03AF82D1A67EB01081E
:100200004F4622460120002100F031F817EB00098B
:100210004E41201EA4F10104DFDC484631462A4647
:100220004346BDE8F09F40EA01039B0703D009E085
:1002300008C9121F08C0042AFAD203E011F8013BD2
:1002400000F8013B521EF9D27047D2B201E000F82B
:10025000012B491EFBD270470022F6E710B513466A
:100260000A4604461946FFF7F0FF204610BD202A33
:1002700004DB203A00FA02F1002070479140C2F1FD
:10028000200320FA03F3194390407047202A04DB2F
:10029000203A21FA02F00021704721FA02F3D040FF
:1002A000C2F120029140084319467047F0B400F0B3
:1002B000004221F0004120F00040CE0DC30DC1F3FB
:1002C000160141F40001C0F316004C42154640F4FB
:1002D0000000761E09E010EB440002D582F00042D7
:1002E00040428842F7D840005B1EB342F9DA18B1A9
:1002F000F0BC002100F039B82846F0BC7047002857
:1003000001DBC0F10040002901DBC1F10041814265
:1003100002D24FF0004004E04FF0005001D14FF006
:10032000C0404FEA2062EFF3008162F31F6181F366
:1003300000887047064C074D06E0E06840F0010376
:1003400094E8070098471034AC42F6D3FFF720FF3B
:10035000904D0008B04D00080029A8BF7047401C10
:10036000490008BF20F00100704710B4B0FA80FCCB
:1003700000FA0CF050EA010404BF10BC704749B108
:10038000CCF1200421FA04F411FA0CF118BF012178
:1003900021430843A3EB0C01CB1D4FEA00614FEA58
:1003A000102042BF002010BC704700EBC350104427
:1003B0000029A4BF10BC7047401C490008BF20F0B2
:1003C000010010BC7047002805D0002210EE101A62
:1003D000026041608260704710B500F0E9F900F0FA
:1003E0001BFA00F0A5FF00F097F803F053F900F0B6
:1003F00039FA03F075F800F0E3FD04F0E5F8BDE824
:10040000104000F06FBA000070B5184C1848022573
:100410002178C07F042924D2DFE801F002050D1CF9
:10042000012020701DE0FFF7D7FF9FED120A03F0B7
:1004300033FC257015E0012807D0032084F8000064
:1004400003F042F900F01AFA0BE004F0FFF800F0B4
:1004500075FCF5E7012800D1257003F0FFF800F0E6
:10046000E3F9BDE8704000F0EDBD000000000020A1
:10047000660000200000C84270B504462DED028BD6
:10048000056801EE105A30EE418AB5EEC08AF1EEF1
:1004900010FA01DDA06800E0E068B0EEC80A01EEE5
:1004A000100A61EE200A04F0D9F910EE101A18EEC5
:1004B000100A00EE905A61F31E0000EE100A30EEB2
:1004C000800A10EE101A2160626800EE101A00EE29
:1004D000902AF1EE600AB4EEE00AF1EE10FA04D2CE
:1004E00000EE102AB1EE400A0DE000EE101A00EE08
:1004F000902AB4EEE00AF1EE10FA02DD00EE102AC6
:1005000001E000EE101A10EE100A206000EE100A52
:10051000BDEC028B70BD000010B5234C00202DED0A
:10052000028B1922207004F10801204802F08FFC90
:100530001F480068016821F00801016000200121C6
:1005400000EB400202EB00122244401CC0B282F8D1
:1005500056100428F4D31448DFED168A9FED168A4E
:100560005730F0EE680AB0EE480A03F0D5F80E48AE
:10057000F0EE680AB0EE480A6A3003F0CDF80A4897
:10058000F0EE680AB0EE480A7D3003F0C5F8F0EEF0
:10059000680AB0EE480ABDEC028B0348BDE8104083
:1005A000903003F0B9B800003B030020A006002003
:1005B0009007002000000000CDCCCC3E70B56E4C02
:1005C0002DED028BE07FC0F3C00104F8051FC0F3DE
:1005D00080006070A088C0F30A00A0836079C10821
:1005E000A07941EA4011C1F30A01E183E179800970
:1005F00040EA8101207A41EA8021C1F30A01218485
:100600004108607A41EAC011C1F30A01618401091D
:10061000A07A41EA0011C1F30A01A184E17AC0097C
:1006200040EA4101207B41EA4021C1F30A01E18413
:100630008108607B41EA8011C1F30A012185A17B19
:10064000400940EAC1006085B4F80F00C0F30A0019
:10065000A085207CC108607C41EA4011C1F30A01F9
:10066000E185A17C800940EA8101E07C41EA8021AA
:10067000C1F30A0121864108207D41EAC011C1F37E
:100680000A0161860109607D41EA0011C1F30A0196
:10069000A186A17DC00940EA4101E07D002541EA33
:1006A0004021C1F30A01E1868108207E41EA8011E0
:1006B000C1F30A012187617E400940EAC1006087D9
:1006C000B4F1050404EB450636F8210F00EE100ADC
:1006D00005EB450000EB05102044B8EE400A57300A
:1006E00003F023F8BCEEC00A6D1CEDB210EE100A48
:1006F000042D3080E6D334F8210F9FED208A00EEE0
:10070000100ADFED1F8AB0EE481AB8EE400AF0EE8C
:10071000680A04F0D5FA10EE100AB0EE481AA0628A
:100720006088F0EE680A00EE100AB8EE400A04F0A5
:10073000C7FA10EE100AB0EE481AE062A088F0EE98
:10074000680A00EE100AB8EE400A04F0B9FA10EE9A
:10075000100AB0EE481A6062E088F0EE680A00EE17
:10076000100AB8EE400A04F0ABFA10EE100A20624C
:10077000BDEC028B70BD00003B0300200040D14463
:100780000000A34310B5FFF719FF02490020C1F88C
:10079000010010BD3B0300200448D0F801100529DA
:1007A00002D2491CC0F80110704700003B03002032
:1007B00010B5084801F0C6F90221064800F0EEFD28
:1007C000054801F0BFF9BDE810400221024800F0E1
:1007D000E5BD000078050020A005002000B58BB025
:1007E000017A0591002106910121079130F8021F3D
:1007F000009130F8021C0191818802914188039197
:10080000C1680491C17909910169089180686946BC
:1008100000F03EFE0BB000BD014802F093B80000AE
:10082000C8050020FEE700000C4810B5017800293B
:1008300013D04168B1F5FA7F0FD300214160001F4A
:100840000278012A05D00023054C2468E36312B125
:1008500002E00A23F8E70121017010BD200000200A
:10086000100600200349012008700821024802F008
:1008700071BA000020000020100600200648017810
:10088000002908D04168B1F5FA7F04D30021416006
:1008900002480068C1637047200000201006002055
:1008A00003484168B1F5FA7F01D2491C41607047A5
:1008B00020000020014800F0ECBE00007805002078
:1008C000014800F0E6BE000078050020014800F075
:1008D000E0BE0000A0050020014800F0DABE0000E4
:1008E000A005002070B55C4C01202DED048B20701C
:1008F00004F10900054603F077F9DFED588AB0EE00
:10090000682A9FED578AB2EE0E0A2846F0EE481A82
:10091000B0EE481AF0EE480A03F076F904F142000E
:10092000054603F061F9B0EE682AF0EE481AB0EE21
:10093000481AF0EE480AB2EE0E0A284603F064F9AF
:1009400004F17B00054603F04FF9B0EE682AF0EEA3
:10095000481AB0EE481AF0EE480AB2EE0E0A2846DF
:1009600003F052F904F1B400054603F03DF9B0EE8E
:10097000682AF0EE481AB0EE481AF0EE480AB2EED5
:100980000E0A284603F040F904F1FD00054603F085
:100990002BF9DFED348A9FED349AB0EE481AB0EEB1
:1009A000682AF0EE491AF0EE480A9FED300A284610
:1009B00003F02AF904F59970054603F015F9B0EE35
:1009C000682ADFED2C8AF0EE491A9FED291AF0EE25
:1009D000480AB0EE680A284603F016F904F26F10D0
:1009E000054603F001F99FED242AF0EE481AB0EE17
:1009F000481AF0EE480AB3EE0E0A284603F004F94E
:100A00009FED1E0A04F5F470FFF7DDFCF0EE481AC6
:100A1000B0EE681AF0EE480AB0EE480A032104F579
:100A2000FA7000F06FFB1649C4F8C0111548C4F8FD
:100A3000C401154AC4F8BC21C4F8D011C4F8D401CB
:100A4000C4F8CC21C4F8E001C4F8E4010F48C4F8AC
:100A5000DC01BDEC048B70BDB000002000606A4674
:100A60000000000000409C4600803B4500007A44A6
:100A7000CDCC4C3DCDCC4C3F0000FA450000B442FB
:100A800000803B4600401C4600409C4500401C4501
:100A900070B52DED088B82B0DFED8EAA9FED8E8AAA
:100AA0008E4CF0EE488AD4F8F100B0EE489A00EE91
:100AB000100ADFED8B0A012030EE202AB0EE420A48
:100AC00003F006FDB0EE40BADFED869AB0EE420AC2
:100AD000F0EE690A03F0E6FEB5EEC00AF1EE10FA98
:100AE00001D230EE290ADFED800A20EE200ADFED88
:100AF0007F0A80EE20AAB0EE4A0A03F007FEF0EE6D
:100B0000409AB0EE4A0A03F025FFB0EE40AAF0EE9C
:100B1000480AB0EE4B0A764802F0CCFF7548764999
:100B200090F820207248693012B1012A35D116E0C0
:100B3000D1F84D20D1F8491000EE102AD4F8BC218C
:100B400000EE902A60EE608A00EE101AD4F8CC1104
:100B500000EE901AD4F8A01120EE209A15E0D1F8FA
:100B60004D20D1F8491000EE102AD4F8BC2100EE37
:100B7000902A60EE608A00EE101AD4F8CC1100EED4
:100B8000901AD4F8DC1120EE209A00EE101AF0EE44
:100B90006A0AFFF771FCB0EE408A5548F0EE6A0A27
:100BA000B0EE680A4930FFF767FCF0EE400A5048A3
:100BB000F0EE608AF0EE6A0AB0EE490A5930FFF7AB
:100BC0005BFC69EEA80A4D4A4AEE400A10EE900A14
:100BD0006AEE280AC4F8AC0149EE800A10EE900AC9
:100BE000C4F8B00118EE100AC4F8B401002000BF28
:100BF000D4F8AC11D4F8B03100EE101A00EB40017B
:100C000002EB8101D1ED000A91ED011A20EE200ADC
:100C100000EE903AD4F8B43100EE810A00EE903A3A
:100C200091ED021AC0EBC003C3EB8013234400EE26
:100C3000810A401C0428BDEEC00A10EE101AA3F869
:100C40000710D5DB5FF00005C5EBC500C0EB8510D4
:100C50000619B6F9050000EE100AB6F90700F8EE1D
:100C6000C00A00EE100A06F10900B8EEC00A02F050
:100C700021FF10EE100A6D1CEDB2C6F83A00042DEB
:100C8000E2D3D4F8E500002100EE100AD4F8AC005D
:100C900000EE900ABDEEC00AFDEEE00ACDED000ABE
:100CA0008DED010AD4F8730000EE100AD4F83A0072
:100CB000BDEEC00A10EE103A00EE100A0846BDEE76
:100CC000C00A10EE102A00F035FB02B0BDEC088B14
:100CD00070BD00006F12833A00000000B0000020D9
:100CE00000002C420000B443DB0F494000003443B5
:100CF0001F020020660000203B030020184D000862
:100D000030B50C4900200C4BD1F80A10052200BF69
:100D100000EB4004C0EBC005C5EB801502EB84047A
:100D20000C441D44401C2488C0B2A5F8054004288A
:100D3000EED330BD30000020B00000200B4810B5CD
:100D40000178002910D0D0F8011000290CD0002122
:100D5000C0F80110FFF7D4FF00F0AEF8FFF798FEDF
:100D6000BDE8104000F010B810BD0000B000002039
:100D70000448D0F80110002902D10121C0F8011067
:100D800070470000B00000207CB5404D4049414C08
:100D9000D5F81B00D1ED010A00EE100A0A4630EE2C
:100DA000600AB2F9022010EE103AA34201DD521E91
:100DB00005E010EE103A384CA34201D9521C4A808B
:100DC000B1F9022000EE100A00EE902A9FED331ACE
:100DD000344CF8EEE00A002600EE810ADFED300A1E
:100DE00081ED020A30EE600A486010EE100AC4F885
:100DF000F1000A7812B1C4F8ED000E702A49DFED57
:100E00002B0AD1F8411000EE101A54F8ED1F20EE15
:100E1000200A00EE901A30EE800A00EE900A244874
:100E200010EE101A44F8041900EE101A02F042FEF7
:100E300010EE100ADFED1F0AC4F87A00D5F813107F
:100E400000EE101A20EE200ABDEEC00A10EE101AB5
:100E500009B200EE101A2180F8EEC00A00EE100A66
:100E60001348353802F026FE10EE100A0023C4F8AD
:100E7000450000EE100A00961946BDEEC00A01209A
:100E8000019610EE102A00F055FA7CBD6600002095
:100E90000400002000003443000034C30000B443C9
:100EA00000009642B00000203B030020CDCCCCBD1A
:100EB000E2010020CDCCCC3DF0B514490020052541
:100EC000134C9FED141A9FED140AD1F81910012646
:100ED00000EB400305EB83020A4406EB830317880B
:100EE000C0EB801204EB42020B4422F8E97F1B683E
:100EF000401C00EE903A10F0FF0060EE810A60EEB8
:100F0000800A10EE903A9360E2D0F0BD30000020ED
:100F1000B0000020000000390000B44302781D49F1
:100F2000012A09D0022A10D0032A04D14278CA77B4
:100F3000807881F82000704730F8012F21F80D2FBC
:100F400042884A8080888880704730F9013F00EEEF
:100F5000103AB0F90220B0F90400B8EEC01A9FEDC3
:100F60000E0AC1EE000A10EE903A00EE902A41F807
:100F7000133FB8EEE01AC1EE000A10EE902A00EE20
:100F8000900A4A60B8EEE01AC1EE000A10EE900A2C
:100F900088607047660000200000C84200B5034624
:100FA0000888098A9B8880B289B2834201D10829C6
:100FB00001D0012000BD1046FFF7B0FF002000BDAA
:100FC0000348012101720021C0F8091000F002B8A5
:100FD0006600002000B587B0BDF8020000F01F00D9
:100FE000ADF8020015480099014000919DF80010ED
:100FF00021F006018DF80010BDF8061001F01F0168
:10100000ADF806100199014001919DF8040040F0EF
:1010100006008DF804000E208DF8080008480068CE
:10102000CDF80A000020CDF80E000120CDF8120006
:101030006846FFF7D3FB07B000BD00000700E0FFE4
:10104000660000201A48017A00292FD0D0F8091034
:1010500005292BD3002140F8091F1649827DCA714A
:10106000B0F9042000EE102AB8EEC01A9FED120A63
:10107000C1EE000A10EE902AC1F84920B0F906200E
:1010800000EE902AB8EEE01AC1EE000A10EE902AA7
:10109000C1F84D20B0F9080000EE900AB8EEE01A51
:1010A000C1EE000A10EE900AC1F84100704700003E
:1010B000660000203B03002000007A440448D0F87A
:1010C0000910052902D2491CC0F809107047000018
:1010D00066000020F0B50388002441F221060DE0EF
:1010E0000D5D83EA052300251F0402D586EA43032C
:1010F00000E05B006D1C082DF6D3641C9442EFD316
:101100000380F0BD00280DD000F8011B10EE101A6E
:10111000016010EE901A416011EE101A816011EE1C
:10112000901AC16070470000014800F099BD0000AE
:1011300090070020014800F093BD0000F007002058
:10114000014800F08DBD000030070020014800F08C
:1011500087BD00005008002001681823CAB2103A69
:10116000B2FBF3F2054B6FF30901032A9B5CC365E5
:1011700000D9091D81650846704700004D4D0008E3
:1011800010B5014600208B698A6A4FF0C07453B1D4
:10119000B3F5005F15D072B1012A0CD0022A0AD033
:1011A000032A09D104E01AB1012A06D0022A03D188
:1011B000C96AC90100D5012010BDC96AA142FAD08F
:1011C00010BD002AF7D0012AF2D0022AF3D0032A58
:1011D000F3D010BD30B50468256825F4802525605E
:1011E000046863608368402B036803D099600068DB
:1011F000C26030BD9A600068C16030BD70470000B9
:1012000000B587B04FF40071BDF802004FF4FC62E6
:1012100061F34F10ADF802001448009901400091AD
:101220009DF8001021F006018DF80010BDF80610A1
:1012300062F34F11ADF806100199014001919DF83C
:1012400004000B4940F006008DF8040000208DF8E2
:101250000800CDF80A10CDF80E000120CDF81200DC
:101260006846FFF7BBFA07B000BD00000700E0FFCB
:1012700078050020F0B54488038865BA84888679AB
:101280001848C1EB0111084402EB420150F80A7FF3
:101290000B225BBA02EB810200EE103ABE540368E7
:1012A000B8EE400A012606EB810610EE102A64BA59
:1012B000334424B21A6000EE104A0268052303EB9F
:1012C0008103B8EEC00A1A44DFED070A15800068F2
:1012D00020EE200A072303EB810110EE102A0844B8
:1012E0000260F0BD300000200000803830B51446A8
:1012F0000A46014610880D4AC1EB011313441D89AB
:101300009A7B401B401E80B2451C954201D90120AA
:1013100030BDD3F80A3000EB4005012203F8252048
:10132000C2B22046FFF7A6FF002030BD30000020EB
:10133000FFF766BF70B58AB001260896C0EB0016AD
:101340001448DDE90E54304400EB410189880291D4
:1013500000210491059108210691110A8DF80010D1
:101360008DF80120190A8DF80210290A8DF8041051
:101370008DF80550210A8DF806108DF803308DF890
:101380000740006808AB6A4602A900F019F80AB0E5
:1013900070BD00003000002072B6FEE790F82020FB
:1013A000012A07D0022A05D0416A41F48021416216
:1013B00001207047006842690A434261002070477B
:1013C000F0B590F820500468A468012D05D0022DD6
:1013D00003D0416A41F4802157E014F0406F01D1FD
:1013E000E5004FD5C4F301640125A5401D608D685B
:1013F0004FF4C0739DB1CE6835434E6845EAC605CB
:10140000066803EB0417F5514FF4C275076805EB46
:1014100004150E697E51097D012905D009E00E8869
:10142000CD6845EA4655EBE701684E5946F48076AB
:101430004E511179D579567941EA056195792D0496
:1014400045EA062529434FF4C676056806EB0416DF
:10145000A9511178D57841EA0561957852782D0423
:1014600045EA022211434FF4C475026805EB0415E6
:101470005151006803EB0411425842F001024250FE
:101480000020F0BD416A41F4001141620120F0BD2D
:1014900010B590F82020012A07D0022A05D0416A11
:1014A00041F480214162012010BD3B48D0F8002268
:1014B00042F00102C0F80022D0F8002222F47C524F
:1014C000C0F80022D0F800224B6A42EA0322C0F89A
:1014D00000220A7D02F01F0301229A40D0F81C323C
:1014E0009343C0F81C32CB69B3B9D0F80C329343A4
:1014F000C0F80C328C894B6864F31F434C6900EBD5
:10150000C404C4F840320C890B6864F31F434C696F
:1015100000EBC404C4F84432CB69012B16D1D0F8D7
:101520000C321343C0F80C320C884B6864F31F4331
:101530004C6900EBC404C4F840320C89CB6864F3F6
:101540001F434C6900EBC404C4F844328B69002B80
:10155000D0F804320ED01343C0F804320B69002BCC
:10156000D0F8143208D01343C0F81432096A0129A4
:1015700004D008E09343EFE79343F5E7D0F81C125B
:101580001143C0F81C12D0F8001221F00101C0F87C
:101590000012002010BD000000640040704770B5CC
:1015A00090F82040012C05D0022C03D0416A41F470
:1015B000802128E0046809B32469A40720D04FF4EF
:1015C000D874056804EB01142D5915F004059560D5
:1015D00005682D591AD0ED08556005682C5904F09E
:1015E0000204D4604FF4DA74056804EB01142E5938
:1015F00006F00F06082E0CD308250DE0E468DCE7A2
:10160000416A41F400114162012070BD6D0D156009
:10161000E3E72D5905F00F05156105682D59C5F350
:101620000725956105682C59240C54614FF4DC7230
:10163000046802EB0112A4581C700468A458240A20
:101640005C700468A458240C9C700468A258120EA4
:10165000DA704FF4DE72046802EB0112A4581C71B8
:101660000468A458240A5C710468A458240C9C7172
:101670000468A258120EDA71006829B1016941F0BC
:1016800020010161002070BDC16841F02001C160EE
:10169000F8E72DE9F05F0546006800244669D0F8B8
:1016A00004908768D0F80CB0D0F810A0D0F818805B
:1016B000F10748D0F90714D001218160B80703D59C
:1016C000284600F06CFA0CE0780702D54FF400646D
:1016D00007E0380702D54FF4805402E0284600F0B6
:1016E0005DFAF80516D529684FF480708860B80552
:1016F00003D5284600F055FA0CE0780502D544F4ED
:10170000005407E0380502D544F4804402E028463E
:1017100000F046FAF80316D529684FF48030886047
:10172000B80303D5284600F03EFA0CE0780302D552
:1017300044F4004407E0380302D544F4803402E066
:10174000284600F02FFA300707D55FEACB6004D5B2
:101750002968102044F40074C86070074FF008072F
:1017600007D55FEA0B7004D52868C760284600F0EB
:10177000A9F9B00706D52868C068800702D02846B6
:1017800000F0A2F9700607D55FEACA6004D529689F
:10179000102044F480640861B00607D55FEA0A703F
:1017A00004D528680761284600F0C8F9F00606D578
:1017B00028680069800702D0284600F0C0F9B0030D
:1017C00008D55FEAC96005D5296810204860284619
:1017D00000F0B6F9F00307D55FEA097004D5286870
:1017E0004760284600F0E0F9300446D55FEA4970CA
:1017F00040D5F00504D55FEAC87001D044F001047B
:10180000B00504D55FEA887001D544F00204700584
:1018100004D55FEA487001D544F00404300529D5A9
:1018200018F0700F26D008F07000402815D006DCA4
:10183000102809D020280AD0302816D10AE05028D4
:101840000ED0602811D10EE044F008040DE044F001
:1018500010040AE044F0200407E044F0400404E0EF
:1018600044F0800401E044F480742868816921F028
:1018700070018161296804204860002C05D0686AE5
:10188000204368622846FFF789FEBDE8F09F70B5E7
:10189000040003D094F8200010B104E0012070BDD2
:1018A000204600F081F82068016841F001010160E4
:1018B00000F04EFC0546052604E000F049FC401B04
:1018C0000A2811D820684068C007F6D0206801684F
:1018D00021F00201016000F03BFC05460BE000F046
:1018E00037FC401B0A2806D9606A40F40030606269
:1018F00084F82060D2E7206840688007EFD4207E1B
:101900000128206801683DD021F080010160607EDF
:1019100001282068016838D021F040010160A07ED4
:1019200001282068016833D021F020010160E07EA9
:101930000128206801682ED041F010010160207F4D
:1019400001282068016829D021F008010160607F2A
:1019500001282068016824D021F004010160D4E945
:1019600002010843D4E90412114308436168491E87
:1019700008432168C86100206062012084F82000CB
:10198000002070BD41F08001C0E741F04001C5E793
:1019900041F02001CAE721F01001CFE741F0080132
:1019A000D4E741F00401D9E7F0B587B0044614212B
:1019B0006846FEF751FC3E4B3E48DFF8F0E0196800
:1019C000D4F800C03B4A0325022609271030002422
:1019D000491CF4452AD11960012907D1016841F059
:1019E00000710160006800F000700590106840F020
:1019F000080010601068CDE9005600F00800CDE93D
:101A0000047069462C48CDE9024500F09BFA00229B
:101A10001146142000F00AFC142000F0F9FB00220B
:101A20001146152000F002FC15203AE0DFF88CE0AA
:101A3000F44538D1D0F800C04CF0806CC0F800C03C
:101A4000D0F800C001290CF0806CCDF814C01960EA
:101A500007D1016841F000710160006800F000707A
:101A60000590106840F002001060106802AB00F0B2
:101A7000020005906020CDE9000683E8B0006946C9
:101A80000F4800F05FFA00221146402000F0CEFB24
:101A9000402000F0BDFB00221146412000F0C6FBB3
:101AA000412000F0B5FB07B0F0BD0000006400402D
:101AB0009800002030380240000C024000680040CE
:101AC000000402407047000010B50446164888B074
:101AD000844212D1154B6A4600212046FFF75FFD74
:101AE00008B1FFF759FC114A69460020FFF7FEFBD9
:101AF0000E4A69460120FFF7F9FB0D48844211D1D7
:101B00000C4B6A4600212046FFF749FD08B1FFF75C
:101B100043FC084A69460848FFF740FA0549684609
:101B200002F084F808B010BD78050020870000207E
:101B3000A00500208F00002066000020704770473D
:101B40007047000070B5044690F82000012804D0CA
:101B5000606A40F40020606218E0022084F82000EF
:101B60002068016821F00101016000F0F1FA0546EA
:101B70000EE000BF00F0ECFA401B0A2808D9606AAA
:101B800040F400306062052084F82000012070BD20
:101B900020684068C007EDD1606270BD7047704733
:101BA000704770477047704770472DE9F041044611
:101BB000876D00F0CDFA064694F83500002502281E
:101BC00006D08020606584F834500120BDE8F081A3
:101BD0002068016821F0160101602068416921F048
:101BE00080014161206C08B9A06C20B120680168B7
:101BF00021F0080101602068016821F00101016005
:101C00000CE000F0A5FA801B052807D920206065AC
:101C1000032084F8350084F83450D7E72068006842
:101C2000C007EED194F85C103F208840B8600120D6
:101C300084F8350084F834500020C7E790F8351058
:101C4000022903D08021416501207047052180F8D9
:101C500035100068016821F0010101600020704723
:101C60002DE9F84304464FF00009CDF80090634891
:101C70004FF41651A56D0068B0FBF1F72E6894F88B
:101C80005C10082000FA01F131420FD021680A6887
:101C900052070BD50A6822F004020A6094F85C101F
:101CA0008840A860606D40F00100606594F85C10A9
:101CB0004FF0010808FA01F0304208D02168496964
:101CC000090604D5A860606D40F00200606594F8D4
:101CD0005C1004208840304208D0216809688907D8
:101CE00004D5A860606D40F00400606594F85C1055
:101CF00010208840304218D021680968090714D59F
:101D0000A86020680168490304D50068000308D56D
:101D1000A16C07E00168C90503D4016821F008013E
:101D20000160216C09B12046884794F85C1020209E
:101D30008840304231D021680968C9062DD5A86095
:101D400094F8350005282068016806D0490347D576
:101D5000006800031DD4616C1CE021F016010160D5
:101D60002068416921F080014161206C08B9A06CB4
:101D700020B12068016821F00801016094F85C102E
:101D80003F208840A86084F8358084F83490216D25
:101D90001FE0E16B09B120468847606D00282BD019
:101DA000606DC00714D0052084F8350020680168F4
:101DB00021F0010101600098401C0090B84203D856
:101DC00020680068C007F6D184F8358084F8349024
:101DD000E16C002910D001B02046BDE8F04308476F
:101DE0000168C905D5D4016821F01001016084F8AB
:101DF000358084F83490CCE7BDE8F883A800002053
:101E00002DE9F041044600F0A3F906465CB102203A
:101E100084F83500002584F834502068016821F0EA
:101E2000010101600DE00120BDE8F08100F090F9B2
:101E3000801B052805D920206065032084F8350023
:101E4000F2E720680068C007F0D1226811682048D6
:101E50000140D4E901031843D4E90336334318435E
:101E600063691843A3691843E3691843236A184355
:101E70000843616A042903D1D4E90B1319430843C9
:101E8000106020684069666A20F0070130460E4302
:101E9000012704280CD1A06A0643E06A40B120461D
:101EA000FFF76EF920B14020606584F83570BAE71D
:101EB000206846612046FFF74FF994F85C203F21E7
:101EC00091408160656584F835700020ACE70000C2
:101ED0003F8010F02DE9F0410446866D90F8340003
:101EE000002501280DD0012084F8340094F83570C5
:101EF0000020012F07D084F8340002252846BDE8D1
:101F0000F0810220FBE7022784F8357060652046E7
:101F1000FFF760F994F85C103F208840B0602068BB
:101F2000016841F016010160206C20B12068016851
:101F300041F0080101602068016841F00101016081
:101F4000DCE700002DE9F84FDFF8BCA100220125F5
:101F500003264FF00F090AF1040BAAF1040E00BF8B
:101F60000B6805FA02F42340A34270D10F7907F001
:101F70000307012F01D0022F16D187684FEA4208CC
:101F800006FA08FC27EA0C07D1F80CC00CFA08FC8A
:101F90004CEA070CC0F808C04768A7430C79C4F3A3
:101FA000001494403C4344600C79E443A4070AD0F5
:101FB000C4684FEA420C06FA0CF7BC438F6807FA74
:101FC0000CF72743C7600C7904F00304022C12D1EC
:101FD000D40800EB840CDCF820405707FF0E09FA08
:101FE00007F824EA0804D1F8108008FA07F848EA4C
:101FF0000408CCF8208004684FEA420C06FA0CF77B
:10200000BC430F7907F0030707FA0CF72743076073
:102010004C6814F4403F70D03C4C276847F480472C
:102020002760246822F0030704F480440094384CAD
:1020300007EB040CDCF8084897074FEA177809FA11
:1020400008F7BC43334FB84202D1002724E054E0E4
:10205000314FB84201D101271EE0304FB84201D1C3
:10206000022719E02E4FB84201D1032714E02D4F6B
:10207000B84201D104270FE02B4FB84201D1052708
:102080000AE02A4FB84201D1062705E0284FB8429E
:1020900001D1072700E0082707FA08F72743CCF803
:1020A0000878DAF800405746D1F804C09C435FEA4C
:1020B000CC2C00D51C433C60DBF800405F46D1F8D7
:1020C00004C09C435FEA8C2C00D51C433C60DEF8C6
:1020D00000407746D1F804C09C435FEA8C3C00D5B1
:1020E0001C433C60084F083F3C68D1F804C09C4347
:1020F0005FEACC3C00D51C433C60521C102AFFF424
:102100002FAFBDE8F88F0000083C01404438024082
:10211000003001400000024000040240000802407C
:10212000000C02400010024000140240001802405F
:10213000001C0240426921EA02030A4043EA0241CC
:10214000816170470AB1816170470904FBE70000B3
:1021500001488068704700009C00002002488168A8
:1021600002781144816070479C0000200B4810B534
:10217000016841F400710160016841F4806101600F
:10218000016841F480710160032000F06FF80F20B6
:1021900000F006F800F024F8002010BD003C0240DA
:1021A00070B50D4D04464FF47A712878B1FBF0F00C
:1021B0000A490968B1FBF0F000F00CFB48B9102C9B
:1021C00007D200222146501E00F030F800206C603B
:1021D00070BD012070BD00009C000020A800002000
:1021E0000A4808B5016841F480410160006800F4C4
:1021F000804000900548001F016841F08051016057
:10220000006800F08050009008BD00004438024093
:10221000002809DB00F01F020121914040098000E5
:1022200000F1E020C0F8001170470000F0B40E4B40
:102230001B680C46C3F30223C3F10705042D00D924
:102240000425191D072901D2002300E0DB1E012609
:1022500006FA05F1491E214099409E40761E16401F
:102260003143F0BC02F041BA0CED00E0064900F049
:10227000070208684FF6FF03184040EA0220034AAD
:1022800010430860704700000CED00E00000FA0504
:102290002DE9F0470E46050065D0DFF81481D8F827
:1022A0000000F7B200F00700B04207D288F80070D3
:1022B000D8F8000000F00700B04254D128683D4C27
:1022C000810712D5400703D5206840F4E050206014
:1022D0002878000703D5206840F46040206020681B
:1022E000A96820F0F000084320602878C0072DD0AE
:1022F000304968680839012812D0022813D0032811
:1023000011D00968890700292DDA216821F003011D
:1023100001432160FFF71CFF814641F2883A0EE03D
:1023200009688903EFE709688901ECE7FFF710FF07
:10233000A0EB0901514502D90320BDE8F0872068D0
:10234000696800F00C00B0EB810FEFD1D8F80010F5
:10235000404601F00701B14207D90770006800F05C
:102360000700B04201D00120E7E72878400705D5F3
:102370002068E96820F4E0500843206028780007CE
:1023800006D52068296920F4604040EAC100206039
:1023900000F038F82168084AC1F30311515CC840C5
:1023A0000649086006480068FFF7FAFE0020C4E707
:1023B000003C024008380240554D0008A8000020AB
:1023C000A00000200448054900680968044AC1F3D8
:1023D0008221515CC8407047A800002008380240A4
:1023E000654D00080448054900680968044AC1F3BE
:1023F0004231515CC8407047A800002008380240B4
:10240000654D0008154810B5006810F00C0214481E
:1024100013D01449042A0FD0082A0ED10F4C241FC0
:102420002268236802F03F025B0207D52068C0F3F0
:102430008810A0FB010106E0084610BD2168C1F329
:102440008811A1FB00010023FDF7BCFE2168C1F348
:102450000141491C4900B0FBF1F010BD08380240B1
:102460000024F400001BB7002DE9F84F04006ED0E3
:102470002078DFF84C93C007A9F104054AD009F190
:1024800004000168C1F38101012908D00068C0F38C
:10249000810002280AD1D9F80000400206D5286838
:1024A000800337D560680028E1D033E06068B0F57C
:1024B000803F10D0B0F5A02F286810D020F48030D5
:1024C0002860286820F4802028606068A8B1FFF7A1
:1024D0003FFE06460DE0286840F48030F4E740F403
:1024E00080202860F7E700BFFFF732FE801B6428DA
:1024F00073D828688003F7D50CE0FFF729FE06465D
:1025000005E000BFFFF724FE801B6428F0D8286890
:102510008003F7D42078DFF8AC8280074FF0000A00
:102520003ED5A748001D016811F00C0F08D00068C7
:10253000C0F3810002280BD1D9F80000400207D473
:102540002868800716D5E068012800D112E033E141
:10255000E068B8B10120C8F80000FFF7F9FD0646B1
:1025600005E000BFFFF7F4FD801B0228C0D82868F3
:102570008007F7D52868216920F0F80040EAC100FB
:1025800028600DE0C8F800A0FFF7E2FD064604E071
:10259000FFF7DEFD801B02281FD828688007F7D4CC
:1025A0002078000722D5864F87486169703771B15E
:1025B00001210160FFF7CCFD064604E0FFF7C8FDEE
:1025C000801B022809D838688007F7D50EE0C0F8CC
:1025D00000A0FFF7BDFD064605E082E0FFF7B8FD6D
:1025E000801B02287DD838688007F7D42078400700
:1025F00068D5DFF8CCB100270BF13C0BDBF800000D
:10260000C0000BD4DBF8001041F08051CBF8001073
:10261000DBF80000012700F0805000906B4E30681E
:10262000C00510D4306840F480703060FFF790FD32
:10263000009005E0FFF78CFD0099401A022850D861
:102640003068C005F6D55E4EA0686C3601280FD004
:102650000528306810D020F001003060306820F08C
:1026600004003060A068B8B1FFF772FD00900FE081
:10267000306840F00100F4E740F004003060F7E714
:10268000FFF766FD0099411A41F28830814266D811
:1026900030688007F4D50EE0FFF75AFD009007E0A0
:1026A000FFF756FD0099411A41F28830814256D811
:1026B00030688007F4D42FB1DBF8001021F080518E
:1026C000CBF80010A069C8B33D49091D0968C1F3E2
:1026D000810102294AD00228504607D0C8F860007C
:1026E00000E03CE0FFF734FD04463BE04746C8F815
:1026F0006000FFF72DFD064605E000BFFFF728FD4F
:10270000801B02282BD828688001F7D4D4E9070160
:102710000843A16A2E4A490802EB0141626A41EA74
:102720008211084394F82C1040EA0161C9F80010A6
:1027300001203866FFF70CFD044606E03EE000BFCE
:10274000FFF706FD001B022809D828688001F7D58D
:1027500034E000BFFFF7FCFC001B022802D9032075
:10276000BDE8F88F28688001F4D427E00128F7D06D
:10277000D9F80000E26900F4800191421CD1226A7C
:1027800000F03F01914217D147F6C071626A0140E3
:10279000B1EB821F10D1A26A4FF0FF3300F4403139
:1027A00003EB5202B1EB024F06D194F82C1000F06B
:1027B0007060B0EB016F01D00120D1E70020CFE7BE
:1027C0000438024000004742800E4742007000403B
:1027D0000000FFFF10B5401EB0F1807F01D3012043
:1027E00010BD4FF0E02460610F21601701F07DFF04
:1027F0000020A06107202061002010BD70477047B5
:1028000070B590F83C20012A32D0012480F83C4079
:10281000022280F83D2003685A689D6822F0700605
:102820000A6832435A60134B02689A4214D0B2F1DC
:10283000804F11D0104B9A420ED0104B9A420BD0C1
:102840000F4B9A4208D00F4B9A4205D00E4B9A423A
:1028500002D00E4B9A4204D1496825F080031943F7
:10286000916080F83D40002180F83C10084670BD22
:10287000022070BD0000014000040040000800403C
:10288000000C0040000401400040014000180040DE
:1028900010B5040003D094F83D0010B107E001200A
:1028A00010BD002084F83C00204600F01FF80220F4
:1028B00084F83D00211D206801F07AFA012084F897
:1028C000460084F83E0084F83F0084F8400084F815
:1028D000410084F8420084F8430084F8440084F8FE
:1028E000450084F83D00002010BD000008B50068D8
:1028F0001149884212D11148016841F0010101607B
:102900000068002200F00100009011461920FFF736
:102910008DFCBDE808401920FFF77ABC08498842C1
:1029200009D10648001F016841F0040101600068F8
:1029300000F00400009008BD00000140443802404F
:102940000008004090F83D10012901D00120704797
:10295000022180F83D100168CA6842F00102CA6095
:1029600000681149884214D0B0F1804F11D00F494E
:1029700088420ED00E4988420BD00E49884208D0BA
:102980000D49884205D00D49884202D00C49884241
:1029900004D1816801F00701062903D0016841F0E4
:1029A0000101016000207047000001400004004068
:1029B00000080040000C00400004014000400140BD
:1029C0000018004070B5044690F83C00002501282E
:1029D00017D0012684F83C60022084F83D0020686E
:1029E000826822F0770222F47F42826008685028D1
:1029F00038D00DDC20284FD005DC90B3102811D141
:102A00004AE0022070BD302846D040280AD13BE081
:102A100060282FD070280DD0B0F5805F03D0B0F5BE
:102A2000005F12D0012584F83D60002084F83C004E
:102A3000284670BDCB68D1E90121206801F02DFA4C
:102A40002068816841F0770109E0CB68D1E9012174
:102A5000206801F022FA2068816841F48041816099
:102A6000E1E719E0CA684968206801F0EBFA5021F3
:102A7000206806E0CA684968206801F0F4FA60211D
:102A8000206801F014FACEE7CA684968206801F0AE
:102A9000D9FA40212068F4E7226801461046F0E7A1
:102AA00070472DE9F04104460068C66805694FF09B
:102AB0000007A90713D5B10711D5F91E016101203F
:102AC0002077206880698007204602D0FFF7E8FF62
:102AD00004E000F0A9F8204600F03BF927776807EA
:102AE00016D5700714D521686FF004000861022024
:102AF00020772068806910F4407F204602D0FFF7DD
:102B0000CFFF04E000F090F8204600F022F927778C
:102B1000280715D5300713D521686FF00800086124
:102B2000042020772068C0698007204602D0FFF784
:102B3000B7FF04E000F078F8204600F00AF92777A4
:102B4000E80616D5F00614D521686FF0100008616C
:102B5000082020772068C06910F4407F204602D00A
:102B6000FFF79EFF04E000F05FF8204600F0F1F868
:102B70002777E80708D0F00706D021686FF001003A
:102B80000861204600F04AF9280608D5300606D527
:102B900021686FF0800008612046FFF72FFE68066D
:102BA00008D5700606D521686FF040000861204600
:102BB00000F04CF9A8060AD5B00608D521686FF0D8
:102BC000200008612046BDE8F041FFF718BEBDE8CF
:102BD000F081000010B586B0044614216846FDF768
:102BE0003BFB0E492068884215D10D480021026840
:102BF00042F008020260006800F0080005904FF4FF
:102C0000804000900220CDE90101CDE90310694622
:102C10000448FFF797F906B010BD00000008004017
:102C200030380240000C0240704770B5044690F8FE
:102C30003C0000260D4601280FD0012084F83C00FE
:102C40006AB1042A1DD0082A2FD00C2A3FD00126B1
:102C5000002084F83C00304670BD022070BD206822
:102C600001F02EF92068816941F008018161206836
:102C7000816921F004018161206881692A69114319
:102C800011E0206801F04CF92068816941F400618D
:102C900081612068816921F4806181612068816996
:102CA0002A6941EA02218161D2E7206801F06EF9C8
:102CB0002068C16941F00801C1612068C16921F043
:102CC0000401C1612068C1692A69114311E02068CB
:102CD00001F090F92068C16941F40061C161206888
:102CE000C16921F48061C1612068C1692A6941EA32
:102CF0000221C161ACE710B5040003D094F83D0097
:102D000010B107E0012010BD002084F83C002046EF
:102D100000F01EF8022084F83D00211D206801F01B
:102D200047F8012084F8460084F83E0084F83F000C
:102D300084F8400084F8410084F8420084F843009D
:102D400084F8440084F8450084F83D00002010BD5C
:102D50007047704710B50446022249B104290ED0CD
:102D6000082913D094F84100012816D0012010BD85
:102D700094F83E000128F9D184F83E200FE094F841
:102D80003F000128F2D184F83F2008E094F8400089
:102D90000128EBD184F8402001E084F84120012291
:102DA000206801F06DF816492068164A884201D063
:102DB000904203D1436C43F400434364206888424B
:102DC00013D0B0F1804F10D00F4988420DD00F4979
:102DD00088420AD00E49884207D0904205D00D495A
:102DE000884202D00C49884204D1816801F0070171
:102DF000062903D0016841F001010160002010BDE7
:102E000000000140000401400004004000080040B0
:102E1000000C0040004001400018004010B5006860
:102E2000094988420FD1FDF7A3FF01F03FFCFDF7F0
:102E3000B3FC00F067FCFDF733FD00F003FCBDE8D8
:102E40001040FEF73BB910BD00000140704738B597
:102E5000044690F84200202801D0022038BD51B12C
:102E60004AB10120206300206063204601F0CEFAC1
:102E7000216B012901D0012038BD21680A68496809
:102E8000009121680C3151E8002F42F0100241E816
:102E90000023002BF5D138BD054A904201D1FDF742
:102EA00071BC044A904202D1084600F077BB7047DB
:102EB000A00600205806002070470000F8B5016801
:102EC00004460868CA684B6910F00F0F4FF0000500
:102ED00059D003F0010602F49077374365D0C1075B
:102EE00005D0D10503D5616C41F001016164410752
:102EF00005D5D90703D0616C41F0020161648107F7
:102F000005D5D90703D0616C41F004016164010764
:102F100007D502F02001314303D0616C41F0080174
:102F20006164616C00293AD0800604D5900602D510
:102F3000204601F083F920684069616CC0F380107D
:102F4000090700D460B3204601F043F920684069C6
:102F5000400621D52068143050E8001F21F04001C0
:102F600040E80012002AF5D1E06BA8B17249016572
:102F7000E06BFEF763FE002811D0E06B016D01B03D
:102F8000BDE8F040084783060FD593060DD52046CF
:102F9000BDE8F84001F052B92046FFF78DFFF8BDBB
:102FA0002046FFF789FF6564F8BD266B2023012EBC
:102FB0007ED1C6067CD5D6067AD5086848680090CA
:102FC00048694FF0020640064DD5E26B1068406834
:102FD0004FF480770004000C3AD0A18D814237D99C
:102FE000E085D069B8422DD020680C3050E8001F31
:102FF00021F4807140E80012002AF5D120681430D5
:1030000050E8001F21F0010140E80012002AF5D12C
:103010002068143050E8001F21F0400140E8001201
:10302000002AF5D184F84230256320680C3050E83E
:10303000001F21F0100140E80012002AF5D1E06BDA
:10304000FEF7B3FD6663A08DE18D401A81B206E004
:10305000A18D8142A8D1D069B842A5D1666320462E
:10306000FFF71AFFF8BDA08DE18D401A81B2E08D07
:103070000028F7D00029F5D020680C3050E8002F48
:1030800022F4907240E80027002FF5D12068143018
:1030900050E8002F22F0010240E80027002FF5D170
:1030A00084F84230256320680C3050E8002F00E09F
:1030B00006E022F0100240E80023002BF3D1CDE718
:1030C00005062BD5150629D594F841002128C9D12C
:1030D000A068B0F5805F01D12069B0B1206A411CC1
:1030E0002162216800784860E08C401E0004000CDA
:1030F000E084B7D12068C16821F08001C1602068F8
:10310000C16841F04001C160F8BD206A0088C0F389
:1031100008004860206A801C2062E5E74006F3D57D
:103120005006F1D5CA68204622F04002CA6084F8F1
:10313000413000F0ABF9F8BD8B40000870B50400D9
:1031400004D094F84100002510B106E0012070BDC4
:1031500084F84050204600F023F8242084F84100F1
:103160002068C16821F40051C160204601F0C8F810
:103170002068016921F4904101612068416921F0D2
:103180002A0141612068C16841F40051C160656451
:10319000202084F8410084F842006563002070BD5F
:1031A0002DE9F04F87B0044614216846FDF754F826
:1031B0008948DFF820821438D4F800C0864B0221F9
:1031C00003220025071586154FF0070BC44555D17E
:1031D000D3F800C04CF0100CC3F800C01B6803F01B
:1031E00010030593036843F002030360036803F0D0
:1031F00002030593036843F00103036000688946F6
:1032000000F0010005908020CDE90009CDE90252CF
:103210009246D8466946CDF810B07048FEF792FE47
:103220007000CDE90009CDE9025A6946CDF8108059
:103230006B48FEF787FEDFF8B0816A494046C8F860
:103240000010F104C0E90115C0E90357C8F8145093
:10325000C0E90656C8F82050C8F82450FEF7D0FD43
:1032600008B1FEF799F8C4F83C80002211462520E9
:10327000C8F83840FEF7DAFF252047E0DFF86C8118
:10328000C44548D1544B1B1FD3F800C04CF4802CCC
:10329000C3F800C01B6803F480230593036843F060
:1032A00004030360006800F0040005904FF44060E0
:1032B0008DE82300CDE9032B69464D48FEF742FE19
:1032C000DFF824814B4908F160084046C8F8001037
:1032D0004FF00061C0E90115C0E90357C8F8145068
:1032E000C912C8F81850C8E90761C8F82450FEF799
:1032F00087FD08B1FEF750F8C4F83C800022114663
:103300002720C8F83840FEF791FF2720FEF780FFFE
:1033100007B0BDE8F08FDFF8E080C445F8D1D3F8FE
:1033200000C04CF0200CC3F800C01B6803F0200361
:103330000593036843F040030360006800F0400019
:1033400005904FF484408DE823000820CDE9032048
:1033500069462A48FEF7F6FDDFF88C80214908F11E
:10336000C008183940464FF0206AC8F80010C0E97C
:1033700001A5C0E90357C8F81450C0E90656C8F8BB
:103380002050B946C8F82450FEF73AFD08B1FEF7C0
:1033900003F814481A4FC4F83C806030C8F838402D
:1033A000E7E8020A4020A7E82102154847F8145927
:1033B000C7E906563D627D62FEF722FD08B1FDF7C2
:1033C000EBFFA763002211464720BC63FEF72EFFE8
:1033D00047209BE7001001404438024000040240AF
:1033E00000000240406402403007002000480040D6
:1033F000000802402860024000140140001802400A
:10340000500800207047704770B5044690F841009E
:10341000202801D0022070BD01B3FAB12162A2843C
:10342000E28400206064212384F84130A56B144BB2
:10343000EB63A56B134B2B64A56B134BEB64A36B76
:10344000186520681346A56B021D2846FEF742FD4D
:1034500030B110206064202084F84100012070BD4C
:1034600021686FF0400008602068143050E8001FA9
:1034700041F0800140E80012002AF5D1002070BD23
:1034800087410008C941000899400008704770470B
:10349000FEE710B50880C0F3C0028A70C0F30013C5
:1034A000CB70C0F380240C71C0F3C0244C71C0F306
:1034B0000030887102B923B10020C8711AB101200F
:1034C00002E00120F9E7002008720BB1012000E0C2
:1034D000002048720CB1012000E00020887210BD6D
:1034E000094910B5012001F8010B002041F8040B37
:1034F0004FF480720548FFF7AAFC05480068016890
:1035000021F00801016010BD1904002058060020B8
:103510003007002010B50446B0F801001D49FFF740
:10352000B8FF1D48E17880F813116168C0F81411E4
:10353000E168C0F81C112169C0F820116169C0F868
:103540002411A169C0F82811E169C0F82C11216A81
:10355000C0F83011616AC0F83411A16AC0F838119E
:10356000E16AC0F83C11216BC0F84011616BC0F8F2
:103570004411A16BC0F84811E16BC0F84C11216CEB
:10358000C0F85011616CC0F85411A16CC0F858110A
:1035900010BD00001E0500201904002010B5044CC9
:1035A0000146601D00F006F80020C4F8010010BDBF
:1035B000190400202DE9FC4F4FF000090E46824609
:1035C0004D46A1F1520737E00AEB0504218889B284
:1035D000A1F525405A3801D06D1C1CE0B4F80280DA
:1035E000B4F804B008F1060080B228440190B0425B
:1035F00024D80020ADF80000042221466846FDF7DB
:1036000069FD4246A11D6846FDF764FDBDF8001046
:10361000594502D0AD1CADB20EE0A079912809D178
:10362000B8F14C0F06D3A01DFFF774FF09F101009C
:103630001FFA80F9019885B2BD42C5DD4846BDE854
:10364000FC8F00000448D0F801100A2902D2491C5E
:10365000C0F8011070470000190400200B4810B595
:103660000178002911D0416864290ED300214160FE
:10367000074C0A464FF400612046FEF763FDA11493
:103680002046BDE81040FEF755BD10BD28000020C3
:10369000001C024010B50A4901200A4C0870810242
:1036A00000222046FEF74EFD0022E1142046FEF7E0
:1036B00049FD0022A1142046BDE81040FEF742BD9E
:1036C00028000020001C02400C4810B50178002999
:1036D00012D0416864290FD300214160084C0A468A
:1036E0004FF480512046FEF72DFD20460122BDE813
:1036F0001040D102FEF726BD10BD000028000020BA
:10370000001C024003484168642901D2491C416001
:10371000704700002800002010EE101A016010EE23
:10372000901A41600021816070470168B0EE401A34
:1037300000EE101AF7EE000A426870EEC00A00EEC2
:10374000102A20EE800A00EE901A00EE810A10EE98
:10375000101A416000EE101A704700000F4810B5B3
:103760000D4901600721416000214FF480328160E2
:10377000C0E9031252014261017641768176C17639
:1037800001774177FEF783F8002803D0BDE81040A9
:10379000FDF702BE10BD0000006400407805002067
:1037A0000F4810B50D4901600721416000214FF419
:1037B00080328160C0E90312520142610176417694
:1037C0008176C17601774177FEF761F8002803D052
:1037D000BDE81040FDF7E0BD10BD000000680040EE
:1037E000A0050020194808B5016841F400110160E6
:1037F000016801F400110091016841F48001016049
:103800000068002200F48000009011460C20FEF7B2
:103810000DFD0C20FEF7FCFC002211463920FEF7BE
:1038200005FD3920FEF7F4FC002211463A20FEF790
:10383000FDFC3A20FEF7ECFC002211464520FEF785
:10384000F5FCBDE808404520FEF7E2BC30380240F8
:1038500070B586B014216846FCF7FEFC22480024AF
:10386000016841F002010160016801F00201059167
:10387000016841F040010160016801F040010591DB
:10388000016841F001010160016801F00101059149
:10389000016841F008010160016801F0080105912B
:1038A000016841F004010160016801F00401059123
:1038B000016841F08001016000680C4E00F080005A
:1038C0004FF4E0550590002229463046FEF73AFCB9
:1038D00001200095CDE90104694630460394FEF7C6
:1038E00031FB06B070BD000030380240001C0240C1
:1038F00010B586B0002418480094019402940394F3
:103900000494144905940160A721C0E901144FF4FF
:103910007A71C0E903148021C0E90541FEF7B8FFC0
:1039200008B1FDF739FD4FF48050009069460A4810
:10393000FFF748F808B1FDF72FFD049404A90648E5
:103940000594FEF75DFF002801D0FDF725FD06B0C8
:1039500010BD000000000140C805002010B58EB069
:1039600000240794089409940A940B941C21684637
:103970000C94FCF771FC1F481D4901601521C0E93A
:10398000011440F2E731C0E9031480218161FEF7A0
:103990007FFF08B1FDF700FD4FF48050079007A9A5
:1039A0001448FFF70FF808B1FDF7F6FC1148FFF7D0
:1039B000A2F908B1FDF7F0FC0B940BA90D480C948B
:1039C000FEF71EFF08B1FDF7E7FC6020CDE900041B
:1039D000022002900822694604940648FFF725F960
:1039E00008B1FDF7D9FC0348FFF7F4F80EB010BD9D
:1039F00000080040100600200C4810B50A4901607C
:103A00004FF4E1314160002181600C22C160C0E9C6
:103A100004128161C161FFF791FB002803D0BDE86A
:103A20001040FDF7B9BC10BD001001405806002041
:103A30000E4810B50C4901600D4941604FF48051AA
:103A400081604900C160C910016104214161002108
:103A50008161C161FFF772FB002803D0BDE810400F
:103A6000FDF79ABC10BD000000480040A0060020F1
:103A7000A08601000C4810B50A4901604FF4E131FD
:103A80004160002181600C22C160C0E904128161A3
:103A9000C161FFF753FB002803D0BDE81040FDF7DC
:103AA0007BBC10BD00140140E8060020FEE7FEE7E5
:103AB0007047000010EE101A10EE902A10B500EEBC
:103AC000101A00EE902AC0F81D10C0F8212030EE28
:103AD000600AD0F81530C0F8193010EE102AC0F87E
:103AE0001520D0F8011000EE102A00EE901A20EEFA
:103AF000800A10EE104A00EE102AC0F82540D0F8D7
:103B0000291000EE901AD0F8051001EE101A41EEBF
:103B1000000A00EE102A10EE901A00EE903AC0F85B
:103B20002910D0F8092070EE600A00EE102A20EE6D
:103B3000800A00EE901A10EE103AC0F82D30D0F83E
:103B40000D2000EE102AF4EEC00AF1EE10FA02DDAC
:103B5000C0F8292012E000EE902A00EE101AF1EED3
:103B6000600AB4EEE00AF1EE10FA07D200EE102A75
:103B7000B1EE400A10EE101AC0F82910D0F8291042
:103B800000EE104A00EE901A70EE200A00EE103A95
:103B900030EE800A10EE102AC0F83120D0F8111053
:103BA00000EE102A00EE901AB4EEE00AF1EE10FAE0
:103BB00003DD00BFC0F8311011E000EE901A00EEF6
:103BC000102AF1EE600AB4EEE00AF1EE10FA06D225
:103BD00000EE101AB1EE400A10EE101AEAE7D0F823
:103BE000310000EE100A10BD002140F8011F4160B5
:103BF0008160C160016141618161C16101624162B5
:103C00008162C1620163704710EE101A40F8011F13
:103C100010EE901A416011EE101A816011EE901AA8
:103C2000C16012EE101A01617047704710B500684C
:103C3000A0F50072113A2AD108884B8800EE100ACC
:103C40008A88C988B8EE401A9FED110A1148C1EE62
:103C5000000A10EE904A00EE903A8460B8EE601AC6
:103C6000C1EE000A10EE903A00EE902AC360B8EE62
:103C7000601AC1EE000A10EE902A00EE901A02615E
:103C8000B8EE601AC1EE000A10EE901A416110BD44
:103C90000000C8424E00002000B589B0012000217C
:103CA000CDE9061010EE100A114A1044B0F1897FD8
:103CB00002D9012009B000BDDFED0E0A07AB20EEEE
:103CC000200ABCEEC00A10EE100A020A8DF8182075
:103CD0008DF8190008488288009208220291CDE9E7
:103CE0000312006806AA6946FDF76AFBE2E70000D6
:103CF000000010BE0000C8424E000020FEF72EBAA1
:103D000030B593B030216846FCF7A6FA14210CA810
:103D1000FCF7A2FA1D480025016841F080510160BE
:103D2000006800F0805011901948016841F480410A
:103D300001600068022400F480401190012000908E
:103D4000000401908001CDE9064006200890A820DB
:103D5000CDE9090404200B906846FEF785FB08B105
:103D600072B6FEE70CA90F2081E831004FF4A05095
:103D70000F904FF48050109005210CA8FEF788FAA0
:103D8000002801D072B6FEE713B030BD40380240C3
:103D9000007000400248016841F470010160704702
:103DA00088ED00E00148FEF77CBE0000C805002059
:103DB000F0B50268274B284D284E294F294C4FF06B
:103DC000804C984209D0604507D0A84205D0B04247
:103DD00003D0B84201D0A04204D122F0700E4A684C
:103DE00042EA0E0298421BD0604519D0A84217D073
:103DF000B04215D0B84213D0A04211D01A4DA842FB
:103E00000ED01A4DA8420BD0194DA84208D0194D1A
:103E1000A84205D0184DA84202D0184DA84203D19F
:103E200022F44075CA682A434D6922F080022A4371
:103E30008D68C5620D688562984201D0A04201D1AB
:103E400009690163016841F00401016001214161D8
:103E50000260F0BD00000140000400400008004086
:103E6000000C0040000401400040014000440140BB
:103E70000048014000180040001C004000200040A5
:103E800010B501F01F030121046A99408C430462BC
:103E9000016A9A401143016210BD10B5846842EA7C
:103EA000032224F47F440A432243826010BD8268C7
:103EB00022F070020A4342F007018160704700005F
:103EC000F0B5036A026A22F0010202624268846964
:103ED000124E24F073050C682C4323F002058B6806
:103EE0002B430D4DA84201D0B04205D123F0080765
:103EF000CB683B4323F00403A84201D0B04205D174
:103F00004D6922F4407215438A692A4342608461F4
:103F1000496841630362F0BD0000014000040140B4
:103F2000F0B5026A036A23F01003036243688469F0
:103F30000D6824F4E64444EA05248D6822F020024A
:103F400042EA05120F4D104EA84201D0B04206D1F0
:103F5000CF6822F0800242EA071222F04002A84213
:103F600001D0B04207D14D6923F4406343EA850391
:103F70008D6943EA85034360846149688163026215
:103F8000F0BD00000000014000040140F0B5026AED
:103F9000036A23F4807303624368C46922F40072E5
:103FA00024F073050C68124E2C438D6842EA0522FA
:103FB0000E4DA84201D0B04206D1CF6822F4006273
:103FC00042EA072222F48062A84201D0B04207D11F
:103FD0004D6923F4405343EA05138D6943EA051301
:103FE0004360C4614968C1630262F0BD00000140E2
:103FF0000004014030B5046A026A22F48052026271
:104000004268C3690D6823F4E64343EA05238D68DB
:1040100024F4005444EA0534084DA84202D0084D67
:10402000A84204D14D6922F4804242EA85124260DE
:10403000C36149680164046230BD000000000140B2
:104040000004014010B5036A046A24F0010404620C
:10405000846924F0F00444EA021423F00A020A43BB
:104060008461026210BD10B5036A046A24F0100472
:104070000462846923F0A00324F4704444EA023209
:1040800043EA01118261016210BD10B5806B00210D
:10409000C185FEF711FF10BD70B5846B20684069C3
:1040A00094F84110C0F3C0100025212904D118B1A3
:1040B000E584204600F0B4F82068406994F8421086
:1040C000C0F38010222904D118B1E585204600F004
:1040D00080F8606C40F0100060642046FEF7ECFE53
:1040E00070BD10B50146806B096809684FF0000289
:1040F000C9052ED4C28501680C3151E8003F23F474
:10410000807341E80034002CF5D10168143151E886
:10411000003F23F0010341E80034002CF5D1016891
:10412000143151E8003F23F0400341E80034002CF3
:10413000F5D1202180F84210016B012909D10168D5
:104140000C3151E8003F23F0100341E80034002C0B
:10415000F5D14263016B012902D0FFF753F910BD7D
:10416000818DFEF799FE10BD10B5806B0121416372
:10417000016B012902D0FFF746F910BD818D490876
:10418000FEF78AFE10BD10B50146806B096809680C
:10419000C90516D40021C1840168143151E8002FEB
:1041A00022F0800241E80023002BF5D101680C3198
:1041B00051E8002F42F0400241E80023002BF5D1E6
:1041C00010BDFFF763F910BD10B5806BFFF75FF905
:1041D00010BD01680C3151E8002F22F4907241E8C3
:1041E0000023002BF5D10168143151E8002F22F093
:1041F000010241E80023002BF5D1016B012909D10F
:1042000001680C3151E8002F22F0100241E8002330
:10421000002BF5D1202180F8421000210163704766
:1042200001680C3151E8002F22F0C00241E8002360
:10423000002BF5D1202180F84110704708B590F887
:104240004210222901D0022008BD82684FF4805319
:104250009A4201D1016921B1816A9A421BD04AB1C7
:104260000AE00268816A5268C2F308020A80816A21
:10427000891C08E0026972B10268526802F07F028C
:104280000A70816A491C8162C18D491E0904090CAA
:10429000C18503D01BE002685268F1E70168CA6873
:1042A00022F02002CA600168CA6822F48072CA60E3
:1042B00001684A6922F001024A61202180F8421017
:1042C00000214163026B012A03D0FFF79BF8002015
:1042D00008BD016301680C3151E8002F22F0100283
:1042E00041E80023002BF5D101680A68D20602D507
:1042F0000A6849680091818DFEF7CEFDE7E700006E
:1043000070B5044600680169E26821F44051114328
:1043100001612169A068E2690843616911430843AA
:104320002168CA6849F20C639A430243CA60206854
:104330004169A26921F4407111434161314920680A
:10434000884202D03049884202D1FEF74BF801E0A2
:10435000FEF738F8E2690023192164253226B2F508
:10436000004F626828D0A0FB0101930F9200FBF779
:1043700029FF0146B0FBF5F06FF01802504301EB46
:10438000800006EB0010B0FBF5F000F0F002B1FB8E
:10439000F5F002EB0012B1FBF5F06FF01803584393
:1043A00001EB800006EB0010B0FBF5F000F00F0011
:1043B00021681044886070BDA0FB010192185B4128
:1043C000FBF700FF0146B0FBF5F00201B1FBF5F091
:1043D0006FF01803584301EB800006EBC000B0FB00
:1043E000F5F000F0F80002EB4002B1FBF5F05843A5
:1043F00001EB800006EBC000B0FBF5F000F0070019
:10440000D6E70000001001400014014038B5816279
:1044100004468285002013466064222284F84220EC
:10442000E56B1F4AEA63E56B1E4A2A64E56B1E4A88
:10443000EA64E26B10650A462168E06B091DFDF72E
:1044400049FD30B110206064202084F84200012032
:1044500038BD2068016840680090206948B1206834
:104460000C3050E8001F41F4807140E80012002A2F
:10447000F5D12068143050E8001F41F0010140E8F8
:104480000012002AF5D12068143050E8001F41F0D6
:10449000400140E80012002AF5D1002038BD00009C
:1044A000E340000869410008994000080148FEF710
:1044B00005BD0000580600200148FEF7FFBC0000C3
:1044C000A00600200148FEF7F9BC0000E806002025
:1044D000324910B5D1ED030A0A46314C70EE600A3C
:1044E000126910EE903AA34201DD521E05E010EE73
:1044F000903A2C4CA34201D9521C0A61D1ED040A16
:10450000DFED291A0128B8EEE01AF0EE400A41EE7C
:10451000210AC1ED050A81ED030A04D0022822D048
:10452000B0EE600A10BD9FED211AB42180EE810A21
:10453000BDEEC00A10EE100A484300EE100A1C49F6
:10454000B8EEC00A30EEC00A10EE100A884202DD52
:1045500030EE410A10BD10EE100A16491BE000BFF4
:1045600030EE010A10BD9FED141A5A2180EE810A27
:10457000BDEEC00A10EE100A484300EE100A0F49C3
:10458000B8EEC00A30EEC00A10EE100A8842DFDC36
:1045900010EE100A0A498842E2D810BD040000203B
:1045A00000003443000034C30000B443000034432F
:1045B0000000B4420000B4C20000B4420000344223
:1045C000000034C2FEE700000B4810B50121017065
:1045D0000021C0F801100949C0F82D10491EC0F88B
:1045E0005A1028213130FBF737FE03482821BDE857
:1045F00010405E30FBF730BEB5020020494D000888
:1046000070B500281CD000291AD00A2918D88C00AF
:10461000251D282D14D801460A4822460646FBF7D8
:1046200002FE08482A4631380119D0F82D000068EA
:10463000C1F831003146BDE870400348FEF7E4BEE2
:1046400070BD0000E6020020E806002000B5144816
:1046500087B00178002921D0D0F801100A291DD394
:104660000021C0F801100F4850F8ED1F009140687C
:1046700001900D48D0F81B10029150F8131F0391C0
:104680004168049130F9020C062100EE100A6846D8
:10469000B8EEC00A8DED050AFFF7B2FF07B000BD06
:1046A000B5020020B0000020660000200448D0F8C9
:1046B00001100A2902D2491CC0F8011070470000FD
:1046C000B50200204100080218BF04200A0E18BFDE
:1046D00040F001004FF07F4232EA010108BF40F094
:1046E0000200012808BF052070470907090E0028AD
:1046F00004DB00F1E02080F80014704700F00F00A8
:1047000000F1E02080F8141D7047000010EE101A30
:1047100008B5444A6846B2EB410F28D94FF0E6404D
:10472000B0EB410F94BF00204FF0FF300090009895
:10473000002861DB60EE000A10F0010F45D010F098
:10474000020FDFED391A9FED391A00EEE11ADFEDA5
:10475000381A40EE811A21EEA01AF0EE400A40EE1F
:10476000010A08BFF1EE600AB0EE600A08BD314BE5
:1047700021F0004293423CD911F0004FDFED2E0AA8
:1047800020EE201ADFED2D0A19BF31EE601A71EE0E
:10479000200A31EE201A71EE600ABDEEE01A11EE29
:1047A000100A9FED271A00F0030000EEC10A9FEDEA
:1047B000251A009000EEC10A9FED231A00EEC10AEF
:1047C0009FED221A00EEC10AB1E79FED211A9FED7D
:1047D000210A10F0020F00EE810A9FED1F1A00EE71
:1047E000801AB7EE000A00EE810A18BFB1EE400A47
:1047F00008BD00F08BF99AE710EE100A4000B0F106
:104800007F4F3CBFB7EE000A08BD07D14FF0010053
:1048100000F036FABDE8084000F068B9BDE808408D
:1048200000F060B9B61F927E336D4C39DA82083CD5
:10483000A0AA2ABE490E494683F9223F0000004B38
:104840000000C93F00A0FD390020A2331A61342CBA
:10485000B93AB2BACA9F2A3DDDFFFFBE10B52DEDB1
:10486000028BB0EE608AF0EE408A18EE101A18EE55
:10487000900AFBF744FD00F07040B0F1004F0CD0FF
:1048800018EE100A20F00040C0F1FF40C00F02BF38
:10489000B0EE480ABDEC028B10BDB0EE680ABDEC6C
:1048A000028B10BD10B52DED028BF0EE408A18EE94
:1048B000900AB0EE608A20F00040C0F1FF40C00FC7
:1048C00007D118EE100A20F00040C0F1FF40C00FE1
:1048D0002BD018EE101A18EE900AFBF7E7FC00EE4A
:1048E000100A10EE100A6FEAD05010F0FF0F04BF4C
:1048F000BDEC028B10BD18EE900A00F0004110EEE6
:10490000100A00F00040814204BFBDEC028B10BDD4
:1049100018EE101A10EE100ABDEC028B61F31E00A7
:1049200000EE900A30EE600A10BD18EE900A4FF0CB
:104930007F41B1EB400F1CBF18EE100A5FEA400048
:10494000C7D1012000F09CF9BDEC028BBDE81040FE
:1049500000F0CCB800B510EE101A2DED028B81B02E
:10496000524A6846B2EB410F2ED94FF0E640B0EB09
:10497000410F94BF00204FF0FF3000900098B0EE40
:10498000408A00286ADB10F0010F4BD068EE080A5D
:104990009FED471A9FED470A00EE810A9FED461AE8
:1049A00010F0020F00EE801AB7EE000A00EE810A46
:1049B00002BF01B0BDEC028B00BD00BF01B0B1EE83
:1049C000400ABDEC028B00BD3C4B21F000429342FB
:1049D00041D911F0004FDFED3A0A20EE201ADFED49
:1049E000390A19BF31EE601A71EE200A31EE201A31
:1049F00071EE600ABDEEE01A11EE100A9FED321A58
:104A000000F0030000EEC10A9FED301A009000EEA6
:104A1000C10A9FED2F1A00EEC10A9FED2E1A00EE7B
:104A2000C10AABE728EE080A9FED2B1ADFED2B0A2F
:104A300010F0020F40EE410A9FED291A00EE201AF5
:104A400061EE000AB0EE480A08EE200AB6D101B0C5
:104A5000BDEC028B00BD00F059F88FE718EE100A8C
:104A60004000B0F17F4F0DD218EE100AFFF72AFE7A
:104A7000042808BF00F042F8B0EE480A01B0BDECCF
:104A8000028B00BD09D1012000F0FAF801B0BDECA5
:104A9000028B5DF804EB00F029B801B0B0EE480AD3
:104AA000BDEC028B5DF804EB00F01CB8B61F927EE3
:104AB000B93AB2BACA9F2A3DDDFFFFBE490E494648
:104AC00083F9223F0000004B0000C93F00A0FD39E0
:104AD0000020A2331A61342C336D4C39DA82083C41
:104AE000A0AA2ABE30EE000A70470000DFED020ADD
:104AF00080EEA00A70470000000000009FED020A4F
:104B000020EE000A70470000000000102DE9F001BF
:104B10004FF07F42B2EB410F9FBF4FF0FF3101607A
:104B2000BDE8F00170474FF0004242EA0123C1F3B3
:104B3000C752783A551112F01F0C434CCCF12006A5
:104B40007C44C1F3C752A2F178024FEA621204EB2F
:104B5000820254F8254008BFD2E9015612D05568A8
:104B600004FA0CF425FA06F73C43976805FA0CF5AD
:104B700027FA06F8D26807FA0CFCF24045EA080565
:104B80004CEA0206A4FB034CA5FB0352A6FB0363FD
:104B90001D449D4234BF012600261319334416B12B
:104BA000934202D903E0934201D2012200E00022A5
:104BB000624402F1200C9206DC0C42EA443200EE20
:104BC000102A5B03DFED210AF8EEC01A00EE103A5E
:104BD0004FEA9C1C11F0004FB8EE400AC0F800C02C
:104BE00020EE201A00EE105ADFED190AB8EE400A46
:104BF00020EE200A71EE810A70EE800A10EE902AF3
:104C000002F500626FF30B0200EE902A70EEE11ADB
:104C100031EEC11ADFED101A30EE411A9FED0D0A88
:104C200020EE800A01EE210A9FED0C1A00EE810AA7
:104C300004BFBDE8F0017047CCF180510160BDE8D0
:104C4000F001B1EE400A70472C020000000000366F
:104C50000000802C22AAFD29DB0FC92F0000C92FDC
:104C600002E008C8121F08C1002AFAD17047704735
:104C7000002001E001C1121F002AFBD17047000093
:104C80000149086070470000AC000020FDF76EFA93
:104C9000FFF736F8FEF7DCFDFEF7A4FDFEF75EFE3B
:104CA000FEF7C6FEFEF75AFDFEF7A6FEFEF720FE53
:104CB000FEF7E0FEFEF774FDFBF7A6FBFCE7000045
:104CC00031EE601A1249F0EEC11A11EE900A8842D4
:104CD00002DA9FED100A704730EE600AF0EE000A2B
:104CE00020EE200AC0EE010AB7EE000A30EEC00A3C
:104CF00010EE100AB0F17E5F02DDB7EE000A7047D9
:104D000010EE100A10F1814FF9D9BFEE000A70477A
:104D1000BD37863500000000F30435BFF304353F8E
:104D20000000803FF304353FF304353F0000803F2F
:104D3000F304353FF30435BF0000803FF30435BF73
:104D4000F30435BF0000803F0A0000807F0006109A
:104D5000160006101600000000000000000102030B
:104D60000406070809000000000102030400000017
:104D7000000000006E83F9A22915444ED15727FC8C
:104D8000C0DD34F5999562DB4190433CAB6351FE45
:104D9000B04D000800000020B0000000604C00088A
:104DA000604E0008B0000020000C0000704C0008AD
:104DB00000000000010000000000000000000000F2
:104DC00000000000000000000000000000000000E3
:104DD00000000000000000000000000000000000D3
:104DE000780500200002FF010002DD0300200478A6
:104DF000050020FF01FF0204020D04002001A005B0
:104E0000002010021102000000000000000000005D
:104E1000000000000000A0050020010100010000CA
:104E20000000000000000000000000000000000082
:104E30000000000000000000000000000000000072
:104E40000000000000000000000000000100000061
:104E500010000000000000000024F400000000002A
:040000050800018965
:00000001FF
