:020000040800F2
:100000003810002069020008CD4F0008114A00088E
:10001000854F0008131E0008E15B00080000000087
:100020000000000000000000000000003153000844
:10003000AB24000800000000CF4F000895550008D1
:10004000830200088302000883020008830200087C
:10005000830200088302000883020008830200086C
:10006000830200088302000883020008B923000805
:10007000C523000883020008D1230008830200087A
:1000800083020008DD2300088302000883020008C1
:10009000151E0008211E00088302000883020008C4
:1000A0008302000849560008830200088302000802
:1000B000830200088302000883020008830200080C
:1000C00083020008830200088302000883020008FC
:1000D00083020008C95B000883020008830200084D
:1000E00083020008830200088302000883020008DC
:1000F00083020008830200088302000883020008CC
:1001000083020008830200088302000883020008BB
:1001100083020008830200088302000883020008AB
:1001200083020008E9230008F52300088302000881
:10013000830200088302000883020008830200088B
:100140002D1E0008391E00088302000883020008E3
:10015000830200088302000883020008D55B0008C0
:10016000830200088302000883020008830200085B
:1001700083020008830200088302000800000000D8
:100180008302000883020008915700089D57000869
:10019000830200088302000883020008830200082B
:1001A00000000000000000008302000800F002F8D8
:1001B00000F04AF80AA090E8000C82448344AAF1B7
:1001C0000107DA4501D100F03FF8AFF2090EBAE8B5
:1001D0000F0013F0010F18BFFB1A43F0010318477B
:1001E0006474000084740000103A24BF78C878C199
:1001F000FAD8520724BF30C830C144BF04680C602D
:10020000704700000023002400250026103A28BF74
:1002100078C1FBD8520728BF30C148BF0B60704778
:100220001FB507F072F800F059FC0400002000210F
:1002300006F0F0FA401C60600020002106F0D4FABD
:10024000E0601FBD10B510BD00F087FE1146FFF73E
:10025000E7FF06F0AFFA01F0D7F803B4FFF7F2FFBB
:1002600003BC01F01BF9000009488047094800471A
:10027000FEE7FEE7FEE7FEE7FEE7FEE7FEE7FEE756
:10028000FEE7FEE704480549054A064B70470000B3
:1002900039560008AD010008380A00203810002047
:1002A000380C0020380C002053EA020C00F0698062
:1002B0002DE9F04B4FF00006002B1FBFB3FA83F57A
:1002C00003FA05F424FA05F65E4012BF1643B2FAAB
:1002D00082F502FA05F4C5F120051EBF22FA05FCDD
:1002E00044EA0C04203556EA044C4FEA144418BF83
:1002F000641C4FF000084FF00009904271EB030CB2
:1003000039D3002919BFB1FA81F701FA07F6B0FA1B
:1003100080F700FA07F6C7F120071EBF20FA07FC96
:1003200046EA0C062037B6FBF4FCA7EB0507103FA6
:1003300007F01F0BCBF120060CFA0BFB2CFA06F68C
:1003400044BFB3460026202FA4BF5E464FF0000BEB
:100350005BEA060C08BF4FF0010B19EB0B09ABFB76
:10036000027C48EB0608C01B06FB02CC0BFB03CC4F
:1003700071EB0C01C1E70B46024641464846BDE819
:10038000F08B13B54FF000004FF00001AFF3008089
:10039000BDE81C40704700000FB400B58DB010A937
:1003A000099000910B904FF0FF300A9000200C90C4
:1003B000064878440690064878446A4607900F99A4
:1003C00009A800F057FB0DB05DF814FBDF06000034
:1003D000F7060000032A40F2308010F0030C00F012
:1003E000158011F8013BBCF1020F624498BF11F86F
:1003F00001CB00F8013B38BF11F8013BA2F1040228
:1004000098BF00F801CB38BF00F8013B11F003039F
:1004100000F02580083AC0F0088051F8043B083A03
:1004200051F804CBA0E80810F5E7121D5CBF51F8A5
:10043000043B40F8043BAFF30080D20724BF11F81F
:10044000013B11F801CB48BF11F8012B24BF00F884
:10045000013B00F801CB48BF00F8012B704710B5F5
:10046000203AC0F00B80B1E81850203AA0E81850AC
:10047000B1E81850A0E81850BFF4F5AF5FEA027C6D
:1004800024BFB1E81850A0E8185044BF18C918C0DC
:10049000BDE810405FEA827C24BF51F8043B40F87D
:1004A000043B08BF7047D20728BF31F8023B48BF62
:1004B00011F8012B28BF20F8023B48BF00F8012BA0
:1004C00070474FF000020429C0F0128010F0030CB6
:1004D00000F01B80CCF1040CBCF1020F18BF00F837
:1004E000012BA8BF20F8022BA1EB0C0100F00DB8E6
:1004F0005FEAC17C24BF00F8012B00F8012B48BF44
:1005000000F8012B70474FF0000200B513469446E7
:100510009646203922BFA0E80C50A0E80C50B1F15B
:100520002001BFF4F7AF090728BFA0E80C5048BF6F
:100530000CC05DF804EB890028BF40F8042B08BF0D
:10054000704748BF20F8022B11F0804F18BF00F809
:10055000012B704770477047704710B500F0C2FA22
:10056000006810BD10B5044600F0BCFA046010BD70
:100570002DE9FF4F06468BB00878FF2806D0491CAE
:100580002D2805D000244FF0000908E000200CE0E1
:100590000124F8E709EB8903491C00EB43090878BB
:1005A000FF28F7D114B1C9F1000081461078002569
:1005B0002C46AA4629462D2801D02B2804D1521CAE
:1005C0002D2813D0002082468B461078FF280FD0AC
:1005D0004FF0000C0A21521CA5FB017804FB01819D
:1005E00005FB0C11C5194BEB0104EEE70120EAE70E
:1005F000002108464FF00000BAF1000F02D000EBD6
:1006000080004008C0F38157012F01DD4FF0FF3714
:100610000E9955EA040009EB01080BD04FF00209CE
:1006200018F5FA7F16DA4FEACA70002F706008DDFD
:10063000012007E04FEACA70C6E900B00FB0BDE87C
:10064000F08F0020306000F04DFAC0F800901821C3
:10065000084616E0B8F5FA7F18DD002F02DAF748F1
:10066000784401E0F6487844D0E90010C6E900106B
:1006700040EACA70706000F035FAC0F800901421AA
:1006800008460FB0BDE8F04F06F049BE002108460D
:100690004FF00000B8F10001099002DAC7F1000242
:1006A00000E03A4601DAC8F1000106A800F0E2FBDA
:1006B00006AB93E8070003AB83E8070044F23E0073
:1006C0005BEA04010090584604D144F21E012C4616
:1006D0005D460091210C0904014306D100992404D0
:1006E00044EA15442D041039009104F07F41014380
:1006F00006D10099240244EA15642D0208390091BC
:1007000004F07041014306D10099240144EA1574B4
:100710002D01091F009104F04041014306D10099C9
:10072000A40044EA9574AD00891E009104F00041D4
:10073000084304D100986D196441401E00904FF0A9
:1007400001033A466846B8F1000FCDE9014503A917
:1007500002DD01F056F901E001F029F9BAF1000FCC
:1007600004460D4601D084F00044002108464FF0B5
:100770000000099940F2FF77484010F00C0F07D1B4
:1007800024F00040284303D0C4F30A50B84212D1E9
:1007900000F0A8F9C0F80090C4F30A50B8420AD19A
:1007A000A8487844D0E90010C6E9001004F00041E0
:1007B0000843706042E7C6E900543FE72DE9FF4F68
:1007C0001F464FF0000A4FF0FF38454691B0D7E979
:1007D0000146CDF83CA000F081F9C0680168405C9A
:1007E0001090B96912986D1C8847396A814688470C
:1007F0000028F6D1B9F1FF3F0AD0002E24F4D064CE
:1008000011DDB9F12B0F08D0B9F12D0F0BD102E09A
:10081000404615B013E744F48064B96912986D1C22
:100820008847761E8146600504A901D52D2000E089
:100830002B20002E01F1010B0DF130088DF8100076
:100840003FDDB9F1690F08D0B9F1490F05D0B9F111
:100850006E0F02D0B9F14E0F1CD13B4601A8009596
:1008600080E85002DDE912126FF0020006F0BEFDD2
:10087000C11CCED10EE0B96912986D1C8847814623
:100880001398761E44F4007405600F98401C002EE7
:100890000F9016DDB9F1300FEDD0B9F1780F02D01D
:1008A000B9F1580F0DD10F9801280AD13B46CDE977
:1008B0000054DDE91212001F029606F095FDC11CDE
:1008C000A7D1109989453ED144F0800406E01399E0
:1008D000681CAAF1010A44F400740860B9696D1C2F
:1008E0001298761E884730288146F0D02BE0109968
:1008F000894505D1200603D4761E44F0800418E013
:10090000484605F00AFF08B3761E0DF123018B451A
:1009100044F4007408D2A9F130000BF8010B200652
:1009200007D5AAF1010003E0200602D40AF1010074
:100930008246A00502D51399681C0860B96912980F
:100940006D1C88478146002ED1DC53E0002E51DD1E
:10095000B9F1650F02D0B9F1450F4BD1A00549D5CA
:10096000B9696D1C1298761E24F440748847002ED5
:1009700081460CDD2B2804D0B9F12D0F07D144F4AA
:100980008074B96912986D1C8847761E8146E0050F
:1009900001D52D2100E02B2108F8011BCDF80080A6
:1009A00021E0761E0DF13901884544F400740CD223
:1009B000A9F1300010F0FF0088F8000002D1009982
:1009C000884509D908F1010806E0E00501D51E486F
:1009D00001E042F20F708246B96912986D1C884797
:1009E000814613980560002E04DD484605F095FE0B
:1009F0000028D6D1F96912988847FF2053468BF812
:100A0000000088F8000000200A900B9004AA0CA9AE
:100A10000AA8FFF7ADFDA00502D46FF00100F8E6CB
:100A200014F0240F12D0E0071CD13868DDE90A1257
:100A3000031D3B600068C0E9001213E0087000006D
:100A4000FA6F0000BE6E0000F1D8FFFF0AA96846E9
:100A500005F050FEE00705D13868009A011D3960A5
:100A6000006802602846D4E60268114413780160E9
:100A700018467047D1600549794451610449794469
:100A8000116200211161114600F03AB8EDFFFFFF3D
:100A90006B000000426842B1016811F8013B23B1CC
:100AA000521EC0E90012184670470121C160881E1D
:100AB000704742685AB1C368016843B983688B4282
:100AC00005D0491E521CC0E90012002070474FF0AB
:100AD000FF30704700487047D80900200048704731
:100AE000F809002000487047D809002010B50446D6
:100AF00000F058FA0068005D00F0010010BD000031
:100B00002DE9F34F4FF0000A0C4656468DB00120F8
:100B10000C9001F10C000B9062690B980121904739
:100B2000051E2DD0252D2CD0216A8847C0B16269C1
:100B30000B9801219047216A88470028F7D1626904
:100B4000411E0B98904700E0761CA1690D988847DC
:100B5000216A88470028F7D1E1690D988847DBE7CB
:100B6000A1690D988847A842074601D1761CD3E7B2
:100B7000E1690D9888477F1C02D1BAF1000F6FD050
:100B80006CE162690B9800273D46394690472A2858
:100B900004D162690B98012190470125DFF8D082CA
:100BA00062690B9801219047A0F130010A290AD20D
:100BB0004745E5DC07EB870100EB4107303FDFD419
:100BC00045F01005ECE7E90601D46FF000476C280A
:100BD0000AD04C2814D0682815D06A280DD0742863
:100BE0001CD07A281AD01DE062690B980121904729
:100BF0006C2802D045F0040514E045F002050DE034
:100C000045F020050AE062690B98012190476828A9
:100C100002D045F0080505E045F4006562690B98CF
:100C200001219047C4E9015765283DD019DC5828B7
:100C30007AD00CDC452837D004DC252826D0412882
:100C40009ED131E046282FD0472899D12CE05B284F
:100C500077D0612828D063287CD0642823D15AE03B
:100C6000F7E06F2848D008DC66281DD067281BD025
:100C7000692821D06E2816D127E0702845D0732826
:100C800068D0752847D078280DD14DE0A1690D981E
:100C90008847252805463FF469AFE1690D988847E4
:100CA0006D1C3FF46AAFD9E00D9923466A466FF098
:100CB000010006F097FBC6E045F0400023464FF0E8
:100CC00000026060A80736D43EE0E8077FF447AF33
:100CD0002068011D21600068290501D506701BE709
:100CE000290701D5068017E7A90703D5F117C0E941
:100CF000006111E706600FE745F0400023464FF022
:100D000008026060A80716D41EE040F60E0125EA2E
:100D10000100606016E045F0400023464FF00A02F3
:100D20006060A80707D40FE045F040006060A807A6
:100D300008D5234610220D996FF00100AFF3008013
:100D400081E007E0102223460D996FF00100AFF318
:100D5000008078E04FF0000963284F46C8464B46B4
:100D6000CB4602D05B2807D039E02079C00601D4F9
:100D70000120A060012732E06269D4F80CB00B9822
:100D8000012190475E2807D14FF001094946626969
:100D9000D4F80CB00B989047216939B900210A4664
:100DA00003AB43F82120491C0829FADBD8B3216999
:100DB00049B308F1010862690B98012190475D2849
:100DC000F4D1B9F1000F09D0002003A951F8202077
:100DD000D24341F82020401C0828F7DB03AB2069F0
:100DE000002820794FEA40701ED05B462246CDF89D
:100DF0000080CDE901970D9900286FF0010020DAFD
:100E0000AFF300801FE0C11703AA00EBD1614B11C3
:100E100021F01F0102EB8302411A13680120884070
:100E200003431360C7E719E00D99224600286FF0CD
:100E30000100009702DAAFF3008004E0AFF3008016
:100E400001E0AFF3008000280ADA401C06D10C98BC
:100E500020B14FF0FF300FB0BDE8F08F5046FAE7F9
:100E6000E90701D10AF1010A064400200C9053E67B
:100E7000CCCCCC0C2DE9F047814616468AB03548DB
:100E800078440DC88DE80D0032487844801C03ACCE
:100E90000DC884E80D0041F69B300844372190FBD3
:100EA000F1F290FBF1F5A5F1800501FB12041B3C6A
:100EB00002D56442012000E00020DFF898A08046BF
:100EC0000027FA44AAF1BE0A0EE0E0070AD0324633
:100ED000684607EB470101230AEB810100F07CFD26
:100EE0008DE8070064107F1C002CEED1194F7F4461
:100EF000AE3F19E0E80715D007EB04100DF1180A12
:100F000090E80E008AE80E00C068F04201D19819FE
:100F100008903246012306A903A800F05DFD03AB4B
:100F200083E807006D10641C002DE3D14FF001032E
:100F300032466946B8F1000F03A802D000F022FD46
:100F400001E000F049FDC9E90001C9F808200AB034
:100F5000BDE8F087A867000070477546FFF7BAFD47
:100F6000AE4605006946534620F00700854618B096
:100F700020B5FFF787F9BDE820404FF000064FF09D
:100F800000074FF000084FF0000B21F00701AC46BE
:100F9000ACE8C009ACE8C009ACE8C009ACE8C009DD
:100FA0008D46704710B5FFF799FD001D10BD00BFBD
:100FB000655800002DE9FF4F1F464FF03C0987B0F0
:100FC0004FF00042DDE9141001F10108DDF858A0EE
:100FD00002EA4050039000200590834605460446EF
:100FE0000490B969461E08988847AAF1010A029040
:100FF000BAF1000F3BDD02982E2815D0102100F029
:1010000066FA00282EDB4FF0010B0599014317D03B
:10101000B9F1000F0BDB4A46C11700F045FA054352
:101020000C43A9F1040905E0012004900BE008B18C
:1010300045F0010501200590049820B9361D02E015
:10104000049800B1361FB969089808F1010888476B
:10105000BBF1000FAAF1010A0290C9D00999C1F8A9
:101060000080C5E70298702808D0502806D0F9699A
:1010700008988847BBF1000F14D04FE00020029081
:101080000120BBF1000F049009D0B969089808F15C
:1010900001088847AAF10109B9F1000F07DCF969D5
:1010A000089888476FF001000BB0BDE8F08F2B283F
:1010B00004D02D280CD14FF0FF300490B969089866
:1010C00008F101088847A9F10109B9F1000FE6DD2F
:1010D000411CE4D00A2100F0FAF90028DFDB029974
:1010E00008F1010801EB810100EB41000290B969B0
:1010F000089888470A2100F0EAF9099AA9F101093C
:10110000B9F1000FC2F8008001DD0028E7DAF969C3
:10111000089888470499029800FB016655EA040084
:1011200004D004F04041090002D006E0039898E0A2
:10113000A40044EA9574AD00B61E04F00041080016
:1011400002D16D196441761E159810F0240F03D05A
:101150004FF00B095C4803E04FF028096FF07D0069
:101160008246564507DAAAEB06018944B9F1410FD8
:1011700001DD4FF0410901200021A9F1010200F039
:1011800093F9024628400B462140084301D0012133
:1011900000E00021501E029143F1FF312840214020
:1011A000084301D0012000E000200299834651EA63
:1011B0000B014FD0002108464FF00000039900F4C6
:1011C000400039B100EB80004FF4400100EBD070DB
:1011D00001EA60008015012802DD4FF0FF3000E0D9
:1011E00013D0401C36D0029860B3BBF1000F0CD175
:1011F0004A460120002100F057F9284021400843C9
:1012000001D0012000E00020E0B101204A46002189
:1012100000F04AF9034640190A4661412D1A8C41F3
:1012200011D3B9F1400F09DD159810F0240F02D049
:10123000AAF1340603E0AAF1170600E0761C0025A7
:101240004FF0004406E05B1E42F1FF3220EA030546
:1012500021EA0204CAF10100B04206DA1B490398F0
:1012600008430190002000900EE0039AC4F3D321BC
:10127000E80A0A43164940EA44500A433146CDE998
:101280000002684605F03FFA159810F0240F0BD0C5
:101290001598C00715D13868DDE90012031D3B60C1
:1012A0000068C0E900120CE002A8694605F022FAC5
:1012B0001598C00705D13868029A011D3960006889
:1012C00002604046F0E6000002FCFFFF0000F07FF5
:1012D0000000F03F2DE9FF4F92461D4685B04FF0CC
:1012E0000041DDE9124BDDE914727F1E01EA4B502B
:1012F000414940F0FF4940EA0108002122F0200066
:101300004928049102D04E2828D04CE03BA0012669
:1013100007C88DE80700A9690698641C88477F1EE6
:10132000014606D41DF8060018B121F020018142C3
:101330000BD0E96906988847032E34D0082E32D0A6
:101340006FF0010009B0BDE8F08F761C032E01D0CC
:10135000082EE0D1601CCAF80000DCE7A9690698F5
:10136000641C88477F1E2AD420F02000412826D103
:10137000A9690698641C88477F1E20D420F02000AD
:101380004E281CD1A9690698641C88477F1E48F422
:10139000002849F48009CAF8004001D4282806D062
:1013A000E969069888475FEACB7012D022E0A96904
:1013B0000698641C88477F1E01D4002803DAE96977
:1013C00006988847BCE72928F1D1641CCAF8004078
:1013D000E9E71BF0240F07D028680499031D2B6050
:1013E0000068C0E9001805E02868021D2A6000684E
:1013F000C0F800902046A5E70000F07F494E46491E
:101400004E4954590000000010B50446AFF3008067
:101410002046BDE81040FEF720BF00004FF0013C21
:1014200050F8042B51F8043B9A4221D1A2EB0C0353
:10143000934313EACC1317D150F8042B51F8043B13
:101440009A4215D1A2EB0C03934313EACC130BD1B0
:1014500050F8042B51F8043B9A4209D1A2EB0C033B
:10146000934313EACC13DBD04FF00000704700BF6A
:10147000D01A01BAB1FA81F101F0180122FA01F093
:10148000CB40C1F12001DBB2C0B2C01A2CFA01F38B
:10149000D11A914311EAC311E6D1704701491820CE
:1014A000ABBEFEE726000200B2F120030AD5C2F16E
:1014B000200301FA02F120FA03F300FA02F041EAF4
:1014C0000301704700FA03F14FF0000070473A281B
:1014D00000D2303820F02002412A01D3A2F1370097
:1014E000884201D34FF0FF30704720F07F4C80EAF4
:1014F000030023F07F47ACEB070303F57C5300F0B8
:10150000004003F1FF032DE980494FEA154B09B470
:101510004FEA144325EA0B4E24EA03480FF204264F
:1015200006EB132749083E785FEA320203FB0667A1
:10153000C7F5000707FB06F64FEA54374FEAD646D1
:1015400006F1020607FB066CCCF1005C4FEA1C4773
:101550002CEA074C07FB06F40CFB06F504EB1546DA
:101560004FEA961634BF00204FF000404FEAD137C3
:1015700006FB07FC4FEA1C4C0CFB0BF7D21B03FBD2
:101580000CF761EB07010CFB0EF7B0EB074072EBB9
:1015900017420CFB08F734BFA2EB0742B2EB07423D
:1015A00061EB17414FEA0C444FEA910706FB07FC39
:1015B0004FEA1C4C0CFB0BF7B0EBC74072EB5732F9
:1015C00003FB0CF734BFA2EBC742B2EBC74261EB9F
:1015D00057310CFB0EF7B0EBC70072EB57720CFBE8
:1015E00008F734BFA2EBC702B2EBC70261EB577139
:1015F000039F4FEA816141EA921104EBCC044FEA68
:10160000D1374FEA826206FB07FC42EA90124FEAAA
:1016100080604FEA1C4C0CFB0BF7D21B03FB0CF752
:1016200061EB07010CFB0EF7B0EB074072EB1742C2
:101630000CFB08F734BFA2EB0742B2EB074261EBA9
:1016400017414FEA8C554FEA910704EB9C2406FBA7
:1016500007FC4FEA1C4C0CFB0BF7B0EBC74072EBDE
:10166000573203FB0CF734BFA2EBC742B2EBC742C1
:1016700061EB57310CFB0EF7B0EBC70072EB577202
:101680000CFB08F734BFA2EBC702B2EBC70261EB59
:10169000577115EB4C254FEA816141EA92114FEAEF
:1016A00082624FEAD13742EA901206FB07FC44F10E
:1016B00000044FEA80604FEA1C4C0CFB0BF7D21B76
:1016C00003FB0CF761EB07010CFB0EF7B0EB0740D7
:1016D00072EB17420CFB08F734BFA2EB0742B2EBE8
:1016E000074261EB174115EB1C154FEA813141EAC6
:1016F00092414FEA823242EA90424FEA80304FEA0A
:101700000C7644F1000448EA03434EEA0B484FF0DC
:10171000000EB2EB080C71EB030724BF624639469A
:101720004EEB0E0E4FF0000B0018524149414BEBAF
:101730000B0BB2EB080C71EB03077BF1000B24BF22
:10174000624639464EEB0E0E4FF0000B0018524128
:1017500049414BEB0B0BB2EB080C71EB03077BF130
:10176000000B24BF624639464EEB0E0E51EA0207CB
:1017700018BF46F0010616EB0E7655F1000254F143
:10178000000103D5BDE88901BDE80088BDE88901F5
:10179000BDE80048B619524141EB0101A3F1010334
:1017A000704780807F7E7D7C7B7A797877767675CE
:1017B0007473727171706F6E6E6D6C6C6B6A6A6946
:1017C0006868676666656464636362616160605FE0
:1017D0005F5E5E5D5D5C5C5B5B5A5A595958585759
:1017E00057565655555554545353525252515150C1
:1017F00050504F4F4F4E4E4D4D4D4C4C4C4B4B4B14
:101800004A4A4A4949494848484747474746464659
:101810004545454444444443434343424242424194
:101820004141000046EA0646A3F570534FEA1646CA
:1018300046EA42564FEAD22242EA415210B54FEAF6
:10184000D121A3F1010300F02FF820F0004000F1B6
:10185000020C00F0004701EB00501146BCF5006F90
:1018600040EA070000D210BDBAF1000F0AD01CB543
:1018700003B44FF004004FF004014FF000000FBC20
:10188000BDE810404FF00001BBF1010FB9BF0448A3
:101890004FF0FF310348002140EA070010BD00BFB0
:1018A000FFFFEF7F0000F07F002B9C4630D47700D5
:1018B0002BD01CB54FEA370703B44FF010004FF0A0
:1018C0001001BAF1000F06D0BCF1000FDCBF40F0F0
:1018D000080040F008014FF000000FBCBDE81040C8
:1018E0000BF1010BBBF1010F08BF5FEA170722BF25
:1018F00012F1010211F101014FF0004143F1000327
:1019000000F0004043EA00007047F9D35708D0E7E1
:1019100046EA064613F1400F4FEA16461FDD13F163
:10192000200FDFBF16430A46002120335B42BED0A2
:10193000C3F1200746EA064602FA07F74FEA1646C1
:1019400046EA0706C3F1200722FA03F201FA07F775
:1019500021FA03F14FF0000342EA0702A7E746EA43
:10196000020646EA06464FEA164646EA0106BCBFAC
:1019700046EA0646360C4FF000034FF000024FF0E7
:10198000000194E72DE9804C9A46934670B491E8A3
:10199000380007C831EA400C48BF34EA430C03D58D
:1019A000FFF7A3FDFFF780FFF0BCBDE8008C2DE939
:1019B000804C9A46934670B491E8380007C831EAE3
:1019C000400C48BF34EA430C03D5FFF78EFDFFF708
:1019D00029FFF0BCBDE8008C2DE9804C9A46934667
:1019E00070B491E8380007C810F0804F08BF13F0BA
:1019F000804F03D100F01AF8FFF756FFF0BCBDE8A6
:101A0000008C2DE9804C9A46934670B491E83800DA
:101A100007C810F0804F08BF13F0804F03D100F0CB
:101A200005F8FFF7FFFEF0BCBDE8008C20F07F4713
:101A300080EA030023F07F4C07EB0C03A3F57C53F3
:101A400000F00040A3F1FE0392F0000F00F0B3801D
:101A500095F0000F00F077802DE901494FEA114021
:101A60004FEA144621EA004800FB06FC24EA064738
:101A700008FB06F607FB08F800FB07F718EB06481B
:101A80004CEB164C4FEA124B18EB07484FEA154641
:101A90004CEB174022EA0B4E0BFB06FC25EA0647EF
:101AA0000EFB06F607FB0EFE0BFB07F71EEB064EC2
:101AB0004CEB164C4FF000061EEB074E4CEB174B51
:101AC00018EB0B0840F1000018EB0E0B58EB000868
:101AD00040F100008F1A4FF000013CBFC943661B64
:101AE00014BFB5EB040C00213CBFC943F61B4FEA01
:101AF00017444EEA8E0E27EA04454FEA1C4704FBC2
:101B000007622CEA074C05FB07F70CFB05F604FB04
:101B10000CFC16EB074642EB174216EB0C4642EB69
:101B20001C421BEB060658EB0202414146EA9E06A8
:101B300001D5BDE80189B619524141EB0101A3F17C
:101B40000103BDE801894FEA14454FEA114724EA31
:101B5000054621EA074C05FB07F406FB07F70CFBDB
:101B600006F105FB0CFC11EB074144EB17444FEA6F
:101B7000124711EB0C4144EB1C4422EA074C05FBD5
:101B800007F206FB07F70CFB06F605FB0CFC16EB51
:101B9000074642EB174216EB0C4642EB1C456A180F
:101BA00054F1000148BF7047B619524141EB0101A1
:101BB000A3F10103704795F0000F37D04FEA1142AF
:101BC0004FEA144721EA024624EA074C02FB07F1D8
:101BD00006FB07F70CFB06F402FB0CFC14EB0744B6
:101BE00041EB17414FEA154714EB0C4441EB1C4104
:101BF00025EA074C02FB07F506FB07F70CFB06F688
:101C000002FB0CFC16EB074645EB174516EB0C46A2
:101C100045EB1C42121951F1000148BF7047B6193B
:101C2000524141EB0101A3F1010370474FEA144512
:101C30004FEA114724EA054621EA074C05FB07F164
:101C400006FB07F70CFB06F24FF0000605FB0CFC49
:101C500012EB074241EB174112EB0C4251EB1C41D6
:101C600048BF7047921841EB0101A3F1010370478F
:101C700000280CD0017A002909D0016800EE901AE2
:101C8000F4EEC00AF1EE10FA02DD00EE101A704711
:101C9000406800EE900AF4EEC00AF1EE10FAF6D2B7
:101CA00000EE100A704700280AD010EE102A0260D9
:101CB00010EE902A426011EE102AC0F8092001723D
:101CC0007047002805D0002210EE101A0260416013
:101CD0008260704710B500F047FC0E4800F05AFBD8
:101CE00002F0BEFE00F0AEF80B4803F04DF900F034
:101CF000BBFC03F0E1FB03F027FA03F0F3FA03F077
:101D00007DFF00F04BF800F07DF8BDE8104000F0DA
:101D10007FB8000028040020CC0500202DE9F04108
:101D20001C4D0226012728781B4C04282ED2DFE800
:101D300000F0020408262F7028E0FFF7CBFF2E707A
:101D400024E004F013F8144800F0ACFB002648B17E
:101D500003F0D2FA00F000FD03F0F8FB44F8316F15
:101D6000277113E0D4F83100401CC4F831000A2870
:101D70000CD90320287044F8316F267106E006481C
:101D800000F090FB10B12E7084F83570BDE8F04182
:101D900003F0E4B9260000202804002010B508480C
:101DA00001F0B4F90221064800F0E5FD054801F014
:101DB000ADF9BDE810400221024800F0DCBD000092
:101DC000E00500200806002000B58BB0017A0591DF
:101DD000002106910121079130F8021F009130F88F
:101DE000021C01918188029141880391C16804918C
:101DF000C1790991016908918068694600F036FE51
:101E00000BB000BD014802F0D1B800003006002040
:101E10007047FEE7014800F02ABF0000E0050020FF
:101E2000014800F024BF0000E0050020014800F058
:101E30001EBF000008060020014800F018BF000087
:101E400008060020AFF3008000B587B0BDF802009F
:101E500000F01F00ADF80200144800990140009105
:101E60009DF8001021F006018DF80010BDF8061055
:101E700001F01F01ADF806100199014001919DF894
:101E8000040040F006008DF804000E208DF80800D4
:101E90000748CDF80A000020CDF80E000120CDF84B
:101EA00012006846FFF790FF07B000BD0700E0FF93
:101EB0000806002000B587B00123069383880093AD
:101EC00000230293CDE903328DF814300A460068EE
:101ED00006AB694600F061FD07B000BDF0B50388B0
:101EE000002441F221060DE00D5D83EA0523002563
:101EF0001F0402D586EA430300E05B006D1C082D39
:101F0000F6D3641C9442EFD30380F0BD00280DD0BB
:101F100000F8011B10EE101A016010EE901A4160DB
:101F200011EE101A816011EE901AC160704710EE28
:101F3000100AB0F17E5F02DDB7EE000A06E010EE97
:101F4000100A10F1814F01D9BFEE000A20EE001AED
:101F500021EE000A20EE200A70470000F0EEC01AC1
:101F6000F4EEE01AF1EE10FA02D29FED120A704779
:101F7000B7EE002AB5EEC00A72EE602AF1EE10FA52
:101F800002DD30EE600A01E030EE200AC0EE221AD7
:101F900011EE900AB0F17E5F02DDF0EE421A06E02B
:101FA00011EE900A10F1814F01D9FFEE001A21EED7
:101FB000810A70470000000010EE100AF7EE001AC8
:101FC000B0F17E5F02DDB0EE610A06E010EE100AAD
:101FD00010F1814F01D9BFEE000A71EEE01A60EEF8
:101FE000800A40EE801A21EE800A20EE010A704736
:101FF00010B510EE100A2DED028BB0EE418AB0F153
:102000007E5F02DDB7EE000A06E010EE100A10F166
:10201000814F01D9BFEE000AB5EEC00AF1EE10FA09
:1020200002DBF7EE008A01E0FFEE008AB0EEC00AA4
:1020300003F0CAFF20EE280A20EE080ABDEC028B4E
:1020400010BD10EE100AB0F17E5F02DDB7EE000A9F
:1020500006E010EE100A10F1814F01D9BFEE000A20
:1020600020EE200A7047002844D00178092941D287
:10207000DFE801F0050B1140171D272D3600D0F8C1
:10208000090000EE900AFFF7DCBFD0F8090000EE6F
:10209000900A00F04FB8D0F8090000EE900AFFF760
:1020A00046BFD0F8090000EE900A00F08BB8D0F8D7
:1020B0000910D0F8010001EE101A00EE900AFFF7A7
:1020C00097BFD0F8090000EE900A00F053B850F81E
:1020D000091F406801EE101A00EE900AFFF73EBF9C
:1020E000D0F80510D0F8010001EE101A00EE900AA9
:1020F000FFF762BF70470000002817D0D0F80D101E
:1021000000EE901AF5EEC00AF1EE10FA0CDDF0EEDA
:10211000400AB0EEE01A00EE901AB4EEE01AF1EECA
:1021200010FA01D29FED020AFFF79DBF7047000031
:102130000000000010EE100AB0F17E5F02DDB7EE85
:10214000000A06E010EE100A10F1814F01D9BFEE2F
:10215000000AB5EEC00AF1EE10FA02DBB7EE001A83
:1021600001E0BFEE001A21EE001A21EE000A20EE77
:10217000200A704710EE100AB0F17E5F02DDB7EE64
:10218000000A06E010EE100A10F1814F01D9BFEEEF
:10219000000AF0EE001AB5EEC00AF1EE10FA02DB0A
:1021A000B0EE081A01E0B8EE081A60EE211A20EE2F
:1021B000011A61EE801A21EE001A01EEC01A21EE1A
:1021C000200A704710B510EE100A2DED028BB0EE0C
:1021D000608AB0F17E5F02DDB7EE000A06E010EE25
:1021E000100A10F1814F01D9BFEE000AB5EEC00A06
:1021F000F1EE10FA02DBF7EE008A01E0FFEE008A52
:10220000B0EEC00A04F012FA20EE280A20EE080A06
:10221000BDEC028B10BD00002DE9F05F0D002DED2F
:10222000068B04467DD0122A7BD12888C0F30A0091
:1022300020806978AA78C90841EA4211C1F30A01ED
:1022400061808B46A978EA78890941EA82012A7976
:10225000A0F5B67041EA8221C1F30A01A180884647
:1022600029796A79490841EAC211C1F30A07E7806E
:102270002E8A268169798909A1728A466979C1F312
:102280000111E172894604F05DFD9FED3C8B53EC3A
:10229000182B04F0ABFD9FED3B9B53EC192B04F086
:1022A000BDFB9FED3AAB53EC1A2B04F0D3FE04F0C8
:1022B000C7FAE060ABF5B67004F044FD53EC182BA0
:1022C00004F094FD53EC192B04F0A8FB53EC1A2BEB
:1022D00004F0C0FE04F0B4FA2061A8F5B67004F072
:1022E00031FD53EC182B04F081FD53EC192B04F055
:1022F00095FB53EC1A2B04F0ADFE04F0A1FA6061DB
:10230000A7F5B67004F01EFD53EC182B04F06EFD1B
:1023100053EC192B04F082FB53EC1A2B04F09AFEB9
:1023200000E027E004F08CFAA061A6F5B67004F096
:1023300009FD53EC182B04F059FD53EC192B04F054
:102340006DFB53EC1A2B04F085FE04F079FAE06182
:1023500084F820A084F82190E88860842889A084EB
:102360002889E084287B84F82800687B84F8290089
:10237000E8896085BDEC068BBDE8F09F0000000099
:10238000000000400000000000A094400000000099
:102390000000F03F10B500F136011222044801F0B0
:1023A0006EFF04480068016821F00801016010BD5B
:1023B0000807002018090020014800F035BF000080
:1023C000B8080020014800F02FBF0000F8070020E7
:1023D000014800F029BF000098070020014800F0E4
:1023E00023BF000058080020014800F01DBF000076
:1023F00078090020014800F017BF000018090020EC
:1024000001681823CAB2103AB2FBF3F2054B6FF31E
:102410000901032A9B5CC36500D9091D8165084633
:10242000704700005074000810B5014600208B6909
:102430008A6A4FF0C07453B1B3F5005F15D072B122
:10244000012A0CD0022A0AD0032A09D104E01AB1C9
:10245000012A06D0022A03D1C96AC90100D5012088
:1024600010BDC96AA142FAD010BD002AF7D0012AD6
:10247000F2D0022AF3D0032AF3D010BD30B504689D
:10248000256825F480252560046863608368402BF7
:10249000036803D099600068C26030BD9A6000682C
:1024A000C16030BD90F82D0070477047F0B544888A
:1024B000038865BA848886791848C1EB01110844FD
:1024C00002EB420150F80A7F0B225BBA02EB810259
:1024D00000EE103ABE540368B8EE400A012606EB3F
:1024E000810610EE102A64BA334424B21A6000EE5A
:1024F000104A0268052303EB8103B8EEC00A1A44B0
:10250000DFED070A1580006820EE200A072303EBA1
:10251000810110EE102A08440260F0BD270000205F
:102520000000803830B514460A46014610880D4A2E
:10253000C1EB011313441D899A7B401B401E80B2DE
:10254000451C954201D9012030BDD3F80A3000EB7B
:102550004005012203F82520C2B22046FFF7A6FF5E
:10256000002030BD27000020AFF3008000B587B009
:10257000BDF8020000F01F00ADF8020014480099F9
:10258000014000919DF8001021F006018DF8001027
:10259000BDF8061001F01F01ADF8061001990140C9
:1025A00001919DF804000B4940F006008DF80400ED
:1025B00000208DF80800CDF80A10CDF80E0001209B
:1025C000CDF812006846FFF7FFFB07B000BD000022
:1025D0000700E0FFE005002070B58AB001260896EC
:1025E000C0EB00161448DDE90E54304400EB410105
:1025F0008988029100210491059108210691110A10
:102600008DF800108DF80120190A8DF80210290AA2
:102610008DF804108DF80550210A8DF806108DF8FC
:1026200003308DF80740006808AB6A4602A900F045
:10263000B4F90AB070BD00002700002010B50446B0
:10264000FFF7EAFD2046FFF7A5FE3220C4F82D0073
:1026500010BDD0F82D10002902D0491EC0F82D1051
:10266000704772B6FEE7000010B5274901202DED36
:10267000028B087001F11500044602F043FD9FED46
:10268000248ADFED228AB2EE080AF0EE481AB0EE94
:10269000682AB0EE481AF0EE480A204602F042FDE1
:1026A00019484A30044602F02DFDB0EE682AF0EEDB
:1026B000481AB0EE481AF0EE480AB2EE000A204678
:1026C00002F030FD1048F0EE481A9FED121AF0EEBD
:1026D000480AB0EE480A0321A830FFF717FC0A4861
:1026E0009FED0D0A8F30FFF7ECFABDEC028B012154
:1026F0000548BDE81040B2EE041AFBEE0E0A9FED4D
:10270000070A9B30FFF7CFBA3201002000409C46F9
:1027100000000000CDCC4C3F0000B4420000B4C229
:102720000A489FED0C1A806900EE100A0848C1683B
:1027300000EE901AF8EEE00A40EE010ABDEEE00A63
:1027400010EE101AC16002F04DBA000028040020FB
:10275000CC05002000007A440A4810B50178002911
:102760000ED0D0F801100A290AD30021C0F80110B8
:1027700000F0ACF8FFF7D4FFBDE8104000F056B809
:1027800010BD0000320100200448D0F801100A29D1
:1027900002D2491CC0F8011070470000320100202D
:1027A00010B5416830EE200A00EE901A164A30EE5D
:1027B000C00ADFED160A10EE101A914201DD30EE6C
:1027C000600A134A10EE101A914201D930EE200A25
:1027D000DFED100A453060EE200A9FED0F0A02F08F
:1027E000F7FB10EE100A0E4ADFED0C0A0D4990427D
:1027F00002DDB0EE600A10BD10EE100A8842FAD970
:102800009FED090A10BD0000000034430000B443EE
:10281000000034C3B005B6410000000000007A4556
:1028200000007A4500007AC500007AC510B524483A
:102830002DED028B82B09FED218AB0EE480AFFF7A2
:102840005BFC9FED201ADFED200A1D4840EE410A97
:102850000D38B0EE600AFFF70BFA194C10EE101AA3
:10286000A83CF0EE480AC4F80D1000EE101A601DE6
:10287000FFF796FFBDEEC00A10EE100A01B2A4F8F1
:102880000710601D00F064F800EE100A00210B46EE
:10289000B8EEC00A10EE100AC4F8460000EE100AA6
:1028A00000910846BDEEC00A019110EE102AFFF714
:1028B00093FE02B0BDEC028B10BD000000000000D2
:1028C000DA01002000003443000070C210B5164841
:1028D000164C2DED068BD0F80A00B0F8051024F840
:1028E000051FD0F8010004F09FFC9FED111B9FED28
:1028F000128B9FED139B9FED14AB53EC112B04F047
:10290000A9FB53EC1A2B04F071FA53EC182B04F0CA
:1029100085F853EC192B03F0C5FF03F091FF6060BD
:10292000BDEC068B10BD0000270000203201002006
:1029300000000000000000000000000000FFBF4099
:1029400000000000008066C00000000000807640AB
:1029500010B530F9102B00EE102AF8EEC00A00EE88
:10296000101AB8EEC00A02F033FBBDEEC00A10EE3A
:10297000100A00B210BD90F82020012A07D0022AC8
:1029800005D0416A41F4802141620120704700680E
:1029900042690A43426100207047F0B590F8205028
:1029A0000468A468012D05D0022D03D0416A41F4CA
:1029B000802157E014F0406F01D1E5004FD5C4F3FA
:1029C00001640125A5401D608D684FF4C0739DB161
:1029D000CE6835434E6845EAC605066803EB041722
:1029E000F5514FF4C275076805EB04150E697E5169
:1029F000097D012905D009E00E88CD6845EA4655D4
:102A0000EBE701684E5946F480764E511179D5793D
:102A1000567941EA056195792D0445EA0625294351
:102A20004FF4C676056806EB0416A9511178D578DF
:102A300041EA0561957852782D0445EA0222114356
:102A40004FF4C475026805EB04155151006803EB9F
:102A50000411425842F0010242500020F0BD416A88
:102A600041F4001141620120F0BD000010B590F862
:102A70002020012A07D0022A05D0416A41F4802192
:102A80004162012010BD3B48D0F8002242F0010213
:102A9000C0F80022D0F8002222F47C52C0F80022B4
:102AA000D0F800224B6A42EA0322C0F800220A7DD5
:102AB00002F01F0301229A40D0F81C329343C0F861
:102AC0001C32CB69B3B9D0F80C329343C0F80C3246
:102AD0008C894B6864F31F434C6900EBC404C4F851
:102AE00040320C890B6864F31F434C6900EBC4044B
:102AF000C4F84432CB69012B16D1D0F80C32134301
:102B0000C0F80C320C884B6864F31F434C6900EB2F
:102B1000C404C4F840320C89CB6864F31F434C6989
:102B200000EBC404C4F844328B69002BD0F80432A3
:102B30000ED01343C0F804320B69002BD0F81432C6
:102B400008D01343C0F81432096A012904D008E000
:102B50009343EFE79343F5E7D0F81C121143C0F815
:102B60001C12D0F8001221F00101C0F80012002060
:102B700010BD000000640040704770B590F8204020
:102B8000012C05D0022C03D0416A41F4802128E0B9
:102B9000046809B32469A40720D04FF4D8740568E9
:102BA00004EB01142D5915F00405956005682D59A5
:102BB0001AD0ED08556005682C5904F00204D46061
:102BC0004FF4DA74056804EB01142E5906F00F0671
:102BD000082E0CD308250DE0E468DCE7416A41F4D7
:102BE00000114162012070BD6D0D1560E3E72D59A4
:102BF00005F00F05156105682D59C5F30725956189
:102C000005682C59240C54614FF4DC72046802EB03
:102C10000112A4581C700468A458240A5C7004684B
:102C2000A458240C9C700468A258120EDA704FF459
:102C3000DE72046802EB0112A4581C710468A458E7
:102C4000240A5C710468A458240C9C710468A2587E
:102C5000120EDA71006829B1016941F020010161A9
:102C6000002070BDC16841F02001C160F8E72DE986
:102C7000F05F0546006800244669D0F80490876834
:102C8000D0F80CB0D0F810A0D0F81880F10748D0D8
:102C9000F90714D001218160B80703D5284600F058
:102CA00062FA0CE0780702D54FF4006407E03807B9
:102CB00002D54FF4805402E0284600F053FAF8059C
:102CC00016D529684FF480708860B80503D528466A
:102CD00000F04BFA0CE0780502D544F4005407E00C
:102CE000380502D544F4804402E0284600F03CFA5E
:102CF000F80316D529684FF480308860B80303D5EF
:102D0000284600F034FA0CE0780302D544F400447D
:102D100007E0380302D544F4803402E0284600F08E
:102D200025FA300707D55FEACB6004D52968102063
:102D300044F40074C86070074FF0080707D55FEAD5
:102D40000B7004D52868C760284600F0A9F9B007C1
:102D500006D52868C068800702D0284600F0A2F98E
:102D6000700607D55FEACA6004D52968102044F4CC
:102D700080640861B00607D55FEA0A7004D5286848
:102D80000761284600F0BEF9F00606D528680069FC
:102D9000800702D0284600F0B6F9B00308D55FEAF4
:102DA000C96005D5296810204860284600F0ACF9B4
:102DB000F00307D55FEA097004D528684760284604
:102DC00000F0D6F9300446D55FEA497040D5F005E9
:102DD00004D55FEAC87001D044F00104B00504D501
:102DE0005FEA887001D544F00204700504D55FEAFB
:102DF000487001D544F00404300529D518F0700F4F
:102E000026D008F07000402815D006DC102809D024
:102E100020280AD0302816D10AE050280ED0602889
:102E200011D10EE044F008040DE044F010040AE073
:102E300044F0200407E044F0400404E044F080043F
:102E400001E044F480742868816921F07001816197
:102E5000296804204860002C05D0686A2043686215
:102E60002846FFF789FEBDE8F09F70B5040003D047
:102E700094F8200010B104E0012070BD204600F05D
:102E800081F82068016841F00101016000F06AFCEE
:102E90000546052604E000F065FC401B0A2811D811
:102EA00020684068C007F6D02068016821F0020160
:102EB000016000F057FC05460BE000F053FC401B9E
:102EC0000A2806D9606A40F40030606284F8206005
:102ED000D2E7206840688007EFD4207E0128206870
:102EE00001683DD021F080010160607E01282068EA
:102EF000016838D021F040010160A07E01282068DF
:102F0000016833D021F020010160E07E01282068B3
:102F100001682ED041F010010160207F0128206857
:102F2000016829D021F008010160607F0128206834
:102F3000016824D021F004010160D4E902010843B2
:102F4000D4E90412114308436168491E084321680B
:102F5000C86100206062012084F82000002070BD5C
:102F600041F08001C0E741F04001C5E741F0200198
:102F7000CAE721F01001CFE741F00801D4E741F0A2
:102F80000401D9E7F0B587B0044614216846FDF77F
:102F9000BAFA3E4B3E48DFF8F0E01968D4F800C0BA
:102FA0003B4A03250226092710300024491CF4451A
:102FB0002AD11960012907D1016841F0007101602F
:102FC000006800F000700590106840F00800106084
:102FD0001068CDE9005600F00800CDE9047069469C
:102FE0002C48CDE9024500F0A3FA00221146142036
:102FF00000F026FC142000F015FC002211461520DC
:1030000000F01EFC15203BE0DFF88CE0F44539D1E0
:10301000D0F800C04CF0806CC0F800C0D0F800C000
:1030200001290CF0806CCDF814C0196007D101683B
:1030300041F000710160006800F0007005901068B8
:1030400040F002001060106802AB00F00200059032
:103050004FF44050CDE9000683E8B00069460F48C0
:1030600000F066FA00221146402000F0E9FB402003
:1030700000F0D8FB00221146412000F0E1FB412086
:1030800000F0D0FB07B0F0BD006400405800002005
:1030900030380240000C024000680040000402404A
:1030A0007047000010B50446124888B084420DD124
:1030B000114B6A4600212046FFF75FFD08B1FFF77C
:1030C000D0FA0D4A69460020FFF72CFA0B488442DB
:1030D0000DD10B4B6A4600212046FFF74EFD08B18B
:1030E000FFF7BFFA064A69460120FFF71BFA08B04E
:1030F00010BD0000E005002045000020080600206B
:103100004D000020704770477047000070B50446BE
:1031100090F82000012804D0606A40F4002060622A
:1031200018E0022084F820002068016821F00101E5
:10313000016000F017FB05460EE000BF00F012FB37
:10314000401B0A2808D9606A40F4003060620520FC
:1031500084F82000012070BD20684068C007EDD1D0
:10316000606270BD70477047704770477047704726
:1031700070472DE9F0410446876D00F0F3FA0646EA
:1031800094F835000025022806D08020606584F878
:1031900034500120BDE8F0812068016821F016015B
:1031A00001602068416921F080014161206C08B90B
:1031B000A06C20B12068016821F00801016020683E
:1031C000016821F0010101600CE000F0CBFA801BE6
:1031D000052807D920206065032084F8350084F88D
:1031E0003450D7E720680068C007EED194F85C102F
:1031F0003F208840B860012084F8350084F83450BE
:103200000020C7E790F83510022903D080214165DE
:1032100001207047052180F835100068016821F011
:1032200001010160002070472DE9F84304464FF08A
:103230000009CDF8009063484FF41651A56D006861
:10324000B0FBF1F72E6894F85C10082000FA01F149
:1032500031420FD021680A6852070BD50A6822F064
:1032600004020A6094F85C108840A860606D40F029
:103270000100606594F85C104FF0010808FA01F055
:10328000304208D021684969090604D5A860606DFC
:1032900040F00200606594F85C10042088403042E1
:1032A00008D021680968890704D5A860606D40F0DE
:1032B0000400606594F85C1010208840304218D0FB
:1032C00021680968090714D5A860206801684903C6
:1032D00004D50068000308D5A16C07E00168C905A2
:1032E00003D4016821F008010160216C09B1204676
:1032F000884794F85C1020208840304231D0216803
:103300000968C9062DD5A86094F8350005282068FD
:10331000016806D0490347D5006800031DD4616CDD
:103320001CE021F0160101602068416921F0800154
:103330004161206C08B9A06C20B12068016821F0BF
:103340000801016094F85C103F208840A86084F870
:10335000358084F83490216D1FE0E16B09B120467F
:103360008847606D00282BD0606DC00714D0052001
:1033700084F835002068016821F00101016000989F
:10338000401C0090B84203D820680068C007F6D1FE
:1033900084F8358084F83490E16C002910D001B0B5
:1033A0002046BDE8F04308470168C905D5D4016847
:1033B00021F01001016084F8358084F83490CCE766
:1033C000BDE8F883680000202DE9F041044600F0D4
:1033D000C9F906465CB1022084F83500002584F85E
:1033E00034502068016821F0010101600DE00120E6
:1033F000BDE8F08100F0B6F9801B052805D9202032
:103400006065032084F83500F2E720680068C00793
:10341000F0D12268116820480140D4E90103184323
:10342000D4E903363343184363691843A369184347
:10343000E3691843236A18430843616A042903D1E6
:10344000D4E90B1319430843106020684069666A89
:1034500020F0070130460E43012704280CD1A06A52
:103460000643E06A40B12046FEF7DEFF20B140206F
:10347000606584F83570BAE7206846612046FEF73B
:10348000BFFF94F85C203F2191408160656584F81E
:1034900035700020ACE700003F8010F02DE9F041CE
:1034A0000446866D90F83400002501280DD00120D7
:1034B00084F8340094F835700020012F07D084F888
:1034C000340002252846BDE8F0810220FBE70227F0
:1034D00084F8357060652046FEF7D0FF94F85C10E4
:1034E0003F208840B0602068016841F0160101600B
:1034F000206C20B12068016841F00801016020685B
:10350000016841F001010160DCE7000070B504468C
:1035100000F028F90546601C02D0044800780444F5
:1035200000F020F9401BA042FAD370BD5C000020DF
:103530002DE9F84FDFF8F8A10022012403254FF010
:103540000F090AF1040BAAF1040E00BF0B6804FA7C
:1035500002F63340B34270D10F7907F00307012F11
:1035600001D0022F16D187684FEA420805FA08FCFD
:1035700027EA0C07D1F80CC00CFA08FC4CEA070C3F
:10358000C0F808C04768B7430E79C6F300169640E6
:103590003E4346600E79F643B6070AD0C7684FEA45
:1035A000420C05FA0CF6B7438E6806FA0CF63E4359
:1035B000C6600E7906F00306022E10D1D60800EB85
:1035C0008608D8F8206057074FEAD76C09FA0CF73D
:1035D000BE430F6907FA0CF73743C8F82070066836
:1035E0004FEA420C05FA0CF7BE430F7907F00307C8
:1035F00007FA0CF7374307604E6816F4403F1CD0BB
:103600004C4E376847F480473760366822F003072E
:1036100006F480460096484E07EB060CDCF8086876
:1036200097073F0F09FA07F826EA0806DFF80C812A
:10363000404503D14FF0000841E072E0DFF800811F
:10364000404502D14FF0010839E0DFF8F8804045ED
:1036500002D14FF0020832E0DFF8EC80404502D1A1
:103660004FF003082BE0DFF8E480404502D14FF033
:10367000040824E0DFF8D880404502D14FF0050867
:103680001DE0DFF8D080404502D14FF0060816E07B
:10369000DFF8C480404502D14FF007080FE0DFF8A3
:1036A000BC80404502D14FF0080808E0DFF8B08048
:1036B000404502D14FF0090801E04FF00A0808FA2E
:1036C00007F848EA0608CCF80888DAF80060574698
:1036D000D1F804C09E435FEACC2C00D51E433E6067
:1036E000DBF800605F46D1F804C09E435FEA8C2C93
:1036F00000D51E433E60DEF800607746D1F804C076
:103700009E435FEA8C3C00D51E433E60084F083F55
:103710003E68D1F804C09E435FEACC3C00D51E430E
:103720003E60521C102AFFF411AFBDE8F88F000074
:10373000083C014044380240003001400000024093
:103740000004024000080240000C02400010024049
:103750000014024000180240001C024000200240F9
:103760000024024001488068704700005C0000208F
:103770000248816802781144816070475C00002033
:103780000B4810B5016841F400710160016841F413
:1037900080610160016841F480710160032000F0E4
:1037A0006FF80F2000F006F800F024F8002010BD9C
:1037B000003C024070B50D4D04464FF47A712878F4
:1037C000B1FBF0F00A490968B1FBF0F000F044FBEE
:1037D00048B9102C07D200222146501E00F030F8C4
:1037E00000206C6070BD012070BD00005C000020F6
:1037F000680000200A4808B5016841F48041016072
:10380000006800F4804000900548001F016841F006
:1038100080510160006800F08050009008BD0000F9
:1038200044380240002809DB00F01F0201219140CA
:103830004009800000F1E020C0F80011704700004E
:10384000F0B40E4B1B680C46C3F30223C3F107050B
:10385000042D00D90425191D072901D2002300E0F9
:10386000DB1E012606FA05F1491E214099409E40C3
:10387000761E16403143F0BC02F0B1BA0CED00E008
:10388000064900F0070208684FF6FF03184040EAB7
:103890000220034A10430860704700000CED00E06E
:1038A0000000FA052DE9F8431748016841F08051FE
:1038B00001600068154F00F08050012600903E64C2
:1038C000FFF750FF05464FF47A78114C05E000BF32
:1038D000FFF748FF401B40450DD86068C003F7D58F
:1038E0007E64FFF73FFF0546464607E0FFF73AFFD5
:1038F000401BB04202D90320BDE8F8836068800312
:10390000F4D50020F8E700004038024000000E42E5
:10391000007000402DE9F0470E46050065D0DFF845
:103920001481D8F80000F7B200F00F00B04207D2BF
:1039300088F80070D8F8000000F00F00B04254D1B1
:1039400028683D4C810712D5400703D5206840F414
:10395000E05020602878000703D5206840F46040DC
:1039600020602068A96820F0F000084320602878D3
:10397000C0072DD0304968680839012812D00228C4
:1039800013D0032811D00968890700292DDA21688E
:1039900021F0030101432160FFF7E4FE814641F27B
:1039A000883A0EE009688903EFE709688901ECE7C6
:1039B000FFF7D8FEA0EB0901514502D90320BDE86D
:1039C000F0872068696800F00C00B0EB810FEFD140
:1039D000D8F80010404601F00F01B14207D9077036
:1039E000006800F00F00B04201D00120E7E728781E
:1039F000400705D52068E96820F4E05008432060BE
:103A00002878000706D52068296920F4604040EA3C
:103A1000C100206000F038F82168084AC1F30311A2
:103A2000515CC8400649086006480068FFF7C2FEBE
:103A30000020C4E7003C02400838024058740008E7
:103A400068000020600000200448054900680968FB
:103A5000044AC1F38221515CC840704768000020CD
:103A6000083802406874000804480549006809687D
:103A7000044AC1F34231515CC840704768000020DD
:103A80000838024068740008154810B5006810F046
:103A90000C02144813D01449042A0FD0082A0ED15E
:103AA0000F4C241F2268236802F03F025B0207D5F7
:103AB0002068C0F38810A0FB010106E0084610BD95
:103AC0002168C1F38811A1FB00010023FCF7ECFB86
:103AD0002168C1F30141491C4900B0FBF1F010BD60
:103AE000083802400024F400001BB7002DE9F84F0D
:103AF00004006ED02078DFF84C93C007A9F10405CC
:103B00004AD009F104000168C1F38101012908D0FC
:103B10000068C0F3810002280AD1D9F800004002F1
:103B200006D52868800337D560680028E1D033E0E7
:103B30006068B0F5803F10D0B0F5A02F286810D095
:103B400020F480302860286820F480202860606895
:103B5000A8B1FFF707FE06460DE0286840F4803064
:103B6000F4E740F480202860F7E700BFFFF7FAFD94
:103B7000801B642873D828688003F7D50CE0FFF712
:103B8000F1FD064605E000BFFFF7ECFD801B642851
:103B9000F0D828688003F7D42078DFF8AC8280075B
:103BA0004FF0000A3ED5A748001D016811F00C0F28
:103BB00008D00068C0F3810002280BD1D9F80000BA
:103BC000400207D42868800716D5E068012800D194
:103BD00012E033E1E068B8B10120C8F80000FFF757
:103BE000C1FD064605E000BFFFF7BCFD801B0228B3
:103BF000C0D828688007F7D52868216920F0F80028
:103C000040EAC10028600DE0C8F800A0FFF7AAFD57
:103C1000064604E0FFF7A6FD801B02281FD828688F
:103C20008007F7D42078000722D5864F874861693E
:103C3000703771B101210160FFF794FD064604E081
:103C4000FFF790FD801B022809D838688007F7D558
:103C50000EE0C0F800A0FFF785FD064605E082E013
:103C6000FFF780FD801B02287DD838688007F7D4D5
:103C70002078400768D5DFF8CCB100270BF13C0B6A
:103C8000DBF80000C0000BD4DBF8001041F08051DD
:103C9000CBF80010DBF80000012700F08050009006
:103CA0006B4E3068C00510D4306840F480703060CE
:103CB000FFF758FD009005E0FFF754FD0099401A0A
:103CC000022850D83068C005F6D55E4EA0686C3624
:103CD00001280FD00528306810D020F00100306096
:103CE000306820F004003060A068B8B1FFF73AFDFA
:103CF00000900FE0306840F00100F4E740F004006D
:103D00003060F7E7FFF72EFD0099411A41F2883045
:103D1000814266D830688007F4D50EE0FFF722FDB7
:103D2000009007E0FFF71EFD0099411A41F288302C
:103D3000814256D830688007F4D42FB1DBF80010E8
:103D400021F08051CBF80010A069C8B33D49091D8E
:103D50000968C1F3810102294AD00228504607D0E0
:103D6000C8F8600000E03CE0FFF7FCFC04463BE0E4
:103D70004746C8F86000FFF7F5FC064605E000BFBF
:103D8000FFF7F0FC801B02282BD828688001F7D4AD
:103D9000D4E907010843A16A2E4A490802EB014110
:103DA000626A41EA8211084394F82C1040EA0161EA
:103DB000C9F8001001203866FFF7D4FC044606E07D
:103DC0003EE000BFFFF7CEFC001B022809D82868A0
:103DD0008001F7D534E000BFFFF7C4FC001B0228C8
:103DE00002D90320BDE8F88F28688001F4D427E0C9
:103DF0000128F7D0D9F80000E26900F4800191426F
:103E00001CD1226A00F03F01914217D147F6C071E0
:103E1000626A0140B1EB821F10D1A26A4FF0FF33FA
:103E200000F4403103EB5202B1EB024F06D194F89B
:103E30002C1000F07060B0EB016F01D00120D1E7D1
:103E40000020CFE70438024000004742800E47427E
:103E5000007000400000FFFF10B5401EB0F1807FF1
:103E600001D3012010BD4FF0E02460610F216017E5
:103E700001F0B5FF0020A06107202061002010BDE7
:103E80007047704770B590F83C20012A32D0012469
:103E900080F83C40022280F83D2003685A689D6803
:103EA00022F070060A6832435A60134B02689A4245
:103EB00014D0B2F1804F11D0104B9A420ED0104B5B
:103EC0009A420BD00F4B9A4208D00F4B9A4205D022
:103ED0000E4B9A4202D00E4B9A4204D1496825F00B
:103EE00080031943916080F83D40002180F83C1028
:103EF000084670BD022070BD000001400004004073
:103F000000080040000C0040000401400040014057
:103F10000018004010B5040003D094F83D0010B123
:103F200007E0012010BD002084F83C00204600F08E
:103F30001FF8022084F83D00211D206801F08AFB53
:103F4000012084F8460084F83E0084F83F0084F89D
:103F5000400084F8410084F8420084F8430084F86B
:103F6000440084F8450084F83D00002010BD0000A6
:103F700008B500680B49884212D10B48016841F02E
:103F8000010101600068002200F00100009011466C
:103F90001920FFF755FCBDE808401920FFF742BC87
:103FA00008BD0000000001404438024090F83D1078
:103FB000012901D001207047022180F83D100168DD
:103FC000CA6842F00102CA6000681149884214D0F0
:103FD000B0F1804F11D00F4988420ED00E4988426F
:103FE0000BD00E49884208D00D49884205D00D49B2
:103FF000884202D00C49884204D1816801F007014F
:10400000062903D0016841F00101016000207047DA
:10401000000001400004004000080040000C004087
:1040200000040140004001400018004070B5044603
:1040300090F83C000025012817D0012684F83C6048
:10404000022084F83D002068826822F0770222F482
:104050007F4282600868502838D00DDC20284FD07D
:1040600005DC90B3102811D14AE0022070BD302841
:1040700046D040280AD13BE060282FD070280DD0D0
:10408000B0F5805F03D0B0F5005F12D0012584F851
:104090003D60002084F83C00284670BDCB68D1E923
:1040A0000121206801F03EFB2068816841F0770122
:1040B00009E0CB68D1E90121206801F033FB2068D9
:1040C000816841F480418160E1E719E0CA6849688C
:1040D000206801F039FB5021206806E0CA68496871
:1040E000206801F042FB6021206801F025FBCEE74B
:1040F000CA684968206801F027FB40212068F4E77E
:10410000226801461046F0E770472DE9F041044669
:104110000068C66805694FF00007A90713D5B10705
:1041200011D5F91E01610120207720688069800780
:10413000204602D0FFF7E8FF04E000F07EF82046BA
:1041400000F07CF82777680716D5700714D521682A
:104150006FF004000861022020772068806910F465
:10416000407F204602D0FFF7CFFF04E000F065F863
:10417000204600F063F82777280715D5300713D5B8
:1041800021686FF008000861042020772068C0696A
:104190008007204602D0FFF7B7FF04E000F04DF89B
:1041A000204600F04BF82777E80616D5F00614D520
:1041B00021686FF010000861082020772068C0692E
:1041C00010F4407F204602D0FFF79EFF04E000F08D
:1041D00034F8204600F032F82777E80708D0F007D7
:1041E00006D021686FF001000861204600F028F831
:1041F000280608D5300606D521686FF080000861D2
:104200002046FFF73DFE680608D5700606D52168F2
:104210006FF040000861204600F030F8A8060AD58B
:10422000B00608D521686FF0200008612046BDE87F
:10423000F041FFF726BEBDE8F081704770470000EF
:1042400010B500680B49884212D101F065F8FEF7FD
:104250009BFA01F093F900F099FF01F0C3FC01F023
:104260009FFD00F06BFCBDE810400348FEF7F1B97C
:1042700010BD00000000014028040020704738B540
:10428000044690F84200202801D0022038BD51B1E8
:104290004AB10120206300206063204601F044FC05
:1042A000216B012901D0012038BD21680A684968C5
:1042B000009121680C3151E8002F42F0100241E8D2
:1042C0000023002BF5D138BD70B50D4604460068BB
:1042D0000C49884202D1284600F024FC0A49206893
:1042E000884205D10949EAB2A1F13600FEF7A6F9E4
:1042F00007492068884204D12846BDE8704001F093
:1043000033BD70BD00140140001001405E04002068
:10431000007C004010B504460068406994F84110E4
:10432000C0F3C010212911D180B12068143050E8A9
:10433000001F21F0800140E80012002AF5D1A06B97
:1043400008B1FEF716FF204601F0F9FA206840692F
:1043500094F84210C0F38010222911D180B1206856
:10436000143050E8001F21F0400140E80012002AFC
:10437000F5D1E06B08B1FEF7FCFE204601F0B8FA7B
:10438000002010BD70470000F8B5016804460868B9
:10439000CA684B6910F00F0F4FF0000559D003F0B9
:1043A000010602F49077374365D0C10705D0D105E7
:1043B00003D5616C41F001016164410705D5D9075E
:1043C00003D0616C41F002016164810705D5D90712
:1043D00003D0616C41F004016164010707D502F06C
:1043E0002001314303D0616C41F008016164616CCC
:1043F00000293AD0800604D5900602D5204601F067
:10440000ACFA20684069616CC0F38010090700D4E1
:1044100060B3204601F06CFA20684069400621D55F
:104420002068143050E8001F21F0400140E80012DD
:10443000002AF5D1E06BA8B172490165E06BFEF787
:10444000E1FE002811D0E06B016D01B0BDE8F04045
:10445000084783060FD593060DD52046BDE8F840E2
:1044600001F07BBA2046FFF78DFFF8BD2046FFF72D
:1044700089FF6564F8BD266B2023012E7ED1C60618
:104480007CD5D6067AD508684868009048694FF010
:10449000020640064DD5E26B106840684FF4807705
:1044A0000004000C3AD0A18D814237D9E085D06953
:1044B000B8422DD020680C3050E8001F21F48071E4
:1044C00040E80012002AF5D12068143050E8001F9F
:1044D00021F0010140E80012002AF5D120681430D3
:1044E00050E8001F21F0400140E80012002AF5D1F9
:1044F00084F84230256320680C3050E8001F21F01A
:10450000100140E80012002AF5D1E06BFEF731FE01
:104510006663A08DE18D401A81B206E0A18D8142D3
:10452000A8D1D069B842A5D166632046FFF7CCFE7A
:10453000F8BDA08DE18D401A81B2E08D0028F7D042
:104540000029F5D020680C3050E8002F22F490723A
:1045500040E80027002FF5D12068143050E8002FE4
:1045600022F0010240E80027002FF5D184F8423004
:10457000256320680C3050E8002F00E006E022F0B0
:10458000100240E80023002BF3D1CDE705062BD520
:10459000150629D594F841002128C9D1A068B0F5A5
:1045A000805F01D12069B0B1206A411C216221687D
:1045B00000784860E08C401E0004000CE084B7D115
:1045C0002068C16821F08001C1602068C16841F0A5
:1045D0004001C160F8BD206A0088C0F3080048604F
:1045E000206A801C2062E5E74006F3D55006F1D52D
:1045F000CA68204622F04002CA6084F8413000F0C8
:1046000005FAF8BDA957000870B5040004D094F865
:104610004100002510B106E0012070BD84F8405033
:10462000204600F023F8242084F841002068C16867
:1046300021F40051C160204601F0F0F920680169C1
:1046400021F4904101612068416921F02A01416112
:104650002068C16841F40051C1606564202084F87D
:10466000410084F842006563002070BD2DE9F04FE1
:1046700087B0054614216846FBF745FFB548DFF8CB
:10468000D0821038D5F800C0DFF8C8A2022203217A
:104690000823002407154FF0C00E4FF480794FF027
:1046A0002066C4455ED1DAF80080A34648F0804811
:1046B000CAF80080DAF800C00CF0804CCDF814C0C5
:1046C000D0F800C04CF0200CC0F800C00068CDF855
:1046D00000E000F020000590CDE90313CDE90124AE
:1046E00069469D48FEF724FFDFF874A29B495046B7
:1046F000CAF80010C0E90164C0E90347CAF81440D1
:10470000C0E90649B846CAF820404F46CAF82440D6
:10471000FEF75AFE08B1FDF7A4FF914C8F48C5F88B
:104720003CA060343038CAF83850C4E90006402054
:10473000A060C4E903B8C4F814B0C4E906B7C4F86B
:1047400020B02046C4F824B0FEF73EFE08B1FDF7C5
:1047500088FFAC63002211465220A563FFF770F872
:10476000522063E0DFF8FC81C44564D1DAF80080B0
:10477000A14648F00048CAF80080DAF800C00CF002
:10478000004CCDF814C0D0F800C04CF0100CC0F8AC
:1047900000C0006800F0100005908DE81600CDE91B
:1047A000031369467048FEF7C3FEDFF8B4816B4916
:1047B00008F1C00848314046C8F80010C0E901645B
:1047C000C0E90347C8F81440C8F81840C8F81C40AE
:1047D000C8F82040C8F82440FEF7F6FD08B1FDF700
:1047E00040FF5E48614CC5F83C804838C8F83850F6
:1047F000C4E900064020A060C4E90397C4F81490FF
:10480000C4F81890C4F81C90C4F820902046C4F84E
:104810002490FEF7D9FD08B1FDF723FFAC63002219
:1048200011465320A563FFF70BF85320FEF7FAFF5C
:1048300007B0BDE8F08FDFF83881DFF818A1C44574
:104840000AF1040A3BD1DAF8006046F01006CAF813
:104850000060DAF8003003F010030593036843F0BA
:10486000020303600068CDF800E000F0020005904C
:104870000720CDE90310CDE9012469463D48FEF744
:1048800057FE3A4E3C48603630604FF00060C6E953
:104890000104C6E903477461C6E90649346230463B
:1048A0007462FEF791FD08B1FDF7DBFEEE630022B6
:1048B00011462520B563FEF7C3FF2520B6E7DFF8D4
:1048C000BC80C445B4D1DAF8008048F02008CAF8AA
:1048D0000080DAF800C00CF0200CCDF814C0D0F83D
:1048E00000C04CF0400CC0F800C0006800F0400070
:1048F0000590CDE903134FF484408DE81500694617
:104900001F48FEF715FEDFF864801B4908F1C00858
:1049100018394046C8F80010C0E90164C0E90347EF
:10492000C8F81440C0E90649C8F82040C8F8244037
:10493000FEF74AFD08B1FDF794FEC5F83C80002261
:1049400011464720C8F83850FEF77AFF47206DE738
:104950000078004040380240001402405860024095
:1049600098070020007C004000100240B80800209A
:104970000010014000040240406402400014014065
:10498000001802407047704770B5044690F8410027
:10499000202801D0022070BD01B3FAB12162A284A7
:1049A000E28400206064212384F84130A56B144B1D
:1049B000EB63A56B134B2B64A56B134BEB64A36BE1
:1049C000186520681346A56B021D2846FEF766FD94
:1049D00030B110206064202084F84100012070BDB7
:1049E00021686FF0400008602068143050E8001F14
:1049F00041F0800140E80012002AF5D1002070BD8E
:104A0000A5580008E7580008B757000870477047D6
:104A1000FEE710B50880C0F3C0028A70C0F300132F
:104A2000CB70C0F380240C71C0F3C0244C71C0F370
:104A30000030887102B923B10020C8711AB1012079
:104A400002E00120F9E7002008720BB1012000E02C
:104A5000002048720CB1012000E00020887210BDD7
:104A600010B50B4C012020700020C4F801004FF459
:104A70009670FEF74BFD4FF48072611D0548FFF7FD
:104A8000FEFB05480068016821F00801016010BDC7
:104A900070040020500700207809002010B504465B
:104AA000B0F801001D49FFF7B4FF1D48E17880F818
:104AB00013116168C0F81411E168C0F81C11216974
:104AC000C0F820116169C0F82411A169C0F828114B
:104AD000E169C0F82C11216AC0F83011616AC0F890
:104AE0003411A16AC0F83811E16AC0F83C11216B99
:104AF000C0F84011616BC0F84411A16BC0F84811B7
:104B0000E16BC0F84C11216CC0F85011616CC0F819
:104B10005411A16CC0F8581110BD0000750500209B
:104B20007004002010B5044C0146601D00F012F81E
:104B30000020C4F8010010BD700400200448D0F823
:104B400001100A2902D2491CC0F801107047000068
:104B5000700400202DE9FC4F4FF000090E468246FC
:104B60004D46A1F1520737E00AEB0504218889B2CE
:104B7000A1F525405A3801D06D1C1CE0B4F8028024
:104B8000B4F804B008F1060080B228440190B042A5
:104B900024D80020ADF80000042221466846FDF725
:104BA0009DF94246A11D6846FDF798F9BDF8001031
:104BB000594502D0AD1CADB20EE0A079912809D1C3
:104BC000B8F14C0F06D3A01DFFF768FF09F10100F3
:104BD0001FFA80F9019885B2BD42C5DD4846BDE89F
:104BE000FC8F00001CB51A49D1E90621CDE900214E
:104BF000B0F910100288914201DD01880182C2687B
:104C0000B0F904108A4203DCB0F902108A4200DADB
:104C1000C16010F8101F8DF8021030F80419082236
:104C2000090A8DF8031001788DF804100188090A2B
:104C30008DF805100168090C8DF8061050F806195A
:104C4000090E8DF80710694600F012F81CBD00002F
:104C5000307400081CB5054AD2E90412CDE90012EF
:104C60000822694600F004F81CBD000030740008FA
:104C7000F0B587B00F460446056816461821684609
:104C8000FBF741FCA088009000233A466946049651
:104C90002846FDF782FE07B0F0BD00000F4810B5B2
:104CA0000D4901600521416000214FF4802281609F
:104CB000C0E90312D2004261017601224276817678
:104CC000C27601774177FEF7D0F8002803D0BDE81F
:104CD0001040FDF7C6BC10BD00640040E005002098
:104CE0000F4810B50D4901600521416000214FF4C6
:104CF00080228160C0E90312D20042610176012264
:104D000042768176C27601774177FEF7AEF80028C9
:104D100003D0BDE81040FDF7A4BC10BD0068004002
:104D200008060020214808B5016841F480010160AF
:104D3000016801F480010091016841F400110160F3
:104D40000068002200F40010009011460B20FEF7CE
:104D500077FD0B20FEF766FD002211460C20FEF7C2
:104D60006FFD0C20FEF75EFD002211460E20FEF7BF
:104D700067FD0E20FEF756FD002211461120FEF7BA
:104D80005FFD1120FEF74EFD002211463920FEF78F
:104D900057FD3920FEF746FD002211463A20FEF766
:104DA0004FFDBDE808403A20FEF73CBD30380240D8
:104DB0001D4808B5016841F010010160016801F06B
:104DC00010010091016841F040010160016801F0AB
:104DD00040010091016841F001010160016801F0AA
:104DE00001010091016841F002010160016801F0D8
:104DF00002010091016841F008010160016801F0C1
:104E000008010091016841F080010160016801F032
:104E100080010091016841F020010160006800F00C
:104E20002000009008BD00003038024010B586B068
:104E300000241848009401940294039404941449A3
:104E400005940160B321C0E901144FF47A71C0E9FF
:104E500003148021C0E90541FFF75CF808B1FDF7B4
:104E600000FC4FF48050009069460A48FFF7DEF8D6
:104E700008B1FDF7F6FB049404A906480594FFF772
:104E800001F8002801D0FDF7ECFB06B010BD0000D2
:104E900000000140300600200C4810B50A490160AE
:104EA0004FF4E1314160002181600C22C160C0E912
:104EB00004128161C161FFF7A7FB002803D0BDE8A0
:104EC0001040FDF7CEBB10BD0078004078060020F2
:104ED0000C4810B50A4901604FF4E13141600021EE
:104EE00081600C22C160C0E904128161C161FFF7D9
:104EF0008BFB002803D0BDE81040FDF7B2BB10BD0E
:104F0000007C0040C00600200E4810B50C4901602E
:104F10000D4941604FF4805181604900C160C91062
:104F200001610421416100218161C161FFF76CFBD6
:104F3000002803D0BDE81040FDF793BB10BD000072
:104F40000010014008070020A08601000C4810B5A1
:104F50000A4901604FF461214160002181600C2207
:104F6000C160C0E904128161C161FFF74DFB0028F7
:104F700003D0BDE81040FDF774BB10BD0014014024
:104F800050070020FEE7000010B504460E48C4F8A4
:104F9000060040F24110608142F21070E0604FF470
:104FA000C87020824FF4FA7020804BF2E0106080CD
:104FB00044F62060A080A01DFFF74CFE2046BDE80F
:104FC0001040FFF70FBE000008060020FEE7704704
:104FD00010EE101A10EE902A10B500EE101A00EE26
:104FE000902AC0F81D10C0F8212030EE600AD0F8D9
:104FF0001530C0F8193010EE102AC0F81520D0F87E
:10500000011000EE102A00EE901A20EE800A10EE39
:10501000104A00EE102AC0F82540D0F8291000EE02
:10502000901AD0F8051001EE101A41EE000A00EEB9
:10503000102A10EE901A00EE903AC0F82910D0F81D
:10504000092070EE600A00EE102A20EE800A00EEC1
:10505000901A10EE103AC0F82D30D0F80D2000EE66
:10506000102AF4EEC00AF1EE10FA02DDC0F8292091
:1050700012E000EE902A00EE101AF1EE600AB4EE93
:10508000E00AF1EE10FA07D200EE102AB1EE400A63
:1050900010EE101AC0F82910D0F8291000EE104AAE
:1050A00000EE901A70EE200A00EE103A30EE800A00
:1050B00010EE102AC0F83120D0F8111000EE102A9E
:1050C00000EE901AB4EEE00AF1EE10FA03DD00BF34
:1050D000C0F8311011E000EE901A00EE102AF1EE47
:1050E000600AB4EEE00AF1EE10FA06D200EE101AF1
:1050F000B1EE400A10EE101AEAE7D0F8310000EEE7
:10510000100A10BD002140F8011F41608160C1609C
:10511000016141618161C161016241628162C1627B
:105120000163704710EE101A40F8011F10EE901A3C
:10513000416011EE101A816011EE901AC16012EEFA
:10514000101A016170470000034801218176002197
:10515000C0F81B1070470000070000200A4810B577
:10516000817E00290ED0D0F81B1005290AD300211A
:10517000C0F81B1000F048F800F014F8BDE810402B
:1051800000F074B810BD0000070000200448D0F8FB
:105190001B10052902D2491CC0F81B1070470000E3
:1051A00007000020154802219FED160AC17314491B
:1051B000D1F8302100EE902A60EE800AFDEEE00A80
:1051C00010EE902A0282D1F8442100EE902A60EE7F
:1051D000800AFDEEE00A10EE902A4282D1F84811D2
:1051E000082200EE901A20EE800ABDEEC00A10EEF2
:1051F000101A818200F10F01FCF75CBE070000204D
:10520000700400200000C842154801219FED160AD5
:1052100001721449CA6800EE902A60EE800AFDEE21
:10522000E00A10EE902A20F8092F0A6900EE902A71
:1052300060EE800AFDEEE00A10EE902A4280496995
:10524000082200EE901A20EE800ABDEEC00A10EE91
:10525000101A8180024902480831FCF72BBE000079
:10526000070000202804002000007A44074803219A
:1052700008228175064991F83510C17505494979AB
:10528000017600F11601FCF715BE000007000020B2
:1052900028040020290100200F4A10B592F82000B0
:1052A0000E4901230024012804D0032804D0022839
:1052B00004D005E04B7103E04C7101E0022048711D
:1052C00092F821000649012803D0032800D14B7130
:1052D00010BD4C7110BD0000280400206C0000209F
:1052E000290100200348012101700021C0F80110AC
:1052F000704700002901002006480178002908D0E5
:10530000D0F801100A2904D30021C0F80110FFF7DA
:10531000C3BF7047290100200448D0F801100A29B2
:1053200002D2491CC0F8011070470000290100207A
:10533000704700007CB5424C0025607920B10128FF
:1053400009D0022816D10EE0C4F80650C4F8435024
:10535000C4F880500EE03B48C4F806003A48C4F850
:1053600043003A4804E0C4F806503948C4F84350B2
:10537000C4F88000D4F80A0000EE900AD4F80600C1
:10538000E41D00EE100A2E480E30FFF721FEBDEEA0
:10539000C00A10EE100A00B200EE100AB8EEC00A01
:1053A00010EE100AA063206C00EE900AE06B00EE95
:1053B000100A23484B30FFF70BFEBDEEC00A10EE7B
:1053C000100A00B200EE100AB8EEC00A10EE100A81
:1053D000C4F87500D4F87D0000EE900AD4F8790086
:1053E000393400EE100A16488830FFF7F1FDBDEEA3
:1053F000C00A002110EE100A00B200EE100AB8EE4A
:10540000C00A10EE100AC4F8790000EE100ABDEED2
:10541000C00A8DED000A0195E06B00EE100A54F809
:10542000010CBDEEC00A10EE103A00EE100A012089
:10543000BDEEC00A10EE102AFDF7CEF87CBD0000CC
:105440006C0000200080BBC50080BB450000FA4511
:1054500000007AC407480849D0F81900B0F91D00C7
:1054600000EE100AB8EEC00A10EE100AC1F884006F
:1054700070470000270000206C0000200C48D0F886
:10548000191031F9050F00EE100A0A48B8EEC00AEB
:1054900010EE102AC0F80A20B1F90C1000EE101A14
:1054A000B8EEC00A10EE101AC0F84710704700009E
:1054B000270000206C00002010B5214901202DEDAF
:1054C000028B087001F10E000446FFF71BFE9FEDF2
:1054D0001E8ADFED1C8AB0EE000AF0EE481AB0EE2C
:1054E000682AB0EE481AF0EE480A2046FFF71AFE86
:1054F00013484B300446FFF705FEB0EE682AF0EE85
:10550000481AB0EE481AF0EE480AB0EE000A2046FB
:10551000FFF708FE0A4888300446FFF7F3FDB0EEB7
:10552000682AF0EE481AB0EE481AF0EE480ABDECD0
:10553000028B2046BDE81040B7EE080AFFF7F2BD27
:105540006C00002000401C46000000000A4810B516
:10555000017800290ED0D0F8011005290AD30021C6
:10556000C0F80110FFF78AFFFFF774FFBDE8104095
:10557000FFF7E0BE10BD00006C0000200448D0F82A
:105580000110052902D2491CC0F801107047000023
:105590006C000020FEF7ECB830B593B030216846BF
:1055A000FAF7B1FF14210CA8FAF7ADFF2048002547
:1055B000016841F080510160006800F08050119056
:1055C0001C48016841F4404101600068022400F475
:1055D0004040119001200390102004900094069404
:1055E0000820CDE90750B420CDE9090404200B9030
:1055F0006846FEF77BFA08B172B6FEE7FEF752F98D
:1056000008B172B6FEE70CA90F2081E831004FF413
:10561000A0500F904FF48050109005210CA8FEF779
:1056200079F9002801D072B6FEE713B030BD000052
:1056300040380240007000400248016841F47001A7
:105640000160704788ED00E00148FEF75EBD000094
:1056500030060020F0B50268274B284D284E294F10
:10566000294C4FF0804C984209D0604507D0A842A1
:1056700005D0B04203D0B84201D0A04204D122F0FC
:10568000700E4A6842EA0E0298421BD0604519D05B
:10569000A84217D0B04215D0B84213D0A04211D0C2
:1056A0001A4DA8420ED01A4DA8420BD0194DA8424F
:1056B00008D0194DA84205D0184DA84202D0184D67
:1056C000A84203D122F44075CA682A434D6922F0EA
:1056D00080022A438D68C5620D688562984201D0B8
:1056E000A04201D109690163016841F00401016030
:1056F000012141610260F0BD000001400004004052
:1057000000080040000C004000040140004001403F
:10571000004401400048014000180040001C0040C7
:105720000020004010B5846842EA032224F47F443C
:105730000A432243826010BD826822F070020A434D
:1057400042F007018160704710B5036A046A24F0D3
:1057500001040462846924F0F00444EA021423F092
:105760000A020A438461026210BD10B5036A046A2A
:1057700024F010040462846923F0A00324F470442C
:1057800044EA023243EA01118261016210BD000065
:105790000148FEF7F9BD0000780600200148FEF739
:1057A000F3BD0000C006002010B5806B0021C1854C
:1057B000FEF7E8FD10BD70B5846B2068406994F871
:1057C0004110C0F3C0100025212904D118B1E5848F
:1057D000204600F0B4F82068406994F84210C0F305
:1057E0008010222904D118B1E585204600F080F808
:1057F000606C40F0100060642046FEF7C3FD70BD91
:1058000010B50146806B096809684FF00002C905B0
:105810002ED4C28501680C3151E8003F23F4807317
:1058200041E80034002CF5D10168143151E8003F03
:1058300023F0010341E80034002CF5D10168143154
:1058400051E8003F23F0400341E80034002CF5D13B
:10585000202180F84210016B012909D101680C3127
:1058600051E8003F23F0100341E80034002CF5D14B
:105870004263016B012902D0FFF784F810BD818DCE
:10588000FEF722FD10BD10B5806B01214163016B55
:10589000012902D0FFF777F810BD818D4908FEF786
:1058A00013FD10BD10B50146806B09680968C90574
:1058B00016D40021C1840168143151E8002F22F070
:1058C000800241E80023002BF5D101680C3151E83A
:1058D000002F42F0400241E80023002BF5D110BD1B
:1058E000FFF794F810BD10B5806BFFF790F810BD6E
:1058F00001680C3151E8002F22F4907241E8002336
:10590000002BF5D10168143151E8002F22F001027B
:1059100041E80023002BF5D1016B012909D1016871
:105920000C3151E8002F22F0100241E80023002B37
:10593000F5D1202180F842100021016370470168F1
:105940000C3151E8002F22F0C00241E80023002B67
:10595000F5D1202180F84110704708B590F8421029
:10596000222901D0022008BD82684FF480539A4258
:1059700001D1016921B1816A9A421BD04AB10AE082
:105980000268816A5268C2F308020A80816A891C2F
:1059900008E0026972B10268526802F07F020A7080
:1059A000816A491C8162C18D491E0904090CC185A7
:1059B00003D01BE002685268F1E70168CA6822F070
:1059C0002002CA600168CA6822F48072CA60016855
:1059D0004A6922F001024A61202180F84210002128
:1059E0004163026B012A03D0FEF7CCFF002008BD03
:1059F000016301680C3151E8002F22F0100241E8E8
:105A00000023002BF5D101680A68D20602D50A6886
:105A100049680091818DFEF757FCE7E770B50446B1
:105A200000680169E26821F4405111430161216974
:105A3000A068E26908436169114308432168CA68A4
:105A400049F20C639A430243CA6020684169A26923
:105A500021F440711143416131492068884202D0EC
:105A60003049884202D1FDF7FFFF01E0FDF7ECFF6E
:105A7000E2690023192164253226B2F5004F6268DD
:105A800028D0A0FB0101930F9200FAF70DFC01460C
:105A9000B0FBF5F06FF01802504301EB800006EB0D
:105AA0000010B0FBF5F000F0F002B1FBF5F002EBF6
:105AB0000012B1FBF5F06FF01803584301EB8000C2
:105AC00006EB0010B0FBF5F000F00F002168104469
:105AD000886070BDA0FB010192185B41FAF7E4FBFE
