:020000040800F2
:10000000780D0020C5010008A5330008072E000860
:100010005D330008E7080008193C000800000000F4
:10002000000000000000000000000000693500082A
:100030008B0C000800000000A733000819360008E8
:10004000DF010008DF010008DF010008DF01000810
:10005000DF010008DF010008DF010008DF01000800
:10006000DF010008DF010008DF010008DF010008F0
:10007000A50B0008DF010008B10B0008DF01000834
:10008000DF010008BD0B0008DF010008DF010008E8
:10009000E9080008F5080008DF010008DF01000892
:1000A000DF010008CD360008DF010008DF0100088D
:1000B000DF010008DF010008DF010008DF010008A0
:1000C000DF010008DF010008DF010008DF01000890
:1000D000DF010008013C0008DF010008DF01000823
:1000E000DF010008DF010008DF010008DF01000870
:1000F000DF010008DF010008DF010008DF01000860
:10010000DF010008DF010008DF010008DF0100084F
:10011000DF010008DF010008DF010008DF0100083F
:10012000DF010008C90B0008D50B0008DF0100083B
:10013000DF010008DF010008DF010008DF0100081F
:10014000010900080D090008DF010008DF010008AF
:10015000DF010008DF010008DF0100080D3C000896
:10016000DF010008DF010008DF010008DF010008EF
:10017000DF010008DF010008DF01000800000000C7
:10018000DF010008DF0100081538000821380008E9
:10019000DF010008DF010008DF010008DF010008BF
:1001A0000000000000000000DF010008DFF810D0B0
:1001B00000F0D8FA004800478F3C0008AFF30080F9
:1001C000780D00200648804706480047FEE7FEE716
:1001D000FEE7FEE7FEE7FEE7FEE7FEE7FEE7FEE7F7
:1001E000BD360008AD0100082DE9F05F054600208E
:1001F00092469B4688460646814640241BE0284698
:1002000041464746224600F0F6F953465A46C01A80
:10021000914110D311461846224600F0DDF92D1AFF
:1002200067EB01084F4622460120002100F0D4F977
:1002300017EB00094E41201EA4F10104DFDC484603
:1002400031462A464346BDE8F09FD2B201E000F8AD
:10025000012B491EFBD270470022F6E710B513466A
:100260000A4604461946FFF7F0FF204610BD2DE967
:10027000FE4F804681EA0300C00F0C46009021F03B
:10028000004123F00045B8EB0200A94105D24046E9
:10029000214690461C460B46024623F00040104380
:1002A00047D0270DC7F30A00C3F30A510290401A42
:1002B000019040286BDAC3F3130040F4801B0098D0
:1002C000924620B10023D2EB030A63EB0B0B01989B
:1002D0005946C0F14002504600F07EF906460D46F0
:1002E00050465946019A00F096F910EB080061411A
:1002F000002487EA115284EAE7731A4340D0009A37
:1003000062B3019A012A4FEA075215DC001B61EB28
:1003100002014FF0004202EA0752CDE90042001C00
:1003200041F5801132462B4600F0CDF903B0BDE80F
:10033000F08F40462146F9E7001B61EB0201001CEB
:1003400041F5801300185B412018A2F5001747EB18
:10035000030140EAD570B6196D4111E06D084FEA0E
:10036000360645EAC0754FEA0752001B61EB0201F1
:10037000001C41F5801149084FEA30000019514135
:1003800032462B4603B0BDE8F04F00F08DB900981F
:10039000012240000023D0EB020263EBE0730098DF
:1003A00021464FEAE074B8EB000061EB0401E9E795
:1003B00083F000435BE781F0004158E72DE9FE4FF1
:1003C00081EA030404F0004421F0004100944FF05E
:1003D000000B23F0004350EA01045ED052EA03040C
:1003E0005BD0C3F30A54C1F30A552C44A4F2F3348E
:1003F0000194A0FB0254C1F3130141F48011C3F333
:10040000130343F4801301FB024400FB034E840AF0
:10041000970A44EA815447EA8357A4FB0768029588
:100420008D0A05FB07854FEA932C04FB0C54270526
:10043000029D4FEA065847EA1637B5EB08056EEB02
:10044000070C870E920E47EA811742EA8312A7FB38
:100450000201B6EB0B0164EB00042B0D43EA0C33F5
:100460005E1844EB1C50DA465146E7FB0201C5F327
:1004700013044FEA0B3343EA14534FEA0432019C4E
:1004800043EA0603A4F10C040294009CCDE900B4F5
:1004900000F019F903B0BDE8F08F00200146F9E73C
:1004A0002DE9F04D81EA030404F0004B21F00045F2
:1004B00014464FF0000A23F0004150EA050220D014
:1004C00054EA01021DD0C5F30A570246C5F31303CF
:1004D000C1F31300C1F30A5640F4801543F48013AE
:1004E000A7EB0608101BD64608F2FD3873EB050093
:1004F00002D308F1010801E092185B41B8F1000F46
:1005000003DA00200146BDE8F08D00204FF4801191
:10051000064684460EE0171B73EB050705D3121B36
:1005200063EB050306434CEA010C49084FEA30002F
:1005300092185B4150EA0107EDD152EA030012D054
:1005400082EA040083EA0501084305D0101BAB4191
:1005500006D20122002306E000224FF0004302E011
:100560006FF0010253101AEB06004CEB085110EB30
:100570000A0041EB0B01BDE8F04D00F095B80EB557
:10058000C10F80EAE0700844CA07002140F23343FB
:100590008DE80E000A460B4600F095F803B000BD4A
:1005A00001F0004330B421F0004150EA010206D0CE
:1005B0000A0DA2F56072C1F31301002A02DC30BCFF
:1005C00000207047440F44EAC104C100E01830BC69
:1005D00000EBC25000F031B8202A04DB203A00FAC8
:1005E00002F1002070479140C2F1200320FA03F38A
:1005F000194390407047202A04DB203A21FA02F088
:100600000021704721FA02F3D040C2F1200291404C
:10061000084319467047202A06DBCB17203A41FAD7
:1006200002F043EAE07306E041FA02F3D040C2F17F
:10063000200291400843194670470029A8BF70471F
:10064000401C490008BF20F00100704710B4B0FA08
:1006500080FC00FA0CF050EA010404BF10BC7047A3
:1006600049B1CCF1200421FA04F411FA0CF118BFBD
:10067000012121430843A3EB0C01CB1D4FEA00618C
:100680004FEA102042BF002010BC704700EBC3505F
:1006900010440029A4BF10BC7047401C490008BF8B
:1006A00020F0010010BC704710B5141E73F1000457
:1006B00008DA401C41F1000192185B411A4301D154
:1006C00020F0010010BD2DE9F04D92469B4611B17E
:1006D000B1FA81F202E0B0FA80F220329046FFF7E0
:1006E0007BFF04460F4640EA0A0041EA0B015346ED
:1006F0005A46084313D0114653EA010019D0C8F1F5
:1007000040025046FFF777FF05460E4650465946D1
:100710004246FFF761FF084305D0012004E0204670
:100720003946BDE8F08D0020054346EAE0762C43CB
:1007300037430A986305E40AA0EB08000022FD0A8B
:1007400044EA47540A3002D500200146E9E7010592
:1007500010196941DDE9084500196941BDE8F04D0E
:10076000A2E70000064C074D06E0E06840F00103F8
:1007700094E8070098471034AC42F6D3FFF71AFD0F
:10078000003D0008203D000800280AD010EE102A85
:10079000026010EE902A426011EE102AC0F8092083
:1007A00001727047002805D0002210EE101A026076
:1007B000416082607047000010B500F059F800F009
:1007C0008BF800F08FF800F0BFFA0B4800F0D8F972
:1007D00002F042FB00F0A0F8084802F0C1FD00F072
:1007E00001FB02F0C3FE02F001FE02F0A7FEBDE82D
:1007F000104003F012BA000028040020CC050020AD
:100800002DE9F041184D022701262878174C0428BD
:1008100026D2DFE800F00204081E2E7020E0FFF769
:10082000CBFF2F701CE0114800F02CFA002118B10A
:1008300044F8311F267113E0D4F83100401CC4F88D
:1008400031000A280CD90320287044F8311F217187
:1008500006E0064800F016FA10B12F7084F83560F3
:10086000BDE8F04102F0CCBD2600002028040020A5
:1008700010B5084800F0ECFE0221064800F01AFB13
:10088000054800F0E5FEBDE810400221024800F0F6
:1008900011BB0000E00500200806002000B58BB069
:1008A000017A0591002106910121079130F8021F7C
:1008B000009130F8021C01918188029141880391D6
:1008C000C1680491C17909910169089180686946FC
:1008D00000F06AFB0BB000BD014801F009BE00004A
:1008E000300600207047FEE7014800F05EBC0000C3
:1008F000E0050020014800F058BC0000E0050020A1
:10090000014800F052BC000008060020014800F039
:100910004CBC000008060020AFF3008000B587B093
:10092000BDF8020000F01F00ADF802001448009965
:10093000014000919DF8001021F006018DF8001093
:10094000BDF8061001F01F01ADF806100199014035
:1009500001919DF8040040F006008DF804000E207F
:100960008DF808000748CDF80A000020CDF80E00E9
:100970000120CDF812006846FFF790FF07B000BDD8
:100980000700E0FF0806002000B587B001230693AA
:100990008388009300230293CDE903328DF814304D
:1009A0000A46006806AB694600F096FA07B000BD3B
:1009B000F0B50388002441F221060DE00D5D83EAC5
:1009C000052300251F0402D586EA430300E05B00EF
:1009D0006D1C082DF6D3641C9442EFD30380F0BD48
:1009E00000280DD000F8011B10EE101A016010EE67
:1009F000901A416011EE101A816011EE901AC160D8
:100A0000704700002DE9F05F0D002DED068B0446C8
:100A10007DD0122A7BD12888C0F30A002080697813
:100A2000AA78C90841EA4211C1F30A0161808B46E4
:100A3000A978EA78890941EA82012A79A0F5B67095
:100A400041EA8221C1F30A01A180884629796A79A5
:100A5000490841EAC211C1F30A07E7802E8A2681BC
:100A600069798909A1728A466979C1F30111E17234
:100A70008946FFF784FD9FED3C8B53EC182BFFF765
:100A80009DFC9FED3B9B53EC192BFFF709FD9FED60
:100A90003AAB53EC1A2BFFF78BFCFFF781FDE060BC
:100AA000ABF5B670FFF76BFD53EC182BFFF786FC28
:100AB00053EC192BFFF7F4FC53EC1A2BFFF778FCDF
:100AC000FFF76EFD2061A8F5B670FFF758FD53ECF7
:100AD000182BFFF773FC53EC192BFFF7E1FC53ECD9
:100AE0001A2BFFF765FCFFF75BFD6061A7F5B67099
:100AF000FFF745FD53EC182BFFF760FC53EC192B67
:100B0000FFF7CEFC53EC1A2BFFF752FC00E027E076
:100B1000FFF746FDA061A6F5B670FFF730FD53EC78
:100B2000182BFFF74BFC53EC192BFFF7B9FC53ECD8
:100B30001A2BFFF73DFCFFF733FDE06184F820A09E
:100B400084F82190E88860842889A0842889E0843A
:100B5000287B84F82800687B84F82900E889608570
:100B6000BDEC068BBDE8F09F0000000000000040D7
:100B70000000000000A09440000000000000F03FD2
:100B800010B500F136011222044801F01AFE0448A3
:100B90000068016821F00801016010BD080700200D
:100BA000B8080020014800F0E1BD0000F80700206F
:100BB000014800F0DBBD000098070020014800F06C
:100BC000D5BD000058080020014800F0CFBD00004E
:100BD00018090020014800F0C9BD0000B808002035
:100BE00001681823CAB2103AB2FBF3F2054B6FF357
:100BF0000901032A9B5CC36500D9091D816508466C
:100C000070470000E03C000810B5014600208B69E9
:100C10008A6A4FF0C07453B1B3F5005F15D072B15A
:100C2000012A0CD0022A0AD0032A09D104E01AB101
:100C3000012A06D0022A03D1C96AC90100D50120C0
:100C400010BDC96AA142FAD010BD002AF7D0012A0E
:100C5000F2D0022AF3D0032AF3D010BD30B50468D5
:100C6000256825F480252560046863608368402B2F
:100C7000036803D099600068C26030BD9A60006864
:100C8000C16030BD90F82D0070477047F0B54488C2
:100C9000038865BA848886791848C1EB0111084435
:100CA00002EB420150F80A7F0B225BBA02EB810291
:100CB00000EE103ABE540368B8EE400A012606EB77
:100CC000810610EE102A64BA334424B21A6000EE92
:100CD000104A0268052303EB8103B8EEC00A1A44E8
:100CE000DFED070A1580006820EE200A072303EBDA
:100CF000810110EE102A08440260F0BD2700002098
:100D00000000803830B514460A46014610880D4A66
:100D1000C1EB011313441D899A7B401B401E80B216
:100D2000451C954201D9012030BDD3F80A3000EBB3
:100D30004005012203F82520C2B22046FFF7A6FF96
:100D4000002030BD27000020AFF3008000B587B041
:100D5000BDF8020000F01F00ADF802001448009931
:100D6000014000919DF8001021F006018DF800105F
:100D7000BDF8061001F01F01ADF806100199014001
:100D800001919DF804000B4940F006008DF8040025
:100D900000208DF80800CDF80A10CDF80E000120D3
:100DA000CDF812006846FFF779FD07B000BD0000DE
:100DB0000700E0FFE005002010B50446FFF722FE23
:100DC0002046FFF7DDFE3220C4F82D0010BDD0F81C
:100DD0002D10002902D0491EC0F82D10704772B6A0
:100DE000FEE7000010B5274901202DED028B0870A9
:100DF00001F11500044602F0D7FA9FED248ADFEDD9
:100E0000228AB2EE080AF0EE481AB0EE682AB0EE76
:100E1000481AF0EE480A204602F0D6FA19484A303D
:100E2000044602F0C1FAB0EE682AF0EE481AB0EEBD
:100E3000481AF0EE480AB2EE000A204602F0C4FA60
:100E40001048F0EE481A9FED121AF0EE480AB0EE84
:100E5000480A0321A830FFF7C3FD0A489FED0D0A99
:100E60008F30FFF79FFCBDEC028B01210548BDE8E8
:100E70001040B2EE041AFBEE0E0A9FED070A9B30FB
:100E8000FFF782BC3201002000409C4600000000B9
:100E9000CDCC4C3F0000B4420000B4C20448D0F8AE
:100EA00001100A2902D2491CC0F801107047000045
:100EB0003201002090F82020012A07D0022A05D014
:100EC000416A41F480214162012070470068426913
:100ED0000A43426100207047F0B590F82050046842
:100EE000A468012D05D0022D03D0416A41F4802170
:100EF00057E014F0406F01D1E5004FD5C4F3016411
:100F00000125A5401D608D684FF4C0739DB1CE686A
:100F100035434E6845EAC605066803EB0417F551EC
:100F20004FF4C275076805EB04150E697E51097D03
:100F3000012905D009E00E88CD6845EA4655EBE762
:100F400001684E5946F480764E511179D57956791B
:100F500041EA056195792D0445EA062529434FF4B8
:100F6000C676056806EB0416A9511178D57841EAD2
:100F70000561957852782D0445EA022211434FF419
:100F8000C475026805EB04155151006803EB0411A8
:100F9000425842F0010242500020F0BD416A41F443
:100FA000001141620120F0BD10B590F82020012A07
:100FB00007D0022A05D0416A41F480214162012014
:100FC00010BD3B48D0F8002242F00102C0F80022D8
:100FD000D0F8002222F47C52C0F80022D0F800227F
:100FE0004B6A42EA0322C0F800220A7D02F01F0386
:100FF00001229A40D0F81C329343C0F81C32CB69CE
:10100000B3B9D0F80C329343C0F80C328C894B68DA
:1010100064F31F434C6900EBC404C4F840320C89EC
:101020000B6864F31F434C6900EBC404C4F84432FA
:10103000CB69012B16D1D0F80C321343C0F80C3217
:101040000C884B6864F31F434C6900EBC404C4F87C
:1010500040320C89CB6864F31F434C6900EBC40435
:10106000C4F844328B69002BD0F804320ED01343FD
:10107000C0F804320B69002BD0F8143208D01343A7
:10108000C0F81432096A012904D008E09343EFE75D
:101090009343F5E7D0F81C121143C0F81C12D0F8A6
:1010A000001221F00101C0F80012002010BD000064
:1010B00000640040704770B590F82040012C05D0C6
:1010C000022C03D0416A41F4802128E0046809B36E
:1010D0002469A40720D04FF4D874056804EB0114E8
:1010E0002D5915F00405956005682D591AD0ED08A5
:1010F000556005682C5904F00204D4604FF4DA748A
:10110000056804EB01142E5906F00F06082E0CD3C7
:1011100008250DE0E468DCE7416A41F40011416212
:10112000012070BD6D0D1560E3E72D5905F00F0529
:10113000156105682D59C5F30725956105682C597A
:10114000240C54614FF4DC72046802EB0112A458C1
:101150001C700468A458240A5C700468A458240C09
:101160009C700468A258120EDA704FF4DE720468A4
:1011700002EB0112A4581C710468A458240A5C7183
:101180000468A458240C9C710468A258120EDA71E9
:10119000006829B1016941F020010161002070BDA2
:1011A000C16841F02001C160F8E72DE9F05F054614
:1011B000006800244669D0F804908768D0F80CB025
:1011C000D0F810A0D0F81880F10748D0F90714D053
:1011D00001218160B80703D5284600F066FA0CE0CB
:1011E000780702D54FF4006407E0380702D54FF4C2
:1011F000805402E0284600F057FAF80516D5296811
:101200004FF480708860B80503D5284600F04FFA87
:101210000CE0780502D544F4005407E0380502D507
:1012200044F4804402E0284600F040FAF80316D562
:1012300029684FF480308860B80303D5284600F051
:1012400038FA0CE0780302D544F4004407E0380390
:1012500002D544F4803402E0284600F029FA300731
:1012600007D55FEACB6004D52968102044F40074E8
:10127000C86070074FF0080707D55FEA0B7004D508
:101280002868C760284600F0ADF9B00706D5286881
:10129000C068800702D0284600F0A6F9700607D57E
:1012A0005FEACA6004D52968102044F480640861AC
:1012B000B00607D55FEA0A7004D52868076128469A
:1012C00000F0C2F9F00606D528680069800702D050
:1012D000284600F0BAF9B00308D55FEAC96005D521
:1012E000296810204860284600F0B0F9F00307D5BF
:1012F0005FEA097004D528684760284600F0DAF9EB
:10130000300446D55FEA497040D5F00504D55FEA60
:10131000C87001D044F00104B00504D55FEA8870BC
:1013200001D544F00204700504D55FEA487001D588
:1013300044F00404300529D518F0700F26D008F0C9
:101340007000402815D006DC102809D020280AD0CB
:10135000302816D10AE050280ED0602811D10EE0B6
:1013600044F008040DE044F010040AE044F02004C6
:1013700007E044F0400404E044F0800401E044F459
:1013800080742868816921F07001816129680420D6
:101390004860002C05D0686A204368622846FFF741
:1013A00089FEBDE8F09F70B5040003D094F82000DA
:1013B00010B104E0012070BD204600F081F82068E3
:1013C000016841F00101016000F06EFC0546052650
:1013D00004E000F069FC401B0A2811D8206840682E
:1013E000C007F6D02068016821F00201016000F01A
:1013F0005BFC05460BE000F057FC401B0A2806D9B1
:10140000606A40F40030606284F82060D2E72068AF
:1014100040688007EFD4207E0128206801683DD015
:1014200021F080010160607E01282068016838D0C9
:1014300021F040010160A07E01282068016833D0BE
:1014400021F020010160E07E0128206801682ED093
:1014500041F010010160207F01282068016829D037
:1014600021F008010160607F01282068016824D014
:1014700021F004010160D4E902010843D4E9041217
:10148000114308436168491E08432168C861002070
:101490006062012084F82000002070BD41F08001CE
:1014A000C0E741F04001C5E741F02001CAE721F063
:1014B0001001CFE741F00801D4E741F00401D9E77A
:1014C0002DE9F04387B0044614216846FEF7C4FEB8
:1014D000404B4148DFF8F8801968D4F800C03E4A14
:1014E000022503260927DFF8F49010300024491C58
:1014F000C4452CD11960012907D1016841F0007160
:101500000160006800F000700590106840F0020073
:101510001060106802AB00F0020005904FF44070BC
:10152000CDE9000583E8D0006946484600F0A2FAFC
:1015300000221146142000F025FC142000F014FCB9
:1015400000221146152000F01DFC15203BE0DFF8BD
:101550009080C44539D1D0F800C04CF0806CC0F800
:1015600000C0D0F800C001290CF0806CCDF814C088
:10157000196007D1016841F000710160006800F056
:1015800000700590106840F002001060106802AB17
:1015900000F00200059042F22000CDE9000583E84A
:1015A000D0006946484600F065FA00221146402006
:1015B00000F0E8FB402000F0D7FB0022114641205C
:1015C00000F0E0FB412000F0CFFB07B0BDE8F08366
:1015D00000640040580000203038024000040240FF
:1015E000006800407047000010B50446124888B0FB
:1015F00084420DD1114B6A4600212046FFF75BFD66
:1016000008B1FFF7ECFB0D4A69460020FFF77AFBB3
:101610000B4884420DD10B4B6A4600212046FFF750
:101620004AFD08B1FFF7DBFB064A69460120FFF7D8
:1016300069FB08B010BD0000E00500204500002057
:10164000080600204D0000207047704770470000DA
:1016500070B5044690F82000012804D0606A40F478
:101660000020606218E0022084F8200020680168F1
:1016700021F00101016000F017FB05460EE000BFFC
:1016800000F012FB401B0A2808D9606A40F40030C1
:101690006062052084F82000012070BD2068406849
:1016A000C007EDD1606270BD7047704770477047EA
:1016B0007047704770472DE9F0410446876D00F090
:1016C000F3FA064694F835000025022806D080205B
:1016D000606584F834500120BDE8F081206801681D
:1016E00021F0160101602068416921F0800141610B
:1016F000206C08B9A06C20B12068016821F00801B5
:1017000001602068016821F0010101600CE000F037
:10171000CBFA801B052807D920206065032084F8B8
:10172000350084F83450D7E720680068C007EED150
:1017300094F85C103F208840B860012084F83500A0
:1017400084F834500020C7E790F83510022903D000
:101750008021416501207047052180F8351000681F
:10176000016821F001010160002070472DE9F84374
:1017700004464FF00009CDF8009063484FF416512D
:10178000A56D0068B0FBF1F72E6894F85C10082096
:1017900000FA01F131420FD021680A6852070BD5D7
:1017A0000A6822F004020A6094F85C108840A8607D
:1017B000606D40F00100606594F85C104FF0010826
:1017C00008FA01F0304208D021684969090604D5B9
:1017D000A860606D40F00200606594F85C10042021
:1017E0008840304208D021680968890704D5A8607C
:1017F000606D40F00400606594F85C101020884033
:10180000304218D021680968090714D5A8602068FB
:101810000168490304D50068000308D5A16C07E0FE
:101820000168C90503D4016821F008010160216C39
:1018300009B12046884794F85C1020208840304247
:1018400031D021680968C9062DD5A86094F8350003
:1018500005282068016806D0490347D500680003C1
:101860001DD4616C1CE021F0160101602068416903
:1018700021F080014161206C08B9A06C20B1206882
:10188000016821F00801016094F85C103F20884055
:10189000A86084F8358084F83490216D1FE0E16BF6
:1018A00009B120468847606D00282BD0606DC007C5
:1018B00014D0052084F835002068016821F001016A
:1018C00001600098401C0090B84203D8206800686E
:1018D000C007F6D184F8358084F83490E16C002993
:1018E00010D001B02046BDE8F04308470168C905A3
:1018F000D5D4016821F01001016084F8358084F8A6
:101900003490CCE7BDE8F883680000202DE9F04171
:10191000044600F0C9F906465CB1022084F835009F
:10192000002584F834502068016821F0010101602D
:101930000DE00120BDE8F08100F0B6F9801B05281C
:1019400005D920206065032084F83500F2E720687F
:101950000068C007F0D12268116820480140D4E92E
:1019600001031843D4E9033633431843636918432A
:10197000A3691843E3691843236A18430843616A5B
:10198000042903D1D4E90B131943084310602068DC
:101990004069666A20F0070130460E43012704289B
:1019A0000CD1A06A0643E06A40B12046FFF72CF94B
:1019B00020B14020606584F83570BAE72068466140
:1019C0002046FFF70DF994F85C203F21914081609B
:1019D000656584F835700020ACE700003F8010F0AA
:1019E0002DE9F0410446866D90F834000025012869
:1019F0000DD0012084F8340094F835700020012FB8
:101A000007D084F8340002252846BDE8F081022082
:101A1000FBE7022784F8357060652046FFF71EF962
:101A200094F85C103F208840B0602068016841F065
:101A300016010160206C20B12068016841F00801A6
:101A400001602068016841F001010160DCE70000ED
:101A500070B5044600F028F90546601C02D0044821
:101A60000078044400F020F9401BA042FAD370BD76
:101A70005C0000202DE9F84FDFF8F8A100220124D6
:101A800003254FF00F090AF1040BAAF1040E00BF61
:101A90000B6804FA02F63340B34270D10F7907F0B5
:101AA0000307012F01D0022F16D187684FEA4208A1
:101AB00005FA08FC27EA0C07D1F80CC00CFA08FC60
:101AC0004CEA070CC0F808C04768B7430E79C6F364
:101AD000001696403E4346600E79F643B6070AD09C
:101AE000C7684FEA420C05FA0CF6B7438E6806FA4F
:101AF0000CF63E43C6600E7906F00306022E10D1A6
:101B0000D60800EB8608D8F8206057074FEAD76C54
:101B100009FA0CF7BE430F6907FA0CF73743C8F808
:101B2000207006684FEA420C05FA0CF7BE430F79A5
:101B300007F0030707FA0CF7374307604E6816F4FF
:101B4000403F1CD04C4E376847F4804737603668BA
:101B500022F0030706F480460096484E07EB060C79
:101B6000DCF8086897073F0F09FA07F826EA080625
:101B7000DFF80C81404503D14FF0000841E072E0EE
:101B8000DFF80081404502D14FF0010839E0DFF86D
:101B9000F880404502D14FF0020832E0DFF8EC80D7
:101BA000404502D14FF003082BE0DFF8E4804045C8
:101BB00002D14FF0040824E0DFF8D880404502D17C
:101BC0004FF005081DE0DFF8D080404502D14FF00E
:101BD000060816E0DFF8C480404502D14FF0070840
:101BE0000FE0DFF8BC80404502D14FF0080808E064
:101BF000DFF8B080404502D14FF0090801E04FF016
:101C00000A0808FA07F848EA0608CCF80888DAF85B
:101C100000605746D1F804C09E435FEACC2C00D543
:101C20001E433E60DBF800605F46D1F804C09E436F
:101C30005FEA8C2C00D51E433E60DEF800607746DC
:101C4000D1F804C09E435FEA8C3C00D51E433E6041
:101C5000084F083F3E68D1F804C09E435FEACC3C81
:101C600000D51E433E60521C102AFFF411AFBDE8A0
:101C7000F88F0000083C0140443802400030014029
:101C8000000002400004024000080240000C024034
:101C9000001002400014024000180240001C0240E4
:101CA0000020024000240240014880687047000084
:101CB0005C0000200248816802781144816070470E
:101CC0005C0000200B4810B5016841F40071016010
:101CD000016841F480610160016841F48071016034
:101CE000032000F06FF80F2000F006F800F024F851
:101CF000002010BD003C024070B50D4D04464FF46D
:101D00007A712878B1FBF0F00A490968B1FBF0F06C
:101D100000F044FB48B9102C07D200222146501E87
:101D200000F030F800206C6070BD012070BD000034
:101D30005C000020680000200A4808B5016841F4F2
:101D400080410160006800F4804000900548001F59
:101D5000016841F080510160006800F080500090FF
:101D600008BD000044380240002809DB00F01F02D3
:101D7000012191404009800000F1E020C0F80011ED
:101D800070470000F0B40E4B1B680C46C3F30223EF
:101D9000C3F10705042D00D90425191D072901D217
:101DA000002300E0DB1E012606FA05F1491E214052
:101DB00099409E40761E16403143F0BC01F048BF6A
:101DC0000CED00E0064900F0070208684FF6FF033B
:101DD000184040EA0220034A1043086070470000A0
:101DE0000CED00E00000FA052DE9F8431748016802
:101DF00041F0805101600068154F00F080500126CD
:101E000000903E64FFF750FF05464FF47A78114C7E
:101E100005E000BFFFF748FF401B40450DD8606854
:101E2000C003F7D57E64FFF73FFF0546464607E04F
:101E3000FFF73AFF401BB04202D90320BDE8F88308
:101E400060688003F4D50020F8E7000040380240C5
:101E500000000E42007000402DE9F0470E460500DC
:101E600065D0DFF81481D8F80000F7B200F00F0059
:101E7000B04207D288F80070D8F8000000F00F00D8
:101E8000B04254D128683D4C810712D5400703D594
:101E9000206840F4E05020602878000703D52068CF
:101EA00040F4604020602068A96820F0F0000843FA
:101EB00020602878C0072DD030496868083901288B
:101EC00012D0022813D0032811D0096889070029ED
:101ED0002DDA216821F0030101432160FFF7E4FEC0
:101EE000814641F2883A0EE009688903EFE7096804
:101EF0008901ECE7FFF7D8FEA0EB0901514502D9B3
:101F00000320BDE8F0872068696800F00C00B0EBA2
:101F1000810FEFD1D8F80010404601F00F01B14217
:101F200007D90770006800F00F00B04201D001200F
:101F3000E7E72878400705D52068E96820F4E050F5
:101F4000084320602878000706D52068296920F416
:101F5000604040EAC100206000F038F82168084A7B
:101F6000C1F30311515CC840064908600648006887
:101F7000FFF7C2FE0020C4E7003C024008380240E0
:101F8000E83C000868000020600000200448054983
:101F900000680968044AC1F38221515CC840704757
:101FA0006800002008380240F83C00080448054951
:101FB00000680968044AC1F34231515CC840704767
:101FC0006800002008380240F83C0008154810B5A9
:101FD000006810F00C02144813D01449042A0FD0E2
:101FE000082A0ED10F4C241F2268236802F03F02FA
:101FF0005B0207D52068C0F38810A0FB010106E052
:10200000084610BD2168C1F38811A1FB000100231F
:10201000FEF7EAF82168C1F30141491C4900B0FB11
:10202000F1F010BD083802400024F400001BB70096
:102030002DE9F84F04006ED02078DFF84C93C007EC
:10204000A9F104054AD009F104000168C1F3810136
:10205000012908D00068C0F3810002280AD1D9F80C
:102060000000400206D52868800337D56068002844
:10207000E1D033E06068B0F5803F10D0B0F5A02F1C
:10208000286810D020F480302860286820F4802050
:1020900028606068A8B1FFF707FE06460DE02868D3
:1020A00040F48030F4E740F480202860F7E700BF78
:1020B000FFF7FAFD801B642873D828688003F7D5E2
:1020C0000CE0FFF7F1FD064605E000BFFFF7ECFD71
:1020D000801B6428F0D828688003F7D42078DFF8C4
:1020E000AC8280074FF0000A3ED5A748001D01686A
:1020F00011F00C0F08D00068C0F3810002280BD14A
:10210000D9F80000400207D42868800716D5E06897
:10211000012800D112E033E1E068B8B10120C8F82D
:102120000000FFF7C1FD064605E000BFFFF7BCFD5C
:10213000801B0228C0D828688007F7D52868216945
:1021400020F0F80040EAC10028600DE0C8F800A0C7
:10215000FFF7AAFD064604E0FFF7A6FD801B022854
:102160001FD828688007F7D42078000722D5864F2B
:1021700087486169703771B101210160FFF794FDF3
:10218000064604E0FFF790FD801B022809D8386856
:102190008007F7D50EE0C0F800A0FFF785FD0646E2
:1021A00005E082E0FFF780FD801B02287DD83868BB
:1021B0008007F7D42078400768D5DFF8CCB1002736
:1021C0000BF13C0BDBF80000C0000BD4DBF8001077
:1021D00041F08051CBF80010DBF80000012700F03F
:1021E000805000906B4E3068C00510D4306840F4C9
:1021F00080703060FFF758FD009005E0FFF754FD58
:102200000099401A022850D83068C005F6D55E4EB5
:10221000A0686C3601280FD00528306810D020F057
:1022200001003060306820F004003060A068B8B170
:10223000FFF73AFD00900FE0306840F00100F4E74E
:1022400040F004003060F7E7FFF72EFD0099411AD7
:1022500041F28830814266D830688007F4D50EE0BC
:10226000FFF722FD009007E0FFF71EFD0099411ADD
:1022700041F28830814256D830688007F4D42FB1BB
:10228000DBF8001021F08051CBF80010A069C8B332
:102290003D49091D0968C1F3810102294AD002287C
:1022A000504607D0C8F8600000E03CE0FFF7FCFCB7
:1022B00004463BE04746C8F86000FFF7F5FC0646D9
:1022C00005E000BFFFF7F0FC801B02282BD8286830
:1022D0008001F7D4D4E907010843A16A2E4A4908CE
:1022E00002EB0141626A41EA8211084394F82C1022
:1022F00040EA0161C9F8001001203866FFF7D4FCFC
:10230000044606E03EE000BFFFF7CEFC001B0228BB
:1023100009D828688001F7D534E000BFFFF7C4FC76
:10232000001B022802D90320BDE8F88F286880012D
:10233000F4D427E00128F7D0D9F80000E26900F4CE
:10234000800191421CD1226A00F03F01914217D1D5
:1023500047F6C071626A0140B1EB821F10D1A26AD8
:102360004FF0FF3300F4403103EB5202B1EB024F68
:1023700006D194F82C1000F07060B0EB016F01D022
:102380000120D1E70020CFE7043802400000474297
:10239000800E4742007000400000FFFF10B5401E55
:1023A000B0F1807F01D3012010BD4FF0E0246061C7
:1023B0000F21601701F04CFC0020A0610720206174
:1023C000002010BD7047704770B590F83C20012A7E
:1023D00032D0012480F83C40022280F83D2003687E
:1023E0005A689D6822F070060A6832435A60134B9F
:1023F00002689A4214D0B2F1804F11D0104B9A4229
:102400000ED0104B9A420BD00F4B9A4208D00F4B74
:102410009A4205D00E4B9A4202D00E4B9A4204D1FA
:10242000496825F080031943916080F83D40002100
:1024300080F83C10084670BD022070BD00000140CD
:102440000004004000080040000C0040000401406F
:10245000004001400018004010B5040003D094F87B
:102460003D0010B107E0012010BD002084F83C00C1
:10247000204600F01FF8022084F83D00211D20684E
:1024800001F02AF9012084F8460084F83E0084F81F
:102490003F0084F8400084F8410084F8420084F84A
:1024A000430084F8440084F8450084F83D0000208F
:1024B00010BD000008B500680B49884212D10B48D6
:1024C000016841F0010101600068002200F0010094
:1024D000009011461920FFF755FCBDE8084019206F
:1024E000FFF742BC08BD0000000001404438024034
:1024F00090F83D10012901D001207047022180F899
:102500003D100168CA6842F00102CA6000681149C2
:10251000884214D0B0F1804F11D00F4988420ED0BC
:102520000E4988420BD00E49884208D00D49884296
:1025300005D00D49884202D00C49884204D18168F7
:1025400001F00701062903D0016841F00101016093
:1025500000207047000001400004004000080040D7
:10256000000C004000040140004001400018004001
:1025700070B5044690F83C000025012817D00126CC
:1025800084F83C60022084F83D002068826822F0D4
:10259000770222F47F4282600868502838D00DDC30
:1025A00020284FD005DC90B3102811D14AE002203A
:1025B00070BD302846D040280AD13BE060282FD09B
:1025C00070280DD0B0F5805F03D0B0F5005F12D059
:1025D000012584F83D60002084F83C00284670BD49
:1025E000CB68D1E90121206801F0DEF8206881681C
:1025F00041F0770109E0CB68D1E90121206801F0C1
:10260000D3F82068816841F480418160E1E719E0F6
:10261000CA684968206801F0D9F85021206806E0AE
:10262000CA684968206801F0E2F86021206801F07A
:10263000C5F8CEE7CA684968206801F0C7F84021AC
:102640002068F4E7226801461046F0E770472DE95C
:10265000F04104460068C66805694FF00007A90705
:1026600013D5B10711D5F91E01610120207720682B
:1026700080698007204602D0FFF7E8FF04E000F001
:102680007EF8204600F07CF82777680716D570079B
:1026900014D521686FF004000861022020772068BB
:1026A000806910F4407F204602D0FFF7CFFF04E09E
:1026B00000F065F8204600F063F82777280715D565
:1026C000300713D521686FF00800086104202077D7
:1026D0002068C0698007204602D0FFF7B7FF04E0FA
:1026E00000F04DF8204600F04BF82777E80616D5A5
:1026F000F00614D521686FF01000086108202077DB
:102700002068C06910F4407F204602D0FFF79EFF8A
:1027100004E000F034F8204600F032F82777E807AC
:1027200008D0F00706D021686FF00100086120464C
:1027300000F028F8280608D5300606D521686FF085
:10274000800008612046FFF73DFE680608D5700648
:1027500006D521686FF040000861204600F030F88F
:10276000A8060AD5B00608D521686FF020000861D8
:102770002046BDE8F041FFF726BEBDE8F081704776
:102780007047000010B500680B49884212D100F074
:10279000DFFEFEF783FB00F033FF00F049FE01F09F
:1027A0003FFA01F049FA00F0C5FBBDE810400348CC
:1027B000FEF70DBB10BD0000000001402804002002
:1027C000704738B5044690F84200202801D0022016
:1027D00038BD51B14AB1012020630020606320461A
:1027E00001F0BEF9216B012901D0012038BD21681B
:1027F0000A684968009121680C3151E8002F42F0C5
:10280000100241E80023002BF5D138BD70B50D460C
:10281000044600680C49884202D1284600F07EFB3D
:102820000A492068884205D10949EAB2A1F1360077
:10283000FEF7C2FA07492068884203D1BDE870401C
:1028400001F0ECB970BD000000140140001001401F
:102850005E040020007C004070470000F8B501686D
:1028600004460868CA684B6910F00F0F4FF0000566
:1028700059D003F0010602F49077374365D0C107C1
:1028800005D0D10503D5616C41F0010161644107B8
:1028900005D5D90703D0616C41F00201616481075D
:1028A00005D5D90703D0616C41F0040161640107CB
:1028B00007D502F02001314303D0616C41F00801DB
:1028C0006164616C00293AD0800604D5900602D577
:1028D000204601F05EF820684069616CC0F380100A
:1028E000090700D460B3204601F01EF82068406953
:1028F000400621D52068143050E8001F21F0400127
:1029000040E80012002AF5D1E06BA8B172490165D8
:10291000E06BFEF719FF002811D0E06B016D01B0EC
:10292000BDE8F040084783060FD593060DD5204635
:10293000BDE8F84001F02DB82046FFF78DFFF8BD47
:102940002046FFF789FF6564F8BD266B2023012E22
:102950007ED1C6067CD5D6067AD508684868009030
:1029600048694FF0020640064DD5E26B106840689A
:102970004FF480770004000C3AD0A18D814237D902
:10298000E085D069B8422DD020680C3050E8001F97
:1029900021F4807140E80012002AF5D1206814303B
:1029A00050E8001F21F0010140E80012002AF5D193
:1029B0002068143050E8001F21F0400140E8001268
:1029C000002AF5D184F84230256320680C3050E8A5
:1029D000001F21F0100140E80012002AF5D1E06B41
:1029E000FEF769FE6663A08DE18D401A81B206E0B4
:1029F000A18D8142A8D1D069B842A5D16663204695
:102A0000FFF704FFF8BDA08DE18D401A81B2E08D83
:102A10000028F7D00029F5D020680C3050E8002FAE
:102A200022F4907240E80027002FF5D1206814307E
:102A300050E8002F22F0010240E80027002FF5D1D6
:102A400084F84230256320680C3050E8002F00E005
:102A500006E022F0100240E80023002BF3D1CDE77E
:102A600005062BD5150629D594F841002128C9D192
:102A7000A068B0F5805F01D12069B0B1206A411C27
:102A80002162216800784860E08C401E0004000C40
:102A9000E084B7D12068C16821F08001C16020685E
:102AA000C16841F04001C160F8BD206A0088C0F3F0
:102AB00008004860206A801C2062E5E74006F3D5E4
:102AC0005006F1D5CA68204622F04002CA6084F858
:102AD000413000F097F9F8BD2D38000870B50400BA
:102AE00004D094F84100002510B106E0012070BD2B
:102AF00084F84050204600F023F8242084F8410058
:102B00002068C16821F40051C160204600F0A2FF96
:102B10002068016921F4904101612068416921F038
:102B20002A0141612068C16841F40051C1606564B7
:102B3000202084F8410084F842006563002070BDC5
:102B40002DE9F04F87B0054614216846FDF784FB58
:102B50009F48DFF878821038D5F800C09C4B0222DD
:102B60000321002406154FF0C00B4FF0080A4FF068
:102B700020674FF48079C4455AD1D3F800C04CF097
:102B8000804CC3F800C01B6803F0804305930368C2
:102B900043F0200303600068CDE9024100F020000B
:102BA000CDE904A0CDE900B269468A48FEF762FF8C
:102BB000DFF828A288495046CAF80010C0E901741D
:102BC000C0E90346CAF81440C0E90649B846CAF845
:102BD00020404F46CAF82440FEF798FE08B1FEF7A1
:102BE000FEF8DFF8F8917C4909F16009C5F83CA0CE
:102BF00048463039CAF83850E0E80218402152C03F
:102C000040F81449C0E9064704624846C9F8244020
:102C1000FEF77CFE08B1FEF7E2F8C5F83890002216
:102C200011465220C9F83850FFF7ACF8522043E063
:102C3000DFF8AC81C44544D1D3F800C04CF0004C5F
:102C4000C3F800C01B6803F000430593036843F01A
:102C500010030360006800F0100005908DE8160076
:102C6000CDE9031A69465F48FEF704FFDFF86C817F
:102C7000594908F1C00848314046C8F80010C0E979
:102C80000174C0E90346C8F81440C8F81840C8F8F1
:102C90001C40C8F82040C8F82440FEF737FE08B1B1
:102CA000FEF79DF8C5F83C80002211465320C8F875
:102CB0003850FFF767F85320FFF756F807B0BDE824
:102CC000F08F434BDFF820811B1DC44537D11F68AF
:102CD00047F010071F601B6803F01003059303689B
:102CE00043F0020303600068CDF800B000F002007A
:102CF00005900720CDE90310CDE9012469463B4842
:102D0000FEF7B8FE3B4F3A4838604FF00060C7E925
:102D10000104C7E903467C61C7E906493C623846BD
:102D20007C62FEF7F3FD08B1FEF759F8EF6300226D
:102D300011462520BD63FFF725F82520BCE7DFF805
:102D4000B880C445BAD1D3F800C04CF0200CC3F809
:102D500000C01B6803F020030593036843F04003A1
:102D600003600068CDE9024100F0400005904FF497
:102D70008440CDE90002CDF810A069461F48FEF757
:102D800079FEDFF870801A4908F16008183940466A
:102D9000C8F80010C0E90174C0E90346C8F814403F
:102DA000C0E90649C8F82040C8F82440FEF7AEFD47
:102DB00008B1FEF714F8C5F83C8000221146472000
:102DC000C8F83850FEF7DEFF472075E7007800406E
:102DD000403802400014024058600240980700202A
:102DE000007C00400010024000100140000402403E
:102DF00040640240B808002000140140001802405E
:102E0000704770477047FEE710B50880C0F3C002F6
:102E10008A70C0F30013CB70C0F380240C71C0F330
:102E2000C0244C71C0F30030887102B923B1002076
:102E3000C8711AB1012002E00120F9E700200872F0
:102E40000BB1012000E0002048720CB1012000E02D
:102E50000020887210BD000010B50B4C01202070BE
:102E60000020C4F801004FF49670FEF7F1FD4FF416
:102E70008072611D0548FFF7A4FC054800680168E1
:102E800021F00801016010BD7004002050070020EF
:102E90001809002010B50446B0F801001D49FFF7DD
:102EA000B3FF1D48E17880F813116168C0F8141170
:102EB000E168C0F81C112169C0F820116169C0F8EF
:102EC0002411A169C0F82811E169C0F82C11216A08
:102ED000C0F83011616AC0F83411A16AC0F8381125
:102EE000E16AC0F83C11216BC0F84011616BC0F879
:102EF0004411A16BC0F84811E16BC0F84C11216C72
:102F0000C0F85011616CC0F85411A16CC0F8581190
:102F100010BD0000750500207004002010B5044CA1
:102F20000146601D00F012F80020C4F8010010BD39
:102F3000700400200448D0F801100A2902D2491C6C
:102F4000C0F8011070470000700400202DE9FC4F0C
:102F50004FF000090E4682464D46A1F1520737E078
:102F60000AEB0504218889B2A1F525405A3801D021
:102F70006D1C1CE0B4F80280B4F804B008F106003F
:102F800080B228440190B04224D80020ADF800005F
:102F9000042221466846FDF70BFD4246A11D684606
:102FA000FDF706FDBDF80010594502D0AD1CADB2CD
:102FB0000EE0A079912809D1B8F14C0F06D3A01DDD
:102FC000FFF768FF09F101001FFA80F9019885B247
:102FD000BD42C5DD4846BDE8FC8F00001CB51A495E
:102FE000D1E90621CDE90021B0F910100288914203
:102FF00001DD01880182C268B0F904108A4203DC55
:10300000B0F902108A4200DAC16010F8101F8DF882
:10301000021030F804190822090A8DF8031001780B
:103020008DF804100188090A8DF805100168090C53
:103030008DF8061050F80619090E8DF8071069462C
:1030400000F012F81CBD0000C03C00081CB5054A89
:10305000D2E90412CDE900120822694600F004F812
:103060001CBD0000C03C0008F0B587B00F46044608
:103070000568164618216846FDF7EEF8A08800900E
:1030800000233A46694604962846FDF725FF07B017
:10309000F0BD00000F4810B50D49016005214160E9
:1030A00000214FF480228160C0E90312D200426106
:1030B0000176012242768176C27601774177FEF76A
:1030C00072F9002803D0BDE81040FDF788BE10BD9E
:1030D00000640040E00500200F4810B50D49016074
:1030E0000521416000214FF480228160C0E9031274
:1030F000D20042610176012242768176C276017762
:103100004177FEF750F9002803D0BDE81040FDF7E5
:1031100066BE10BD00680040080600201D4808B5C6
:10312000016841F480010160016801F480010091AF
:10313000016841F4001101600068002200F40010F1
:10314000009011460C20FEF71DFE0C20FEF70CFE31
:10315000002211460E20FEF715FE0E20FEF704FE9B
:10316000002211461120FEF70DFE1120FEF7FCFD96
:10317000002211463920FEF705FE3920FEF7F4FD46
:10318000002211463A20FEF7FDFDBDE808403A2036
:10319000FEF7EABD30380240194808B5016841F031
:1031A00010010160016801F010010091016841F017
:1031B00002010160016801F002010091016841F023
:1031C00040010160016801F040010091016841F097
:1031D00001010160016801F001010091016841F005
:1031E00080010160016801F080010091016841F0F7
:1031F00020010160006800F02000009008BD000080
:103200003038024010B586B000241848009401946C
:10321000029403940494144905940160B321C0E915
:1032200001144FF47A71C0E903148021C0E905410B
:10323000FFF712F908B1FDF7D2FD4FF4805000906E
:1032400069460A48FFF794F908B1FDF7C8FD0494F0
:1032500004A906480594FFF7B7F8002801D0FDF748
:10326000BEFD06B010BD0000000001403006002089
:103270000C4810B50A4901604FF4612141600021FA
:1032800081600C22C160C0E904128161C161FFF755
:1032900025FC002803D0BDE81040FDF7A0BD10BDFF
:1032A00000780040780600200C4810B50A490160FB
:1032B0004FF4E1314160002181600C22C160C0E91E
:1032C00004128161C161FFF709FC002803D0BDE849
:1032D0001040FDF784BD10BD007C0040C0060020FA
:1032E0000E4810B50C4901600D4941604FF4805102
:1032F00081604900C160C910016104214161002160
:103300008161C161FFF7EAFB002803D0BDE81040EE
:10331000FDF765BD10BD000000100140080700204A
:10332000A08601000C4810B50A4901604FF4E13154
:103330004160002181600C22C160C0E904128161FA
:10334000C161FFF7CBFB002803D0BDE81040FDF7BB
:1033500046BD10BD0014014050070020FEE70000EC
:1033600010B504460E48C4F8060040F241106081D2
:1033700042F21070E0604FF4C87020824FF4FA708F
:1033800020804BF2E010608044F62060A080A01DF9
:10339000FFF75CFE2046BDE81040FFF71FBE0000AF
:1033A00008060020FEE77047002140F8011F416039
:1033B0008160C160016141618161C16101624162FD
:1033C0008162C1620163704710EE101A40F8011F5C
:1033D00010EE901A416011EE101A816011EE901AF1
:1033E000C16012EE101A016170470000034801210C
:1033F00081760021C0F81B107047000007000020F4
:103400000A4810B5817E00290ED0D0F81B1005297E
:103410000AD30021C0F81B1000F048F800F014F89F
:10342000BDE8104000F074B810BD00000700002097
:103430000448D0F81B10052902D2491CC0F81B1003
:103440007047000007000020154802219FED160A72
:10345000C1731449D1F8302100EE902A60EE800A41
:10346000FDEEE00A10EE902A0282D1F8442100EE2F
:10347000902A60EE800AFDEEE00A10EE902A428269
:10348000D1F84811082200EE901A20EE800ABDEE15
:10349000C00A10EE101A818200F10F01FDF774BA14
:1034A00007000020700400200000C84215480121D8
:1034B0009FED160A01721449CA6800EE902A60EE68
:1034C000800AFDEEE00A10EE902A20F8092F0A6922
:1034D00000EE902A60EE800AFDEEE00A10EE902ADF
:1034E00042804969082200EE901A20EE800ABDEE63
:1034F000C00A10EE101A8180024902480831FDF717
:1035000043BA0000070000202804002000007A448D
:103510000748032108228175064991F83510C175C5
:1035200005494979017600F11601FDF72DBA000031
:103530000700002028040020290100200348012161
:1035400001700021C0F8011070470000290100201F
:103550000448D0F801100A2902D2491CC0F8011011
:1035600070470000290100207047000010B5214974
:1035700001202DED028B087001F10E000446FFF7CB
:1035800013FF9FED1E8ADFED1C8AB0EE000AF0EEFD
:10359000481AB0EE682AB0EE481AF0EE480A204603
:1035A000FFF712FF13484B300446FFF7FDFEB0EE65
:1035B000682AF0EE481AB0EE481AF0EE480AB0EE6B
:1035C000000A2046FFF700FF0A4888300446FFF74C
:1035D000EBFEB0EE682AF0EE481AB0EE481AF0EEB4
:1035E000480ABDEC028B2046BDE81040B7EE080A41
:1035F000FFF7EABE6C00002000401C4600000000FF
:103600000448D0F80110052902D2491CC0F8011065
:10361000704700006C000020FEF74CBB30B593B043
:1036200030216846FCF718FE14210CA8FCF714FEA4
:1036300020480025016841F080510160006800F0D9
:10364000805011901C48016841F4404101600068BD
:10365000022400F4404011900120039010200490B7
:10366000009406940820CDE90750B420CDE9090460
:1036700004200B906846FEF7DBFC08B172B6FEE74B
:10368000FEF7B2FB08B172B6FEE70CA90F2081E885
:1036900031004FF4A0500F904FF48050109005214E
:1036A0000CA8FEF7D9FB002801D072B6FEE713B0D4
:1036B00030BD000040380240007000400248016800
:1036C00041F470010160704788ED00E00148FEF7A9
:1036D000BEBF000030060020F0B50268274B284D21
:1036E000284E294F294C4FF0804C984209D0604514
:1036F00007D0A84205D0B04203D0B84201D0A042C2
:1037000004D122F0700E4A6842EA0E0298421BD0A1
:10371000604519D0A84217D0B04215D0B84213D096
:10372000A04211D01A4DA8420ED01A4DA8420BD07B
:10373000194DA84208D0194DA84205D0184DA842ED
:1037400002D0184DA84203D122F44075CA682A431A
:103750004D6922F080022A438D68C5620D6885623A
:10376000984201D0A04201D109690163016841F08A
:1037700004010160012141610260F0BD00000140CF
:103780000004004000080040000C0040000401401C
:103790000040014000440140004801400018004042
:1037A000001C00400020004010B5846842EA03225B
:1037B00024F47F440A432243826010BD826822F0D1
:1037C00070020A4342F007018160704710B5036A36
:1037D000046A24F001040462846924F0F00444EAD9
:1037E000021423F00A020A438461026210BD10B57C
:1037F000036A046A24F010040462846923F0A003BD
:1038000024F4704444EA023243EA01118261016205
:1038100010BD00000148FFF721B800007806002025
:103820000148FFF71BB80000C006002010B5806BF0
:103830000021C185FFF710F810BD70B5846B2068BA
:10384000406994F84110C0F3C0100025212904D12B
:1038500018B1E584204600F08EF82068406994F89D
:103860004210C0F38010222904D118B1E58520460A
:1038700000F05AF8606C40F0100060642046FEF7DB
:10388000EBFF70BD10B50146806B096809684FF009
:103890000002C9052ED4C28501680C3151E8003FF1
:1038A00023F4807341E80034002CF5D10168143111
:1038B00051E8003F23F0010341E80034002CF5D12A
:1038C0000168143151E8003F23F0400341E800341F
:1038D000002CF5D1202180F84210016B012909D17B
:1038E00001680C3151E8003F23F0100341E8003437
:1038F000002CF5D14263016B012902D0FFF780FA59
:1039000010BD818DFEF782FF10BD10B5806B0121C7
:103910004163016B012902D0FFF773FA10BD818D5D
:103920004908FEF773FF10BD01680C3151E8002F04
:1039300022F4907241E80023002BF5D10168143184
:1039400051E8002F22F0010241E80023002BF5D1BD
:10395000016B012909D101680C3151E8002F22F0D7
:10396000100241E80023002BF5D1202180F84210FD
:1039700000210163704701680C3151E8002F22F0EB
:10398000C00241E80023002BF5D1202180F841102E
:10399000704708B590F84210222901D0022008BDD6
:1039A00082684FF480539A4201D1016921B1816A42
:1039B0009A421BD04AB10AE00268816A5268C2F397
:1039C00008020A80816A891C08E0026972B10268F3
:1039D000526802F07F020A70816A491C8162C18DBF
:1039E000491E0904090CC18503D01BE00268526816
:1039F000F1E70168CA6822F02002CA600168CA685B
:103A000022F48072CA6001684A6922F001024A61A8
:103A1000202180F8421000214163026B012A03D06B
:103A2000FFF7EEF9002008BD016301680C3151E891
:103A3000002F22F0100241E80023002BF5D101688D
:103A40000A68D20602D50A6849680091818DFEF79E
:103A5000DDFEE7E770B5044600680169E26821F41D
:103A60004051114301612169A068E269084361691D
:103A7000114308432168CA6849F20C639A43024320
:103A8000CA6020684169A26921F440711143416113
:103A900031492068884202D03049884202D1FEF77D
:103AA00085FA01E0FEF772FAE26900231921642524
:103AB0003226B2F5004F626828D0A0FB0101930FB7
:103AC0009200FCF791FB0146B0FBF5F06FF0180295
:103AD000504301EB800006EB0010B0FBF5F000F066
:103AE000F002B1FBF5F002EB0012B1FBF5F06FF064
:103AF0001803584301EB800006EB0010B0FBF5F013
:103B000000F00F0021681044886070BDA0FB010127
:103B100092185B41FCF768FB0146B0FBF5F002012F
:103B2000B1FBF5F06FF01803584301EB800006EB92
:103B3000C000B0FBF5F000F0F80002EB4002B1FB72
:103B4000F5F0584301EB800006EBC000B0FBF5F048
:103B500000F00700D6E7000000100140001401400B
:103B600038B58162044682850020134660642222B3
:103B700084F84220E56B1F4AEA63E56B1E4A2A641B
:103B8000E56B1E4AEA64E26B10650A462168E06B49
:103B9000091DFDF725FF30B110206064202084F856
:103BA0004200012038BD206801684068009020690B
:103BB00048B120680C3050E8001F41F4807140E8A3
:103BC0000012002AF5D12068143050E8001F41F09F
:103BD000010140E80012002AF5D12068143050E8B5
:103BE000001F41F0400140E80012002AF5D10020FA
:103BF00038BD0000853800080B3900083B38000844
:103C00000148FEF72BBE0000080700200148FEF720
:103C100025BE000050070020FEE7704770470000F7
:103C20000448D0F801100A2902D2491CC0F801103A
:103C300070470000000000200448D0F801100A2955
:103C400002D2491CC0F8011070470000EB010020AF
:103C50000907090E002804DB00F1E02080F80014B9
:103C6000704700F00F0000F1E02080F8141D70474D
:103C700002E008C8121F08C1002AFAD17047704735
:103C8000002001E001C1121F002AFBD17047FEF79E
:103C900019F8FFF7C3FCFFF77FFAFFF73FFAFFF7CA
:103CA0001FFBFFF7F7F9FFF717FAFFF7ABFAFFF77C
:103CB000FBFAFFF7DDFAFFF735FBFCF7A1FDFCE7A8
:103CC00080000000000000008100000000000000F3
:103CD0008800000000000000A400000000000000B8
:103CE000000610160006101600000000000000007C
:103CF0000102030406070809000000000102030492
:103D0000203D0008000000206C000000703C00080E
:103D10008C3D00086C0000200C0D0000803C000869
:103D20000000000000000008060020010100010062
:103D30000000000000000000000000000000000083
:103D400000000000000000E0050020FF01FF020469
:103D500002F803002001080600200002040200020D
:103D60000404002003000000000000000000000028
:103D70000000000000000000000000000100000042
:0C3D800010000000000000000024F4000F
:04000005080001AD41
:00000001FF
