:020000040800F2
:10000000780F00204D020008713700081F320008E9
:100010002D3700084B060008794500080000000055
:10002000000000000000000000000000AD3C0008DF
:10003000070D000800000000C1380008853F0008D7
:1000400067020008670200086702000867020008EC
:1000500067020008670200086702000867020008DC
:100060006702000867020008670200082D0C0008FC
:1000700067020008670200086702000867020008BC
:1000800067020008390C00086702000867020008D0
:100090004D060008590600086702000867020008BC
:1000A000670200083940000867020008670200087C
:1000B000670200086702000867020008670200087C
:1000C000670200086702000867020008670200086C
:1000D000670200086145000867020008670200081F
:1000E000670200086702000867020008670200084C
:1000F000670200086702000867020008670200083C
:10010000670200086702000867020008670200082B
:10011000670200086702000867020008670200081B
:1001200067020008450C0008510C0008670200082F
:1001300067020008670200086702000867020008FB
:1001400065060008710600086702000867020008DB
:100150006702000867020008670200086D45000892
:1001600067020008670200086702000867020008CB
:10017000670200086702000867020008000000002C
:100180006702000867020008670200088141000852
:10019000670200086702000867020008670200089B
:1001A00000000000000000006702000800F002F8F4
:1001B00000F03CF80AA090E8000C82448344AAF1C5
:1001C0000107DA4501D100F031F8AFF2090EBAE8C3
:1001D0000F0013F0010F18BFFB1A43F0010318477B
:1001E0009C560000BC560000103A24BF78C878C165
:1001F000FAD8520724BF30C830C144BF04680C602D
:10020000704700000023002400250026103A28BF74
:1002100078C1FBD8520728BF30C148BF0B60704778
:100220001FB505F058FA1FBD10B510BD00F005F957
:100230001146FFF7F5FF04F08FFD00F023F903B43A
:10024000FFF7F2FF03BC00F027F9000009488047E0
:1002500009480047FEE7FEE7FEE7FEE7FEE7FEE7A8
:10026000FEE7FEE7FEE7FEE704480549054A064BC0
:100270007047000029400008AD01000878090020FF
:10028000780F0020780B0020780B002053EA020C36
:1002900000F069802DE9F04B4FF00006002B1FBFE6
:1002A000B3FA83F503FA05F424FA05F65E4012BFAB
:1002B0001643B2FA82F502FA05F4C5F120051EBF15
:1002C00022FA05FC44EA0C04203556EA044C4FEAB5
:1002D000144418BF641C4FF000084FF0000990420E
:1002E00071EB030C39D3002919BFB1FA81F701FA78
:1002F00007F6B0FA80F700FA07F6C7F120071EBF2D
:1003000020FA07FC46EA0C062037B6FBF4FCA7EB04
:100310000507103F07F01F0BCBF120060CFA0BFB73
:100320002CFA06F644BFB3460026202FA4BF5E4633
:100330004FF0000B5BEA060C08BF4FF0010B19EB06
:100340000B09ABFB027C48EB0608C01B06FB02CC8A
:100350000BFB03CC71EB0C01C1E70B460246414697
:100360004846BDE8F08B13B54FF000004FF0000198
:10037000AFF30080BDE81C4070474FF00002042935
:10038000C0F0128010F0030C00F01B80CCF1040CC4
:10039000BCF1020F18BF00F8012BA8BF20F8022BF8
:1003A000A1EB0C0100F00DB85FEAC17C24BF00F89E
:1003B000012B00F8012B48BF00F8012B70474FF0CC
:1003C000000200B5134694469646203922BFA0E8A5
:1003D0000C50A0E80C50B1F12001BFF4F7AF0907B1
:1003E00028BFA0E80C5048BF0CC05DF804EB8900A2
:1003F00028BF40F8042B08BF704748BF20F8022BE5
:1004000011F0804F18BF00F8012B704770477047FC
:10041000704710B500F00CF8006810BD10B5044628
:1004200000F006F8046010BD00487047180900206D
:10043000004870471809002070477546FFF7F4FF21
:10044000AE4605006946534620F00700854618B0C1
:1004500020B5FFF709FFBDE820404FF000064FF040
:1004600000074FF000084FF0000B21F00701AC46E9
:10047000ACE8C009ACE8C009ACE8C009ACE8C00908
:100480008D46704710B50446AFF300802046BDE8A6
:100490001040FFF7D4BE000001491820ABBEFEE7B4
:1004A0002600020000280CD0017A002909D001683A
:1004B00000EE901AF4EEC00AF1EE10FA02DD00EE42
:1004C000101A7047406800EE900AF4EEC00AF1EE90
:1004D00010FAF6D200EE100A704700280AD010EE8B
:1004E000102A026010EE902A426011EE102AC0F825
:1004F000092001727047002805D0002210EE101A62
:10050000026041608260704710B500F05BFC0F48EC
:1005100000F07AFB02F0ACFE00F0CEF80C4803F0DD
:1005200007F90C4803F0BAF900F0CCFC03F0BAFC70
:1005300003F084FA03F094FB04F02CF800F04AF87E
:1005400000F07CF8BDE8104000F07EB82D040020DB
:10055000D1050020E70500202DE9F0411B4D0226C2
:10056000012728781A4C04282CD2DFE800F0020476
:1005700008242F7026E0FFF7C7FF2E7022E01448F2
:1005800000F0BEFB002648B103F074FB00F0B6FD9E
:1005900003F0D4FC44F8316F277113E0D4F8310034
:1005A000401CC4F831000A280CD90320287044F8F4
:1005B000316F267106E0064800F0A2FB10B12E70E4
:1005C00084F83570BDE8F04103F042BA2D000020F8
:1005D0002D04002010B5084801F070FA02210648E9
:1005E00000F09BFE054801F069FABDE810400221C9
:1005F000024800F092BE00002806002050060020AD
:1006000000B58BB0017A0591002106910121079177
:1006100030F8021F009130F8021C0191818802918C
:1006200041880391C1680491C179099101690891D8
:100630008068694600F0ECFE0BB000BD014802F096
:100640008DB90000780600207047FEE7014800F0F1
:10065000E0BF000028060020014800F0DABF0000DB
:1006600028060020014800F0D4BF000050060020FA
:10067000014800F0CEBF0000500600200178042998
:1006800005D1B0F80100024940BAA1F8090070474D
:100690002C01002000B503460888098A9B8880B297
:1006A00089B2834201D1082901D0012000BD104642
:1006B000FFF7E4FF002000BDAFF3008000B587B076
:1006C000BDF8020000F01F00ADF8020014480099C8
:1006D000014000919DF8001021F006018DF80010F6
:1006E000BDF8061001F01F01ADF806100199014098
:1006F00001919DF8040040F006008DF804000E20E2
:100700008DF808000748CDF80A000020CDF80E004B
:100710000120CDF812006846FFF772FF07B000BD58
:100720000700E0FF5006002000B587B001230693C4
:100730008388009300230293CDE903328DF81430AF
:100740000A46006806AB694600F0F9FD07B000BD37
:10075000F0B50388002441F221060DE00D5D83EA27
:10076000052300251F0402D586EA430300E05B0051
:100770006D1C082DF6D3641C9442EFD30380F0BDAA
:1007800000280DD000F8011B10EE101A016010EEC9
:10079000901A416011EE101A816011EE901AC1603A
:1007A000704710EE100AB0F17E5F02DDB7EE000A6E
:1007B00006E010EE100A10F1814F01D9BFEE000AD9
:1007C00020EE001A21EE000A20EE200A70470000F9
:1007D000F0EEC01AF4EEE01AF1EE10FA02D29FED3C
:1007E000120A7047B7EE002AB5EEC00A72EE602A10
:1007F000F1EE10FA02DD30EE600A01E030EE200A80
:10080000C0EE221A11EE900AB0F17E5F02DDF0EE2A
:10081000421A06E011EE900A10F1814F01D9FFEE65
:10082000001A21EE810A70470000000010EE100A45
:10083000F7EE001AB0F17E5F02DDB0EE610A06E06D
:1008400010EE100A10F1814F01D9BFEE000A71EECF
:10085000E01A60EE800A40EE801A21EE800A20EE57
:10086000010A704710B510EE100A2DED028BB0EEA4
:10087000418AB0F17E5F02DDB7EE000A06E010EEBD
:10088000100A10F1814F01D9BFEE000AB5EEC00A7F
:10089000F1EE10FA02DBF7EE008A01E0FFEE008ACB
:1008A000B0EEC00A03F0E2FE20EE280A20EE080AAD
:1008B000BDEC028B10BD10EE100AB0F17E5F02DDC0
:1008C000B7EE000A06E010EE100A10F1814F01D9D0
:1008D000BFEE000A20EE200A7047002844D00178BD
:1008E000092941D2DFE801F0050B1140171D272D22
:1008F0003600D0F8090000EE900AFFF7DCBFD0F810
:10090000090000EE900A00F04FB8D0F8090000EEA0
:10091000900AFFF746BFD0F8090000EE900A00F0F9
:100920008BB8D0F80910D0F8010001EE101A00EED3
:10093000900AFFF797BFD0F8090000EE900A00F088
:1009400053B850F8091F406801EE101A00EE900AE3
:10095000FFF73EBFD0F80510D0F8010001EE101AE5
:1009600000EE900AFFF762BF70470000002817D022
:10097000D0F80D1000EE901AF5EEC00AF1EE10FA64
:100980000CDDF0EE400AB0EEE01A00EE901AB4EE84
:10099000E01AF1EE10FA01D29FED020AFFF79DBFB7
:1009A000704700000000000010EE100AB0F17E5FFA
:1009B00002DDB7EE000A06E010EE100A10F1814FDA
:1009C00001D9BFEE000AB5EEC00AF1EE10FA02DB63
:1009D000B7EE001A01E0BFEE001A21EE001A21EE78
:1009E000000A20EE200A704710EE100AB0F17E5F78
:1009F00002DDB7EE000A06E010EE100A10F1814F9A
:100A000001D9BFEE000AF0EE001AB5EEC00AF1EE11
:100A100010FA02DBB0EE081A01E0B8EE081A60EE38
:100A2000211A20EE011A61EE801A21EE001A01EE61
:100A3000C01A21EE200A704710B510EE100A2DEDF5
:100A4000028BB0EE608AB0F17E5F02DDB7EE000A85
:100A500006E010EE100A10F1814F01D9BFEE000A36
:100A6000B5EEC00AF1EE10FA02DBF7EE008A01E003
:100A7000FFEE008AB0EEC00A04F02AF920EE280A40
:100A800020EE080ABDEC028B10BD00002DE9F05FDE
:100A90000D002DED068B04467DD0122A7BD12888CF
:100AA000C0F30A0020806978AA78C90841EA421197
:100AB000C1F30A0161808B46A978EA78890941EA85
:100AC00082012A79A0F5B67041EA8221C1F30A01B8
:100AD000A180884629796A79490841EAC211C1F39F
:100AE0000A07E7802E8A268169798909A1728A46D8
:100AF0006979C1F30111E172894604F07BFB9FED36
:100B00003C8B53EC182B04F08DFB9FED3B9B53EC7F
:100B1000192B04F017FA9FED3AAB53EC1A2B04F0A3
:100B20007FFC04F035F9E060ABF5B67004F062FBD1
:100B300053EC182B04F076FB53EC192B04F002FA5B
:100B400053EC1A2B04F06CFC04F022F92061A8F598
:100B5000B67004F04FFB53EC182B04F063FB53EC1E
:100B6000192B04F0EFF953EC1A2B04F059FC04F0A4
:100B70000FF96061A7F5B67004F03CFB53EC182B3D
:100B800004F050FB53EC192B04F0DCF953EC1A2B56
:100B900004F046FC00E027E004F0FAF8A061A6F5B6
:100BA000B67004F027FB53EC182B04F03BFB53EC1E
:100BB000192B04F0C7F953EC1A2B04F031FC04F0A4
:100BC000E7F8E06184F820A084F82190E888608448
:100BD0002889A0842889E084287B84F82800687B01
:100BE00084F82900E8896085BDEC068BBDE8F09F9C
:100BF00000000000000000400000000000A0944041
:100C0000000000000000F03F10B500F13601122294
:100C1000044802F00CF804480068016821F008015B
:100C2000016010BD0807002058080020014800F0AE
:100C3000D3BF0000F8070020014800F0CDBF00003E
:100C400098070020014800F0C7BF0000B808002046
:100C5000014800F0C1BF00005808002001681823B7
:100C6000CAB2103AB2FBF3F2054B6FF30901032A43
:100C70009B5CC36500D9091D81650846704700006B
:100C80001C57000810B5014600208B698A6A4FF096
:100C9000C07453B1B3F5005F15D072B1012A0CD006
:100CA000022A0AD0032A09D104E01AB1012A06D087
:100CB000022A03D1C96AC90100D5012010BDC96A41
:100CC000A142FAD010BD002AF7D0012AF2D0022AA0
:100CD000F3D0032AF3D010BD30B50468256825F49D
:100CE00080252560046863608368402B036803D017
:100CF00099600068C26030BD9A600068C16030BD14
:100D000090F82D0070477047F0B54488038865BAA5
:100D1000848886791848C1EB0111084402EB42012E
:100D200050F80A7F0B225BBA02EB810200EE103A08
:100D3000BE540368B8EE400A012606EB810610EEA9
:100D4000102A64BA334424B21A6000EE104A0268D2
:100D5000052303EB8103B8EEC00A1A44DFED070A4E
:100D60001580006820EE200A072303EB810110EEB6
:100D7000102A08440260F0BD2E00002000008038D8
:100D800030B514460A46014610880D4AC1EB0113DE
:100D900013441D899A7B401B401E80B2451C95421E
:100DA00001D9012030BDD3F80A3000EB4005012203
:100DB00003F82520C2B22046FFF7A6FF002030BD71
:100DC0002E000020AFF3008000B587B0BDF8020010
:100DD00000F01F00ADF80200144800990140009196
:100DE0009DF8001021F006018DF80010BDF80610E6
:100DF00001F01F01ADF806100199014001919DF825
:100E000004000B4940F006008DF8040000208DF826
:100E10000800CDF80A10CDF80E000120CDF8120020
:100E20006846FFF7EDFB07B000BD00000700E0FFDC
:100E30002806002070B58AB001260896C0EB00167F
:100E40001448DDE90E54304400EB410189880291D9
:100E500000210491059108210691110A8DF80010D6
:100E60008DF80120190A8DF80210290A8DF8041056
:100E70008DF80550210A8DF806108DF803308DF895
:100E80000740006808AB6A4602A900F058FA0AB0A9
:100E900070BD00002E00002010B50446FFF7F6FDDF
:100EA0002046FFF7B1FE3220C4F82D0010BDD0F867
:100EB0002D10002902D0491EC0F82D10704772B6BF
:100EC000FEE7000010B5274901202DED028B0870C8
:100ED00001F11500044602F08FFD9FED248ADFED3D
:100EE000228AF3EE090AF0EE481AB0EE682AB0EE54
:100EF000481A9FED1F0A204602F08EFD19484A301D
:100F0000044602F079FDB0EE682AF0EE481AB0EE21
:100F1000481ADFED180AB0EE080A204602F07CFD00
:100F20001048F0EE481A9FED141AF0EE480AB0EEA1
:100F3000480A0321A830FFF723FC0A489FED0F0A57
:100F40008F30FFF7D8FABDEC028B01210548BDE8D0
:100F50001040B2EE041AFBEE0E0A9FED090A9B3018
:100F6000FFF7BBBA3701002000409C46000000009C
:100F700000001643CDCCCC3DCDCC4C3F0000B4425C
:100F80000000B4C22DE9F0414F48514F806900EE96
:100F9000100A4E48C3799FED4F2AF2EE042A9FEDC6
:100FA0004E1A4E4EDFED4E1A4E48504C4E4A90F8B7
:100FB0002450D0F82A102069012B05D0DFED4C0A0F
:100FC000022B45D093B350E0012D18D0494900EED3
:100FD000100A43F2C82291F90000B8EEC00A00EEF0
:100FE000900AF8EEE00A00EE810ABDEEC00A10EEAB
:100FF000100A2061904224DB2261FF2026E000EEEF
:10100000901AB0EEE00A10EE101AB94201DAF0EED2
:10101000420A00EE100AB8EEC00A00EEE20A00EE44
:10102000900AF8EEE00A30EE600A3FE012E000BFFE
:1010300000EE900AF8EEE00A30EE800ABDEEC00A3B
:1010400010E02D4A904210DC2261012008700CE073
:10105000012D15D001EE100AB8EEC11A00EE201ACB
:10106000BDEEC10A10EE100A2061E06821698842D5
:1010700004D01E4802F0BEF92069E060BDE8F081AE
:1010800000EE101AF0EEC00A10EE901AB94201DA22
:10109000B0EE420A00EE900AF8EEE00A40EE620A74
:1010A00000EE100AB8EEC00A30EEC00A10EE101AB8
:1010B000914202DDB0EE410ABAE710EE101AB142D9
:1010C000B6D9B0EE610AB3E72D0400202C01002050
:1010D0009A99993E0000000000004842000048C272
:1010E000000048C2E705002000004842D10500206A
:1010F0000000C8422C000020E0B1FFFF0A4810B5F4
:10110000017800290ED0D0F8011000290AD0002162
:10111000C0F8011000F0ACF8FFF734FFBDE8104054
:1011200000F056B810BD0000370100200448D0F888
:101130000110002902D10121C0F801107047000000
:101140003701002010B5416830EE200A00EE901AF9
:10115000164A30EEC00ADFED160A10EE101A914260
:1011600001DD30EE600A134A10EE101A914201D9E7
:1011700030EE200ADFED100A453060EE200A9FEDC8
:101180000F0A02F09FFB10EE100A0E4ADFED0C0A68
:101190000D49904202DDB0EE600A10BD10EE100A5B
:1011A0008842FAD99FED090A10BD000000003443BF
:1011B0000000B443000034C3B005B6410000000095
:1011C00000007A4500007A4500007AC500007AC523
:1011D00010B524482DED028B82B09FED218AB0EE30
:1011E000480AFFF7C3FB9FED201ADFED200A1D48D8
:1011F00040EE410A0D38B0EE600AFFF753F9194C82
:1012000010EE101AA83CF0EE480AC4F80D1000EEDB
:10121000101A601DFFF796FFBDEEC00A10EE100A0F
:1012200001B2A4F80710601D00F064F800EE100A87
:1012300000210B46B8EEC00A10EE100AC4F84600B2
:1012400000EE100A00910846BDEEC00A019110EEB2
:10125000102AFFF7EFFD02B0BDEC028B10BD0000BD
:1012600000000000DF01002000003443000070C2D5
:1012700010B51648164C2DED068BD0F80A00B0F8C4
:10128000051024F8051FD0F8010004F0B3F99FED14
:10129000111B9FED128B9FED139B9FED14AB53EC35
:1012A000112B04F0BDF853EC1A2B03F0BBFF53ECE9
:1012B000182B03F047FE53EC192B03F09BFD03F0B2
:1012C00067FD6060BDEC068B10BD00002E000020A5
:1012D00037010020000000000000000000000000B6
:1012E00000FFBF4000000000008066C0000000005A
:1012F0000080764010B530F9102B00EE102AF8EE81
:10130000C00A00EE101AB8EEC00A02F0DBFABDEE19
:10131000C00A10EE100A00B210BD90F82020012A79
:1013200007D0022A05D0416A41F4802141620120A0
:101330007047006842690A43426100207047F0B577
:1013400090F820500468A468012D05D0022D03D028
:10135000416A41F4802157E014F0406F01D1E5006B
:101360004FD5C4F301640125A5401D608D684FF47D
:10137000C0739DB1CE6835434E6845EAC605066820
:1013800003EB0417F5514FF4C275076805EB04151C
:101390000E697E51097D012905D009E00E88CD68CE
:1013A00045EA4655EBE701684E5946F480764E51C2
:1013B0001179D579567941EA056195792D0445EA87
:1013C000062529434FF4C676056806EB0416A95195
:1013D0001178D57841EA0561957852782D0445EA6F
:1013E000022211434FF4C475026805EB04155151F4
:1013F000006803EB0411425842F001024250002001
:10140000F0BD416A41F4001141620120F0BD0000CD
:1014100010B590F82020012A07D0022A05D0416A91
:1014200041F480214162012010BD3B48D0F80022E8
:1014300042F00102C0F80022D0F8002222F47C52CF
:10144000C0F80022D0F800224B6A42EA0322C0F81A
:1014500000220A7D02F01F0301229A40D0F81C32BC
:101460009343C0F81C32CB69B3B9D0F80C32934324
:10147000C0F80C328C894B6864F31F434C6900EB55
:10148000C404C4F840320C890B6864F31F434C69F0
:1014900000EBC404C4F84432CB69012B16D1D0F858
:1014A0000C321343C0F80C320C884B6864F31F43B2
:1014B0004C6900EBC404C4F840320C89CB6864F377
:1014C0001F434C6900EBC404C4F844328B69002B01
:1014D000D0F804320ED01343C0F804320B69002B4D
:1014E000D0F8143208D01343C0F81432096A012925
:1014F00004D008E09343EFE79343F5E7D0F81C12DC
:101500001143C0F81C12D0F8001221F00101C0F8FC
:101510000012002010BD000000640040704770B54C
:1015200090F82040012C05D0022C03D0416A41F4F0
:10153000802128E0046809B32469A40720D04FF46F
:10154000D874056804EB01142D5915F00405956055
:1015500005682D591AD0ED08556005682C5904F01E
:101560000204D4604FF4DA74056804EB01142E59B8
:1015700006F00F06082E0CD308250DE0E468DCE722
:10158000416A41F400114162012070BD6D0D15608A
:10159000E3E72D5905F00F05156105682D59C5F3D1
:1015A0000725956105682C59240C54614FF4DC72B1
:1015B000046802EB0112A4581C700468A458240AA1
:1015C0005C700468A458240C9C700468A258120E25
:1015D000DA704FF4DE72046802EB0112A4581C7139
:1015E0000468A458240A5C710468A458240C9C71F3
:1015F0000468A258120EDA71006829B1016941F03D
:1016000020010161002070BDC16841F02001C1606E
:10161000F8E72DE9F05F0546006800244669D0F838
:1016200004908768D0F80CB0D0F810A0D0F81880DB
:10163000F10748D0F90714D001218160B80703D51C
:10164000284600F068FA0CE0780702D54FF40064F1
:1016500007E0380702D54FF4805402E0284600F036
:1016600059FAF80516D529684FF480708860B805D6
:1016700003D5284600F051FA0CE0780502D544F471
:10168000005407E0380502D544F4804402E02846BF
:1016900000F042FAF80316D529684FF480308860CC
:1016A000B80303D5284600F03AFA0CE0780302D5D7
:1016B00044F4004407E0380302D544F4803402E0E7
:1016C000284600F02BFA300707D55FEACB6004D537
:1016D0002968102044F40074C86070074FF00807B0
:1016E00007D55FEA0B7004D52868C760284600F06C
:1016F000A9F9B00706D52868C068800702D0284637
:1017000000F0A2F9700607D55FEACA6004D529681F
:10171000102044F480640861B00607D55FEA0A70BF
:1017200004D528680761284600F0C4F9F00606D5FC
:1017300028680069800702D0284600F0BCF9B00391
:1017400008D55FEAC96005D5296810204860284699
:1017500000F0B2F9F00307D55FEA097004D52868F4
:101760004760284600F0DCF9300446D55FEA49704E
:1017700040D5F00504D55FEAC87001D044F00104FB
:10178000B00504D55FEA887001D544F00204700505
:1017900004D55FEA487001D544F00404300529D52A
:1017A00018F0700F26D008F07000402815D006DC25
:1017B000102809D020280AD0302816D10AE0502855
:1017C0000ED0602811D10EE044F008040DE044F082
:1017D00010040AE044F0200407E044F0400404E070
:1017E00044F0800401E044F480742868816921F0A9
:1017F00070018161296804204860002C05D0686A66
:10180000204368622846FFF789FEBDE8F09F70B567
:10181000040003D094F8200010B104E0012070BD52
:10182000204600F081F82068016841F00101016064
:1018300000F070FC0546052604E000F06BFC401B40
:101840000A2811D820684068C007F6D020680168CF
:1018500021F00201016000F05DFC05460BE000F0A4
:1018600059FC401B0A2806D9606A40F400306062C7
:1018700084F82060D2E7206840688007EFD4207E9B
:101880000128206801683DD021F080010160607E60
:1018900001282068016838D021F040010160A07E55
:1018A00001282068016833D021F020010160E07E2A
:1018B0000128206801682ED041F010010160207FCE
:1018C00001282068016829D021F008010160607FAB
:1018D00001282068016824D021F004010160D4E9C6
:1018E00002010843D4E90412114308436168491E08
:1018F00008432168C86100206062012084F820004C
:10190000002070BD41F08001C0E741F04001C5E713
:1019100041F02001CAE721F01001CFE741F00801B2
:10192000D4E741F00401D9E7F0B587B004461421AB
:101930006846FEF744FD3E4B3E48DFF8F0E019688C
:10194000D4F800C03B4A03250226092710300024A2
:10195000491CF4452AD11960012907D1016841F0D9
:1019600000710160006800F000700590106840F0A0
:10197000080010601068CDE9005600F00800CDE9BD
:10198000047069462C48CDE9024500F0A9FA00220E
:101990001146142000F02CFC142000F01BFC002247
:1019A0001146152000F024FC15203BE0DFF88CE008
:1019B000F44539D1D0F800C04CF0806CC0F800C0BC
:1019C000D0F800C001290CF0806CCDF814C019606B
:1019D00007D1016841F000710160006800F00070FB
:1019E0000590106840F002001060106802AB00F033
:1019F000020005904FF44050CDE9000683E8B000A6
:101A000069460F4800F06CFA00221146402000F0B1
:101A1000EFFB402000F0DEFB00221146412000F0E9
:101A2000E7FB412000F0D6FB07B0F0BD00640040AA
:101A30005C00002030380240000C0240006800408A
:101A4000000402407047000010B50446144888B0F6
:101A500084420DD1134B6A4600212046FFF75FFDFB
:101A600008B1FFF72CFA0F4A69460020FFF788F902
:101A70000D48844212D10D4B6A4600212046FFF7E3
:101A80004EFD08B1FFF71BFA084A69460120FFF72F
:101A900077F9064A69460648FEF7FCFD08B010BD16
:101AA000280600204C000020500600205400002092
:101AB00007000020704770477047000070B504466B
:101AC00090F82000012804D0606A40F40020606291
:101AD00018E0022084F820002068016821F001014C
:101AE000016000F017FB05460EE000BF00F012FB9E
:101AF000401B0A2808D9606A40F400306062052063
:101B000084F82000012070BD20684068C007EDD136
:101B1000606270BD7047704770477047704770478C
:101B200070472DE9F0410446876D00F0F3FA064650
:101B300094F835000025022806D08020606584F8DE
:101B400034500120BDE8F0812068016821F01601C1
:101B500001602068416921F080014161206C08B971
:101B6000A06C20B12068016821F0080101602068A4
:101B7000016821F0010101600CE000F0CBFA801B4C
:101B8000052807D920206065032084F8350084F8F3
:101B90003450D7E720680068C007EED194F85C1095
:101BA0003F208840B860012084F8350084F8345024
:101BB0000020C7E790F83510022903D08021416545
:101BC00001207047052180F835100068016821F078
:101BD00001010160002070472DE9F84304464FF0F1
:101BE0000009CDF8009063484FF41651A56D0068C8
:101BF000B0FBF1F72E6894F85C10082000FA01F1B0
:101C000031420FD021680A6852070BD50A6822F0CA
:101C100004020A6094F85C108840A860606D40F08F
:101C20000100606594F85C104FF0010808FA01F0BB
:101C3000304208D021684969090604D5A860606D62
:101C400040F00200606594F85C1004208840304247
:101C500008D021680968890704D5A860606D40F044
:101C60000400606594F85C1010208840304218D061
:101C700021680968090714D5A8602068016849032C
:101C800004D50068000308D5A16C07E00168C90508
:101C900003D4016821F008010160216C09B12046DC
:101CA000884794F85C1020208840304231D0216869
:101CB0000968C9062DD5A86094F835000528206864
:101CC000016806D0490347D5006800031DD4616C44
:101CD0001CE021F0160101602068416921F08001BB
:101CE0004161206C08B9A06C20B12068016821F026
:101CF0000801016094F85C103F208840A86084F8D7
:101D0000358084F83490216D1FE0E16B09B12046E5
:101D10008847606D00282BD0606DC00714D0052067
:101D200084F835002068016821F001010160009805
:101D3000401C0090B84203D820680068C007F6D164
:101D400084F8358084F83490E16C002910D001B01B
:101D50002046BDE8F04308470168C905D5D40168AD
:101D600021F01001016084F8358084F83490CCE7CC
:101D7000BDE8F8836C0000202DE9F041044600F036
:101D8000C9F906465CB1022084F83500002584F8C4
:101D900034502068016821F0010101600DE001204C
:101DA000BDE8F08100F0B6F9801B052805D9202098
:101DB0006065032084F83500F2E720680068C007FA
:101DC000F0D12268116820480140D4E9010318438A
:101DD000D4E903363343184363691843A3691843AE
:101DE000E3691843236A18430843616A042903D14D
:101DF000D4E90B1319430843106020684069666AF0
:101E000020F0070130460E43012704280CD1A06AB8
:101E10000643E06A40B12046FEF734FF20B140207F
:101E2000606584F83570BAE7206846612046FEF7A1
:101E300015FF94F85C203F2191408160656584F82E
:101E400035700020ACE700003F8010F02DE9F04134
:101E50000446866D90F83400002501280DD001203D
:101E600084F8340094F835700020012F07D084F8EE
:101E7000340002252846BDE8F0810220FBE7022756
:101E800084F8357060652046FEF726FF94F85C10F4
:101E90003F208840B0602068016841F01601016071
:101EA000206C20B12068016841F0080101602068C1
:101EB000016841F001010160DCE7000070B50446F3
:101EC00000F028F90546601C02D00448007804445C
:101ED00000F020F9401BA042FAD370BD6000002042
:101EE0002DE9F84FDFF8F8A10022012403254FF077
:101EF0000F090AF1040BAAF1040E00BF0B6804FAE3
:101F000002F63340B34270D10F7907F00307012F77
:101F100001D0022F16D187684FEA420805FA08FC63
:101F200027EA0C07D1F80CC00CFA08FC4CEA070CA5
:101F3000C0F808C04768B7430E79C6F3001696404C
:101F40003E4346600E79F643B6070AD0C7684FEAAB
:101F5000420C05FA0CF6B7438E6806FA0CF63E43BF
:101F6000C6600E7906F00306022E10D1D60800EBEB
:101F70008608D8F8206057074FEAD76C09FA0CF7A3
:101F8000BE430F6907FA0CF73743C8F8207006689C
:101F90004FEA420C05FA0CF7BE430F7907F003072E
:101FA00007FA0CF7374307604E6816F4403F1CD021
:101FB0004C4E376847F480473760366822F0030795
:101FC00006F480460096484E07EB060CDCF80868DD
:101FD00097073F0F09FA07F826EA0806DFF80C8191
:101FE000404503D14FF0000841E072E0DFF8008186
:101FF000404502D14FF0010839E0DFF8F880404554
:1020000002D14FF0020832E0DFF8EC80404502D107
:102010004FF003082BE0DFF8E480404502D14FF099
:10202000040824E0DFF8D880404502D14FF00508CD
:102030001DE0DFF8D080404502D14FF0060816E0E1
:10204000DFF8C480404502D14FF007080FE0DFF809
:10205000BC80404502D14FF0080808E0DFF8B080AE
:10206000404502D14FF0090801E04FF00A0808FA94
:1020700007F848EA0608CCF80888DAF800605746FE
:10208000D1F804C09E435FEACC2C00D51E433E60CD
:10209000DBF800605F46D1F804C09E435FEA8C2CF9
:1020A00000D51E433E60DEF800607746D1F804C0DC
:1020B0009E435FEA8C3C00D51E433E60084F083FBC
:1020C0003E68D1F804C09E435FEACC3C00D51E4375
:1020D0003E60521C102AFFF411AFBDE8F88F0000DB
:1020E000083C0140443802400030014000000240FA
:1020F0000004024000080240000C024000100240B0
:102100000014024000180240001C0240002002405F
:1021100000240240014880687047000060000020F1
:102120000248816802781144816070476000002095
:102130000B4810B5016841F400710160016841F479
:1021400080610160016841F480710160032000F04A
:102150006FF80F2000F006F800F024F8002010BD02
:10216000003C024070B50D4D04464FF47A7128785A
:10217000B1FBF0F00A490968B1FBF0F000F044FB54
:1021800048B9102C07D200222146501E00F030F82A
:1021900000206C6070BD012070BD00006000002058
:1021A0006C0000200A4808B5016841F480410160D4
:1021B000006800F4804000900548001F016841F06D
:1021C00080510160006800F08050009008BD000060
:1021D00044380240002809DB00F01F020121914031
:1021E0004009800000F1E020C0F8001170470000B5
:1021F000F0B40E4B1B680C46C3F30223C3F1070572
:10220000042D00D90425191D072901D2002300E05F
:10221000DB1E012606FA05F1491E214099409E4029
:10222000761E16403143F0BC02F00FBA0CED00E010
:10223000064900F0070208684FF6FF03184040EA1D
:102240000220034A10430860704700000CED00E0D4
:102250000000FA052DE9F8431748016841F0805164
:1022600001600068154F00F08050012600903E6428
:10227000FFF750FF05464FF47A78114C05E000BF98
:10228000FFF748FF401B40450DD86068C003F7D5F5
:102290007E64FFF73FFF0546464607E0FFF73AFF3B
:1022A000401BB04202D90320BDE8F8836068800378
:1022B000F4D50020F8E700004038024000000E424C
:1022C000007000402DE9F0470E46050065D0DFF8AC
:1022D0001481D8F80000F7B200F00F00B04207D226
:1022E00088F80070D8F8000000F00F00B04254D118
:1022F00028683D4C810712D5400703D5206840F47B
:10230000E05020602878000703D5206840F4604042
:1023100020602068A96820F0F00008432060287839
:10232000C0072DD0304968680839012812D002282A
:1023300013D0032811D00968890700292DDA2168F4
:1023400021F0030101432160FFF7E4FE814641F2E1
:10235000883A0EE009688903EFE709688901ECE72C
:10236000FFF7D8FEA0EB0901514502D90320BDE8D3
:10237000F0872068696800F00C00B0EB810FEFD1A6
:10238000D8F80010404601F00F01B14207D907709C
:10239000006800F00F00B04201D00120E7E7287884
:1023A000400705D52068E96820F4E0500843206024
:1023B0002878000706D52068296920F4604040EAA3
:1023C000C100206000F038F82168084AC1F3031109
:1023D000515CC8400649086006480068FFF7C2FE25
:1023E0000020C4E7003C024008380240245700089F
:1023F0006C0000206400002004480549006809685A
:10240000044AC1F38221515CC84070476C0000202F
:102410000838024034570008044805490068096834
:10242000044AC1F34231515CC84070476C0000203F
:102430000838024034570008154810B5006810F0FD
:102440000C02144813D01449042A0FD0082A0ED1C4
:102450000F4C241F2268236802F03F025B0207D55D
:102460002068C0F38810A0FB010106E0084610BDFB
:102470002168C1F38811A1FB00010023FDF706FFCD
:102480002168C1F30141491C4900B0FBF1F010BDC6
:10249000083802400024F400001BB7002DE9F84F73
:1024A00004006ED02078DFF84C93C007A9F1040532
:1024B0004AD009F104000168C1F38101012908D063
:1024C0000068C0F3810002280AD1D9F80000400258
:1024D00006D52868800337D560680028E1D033E04E
:1024E0006068B0F5803F10D0B0F5A02F286810D0FC
:1024F00020F480302860286820F4802028606068FC
:10250000A8B1FFF707FE06460DE0286840F48030CA
:10251000F4E740F480202860F7E700BFFFF7FAFDFA
:10252000801B642873D828688003F7D50CE0FFF778
:10253000F1FD064605E000BFFFF7ECFD801B6428B7
:10254000F0D828688003F7D42078DFF8AC828007C1
:102550004FF0000A3ED5A748001D016811F00C0F8E
:1025600008D00068C0F3810002280BD1D9F8000020
:10257000400207D42868800716D5E068012800D1FA
:1025800012E033E1E068B8B10120C8F80000FFF7BD
:10259000C1FD064605E000BFFFF7BCFD801B022819
:1025A000C0D828688007F7D52868216920F0F8008E
:1025B00040EAC10028600DE0C8F800A0FFF7AAFDBE
:1025C000064604E0FFF7A6FD801B02281FD82868F6
:1025D0008007F7D42078000722D5864F87486169A5
:1025E000703771B101210160FFF794FD064604E0E8
:1025F000FFF790FD801B022809D838688007F7D5BF
:102600000EE0C0F800A0FFF785FD064605E082E079
:10261000FFF780FD801B02287DD838688007F7D43B
:102620002078400768D5DFF8CCB100270BF13C0BD0
:10263000DBF80000C0000BD4DBF8001041F0805143
:10264000CBF80010DBF80000012700F0805000906C
:102650006B4E3068C00510D4306840F48070306034
:10266000FFF758FD009005E0FFF754FD0099401A70
:10267000022850D83068C005F6D55E4EA0686C368A
:1026800001280FD00528306810D020F001003060FC
:10269000306820F004003060A068B8B1FFF73AFD60
:1026A00000900FE0306840F00100F4E740F00400D3
:1026B0003060F7E7FFF72EFD0099411A41F28830AC
:1026C000814266D830688007F4D50EE0FFF722FD1E
:1026D000009007E0FFF71EFD0099411A41F2883093
:1026E000814256D830688007F4D42FB1DBF800104F
:1026F00021F08051CBF80010A069C8B33D49091DF5
:102700000968C1F3810102294AD00228504607D046
:10271000C8F8600000E03CE0FFF7FCFC04463BE04A
:102720004746C8F86000FFF7F5FC064605E000BF25
:10273000FFF7F0FC801B02282BD828688001F7D413
:10274000D4E907010843A16A2E4A490802EB014176
:10275000626A41EA8211084394F82C1040EA016150
:10276000C9F8001001203866FFF7D4FC044606E0E3
:102770003EE000BFFFF7CEFC001B022809D8286806
:102780008001F7D534E000BFFFF7C4FC001B02282E
:1027900002D90320BDE8F88F28688001F4D427E02F
:1027A0000128F7D0D9F80000E26900F480019142D5
:1027B0001CD1226A00F03F01914217D147F6C07147
:1027C000626A0140B1EB821F10D1A26A4FF0FF3361
:1027D00000F4403103EB5202B1EB024F06D194F802
:1027E0002C1000F07060B0EB016F01D00120D1E738
:1027F0000020CFE70438024000004742800E4742E5
:10280000007000400000FFFF10B5401EB0F1807F57
:1028100001D3012010BD4FF0E02460610F2160174B
:1028200001F013FF0020A06107202061002010BDEF
:102830007047704770B590F83C20012A32D00124CF
:1028400080F83C40022280F83D2003685A689D6869
:1028500022F070060A6832435A60134B02689A42AB
:1028600014D0B2F1804F11D0104B9A420ED0104BC1
:102870009A420BD00F4B9A4208D00F4B9A4205D088
:102880000E4B9A4202D00E4B9A4204D1496825F071
:1028900080031943916080F83D40002180F83C108E
:1028A000084670BD022070BD0000014000040040D9
:1028B00000080040000C00400004014000400140BE
:1028C0000018004010B5040003D094F83D0010B18A
:1028D00007E0012010BD002084F83C00204600F0F5
:1028E0001FF8022084F83D00211D206801F0AAFB9A
:1028F000012084F8460084F83E0084F83F0084F804
:10290000400084F8410084F8420084F8430084F8D1
:10291000440084F8450084F83D00002010BD00000C
:1029200008B500680B49884212D10B48016841F094
:10293000010101600068002200F0010000901146D2
:102940001920FFF755FCBDE808401920FFF742BCED
:1029500008BD0000000001404438024090F83D10DE
:10296000012901D001207047022180F83D10016843
:10297000CA6842F00102CA6000681149884214D056
:10298000B0F1804F11D00F4988420ED00E498842D5
:102990000BD00E49884208D00D49884205D00D4918
:1029A000884202D00C49884204D1816801F00701B5
:1029B000062903D0016841F0010101600020704741
:1029C000000001400004004000080040000C0040EE
:1029D00000040140004001400018004070B504466A
:1029E00090F83C000025012817D0012684F83C60AF
:1029F000022084F83D002068826822F0770222F4E9
:102A00007F4282600868502838D00DDC20284FD0E3
:102A100005DC90B3102811D14AE0022070BD3028A7
:102A200046D040280AD13BE060282FD070280DD036
:102A3000B0F5805F03D0B0F5005F12D0012584F8B7
:102A40003D60002084F83C00284670BDCB68D1E989
:102A50000121206801F05EFB2068816841F0770168
:102A600009E0CB68D1E90121206801F053FB20681F
:102A7000816841F480418160E1E719E0CA684968F2
:102A8000206801F059FB5021206806E0CA684968B7
:102A9000206801F062FB6021206801F045FBCEE771
:102AA000CA684968206801F047FB40212068F4E7C4
:102AB000226801461046F0E770472DE9F0410446D0
:102AC0000068C66805694FF00007A90713D5B1076C
:102AD00011D5F91E016101202077206880698007E7
:102AE000204602D0FFF7E8FF04E000F07EF8204621
:102AF00000F07CF82777680716D5700714D5216891
:102B00006FF004000861022020772068806910F4CB
:102B1000407F204602D0FFF7CFFF04E000F065F8C9
:102B2000204600F063F82777280715D5300713D51E
:102B300021686FF008000861042020772068C069D0
:102B40008007204602D0FFF7B7FF04E000F04DF801
:102B5000204600F04BF82777E80616D5F00614D586
:102B600021686FF010000861082020772068C06994
:102B700010F4407F204602D0FFF79EFF04E000F0F3
:102B800034F8204600F032F82777E80708D0F0073D
:102B900006D021686FF001000861204600F028F897
:102BA000280608D5300606D521686FF08000086138
:102BB0002046FFF73DFE680608D5700606D5216859
:102BC0006FF040000861204600F030F8A8060AD5F2
:102BD000B00608D521686FF0200008612046BDE8E6
:102BE000F041FFF726BEBDE8F08170477047000056
:102BF00010B500680B49884212D101F04BF8FEF77E
:102C000095FA01F0B3F900F03BFF01F0B7FC01F0D9
:102C1000FDFC00F09BFBBDE810400348FEF747B900
:102C200010BD0000000001402D040020704738B5A1
:102C3000044690F84200202801D0022038BD51B14E
:102C40004AB10120206300206063204601F038FC77
:102C5000216B012901D0012038BD21680A6849682B
:102C6000009121680C3151E8002F42F0100241E838
:102C70000023002BF5D138BD70B50D460446006821
:102C80000D49884202D1284600F054FB0B492068C8
:102C9000884205D10A49EAB2A1F13600FEF7FCF8F4
:102CA00008492068884206D1EAB2BDE8704006496A
:102CB000881E00F05FBD70BD00140140001001408F
:102CC00063040020007C0040E905002010B50446A4
:102CD0000068406994F84110C0F3C010212911D157
:102CE00080B12068143050E8001F21F0800140E8D6
:102CF0000012002AF5D1A06B08B1FEF712FF2046A2
:102D000001F0E9FA2068406994F84210C0F380109D
:102D1000222911D180B12068143050E8001F21F021
:102D2000400140E80012002AF5D1E06B08B1FEF73F
:102D3000F8FE204601F0A8FA002010BD7047000000
:102D4000F8B5016804460868CA684B6910F00F0FAF
:102D50004FF0000559D003F0010602F49077374395
:102D600065D0C10705D0D10503D5616C41F00101E3
:102D70006164410705D5D90703D0616C41F00201B8
:102D80006164810705D5D90703D0616C41F0040166
:102D90006164010707D502F02001314303D0616C63
:102DA00041F008016164616C00293AD0800604D5C5
:102DB000900602D5204601F09CFA20684069616CBB
:102DC000C0F38010090700D460B3204601F05CFA1C
:102DD00020684069400621D52068143050E8001F63
:102DE00021F0400140E80012002AF5D1E06BA8B1C3
:102DF00072490165E06BFEF7DDFE002811D0E06B43
:102E0000016D01B0BDE8F040084783060FD5930679
:102E10000DD52046BDE8F84001F06BBA2046FFF71B
:102E20008DFFF8BD2046FFF789FF6564F8BD266B6E
:102E30002023012E7ED1C6067CD5D6067AD5086819
:102E40004868009048694FF0020640064DD5E26B95
:102E5000106840684FF480770004000C3AD0A18DD0
:102E6000814237D9E085D069B8422DD020680C3036
:102E700050E8001F21F4807140E80012002AF5D1CB
:102E80002068143050E8001F21F0010140E80012D2
:102E9000002AF5D12068143050E8001F21F04001CD
:102EA00040E80012002AF5D184F8423025632068FA
:102EB0000C3050E8001F21F0100140E80012002AF9
:102EC000F5D1E06BFEF72DFE6663A08DE18D401A13
:102ED00081B206E0A18D8142A8D1D069B842A5D1C6
:102EE00066632046FFF7C8FEF8BDA08DE18D401A4D
:102EF00081B2E08D0028F7D00029F5D020680C3091
:102F000050E8002F22F4907240E80027002FF5D1FE
:102F10002068143050E8002F22F0010240E800271A
:102F2000002FF5D184F84230256320680C3050E83A
:102F3000002F00E006E022F0100240E80023002B02
:102F4000F3D1CDE705062BD5150629D594F8410018
:102F50002128C9D1A068B0F5805F01D12069B0B146
:102F6000206A411C2162216800784860E08C401E84
:102F70000004000CE084B7D12068C16821F0800112
:102F8000C1602068C16841F04001C160F8BD206A9D
:102F90000088C0F308004860206A801C2062E5E7D2
:102FA0004006F3D55006F1D5CA68204622F040020B
:102FB000CA6084F8413000F031F9F8BD8D41000855
:102FC00070B5040004D094F84100002510B106E06B
:102FD000012070BD84F84050204600F023F82420E2
:102FE00084F841002068C16821F40051C160204686
:102FF00001F0E0F92068016921F490410161206845
:10300000416921F02A0141612068C16841F4005101
:10301000C1606564202084F8410084F84200656343
:10302000002070BD2DE9F04786B0044614216846A3
:10303000FDF7C5F96E486D4ED4F800C00321022299
:103040000823002507154FF02069B4454ED1684E7E
:103050001036D6F800C04CF0004CC6F800C03668F8
:1030600006F000460596066846F010060660006801
:1030700000F0100005908DE82600CDE903136946A5
:103080005C48FEF72DFF5D4E5B48C8463060C6E9E0
:103090000195C6E903577561B561F5613562304642
:1030A0007562FEF769FE08B1FDF709FFE663B463D8
:1030B000524E514860369038E6E802084020A1C6DA
:1030C0004E4846F814596030B561F5613562756255
:1030D000FEF752FE08B1FDF7F2FEA663002211468C
:1030E0005320B463FFF784F853203EE0404EDFF8EE
:1030F000108114364FF4807AC4453BD1336843F0D5
:1031000010033360336803F010030593036843F042
:1031100002030360006800F002000590C0208DE803
:1031200025000720CDE9031069463648FEF7D8FE92
:10313000324E3548C03630604FF00060C6E90105B8
:10314000C6E903577561C6E9065A356230467562AD
:10315000FEF712FE08B1FDF7B2FEE663002211464B
:103160002520B463FFF744F82520FFF733F806B0B5
:10317000BDE8F087DFF89480C445F8D1D6F800C0E8
:103180004CF0200CC6F800C0366806F02006059604
:10319000066846F040060660006800F040000590B2
:1031A000CDE903134FF484408DE8250069461848A3
:1031B000FEF796FE1448174E18383060C6E90195A0
:1031C000C6E903577561C6E9065A3562304675622D
:1031D000FEF7D2FD08B1FDF772FEE663002211464C
:1031E0004720B463FFF704F84720BEE7007C0040A7
:1031F0003038024000100240A060024098070020D2
:1032000000100140000402404064024000140140EC
:1032100000180240B8080020704770477047FEE76A
:1032200010B50880C0F3C0028A70C0F30013CB70E1
:10323000C0F380240C71C0F3C0244C71C0F3003083
:10324000887102B923B10020C8711AB1012002E0CF
:103250000120F9E7002008720BB1012000E00020F6
:1032600048720CB1012000E00020887210BD0000FF
:1032700010B50B4C012020700020C4F801004FF461
:103280009670FEF71BFE4FF48072611D0548FFF734
:10329000CEFC05480068016821F00801016010BDFE
:1032A0007504002050070020B808002010B504461F
:1032B000B0F801001D49FFF7B3FF1D48E17880F821
:1032C00013116168C0F81411E168C0F81C1121697C
:1032D000C0F820116169C0F82411A169C0F8281153
:1032E000E169C0F82C11216AC0F83011616AC0F898
:1032F0003411A16AC0F83811E16AC0F83C11216BA1
:10330000C0F84011616BC0F84411A16BC0F84811BE
:10331000E16BC0F84C11216CC0F85011616CC0F821
:103320005411A16CC0F8581110BD00007A0500209E
:103330007504002010B5044C0146601D00F012F821
:103340000020C4F8010010BD750400200448D0F826
:1033500001100A2902D2491CC0F801107047000070
:10336000750400202DE9FC4F4FF000090E468246FF
:103370004D46A1F1520737E00AEB0504218889B2D6
:10338000A1F525405A3801D06D1C1CE0B4F802802C
:10339000B4F804B008F1060080B228440190B042AD
:1033A00024D80020ADF80000042221466846FDF72D
:1033B000CFF94246A11D6846FDF7CAF9BDF80010D5
:1033C000594502D0AD1CADB20EE0A079912809D1CB
:1033D000B8F14C0F06D3A01DFFF768FF09F10100FB
:1033E0001FFA80F9019885B2BD42C5DD4846BDE8A7
:1033F000FC8F00001CB51A49D1E90621CDE9002156
:10340000B0F914100288914201DD018881820269BD
:10341000B0F904108A4203DCB0F902108A4200DAE3
:10342000016110F8141F8DF8021030F804190822F9
:10343000090A8DF8031001788DF804100188090A33
:103440008DF805100168090C8DF8061050F80A195E
:10345000090E8DF80710694600F012F81CBD000037
:10346000FC5600081CB5054AD2E90412CDE9001249
:103470000822694600F004F81CBD0000FC56000854
:10348000F0B587B00F460446056816461821684611
:10349000FCF795FFA088009000233A466946049601
:1034A0002846FDF74CFF07B0F0BD00000F4810B5EF
:1034B0000D4901600521416000214FF480228160A7
:1034C000C0E90312D2004261017601224276817680
:1034D000C27601774177FEF79AF9002803D0BDE85C
:1034E0001040FDF7ECBC10BD006400402806002031
:1034F0000F4810B50D4901600521416000214FF4CE
:1035000080228160C0E90312D2004261017601226B
:1035100042768176C27601774177FEF778F9002806
:1035200003D0BDE81040FDF7CABC10BD00680040E4
:1035300050060020194808B5016841F48001016077
:10354000016801F480010091016841F400110160FB
:103550000068002200F40010009011460B20FEF7D6
:1035600047FE0B20FEF736FE002211461120FEF723
:103570003FFE1120FEF72EFE002211463920FEF7F5
:1035800037FE3920FEF726FE002211463A20FEF7CC
:103590002FFEBDE808403A20FEF71CBE303802403E
:1035A000194808B5016841F010010160016801F097
:1035B00010010091016841F040010160016801F0D3
:1035C00040010091016841F001010160016801F0D2
:1035D00001010091016841F002010160016801F000
:1035E00002010091016841F008010160016801F0E9
:1035F00008010091016841F080010160006800F05D
:103600008000009008BD00003038024010B586B040
:1036100000241848009401940294039404941449DB
:1036200005940160B321C0E901144FF47A71C0E937
:1036300003148021C0E90541FFF744F908B1FDF703
:103640003EFC4FF48050009069460A48FFF7C6F9E7
:1036500008B1FDF734FC049404A906480594FFF76B
:10366000E9F8002801D0FDF72AFC06B010BD0000E3
:1036700000000140780600200C4810B50A4901609E
:103680004FF4E1314160002181600C22C160C0E94A
:1036900004128161C161FFF793FC002803D0BDE8EB
:1036A0001040FDF70CBC10BD007C0040C00600209F
:1036B0000E4810B50C4901600D4941604FF480512E
:1036C00081604900C160C91001610421416100218C
:1036D0008161C161FFF774FC002803D0BDE8104090
:1036E000FDF7EDBB10BD00000010014008070020F1
:1036F000A08601000C4810B50A4901604FF4612111
:103700004160002181600C22C160C0E90412816126
:10371000C161FFF755FC002803D0BDE81040FDF75C
:10372000CEBB10BD0014014050070020FEE7000092
:1037300010B504460D48C4F8060040F241106081FF
:1037400042F2107020614FF4FA70A08220804BF298
:10375000E010608044F62060A080A01DFFF782FE8C
:103760002046BDE81040FFF745BE0000500600208F
:10377000FEE70000F8B50646094814460D46036802
:103780001868586800900648FFF7A0FA22462946B4
:10379000304600F007F83046BDE8F84000F07EB84B
:1037A000C006002070B5002380F82330002962D0C5
:1037B0000B78512B5FD1042A5DD34C78E31C9A42DD
:1037C00059D1A21CD5B200231A4604E08E5C521CCB
:1037D0003344DBB2D2B2AA42F8D30A1992789342A8
:1037E00049D18D78012280F8225000F12203032D67
:1037F00042D0042D3FD1122C3DD118469B1CCC78D1
:1038000003F8014B0C7903F8014BB1F9054000EEC8
:10381000104AB8EEC00A10EE104A1C60B1F9074019
:1038200000EE104AB8EEC00A10EE104A9FED1A0AD8
:103830005C601C6800EE904A80EE801A11EE104A1F
:103840001C605C6800EE904A80EE801A11EE104A0F
:103850005C60B1F809401C81CC7A9C728C89A3F819
:103860000B40CC89A3F80D400C8AA3F80F40498A7D
:10387000A3F81110427070BD062CFCD1CC7880F8F2
:1038800039408D798C88C97965F31F4444EA016118
:10389000C0F83A105A7070BD0000C84210B5811CC3
:1038A00020220548FFF7C3F904480068016821F0A9
:1038B0000801016010BD0000C0060020980700202C
:1038C0007047000010EE101A10EE902A10B500EEAE
:1038D000101A00EE902AC0F81D10C0F8212030EE1A
:1038E000600AD0F81530C0F8193010EE102AC0F870
:1038F0001520D0F8011000EE102A00EE901A20EEEC
:10390000800A10EE104A00EE102AC0F82540D0F8C8
:10391000291000EE901AD0F8051001EE101A41EEB1
:10392000000A00EE102A10EE901A00EE903AC0F84D
:103930002910D0F8092070EE600A00EE102A20EE5F
:10394000800A00EE901A10EE103AC0F82D30D0F830
:103950000D2000EE102AF4EEC00AF1EE10FA02DD9E
:10396000C0F8292012E000EE902A00EE101AF1EEC5
:10397000600AB4EEE00AF1EE10FA07D200EE102A67
:10398000B1EE400A10EE101AC0F82910D0F8291034
:1039900000EE104A00EE901A70EE200A00EE103A87
:1039A00030EE800A10EE102AC0F83120D0F8111045
:1039B00000EE102A00EE901AB4EEE00AF1EE10FAD2
:1039C00003DD00BFC0F8311011E000EE901A00EEE8
:1039D000102AF1EE600AB4EEE00AF1EE10FA06D217
:1039E00000EE101AB1EE400A10EE101AEAE7D0F815
:1039F000310000EE100A10BD002140F8011F4160A7
:103A00008160C160016141618161C16101624162A6
:103A10008162C1620163704710EE101A40F8011F05
:103A200010EE901A416011EE101A816011EE901A9A
:103A3000C16012EE101A01617047000003480121B5
:103A400080F820100021C0F82110704707000020E6
:103A50000A4810B590F8201000290ED0D0F8211097
:103A600003290AD30021C0F8211000F015F800F056
:103A700045F8BDE8104000F081B810BD07000020F7
:103A80000448D0F82110032902D2491CC0F82110A3
:103A90007047000007000020144801219FED150A1F
:103AA000017213494A6900EE902A60EE800AFDEE29
:103AB000E00A10EE902AA0F809208A6900EE902A08
:103AC00020EE800ABDEEC00A10EE102AA0F80B20EE
:103AD00091F83510417308494A798273C979C173E5
:103AE000082200F10801FCF71FBE000007000020BB
:103AF0002D04002000007A442C01002019480221E6
:103B0000DFED1A0A01741849CA6800EE102A20EE87
:103B1000200ABDEEC00A10EE102A20F8112F096904
:103B2000082200EE101A20EE200ADFED120ABDEE88
:103B3000C00A10EE101A41800D49D1F8301100EE84
:103B4000101A20EE200ABDEEC00A10EE101A818075
:103B5000094991F824108171024902481031FCF79B
:103B6000E3BD0000070000202D04002000007A447F
:103B7000750400200000C842E70500201848032112
:103B8000DFED190A0176174991F82520427651F8A0
:103B9000262F00EE102A20EE200ABDEEC00A10EEFD
:103BA000102A42834968082200EE101A20EE200AEB
:103BB000DFED0F0ABDEEC00A10EE101A81830B492B
:103BC000D1F8481100EE101A20EE200ABDEEC00A0E
:103BD00010EE101AC18300F11801FCF7A5BD00001A
:103BE00007000020E705002000007A44750400204B
:103BF0000000C84230B516490023012291F8214047
:103C00001448012C02D0032C02D002E0437100E0E2
:103C1000427191F820500224012D14D0032D14D0AC
:103C2000C271C96900EE101AB5EEC00AF1EE10FAC1
:103C300000D10372084B994200DB0272074A91429D
:103C400000D3047230BDC371EBE7C471E9E7000033
:103C50002D0400202C010020CDCCCC3DCDCCCCBD02
:103C60000348012101700021C0F8011070470000D5
:103C70002C01002006480178002908D0D0F8011056
:103C80000A2904D30021C0F80110FFF7B3BF704721
:103C90002C0100200448D0F801100A2902D2491C46
:103CA000C0F80110704700002C0100207047000090
:103CB0007CB55848C2795848DFED580A9FED580A3C
:103CC0005449584E584B097A584CC069002572B176
:103CD000022A0CD0012A27D033E001290AD0022978
:103CE0002FD11AE0C4F80550C4F8425027E000294B
:103CF000F8D0F2E701EE100A61EE200A10EE901AF9
:103D000000EE900AC4F8051020EE800A10EE100AAA
:103D1000C4F84200C4F87F6013E0C4F80550C4F84A
:103D20004250C4F87F300CE04148C4F805004148D7
:103D3000C4F84200404890F82400012866D0C4F836
:103D40007F50D4F8090000EE900AD4F80500A41DB5
:103D500000EE100A35480D30FFF7B4FDBDEEC00A85
:103D600010EE100A00B200EE100AB8EEC00A10EE13
:103D7000100AA063206C00EE900AE06B00EE100ABF
:103D80002A484A30FFF79EFDBDEEC00A10EE100A29
:103D900000B200EE100AB8EEC00A10EE100AC4F825
:103DA0007500D4F87D0000EE900AD4F8790039341B
:103DB00000EE100A1D488730FFF784FDBDEEC00AF3
:103DC000002110EE100A00B200EE100AB8EEC00A90
:103DD00010EE100AC4F8790000EE100ABDEEC00A19
:103DE0008DED000A0195E06B00EE100A54F8010C0D
:103DF000BDEEC00A10EE103A00EE100A0120BDEE32
:103E0000C00A10EE102AFDF715F87CBD0B48C4F867
:103E10007F0096E72C0100202D0400200080BBC508
:103E20000080BB450080BB4500007AC470000020C4
:103E300000C0C1C500C0C145E705002000409C4549
:103E400007480849D0F81900B0F91D0000EE100A23
:103E5000B8EEC00A10EE100AC1F8830070470000E7
:103E60002E000020700000200C48D0F8191031F905
:103E7000050F00EE100A0A48B8EEC00A10EE102A2C
:103E8000C0F80920B1F90C1000EE101AB8EEC00A03
:103E900010EE101AC0F84610704700002E000020E7
:103EA0007000002010B5214901202DED028B087013
:103EB00001F10D000446FFF79FFD9FED1E8ADFED27
:103EC0001C8AB0EE080AF0EE481AB0EE682AB0EE8E
:103ED000481AF0EE480A2046FFF79EFD13484A3084
:103EE0000446FFF789FDB0EE682AF0EE481AB0EEFE
:103EF000481AF0EE480AB0EE080A2046FFF78CFD9B
:103F00000A4887300446FFF777FDF0EE481AB0EE16
:103F1000481AF0EE480ABDEC028B2046BDE810407E
:103F20009FED052AB7EE080AFFF776BD7000002066
:103F300000409C460000000000401C460A4810B5A6
:103F4000017800290ED0D0F8011000290AD00021F4
:103F5000C0F80110FFF788FFFFF772FFBDE81040BF
:103F6000FFF7A6BE10BD0000700000200448D0F886
:103F70000110002902D10121C0F801107047000092
:103F800070000020FEF7CCB830B593B03021684601
:103F9000FCF715FA14210CA8FCF711FA20480025AB
:103FA000016841F080510160006800F0805011907C
:103FB0001C48016841F4404101600068022400F49B
:103FC0004040119001200090000401908001CDE953
:103FD000064006200890B420CDE9090404200B9087
:103FE0006846FEF75BFA08B172B6FEE7FEF732F9F3
:103FF00008B172B6FEE70CA90F2081E831004FF43A
:10400000A0500F904FF48050109005210CA8FEF79F
:1040100059F9002801D072B6FEE713B030BD000098
:1040200040380240007000400248016841F47001CD
:104030000160704788ED00E00148FEF73EBD0000DA
:1040400078060020F0B50268274B284D284E294FEE
:10405000294C4FF0804C984209D0604507D0A842C7
:1040600005D0B04203D0B84201D0A04204D122F022
:10407000700E4A6842EA0E0298421BD0604519D081
:10408000A84217D0B04215D0B84213D0A04211D0E8
:104090001A4DA8420ED01A4DA8420BD0194DA84275
:1040A00008D0194DA84205D0184DA84202D0184D8D
:1040B000A84203D122F44075CA682A434D6922F010
:1040C00080022A438D68C5620D688562984201D0DE
:1040D000A04201D109690163016841F00401016056
:1040E000012141610260F0BD000001400004004078
:1040F00000080040000C0040000401400040014066
:10410000004401400048014000180040001C0040ED
:104110000020004010B5846842EA032224F47F4462
:104120000A432243826010BD826822F070020A4373
:1041300042F007018160704710B5036A046A24F0F9
:1041400001040462846924F0F00444EA021423F0B8
:104150000A020A438461026210BD10B5036A046A50
:1041600024F010040462846923F0A00324F4704452
:1041700044EA023243EA01118261016210BD00008B
:104180000148FEF7DDBD0000C006002010B5806BC1
:104190000021C185FEF7D2FD10BD70B5846B20688B
:1041A000406994F84110C0F3C0100025212904D1C2
:1041B00018B1E584204600F08EF82068406994F834
:1041C0004210C0F38010222904D118B1E5852046A1
:1041D00000F05AF8606C40F0100060642046FEF772
:1041E000ADFD70BD10B50146806B096809684FF0E0
:1041F0000002C9052ED4C28501680C3151E8003F88
:1042000023F4807341E80034002CF5D101681431A7
:1042100051E8003F23F0010341E80034002CF5D1C0
:104220000168143151E8003F23F0400341E80034B5
:10423000002CF5D1202180F84210016B012909D111
:1042400001680C3151E8003F23F0100341E80034CD
:10425000002CF5D14263016B012902D0FEF7DCFF8F
:1042600010BD818DFEF708FD10BD10B5806B0121DA
:104270004163016B012902D0FEF7CFFF10BD818D94
:104280004908FEF7F9FC10BD01680C3151E8002F18
:1042900022F4907241E80023002BF5D1016814311B
:1042A00051E8002F22F0010241E80023002BF5D154
:1042B000016B012909D101680C3151E8002F22F06E
:1042C000100241E80023002BF5D1202180F8421094
:1042D00000210163704701680C3151E8002F22F082
:1042E000C00241E80023002BF5D1202180F84110C5
:1042F000704708B590F84210222901D0022008BD6D
:1043000082684FF480539A4201D1016921B1816AD8
:104310009A421BD04AB10AE00268816A5268C2F32D
:1043200008020A80816A891C08E0026972B1026889
:10433000526802F07F020A70816A491C8162C18D55
:10434000491E0904090CC18503D01BE002685268AC
:10435000F1E70168CA6822F02002CA600168CA68F1
:1043600022F48072CA6001684A6922F001024A613F
:10437000202180F8421000214163026B012A03D002
:10438000FEF74AFF002008BD016301680C3151E8C7
:10439000002F22F0100241E80023002BF5D1016824
:1043A0000A68D20602D50A6849680091818DFEF735
:1043B00063FCE7E770B5044600680169E26821F430
:1043C0004051114301612169A068E26908436169B4
:1043D000114308432168CA6849F20C639A430243B7
:1043E000CA6020684169A26921F4407111434161AA
:1043F00031492068884202D03049884202D1FEF714
:104400000BF801E0FDF7F8FFE269002319216425AC
:104410003226B2F5004F626828D0A0FB0101930F4D
:104420009200FBF733FF0146B0FBF5F06FF0180286
:10443000504301EB800006EB0010B0FBF5F000F0FC
:10444000F002B1FBF5F002EB0012B1FBF5F06FF0FA
:104450001803584301EB800006EB0010B0FBF5F0A9
:1044600000F00F0021681044886070BDA0FB0101BE
:1044700092185B41FBF70AFF0146B0FBF5F0020121
:10448000B1FBF5F06FF01803584301EB800006EB29
:10449000C000B0FBF5F000F0F80002EB4002B1FB09
:1044A000F5F0584301EB800006EBC000B0FBF5F0DF
:1044B00000F00700D6E700000010014000140140A2
:1044C00038B581620446828500201346606422224A
:1044D00084F84220E56B1F4AEA63E56B1E4A2A64B2
:1044E000E56B1E4AEA64E26B10650A462168E06BE0
:1044F000091DFDF7ABFC30B110206064202084F86A
:104500004200012038BD20680168406800902069A1
:1045100048B120680C3050E8001F41F4807140E839
:104520000012002AF5D12068143050E8001F41F035
:10453000010140E80012002AF5D12068143050E84B
:10454000001F41F0400140E80012002AF5D1002090
:1045500038BD0000E54100086B4200089B4100089F
:104560000148FEF7EDBB0000080700200148FEF7F8
:10457000E7BB000050070020FEE700000448D0F829
:1045800001100A2902D2491CC0F80110704700002E
:1045900000000020184810B5012101700021C0F86A
:1045A00001101649C0F80510491EC0F809118021F4
:1045B0000930FBF7E2FE1048802189300446FBF702
:1045C000DCFE80210E48FBF7D8FE0D4880218030AC
:1045D000FBF7D3FE802221460A48FEF728FB0A4853
:1045E0000068016821F00801016006480068C168A0
:1045F00041F01001C16010BDF0010020ED5600082F
:10460000FD020020C0060020980700200448D0F8D2
:1046100001100A2902D2491CC0F80110704700009D
:10462000F00100204100080218BF04200A0E18BF44
:1046300040F001004FF07F4232EA010108BF40F034
:104640000200012808BF052070470907090E00284D
:1046500004DB00F1E02080F80014704700F00F0048
:1046600000F1E02080F8141D7047000010B510EE36
:10467000100A2DED068BB7EE001A10EE901AB0EE70
:10468000418A0022A0F5000CDFEDFE9A4FF0007386
:10469000BCF1FE4F4FF07F4403EB410C80F0B4813E
:1046A000BCF1804FC0F02082F74901449FEDF73AFA
:1046B000B1F5005F40F2D48200F58021CB0C03F00D
:1046C0000F0101EE901AC3F307137F3BA0EBC35019
:1046D000B8EEE12A00EE100A1A44DFEDED2AF0EE02
:1046E000411A42EE221AF0EE613A70EE232A30EEC1
:1046F000632A12EE900A00F500606FF30B0001EEE2
:10470000900A73EEE13A33EE804AC1EE223A22EE8D
:10471000230A10EE100A00F500606FF30B0000EEA4
:10472000100A00EE612A00EE442A62EE232A70EE9F
:10473000221A21EEA12ADFEDD73A02EE233A23EE28
:10474000023A20EE012A22EE811A03EE211A32EEFD
:10475000010A10EE100A00F500606FF30B0000EE86
:10476000100A72EE401A31EE812A9FEDCB1A60EEEC
:10477000011A9FEDCA1A20EE011A9FEDC90A02EE36
:10478000001A31EE810A10EE100A00F500606FF396
:104790000B0000EE100AC34871EEC01A31EE812AF8
:1047A000784400EBC10090ED003AD0ED011A100101
:1047B00001EE100AF8EEC12A32EE211A31EE001A8B
:1047C00031EE031A31EE221A11EE100A00F50060E4
:1047D0006FF30B0009EE100A39EE621A31EE431A3C
:1047E00031EE400A30EE610A32EE40AA10EE900A35
:1047F000002100F500606FF30B0008EE900A0846F8
:1048000070EEE8AA4FF0000029EE280A00F00C0133
:10481000F0EEC00A10EE900AB0F18B4F0DDD10EEF5
:10482000900AB4EB400F08D310EE100A4FF08B4201
:1048300062F31E0008EE900A13E069EE2A0A38EED1
:10484000AA1A4AEE010A30EE201A11EE100A00F5FB
:1048500000606FF30B0008EE900A30EE680A70EE0D
:10486000209A0C204FF0000038EEA90AB5EEC00ADD
:10487000F1EE10FA34BFFEEE000AF6EE000A30EE5A
:10488000800ABDEEC00A10EE100A011100EE101AE7
:10489000F8EEC00A00EE100AB8EEC00A38EEC00A00
:1048A00030EE290ADFED801A9FED801A00EE211A02
:1048B000DFED7F1A7F4900F00F0040EE011A21EE74
:1048C000800A794401EB800191ED001A7A4979441C
:1048D00001EB8001D1ED001A784901EE801A79448C
:1048E00001EB8000764990ED000A31EE001AB0EE3F
:1048F000E00A10EE100A884215DA10EE100AB4EB46
:10490000400F10D39FED6F0A30EE800ADFED6E0A84
:1049100020EE200A68EE010ABDEC068BBCEEC00A50
:1049200020EE200A10BD10EE100A6849884243DAD2
:1049300010EE100AB4EB400F3ED3BDEEE00A68EE75
:10494000010A10EE100A00EBD0725110C90501F1F6
:104950007E5100EE101AA0EB6200C00560EE200A46
:1049600000F17E5000EE100A60EE808A18EE900A88
:10497000B4EB400F0FD10220FBF750FD00F0DCF943
:1049800010EE101A18EE100ABDEC068B61F31E0033
:1049900000EE100A10BD18EE900A400011D018EE7B
:1049A000900AFFF73FFE042808BF00F0CDF9B0EEF3
:1049B000680ABDEC068B10BDF5EEC00AF1EE10FAE8
:1049C0000FD20220FBF72AFD00F0BEF910EE101AFC
:1049D00018EE100ABDEC068B61F31E0000EE100A03
:1049E00010BD0220FBF71AFD00F0A6F910EE101A18
:1049F000B0EE480A10EE100ABDEC068B61F31E0003
:104A000000EE100A10BD00BFBCF1804F6CD300BF98
:104A100000F1FF43B3F1FE4F24D200BFB0EEC00A55
:104A200010EE100AC1F3C7537F2B0DDB972BBFF697
:104A30003BAEC3F196034FF0010C0CFA03F3A3F164
:104A4000010C1CEA010F08D00120FBF7E7FCBDECCC
:104A5000068BBDE8104000F067B90B4218BFBFEEEF
:104A6000008A21E643001CBF4FF08073B3EB400F78
:104A700034D96FF01A02DFED161A20EE210A10EE7B
:104A8000100A27E000000000001080C0ABAAAA3E78
:104A90000000803D7EE24C3E00B03842D49AB8BB64
:104AA0003BAA3842980F0000FC596337C9FF753A9A
:104AB0001872313D360F00006A0F0000DA0E000058
:104AC0000000FC420000FE420000004B000040439A
:104AD0000000004D10F0004FA0D1E5E5A0F5000367
:104AE000B3F1FE4F21D2DFE503EB4103B3F1007FC9
:104AF00011D3F5EEC00AF1EE10FA05D1430018BF4C
:104B0000B4EB400F76D883E701F0004141F0FC514F
:104B100000EE901A7CE7B3F1807F06D210EE903A57
:104B2000A3F5000300EE903A72E720F000426FF028
:104B3000FF4C604C02EB0C03A34210D321F0004366
:104B40009C44A4450BD3B0F17E5F18BF5FEA410CD3
:104B500050D0B2F1FF4F98BFB3F1FF4F05D9BDEC74
:104B6000068BBDE8104000F0DBB8B0F1FF4F0FD06E
:104B7000C1F3C7527F2A09DB972A11DAC2F19602E4
:104B8000012303FA02F2531E0B4205D0002208E073
:104B900011F0004F55D128E00A4218BF012200D180
:104BA000022210F5000F13D028B3B0F1004F26D029
:104BB00010F1814F4FD04FF0FE42B2EB400F94BF47
:104BC00001200020012202EBE171884239D10CE082
:104BD00011F0004F02D0012A38D032E0012A02BF82
:104BE0009FED350ABDEC068B10BD9FED340ABDEC80
:104BF000068B10BD2FE011F0004F0CD121E0B1F178
:104C0000FF4F1ED011F5000F05D011F0004F15D049
:104C10000AB1012A08D00220FBF700FCBDEC068B8C
:104C2000BDE8104000F072B80220FBF7F7FB00F07F
:104C30006DF8BDEC068BB1EE400A10BD0AB1012A39
:104C400004D0B0EE690ABDEC068B10BDBDEC068B3E
:104C50009FED1B0A10BDBDEC068BB7EE000A10BD20
:104C600030EE410AB5EE001A9FED172A00EE413AE8
:104C7000B6EE001A60EE001A00EE431A61EEC11A99
:104C80009FED101A20EE011A20EE020A9FED0F2A66
:104C900001EE820A71EE001A11EE900A00F5006032
:104CA0006FF30B0009EE100A31EE491A31EE00AA3B
:104CB0009CE50000FFFF3F00000080FF0000807FB8
:104CC0000000008000B0B841D49A38BB3BAAB8417C
:104CD00010B52DED028BB1EEC08A18EE100A20F04F
:104CE0000040C0F1FF40C00F0AD010EE100A20F0C3
:104CF0000040C0F1FF40C00F04BF0120FBF78EFB56
:104D0000B0EE480ABDEC028B10BD0000DFED030AD7
:104D1000B7EE001A81EE200A704700000000000084
:104D200030EE200A70470000DFED020A80EEA00A94
:104D300070470000000000009FED020A20EE000A0C
:104D400070470000000000709FED020A20EE000A8C
:104D50007047000000000010FDF7EAF9FFF714F9B2
:104D6000FEF71EFCFEF7E6FBFEF7A2FCFEF79EFB3D
:104D7000FEF7BEFBFEF74AFCFEF77EFCFEF7BAFC30
:104D800040F6B830FDF79AF8FBF7E6FBFCE70000C9
:104D900021F00042A2F16052B2F5801F01F0004301
:104DA00028BFD2F17F6C0BD95FEA001C43EAC20234
:104DB00042EB507018BF704728BF20F001007047C9
:104DC000B2F5801FBCBF184670474FEA410C1CF576
:104DD000001F02D2084600F083BC70B500F0CCFA88
:104DE00000000089FFF7F6BF4FF00040A0F58000FB
:104DF0007047000010B591EA030F48BF83F00043ED
:104E000000F11683841A71EB030C05D2121943EBDF
:104E10000C03001B61EB0C01DFF824E14FEA115495
:104E2000A4EB135C1EEA430F18BF9EEA445F73D0E5
:104E300023EA0E03DCF1200E21EA045143F480132F
:104E400032D322FA0CFE10EB0E0023FA0CFE41EBDB
:104E50000E01CCF1200E03FA0EFE10EB0E0051F104
:104E60000001B1F5801FCCF1200E32D201EB0451CC
:104E700012FA0EF2BDE8104058BF7047401C38BF10
:104E80005FEA420218BF7047002814BF20F00100FB
:104E900041F100014FEA410313F5001F38BF70478D
:104EA000A1F1C04100F0B6BA012A43EB0302ACF114
:104EB000200CDCF11F0E32BF4FF0000E23FA0CF372
:104EC00010EB030041EB0451B4EB115FD0D0A1EB28
:104ED000045101F5801149085FEA300001EB0451EB
:104EE0000ED350F1000038BF12FA0EFE08D1BDE813
:104EF0001040C9E7401C38BF5FEA4202CAD1C3E78D
:104F0000BDE810404FEA410313F5001F38BF70475A
:104F1000A1F1C04100F07EBA9EEA445F08D011EAD8
:104F20005E0FBDE8104004BF01F000410020704753
:104F3000BDE8104070B500F01FFA00BF64FBBE3E34
:104F40000000E0FF2DE9C04130B4DFF8A0C23CEA28
:104F5000111418BF3CEA131400F0EC8081EA030539
:104F60001CEA111444EAD57418BF1CEA131500F0AA
:104F7000C780A4EB05044FF0004545EAC12145EA8E
:104F8000C32341EA505143EA525304F17F749942DA
:104F900004F500344FEAC0204FEAC22208BF904215
:104FA00000F09C804FEA13650FF24016765D4FEAE1
:104FB000134506FB05F7C7F1807706FB07F74FEAB5
:104FC000D737A7FB03687642C8F58038A7FB06CE23
:104FD00038BFA8F1010807FB08E64FF0000EA6FB5A
:104FE000028CE6FB03CEDCF1000CCEF1004E38BFA4
:104FF000AEF1010EA6FB0C584FF000074FF0000574
:10500000E6FB0E87A1FB08C6A0FB07CE16EB0E063B
:1050100045F10005E1FB076515F1E04E7EBFA4F503
:1050200080345FEA46066D4116F1800745F10005C0
:105030004FEA17274FEA066647EA0567A6F1DE46FC
:10504000B6F1805F4FEA15251FD9384624F0010CD0
:1050500005EBC471BCF1FE6F01EB0C1102D8F0BC82
:10506000BDE8008124425CBF01F5801E9EEAC47F3A
:1050700002D4F0BCBDE80081244238D4F0BCA1F1D8
:10508000C041BDE8004100F0C5B94FEAD22242EA72
:1050900043524FEAD323A7FB02864FEAD02040EACF
:1050A000415007FB03661EEA0E0F4FEAD12105FBB4
:1050B000026658BFA6EB0056B6EB00564FEA520EFA
:1050C0004EEAC37E18EB0E0E56EB530EBDD518EB11
:1050D00002085E417F1C55F10005B6E74FF48015CC
:1050E0004FF000074FF000064FF00008ADE7F0BCAE
:1050F0004FF0000001F1C04101F00041BDE8008126
:1051000011EA0C1F0CEA131500D00CE013EA0C1F77
:1051100000F025804FF00000F0BC81EA030101F0AF
:105120000041BDE80081F0BCBDE8004181EA030117
:1051300000F070B9F0BCBDE8004170B500F01CF99A
:10514000097EFC3E00F007B881EA03014FF0000041
:1051500001F00041704781EA030100F05BB9F0BC47
:10516000BDE800414FF0000021497047FFFDFBF909
:10517000F7F5F4F2F0EEEDEBE9E8E6E4E3E1E0DE8A
:10518000DDDBDAD8D7D5D4D3D1D0CFCDCCCBCAC8FC
:10519000C7C6C5C4C2C1C0BFBEBDBCBBBAB9B8B723
:1051A000B6B5B4B3B2B1B0AFAEADACABAAA9A8A816
:1051B000A7A6A5A4A3A3A2A1A09F9F9E9D9C9C9BE4
:1051C0009A9999989797969595949393929191908F
:1051D0008F8F8E8E8D8C8C8B8B8A89898888878720
:1051E0008685858484838382828181800000FF0795
:1051F0000000F87F10F0004248BF4042B0FA80F350
:1052000010FA03F10AD0C3F11D0303F580634FEADE
:10521000415002EB035202EBD12170474FF00000E6
:1052200070470000DFF848C170B51CEA111E1EBFB0
:105230001CEA13159EEA0C0F95EA0C0F00F06F8024
:1052400081EA030423EA4C134EEAD47E21EA4C118E
:1052500041F4801143F48013AE44A1FB024CA0FB47
:105260000365AEF17F7E361955EB0C05A1FB034CAF
:105270004CF10003A0FB021C16EB0C06654153F138
:105280000003094218BF46F0010613F4007F0BD15A
:105290004FEA03314FEA0530340341EA155140EA41
:1052A00016506FF003020AE04FEAC3214FEAC5200F
:1052B000F40241EA555140EA56506FF0020202EB07
:1052C0002E4201EB025585EACE710AD05FEA440C0A
:1052D00018BF24F0004450F1000041F1000120EA21
:1052E000D47040F2FE7C624500D270BDA84214BF6B
:1052F0004FF080444FF04044002E08BF0024BEF120
:10530000806FA8BFA1F1C041BDE8704080F28280EB
:105310004FF0000001F1C04101F0004170479EEAEA
:105320000C0F0CEA131518BF95EA0C0F06D04FF0BE
:10533000000081EA030E0EF0004170BD00F01CF881
:105340008900013E00F007B800F009B84FEA430CAD
:105350005FEA5C5C08D081EA030100F05BB84FEAC9
:10536000410C5FEA5C5CF6D14FF0000001497047E8
:105370000000FF070000F87F0EF1020E2EF0030E72
:105380005EF8046B364205D4012A43EB030515F59C
:10539000001F12D8012841EB010C1CF5001F0CD88E
:1053A0000ED14FEAD17C15F5001F0CEB4C0C0CF123
:1053B000020C08BF4CEBD37C04E04FF0080C01E07A
:1053C0004FEAD37C0CEB4C0526FA05F606F00706EF
:1053D000B6F1040C06D20EEB860CBDE870404CF022
:1053E000010C6047DFE80CF0090B02024FF00041AE
:1053F0004FF00000A1F5002170BD194610460128AC
:1054000051EB010418BFD4F5001484BF002001F053
:10541000004170BD0808A0F500114FEA3101704746
:1054200010B591EA030F48BF83F000433FF5EAACA3
:10543000841A71EB030C07D212198CF0004C43EB69
:105440000C03001B61EB0C01DFF8A4E14FEA1154DF
:10545000A4EB135C1EEA430F18BF9EEA445F00F002
:10546000B08023EA6E03524221EA0451C3EB6E037B
:1054700038BF5B1EDCF1200E25D322FA0CFE10EBA8
:105480000E0043FA0CFE41EB0E01CCF1200E03FAA4
:105490000EFE10EB0E0051F10001CCF1200E29D4CC
:1054A00012FA0EF201EB0451BDE8104058BF7047EC
:1054B000401C1CBFB2F1004F704700280CBF491CB4
:1054C00020F00100704712EB020E43EB030218BFFD
:1054D0004FF0010E4EEA4202ACF1200CDCF11E0E40
:1054E00054D943FA0CFE10EB0E0051F1FF31CCF110
:1054F0001E0ED5D50EF1010E12FA0EFE404141EB03
:10550000010101EB445C5FEA5C5C10D910EBDE70DA
:1055100001EB045138BFBEF1004FBDE8104018BF89
:10552000704700280CBF491C20F00100704730D2A2
:105530004FEAD42C11F5001124F400641BD0B1FA09
:1055400081F20B3AA41AA41ED2F12003914030FA42
:1055500003F31943904001EBCC71002C01EB045193
:10556000BDE81040A8BF704701F1C0414FF00000F6
:1055700001F000417047B0FA80F310FA03F100D156
:1055800010BDE41A173C4805C90AE4E701EB0451D1
:1055900010BD491001EB0451BDE810404FEA300046
:1055A00002E04FF0000170474A0008BF0042F8D007
:1055B000B2F5001F28BF704701F000414FF0000016
:1055C00070479EEA445F07D011EA5E0FBDE81040C5
:1055D00004BF002100207047BDE8104070B5FFF700
:1055E000CBFE00BF40DFF63E83F00041104670471F
:1055F0000000E0FF43004FEAD30C4FEA3C0C43406D
:105600001FBF40070CF1605113F0FE4F70471CF0B4
:10561000006F03D100200CF0004170470CF00043F4
:1056200043EA507010B540EACC0000F00EF800BF1D
:10563000000000924FEA0001FFF7ECBE4FF000417E
:105640004FF00000A1F5002170470EF1020E2EF080
:10565000030E5EF8044B244204D44FEA4102B2F137
:105660007F4F11D84FEA4003B3F17F4F0CD80ED1D2
:105670004FEAD07CB2F17F4F0CEB4C0C0CF1020CDA
:1056800008BF4CEBD17C04E04FF0080C01E04FEA7E
:10569000D17C0CEB4C0324FA03F404F00704B4F1BE
:1056A000040C06D20EEB840CBDE810404CF0010C4B
:1056B0006047DFE80CF0070802024FF00040A0F559
:1056C000800010BD0846420018BFD2F1807288BF2A
:1056D00000F0004010BD4FF04070E1EE100A70473E
:1056E000FF2141EAD050C005704700000A00008049
:1056F0007F0000007B148E3FB81E15408000000024
:105700000000000081000000000000008800000090
:1057100000000000A40000000000000000061016B9
:105720000006101600000000000000000102030443
:105730000607080900000000010203040000000041
:10574000000000000000B33FB2BE7D3A00002E40D2
:10575000DFCF513800007E40BF51FABA00E0A440CC
:1057600019DAC3BA00E0C840C2ED8AB90040EB4084
:10577000CD1F2CBA001006412AFFFABA00C015410D
:10578000DFCFD13700D024419A97703A005033418F
:1057900089478E3600404141E75B9D3800B04E415D
:1057A000C00A98B900A05B41558F943A0030684117
:1057B000DA92C0BA0040744162B3C63A0000803F3A
:1057C00000A0853F00908B3F00C0913F0030983F84
:1057D00000F09E3F00F0A53F0050AD3F0000B53FF8
:1057E0000000BD3F0060C53F0020CE3F0040D73FD6
:1057F00000C0E03F00C0EA3F0020F53F000000008D
:105800007D36AC397D3C3839EBDCF438320A7E39F0
:10581000124C26399B6AED39A4EE83397F661E3916
:10582000F6398A392B426539A48211395B991F39BF
:10583000C3EECD39DDE7C637A5A22F390000803F82
:10584000C3AA853FC2958B3FD3C3913FF037983FA2
:1058500032F59E3FD7FEA53F3F58AD3FF304B53F1D
:10586000A408BD3F2A67C53F8C24CE3FFD44D73FE7
:10587000DFCCE03FC7C0EA3F7D25F53F9C580008DC
:105880000000002070000000E80100080C5900082A
:1058900070000020080F0000040200080000000053
:1058A000000000500600200101000100000000007F
:1058B00000000000000000000000000000000000E8
:1058C0000000000000000000010028060020FF0189
:1058D000FF020402FD030020015006002000020424
:1058E0000200020904002003000000000000000084
:1058F00000000000000000000000000001000000A7
:0C59000010000000000000000024F40073
:04000005080001AD41
:00000001FF
