:020000040800F2
:10000000F0080020290200080F23000843210008FF
:100010000D230008BD040008792900080000000035
:10002000000000000000000000000000A123000804
:100030002D0600080000000061230008A32300082B
:10004000430200084302000843020008430200087C
:10005000430200084302000843020008430200086C
:10006000430200084302000843020008430200085C
:100070004302000865050008430200084302000827
:10008000430200084302000843020008430200083C
:10009000430200084302000843020008430200082C
:1000A000430200084D2400084302000843020008F0
:1000B000430200084302000843020008430200080C
:1000C00043020008430200084302000843020008FC
:1000D00043020008430200084302000843020008EC
:1000E00043020008430200084302000843020008DC
:1000F00043020008430200084302000843020008CC
:1001000043020008430200084302000843020008BB
:100110009525000843020008430200084302000836
:10012000430200084302000871050008430200086A
:10013000430200084302000843020008430200088B
:10014000C1040008CD04000843020008430200086F
:1001500043020008430200087D050008430200082E
:10016000430200084302000843020008430200085B
:100170004302000843020008430200080000000098
:10018000430200084302000800F002F800F03CF8C7
:100190000AA090E8000C82448344AAF10107DA45E2
:1001A00001D100F031F8AFF2090EBAE80F0013F0F8
:1001B000010F18BFFB1A43F0010318473028000055
:1001C00050280000103A24BF78C878C1FAD85207E6
:1001D00024BF30C830C144BF04680C6070470000C1
:1001E0000023002400250026103A28BF78C1FBD840
:1001F000520728BF30C148BF0B6070471FB502F0DF
:10020000DFFB1FBD10B510BD00F0CFF81146FFF7A2
:10021000F5FF02F0C2FB00F0EDF803B4FFF7F2FFC8
:1002200003BC00F0F5F80000094880470948004782
:10023000FEE7FEE7FEE7FEE7FEE7FEE7FEE7FEE796
:10024000FEE7FEE704480549054A064B70470000F3
:100250003D24000889010008F0020020F008002079
:10026000F0040020F004002053EA020C00F0698042
:100270002DE9F04B4FF00006002B1FBFB3FA83F5BA
:1002800003FA05F424FA05F65E4012BF1643B2FAEB
:1002900082F502FA05F4C5F120051EBF22FA05FC1D
:1002A00044EA0C04203556EA044C4FEA144418BFC3
:1002B000641C4FF000084FF00009904271EB030CF2
:1002C00039D3002919BFB1FA81F701FA07F6B0FA5C
:1002D00080F700FA07F6C7F120071EBF20FA07FCD7
:1002E00046EA0C062037B6FBF4FCA7EB0507103FE7
:1002F00007F01F0BCBF120060CFA0BFB2CFA06F6CD
:1003000044BFB3460026202FA4BF5E464FF0000B2B
:100310005BEA060C08BF4FF0010B19EB0B09ABFBB6
:10032000027C48EB0608C01B06FB02CC0BFB03CC8F
:1003300071EB0C01C1E70B46024641464846BDE859
:10034000F08B13B54FF000004FF00001AFF30080C9
:10035000BDE81C4070474FF0000200B513469446BC
:100360009646203922BFA0E80C50A0E80C50B1F10D
:100370002001BFF4F7AF090728BFA0E80C5048BF21
:100380000CC05DF804EB890028BF40F8042B08BFBF
:10039000704748BF20F8022B11F0804F18BF00F8BB
:1003A000012B7047704770477047754600F02CF876
:1003B000AE4605006946534620F00700854618B052
:1003C00020B5FFF73FFFBDE820404FF000064FF09B
:1003D00000074FF000084FF0000B21F00701AC467A
:1003E000ACE8C009ACE8C009ACE8C009ACE8C00999
:1003F0008D46704710B50446AFF300802046BDE837
:100400001040FFF70ABF000000487047900200202C
:1004100001491820ABBEFEE726000200704710B568
:1004200000F01CF800F044F801F09CFF00F061F8C7
:10043000BDE8104001F080BF10B5074C20780228BD
:1004400008D2DFE800F00103012002E0FFF7E7FF38
:100450000220207010BD00000000002010B50448EC
:1004600000F0F3FBBDE810400221014800F0E1B8C4
:100470007000002000B58BB0017A05910021069133
:100480000121079130F8021F009130F8021C019100
:100490008188029141880391C1680491C1790991D1
:1004A000016908918068694600F0D6F80BB000BD7C
:1004B000014801F093BA000098000020FEE7000018
:1004C000014800F0CAB9000070000020014800F0A7
:1004D000C4B90000700000200A88098AC08892B25E
:1004E00089B2904201D1082901D001207047002033
:1004F000704700F001B8000000B587B0BDF80200F9
:1005000000F01F00ADF8020014480099014000916E
:100510009DF8001021F006018DF80010BDF80610BE
:1005200001F01F01ADF806100199014001919DF8FD
:10053000040040F006008DF804000E208DF808003D
:100540000748CDF80A000020CDF80E000120CDF8B4
:1005500012006846FFF78EFF07B000BD0700E0FFFE
:1005600070000020014800F0FDBB00007001002079
:10057000014800F0F7BB0000D0010020014800F066
:10058000F1BB00003002002001681823CAB2103A03
:10059000B2FBF3F2054B6FF30901032A9B5CC365C1
:1005A00000D9091D8165084670470000CA29000866
:1005B00010B5014600208B698A6A4FF0C07453B1B0
:1005C000B3F5005F15D072B1012A0CD0022A0AD00F
:1005D000032A09D104E01AB1012A06D0022A03D164
:1005E000C96AC90100D5012010BDC96AA142FAD06B
:1005F00010BD002AF7D0012AF2D0022AF3D0032A34
:10060000F3D010BD30B50468256825F48025256039
:10061000046863608368402B036803D099600068B6
:10062000C26030BD9A600068C16030BD704772B66C
:10063000FEE790F82020012A07D0022A05D0416A5F
:1006400041F48021416201207047006842690A43F9
:10065000426100207047000010B590F82020012A68
:1006600007D0022A05D0416A41F48021416201206D
:1006700010BD3B48D0F8002242F00102C0F8002231
:10068000D0F8002222F47C52C0F80022D0F80022D8
:100690004B6A42EA0322C0F800220A7D02F01F03DF
:1006A00001229A40D0F81C329343C0F81C32CB6927
:1006B000B3B9D0F80C329343C0F80C328C894B6834
:1006C00064F31F434C6900EBC404C4F840320C8946
:1006D0000B6864F31F434C6900EBC404C4F8443254
:1006E000CB69012B16D1D0F80C321343C0F80C3271
:1006F0000C884B6864F31F434C6900EBC404C4F8D6
:1007000040320C89CB6864F31F434C6900EBC4048E
:10071000C4F844328B69002BD0F804320ED0134356
:10072000C0F804320B69002BD0F8143208D0134300
:10073000C0F81432096A012904D008E09343EFE7B6
:100740009343F5E7D0F81C121143C0F81C12D0F8FF
:10075000001221F00101C0F80012002010BD0000BD
:1007600000640040704770B590F82040012C05D01F
:10077000022C03D0416A41F4802128E0046809B3C7
:100780002469A40720D04FF4D874056804EB011441
:100790002D5915F00405956005682D591AD0ED08FE
:1007A000556005682C5904F00204D4604FF4DA74E3
:1007B000056804EB01142E5906F00F06082E0CD321
:1007C00008250DE0E468DCE7416A41F4001141626C
:1007D000012070BD6D0D1560E3E72D5905F00F0583
:1007E000156105682D59C5F30725956105682C59D4
:1007F000240C54614FF4DC72046802EB0112A4581B
:100800001C700468A458240A5C700468A458240C62
:100810009C700468A258120EDA704FF4DE720468FD
:1008200002EB0112A4581C710468A458240A5C71DC
:100830000468A458240C9C710468A258120EDA7142
:10084000006829B1016941F020010161002070BDFB
:10085000C16841F02001C160F8E72DE9F05F05466D
:10086000006800244669D0F804908768D0F80CB07E
:10087000D0F810A0D0F81880F10748D0F90714D0AC
:1008800001218160B80703D5284600F00AFA0CE080
:10089000780702D54FF4006407E0380702D54FF41B
:1008A000805402E0284600F0FBF9F80516D52968C7
:1008B0004FF480708860B80503D5284600F0F3F93E
:1008C0000CE0780502D544F4005407E0380502D561
:1008D00044F4804402E0284600F0E4F9F80316D519
:1008E00029684FF480308860B80303D5284600F0AB
:1008F000DCF90CE0780302D544F4004407E0380347
:1009000002D544F4803402E0284600F0CDF93007E7
:1009100007D55FEACB6004D52968102044F4007441
:10092000C86070074FF0080707D55FEA0B7004D561
:100930002868C760284600F069F9B00706D528681E
:10094000C068800702D0284600F062F9700607D51B
:100950005FEACA6004D52968102044F48064086105
:10096000B00607D55FEA0A7004D5286807612846F3
:1009700000F068F9F00606D528680069800702D003
:10098000284600F060F9B00308D55FEAC96005D5D4
:10099000296810204860284600F056F9F00307D572
:1009A0005FEA097004D528684760284600F07EF9A0
:1009B000300446D55FEA497040D5F00504D55FEABA
:1009C000C87001D044F00104B00504D55FEA887016
:1009D00001D544F00204700504D55FEA487001D5E2
:1009E00044F00404300529D518F0700F26D008F023
:1009F0007000402815D006DC102809D020280AD025
:100A0000302816D10AE050280ED0602811D10EE00F
:100A100044F008040DE044F010040AE044F020041F
:100A200007E044F0400404E044F0800401E044F4B2
:100A300080742868816921F070018161296804202F
:100A40004860002C05D0686A204368622846FFF79A
:100A500089FEBDE8F09F70B5040003D094F8200033
:100A600010B104E0012070BD204600F081F820683C
:100A7000016841F00101016000F0CEFB054605264A
:100A800004E000F0C9FB401B0A2811D82068406828
:100A9000C007F6D02068016821F00201016000F073
:100AA000BBFB05460BE000F0B7FB401B0A2806D94C
:100AB000606A40F40030606284F82060D2E7206809
:100AC00040688007EFD4207E0128206801683DD06F
:100AD00021F080010160607E01282068016838D023
:100AE00021F040010160A07E01282068016833D018
:100AF00021F020010160E07E0128206801682ED0ED
:100B000041F010010160207F01282068016829D090
:100B100021F008010160607F01282068016824D06D
:100B200021F004010160D4E902010843D4E9041270
:100B3000114308436168491E08432168C8610020C9
:100B40006062012084F82000002070BD41F0800127
:100B5000C0E741F04001C5E741F02001CAE721F0BC
:100B60001001CFE741F00801D4E741F00401D9E7D3
:100B700010B586B0044614216846FFF7ECFB204907
:100B80002068884239D11F480021026842F0806203
:100B90000260026802F080620592026842F0007210
:100BA0000260006800F00070059016481038026876
:100BB00042F002020260006800F0020005904FF46B
:100BC000405000900220CDE901010320039009204C
:100BD000049069460C4800F037FA00221146402084
:100BE00000F088FB402000F077FB002211464120F6
:100BF00000F080FB412000F06FFB06B010BD00004C
:100C00000068004040380240000402407047000085
:100C100000B5094987B088420CD1084B6A460021CB
:100C2000FFF7A1FD08B1FFF702FD044A6946044839
:100C3000FFF752FC07B000BD70000020010000204B
:100C40002100002070477047704770B5044690F847
:100C50002000012804D0606A40F40020606217E0A0
:100C6000022084F820002068016821F00101016061
:100C700000F0D2FA05460DE000F0CEFA401B0A283B
:100C800008D9606A40F400306062052084F82000D2
:100C9000012070BD20684068C007EDD1606270BD62
:100CA00070477047704770477047704770472DE92D
:100CB000F0410446876D00F0AFFA054694F8350020
:100CC0000026022806D08020606584F83460012068
:100CD000BDE8F0812068016821F0160101602068FC
:100CE000416921F080014161206C08B9A06C20B1FC
:100CF0002068016821F0080101602068016821F086
:100D0000010101600CE000F087FA401B052807D9BB
:100D100020206065032084F8350084F83460D7E72C
:100D200020680068C007EED194F85C103F2088402E
:100D3000B860012084F8350084F834600020C7E7EB
:100D400090F83510022903D08021416501207047B9
:100D5000052180F835100068016821F0010101606B
:100D6000002070472DE9F84304464FF00009CDF804
:100D7000009063484FF41651A56D0068B0FBF1F781
:100D80002E6894F85C20082101FA02F030420FD05E
:100D90002068026852070BD5026822F00402026044
:100DA00094F85C008140A960606D40F001006065CE
:100DB00094F85C104FF0010808FA01F0304208D0B6
:100DC00021684969090604D5A860606D40F00200F9
:100DD000606594F85C1004208840304208D0216897
:100DE0000968890704D5A860606D40F0040060655B
:100DF00094F85C1010208840304218D021680968AF
:100E0000090714D5A86020680168490304D5006863
:100E1000000308D5A16C07E00168C90503D4016887
:100E200021F008010160216C09B12046884794F83F
:100E30005C1020208840304231D021680968C90602
:100E40002DD5A86094F8350005282068016806D0E3
:100E5000490347D5006800031DD4616C1CE021F0F4
:100E6000160101602068416921F080014161206C18
:100E700008B9A06C20B12068016821F00801016068
:100E800094F85C103F208840A86084F8358084F88E
:100E90003490216D1FE0E16B09B120468847606DF9
:100EA00000282BD0606DC00714D0052084F83500D1
:100EB0002068016821F0010101600098401C009049
:100EC000B84203D820680068C007F6D184F835809E
:100ED00084F83490E16C002910D001B02046BDE8C0
:100EE000F04308470168C905D5D4016821F0100115
:100EF000016084F8358084F83490CCE7BDE8F8834D
:100F0000180000202DE9F041044600F085F905465F
:100F10005CB1022084F83500002684F83460206833
:100F2000016821F0010101600DE00120BDE8F081C0
:100F300000F072F9401B052805D9202060650320C8
:100F400084F83500F2E720680068C007F0D1216816
:100F50000A6820480240D4E901031843D4E9033564
:100F60002B43184363691843A3691843E369184383
:100F7000236A18431043626A042A03D1D4E90B237D
:100F80001A431043086020684069656A20F0070131
:100F900028460D43012704280CD1A06A0543E06AC6
:100FA00040B12046FFF704FB20B14020606584F883
:100FB0003570BAE7206845612046FFF7E5FA94F8F6
:100FC0005C203F2191408160666584F83570002087
:100FD000ACE700003F8010F02DE9F0410446866D3B
:100FE00090F83400002501280DD0012084F8340049
:100FF00094F835700020012F07D084F834000225C2
:101000002846BDE8F0810220FBE7022784F835700E
:1010100060652046FFF7F6FA94F85C103F208840A0
:10102000B0602068016841F016010160206C20B1B9
:101030002068016841F0080101602068016841F002
:1010400001010160DCE700002DE9F84FDFF89C9119
:101050000022A9F1040B03274FF00F0C09F1040A39
:10106000ABF1040E01250B6895402B40AB426ED1CD
:101070000C7904F00304012C01D0022C15D18668F0
:10108000540007FA04F826EA0806D1F80C8008FA9A
:1010900004F848EA0608C0F808804468AC430D79B3
:1010A000C5F300159540254345600C79E443A4073A
:1010B00008D0C568540007FA04F6B5438E68A64008
:1010C0002E43C6600C7904F00304022C11D1D4081D
:1010D00000EB8406356A5407E40E0CFA04F825EA9E
:1010E0000805D1F8108008FA04F848EA0508C6F89F
:1010F00020800568540007FA04F6B5430E7906F01F
:101100000306A6402E4306604C6814F4403F66D0A8
:10111000374C256845F480452560246822F0030596
:1011200004F480440094334C05EB0408D8F80858C4
:101130009407260F0CFA06F4A5432F4CA04201D1C8
:10114000002424E02D4CA04202D101241FE046E0FF
:101150002B4CA04201D1022419E02A4CA04201D11B
:10116000032414E0284CA04201D104240FE0274CB2
:10117000A04201D105240AE0254CA04201D1062459
:1011800005E0244CA04201D1072400E00824B4402B
:101190002C43C8F80848D9F800404D464E689C4397
:1011A000F60200D51C432C60DAF8004055464E6824
:1011B0009C43B60200D51C432C60DBF800405D4622
:1011C0004E689C43B60300D51C432C60DEF80040FB
:1011D00075464E689C43F60300D51C432C60521C98
:1011E000102AFFF43FAFBDE8F88F0000083C014033
:1011F0004438024000300140000002400004024038
:1012000000080240000C024000100240001402409E
:1012100000180240001C024001488068704700002E
:101220000C000020024881680278114481607047F8
:101230000C0000200B4810B5016841F400710160FA
:10124000016841F480610160016841F480710160CE
:10125000032000F06FF80F2000F006F800F024F8EB
:10126000002010BD003C024070B50D4D04464FF407
:101270007A712878B1FBF0F00A490968B1FBF0F007
:1012800000F002FB48B9102C07D200222146501E64
:1012900000F030F800206C6070BD012070BD0000CF
:1012A0000C000020180000200A4808B5016841F42D
:1012B00080410160006800F4804000900548001FF4
:1012C000016841F080510160006800F0805000909A
:1012D00008BD000044380240002809DB00F01F026E
:1012E000012191404009800000F1E020C0F8001188
:1012F00070470000F0B40E4B1B68C3F30223C3F128
:101300000704042C00D904241D1D072D01D200233D
:1013100000E0DB1E012606FA04F56D1E0D409D401F
:101320009E40761E164045EA0601F0BC01F025BB42
:101330000CED00E0064A00F0070110684FF6FF03CD
:10134000184040EA0120034908431060704700003C
:101350000CED00E00000FA052DE9F0470D46040011
:1013600065D0DFF81491D9F80000EFB200F0070063
:10137000A84207D289F80070D9F8000000F00700F1
:10138000A84254D120683D4E810712D5400703D5AD
:10139000306840F4E05030602078000703D53068B2
:1013A00040F4604030603068A16820F0F0000843ED
:1013B00030602078C0072DD0304960680839012896
:1013C00012D0022813D0032811D0096889070029F8
:1013D0002DDA316821F0030101433160FFF71CFF72
:1013E000804641F2883A0EE009688903EFE7096810
:1013F0008901ECE7FFF710FFA0EB0801514502D986
:101400000320BDE8F0873068616800F00C00B0EBA5
:10141000810FEFD1D9F80010484601F00701A94229
:1014200007D90770006800F00700A84201D001202A
:10143000E7E72078400705D53068E16820F4E05000
:10144000084330602078000706D53068216920F411
:10145000604040EAC100306000F038F83168084A66
:10146000C1F30311515CC840064908600648006892
:10147000FFF7FAFE0020C4E7003C024008380240B3
:10148000D229000818000020100000200448054957
:1014900000680968044AC1F38221515CC840704762
:1014A0001800002008380240E229000804480549D5
:1014B00000680968044AC1F34231515CC840704772
:1014C0001800002008380240E2290008154810B52D
:1014D000006810F00C01144813D0144B04290FD0ED
:1014E00008290ED10F4C241F216801F03F0221680A
:1014F000490207D52068C0F38810A0FB030106E06D
:10150000184610BD2168C1F38811A1FB000100231A
:10151000FEF7AAFE2168C1F30141491C4900B0FB56
:10152000F1F010BD083802400024F40040787D013D
:101530002DE9F84F040075D02078DFF838A3C007F4
:10154000AAF1040548D00AF104000168C1F3810141
:10155000012908D00068C0F3810002280AD1DAF816
:101560000000400206D52868800335D56068002851
:10157000E1D031E06068B0F5803F10D0B0F5A02F29
:10158000286810D020F480302860286820F480205B
:1015900028606068A0B1FFF73FFE06460CE02868AF
:1015A00040F48030F4E740F480202860F7E7FFF74C
:1015B00033FE801B642871D828688003F7D50BE0C0
:1015C000FFF72AFE064604E0FFF726FE801B64288C
:1015D000F1D828688003F7D42078DFF89C92800740
:1015E0004FF0000B3DD5A348001D016811F00C0F12
:1015F00008D00068C0F3810002280AD1DAF80000A0
:10160000400206D42868800715D5E068012809D172
:1016100011E0E068B8B10120C9F80000FFF7FCFD57
:10162000064605E022E1FFF7F7FD801B0228C2D83D
:1016300028688007F7D52868216920F0F80040EA7B
:10164000C10028600DE0C9F800B0FFF7E5FD0646CF
:1016500004E0FFF7E1FD801B02281FD828688007FF
:10166000F7D42078000722D5824F8448616970370B
:1016700071B101210160FFF7CFFD064604E0FFF7DD
:10168000CBFD801B022809D838688007F7D50EE00B
:10169000C0F800B0FFF7C0FD064605E082E0FFF7A6
:1016A000BBFD801B02287DD838688007F7D42078DE
:1016B000400765D56F484FF000083C300068C00017
:1016C0000BD46C483C30016841F0805101600068E7
:1016D0004FF0010800F080500090694F3868C00555
:1016E0000FD4386840F480703860FFF795FD0646E7
:1016F00004E0FFF791FD801B022853D83868C0052D
:10170000F7D55C4FA0686C3701280FD005283868E2
:1017100010D020F001003860386820F004003860F4
:10172000A068B0B1FFF778FD06460EE0386840F0DB
:101730000100F4E740F004003860F7E7FFF76CFDC4
:10174000811B41F28830814263D838688007F5D523
:101750000DE0FFF761FD064606E0FFF75DFD811B2A
:1017600041F28830814254D838688007F5D4B8F106
:10177000000F05D03F483C30016821F080510160E6
:10178000A069B8B33B49091D0968C1F38101022969
:1017900046D00228584606D0C9F86000FFF73CFD45
:1017A000044639E035E04F46C9F86000FFF734FDE4
:1017B000064604E0FFF730FD801B022829D8286880
:1017C0008001F7D4D4E907010843A16A2D4A4908EA
:1017D00002EB0141626A41EA8211084394F82C103D
:1017E00040EA0161CAF8001001203866FFF714FDD5
:1017F000044605E03CE0FFF70FFD001B022808D877
:1018000028688001F7D533E0FFF706FD001B0228AA
:1018100002D90320BDE8F88F28688001F4D427E0BE
:101820000128F7D0DAF80000E26900F48001914263
:101830001CD1226A00F03F01914217D147F6C071D6
:10184000626A0140B1EB821F10D1A26A4FF0FF33F0
:1018500000F4403103EB5202B1EB024F06D194F891
:101860002C1000F07060B0EB016F01D00120D1E7C7
:101870000020CFE70438024000004742800E474274
:10188000007000400000FFFF10B5401EB0F1807FE7
:1018900001D3012010BD4FF0E02460610F216017DB
:1018A00001F06BF80020A06107202061002010BD2E
:1018B0007047704770B590F83C20012A32D001255E
:1018C00080F83C50022280F83D20026853689468FA
:1018D00023F070060B6833435360134B02689A423F
:1018E00014D0B2F1804F11D0104B9A420ED0104B51
:1018F0009A420BD00F4B9A4208D00F4B9A4205D018
:101900000E4B9A4202D00E4B9A4204D1496824F001
:1019100080031943916080F83D50002180F83C100D
:10192000084670BD022070BD000001400004004068
:1019300000080040000C004000040140004001404D
:101940000018004010B5040003D094F83D0010B119
:1019500007E0012010BD002084F83C00204600F084
:101960001FF8022084F83D00211D206800F074FD5E
:10197000012084F8460084F83E0084F83F0084F893
:10198000400084F8410084F8420084F8430084F861
:10199000440084F8450084F83D00002010BD00009C
:1019A00008B500680B49884212D10B48016841F024
:1019B000010101600068002200F001000090114662
:1019C0001920FFF797FCBDE808401920FFF784BCF9
:1019D00008BD0000000001404438024090F83D106E
:1019E000012901D001207047022180F83D100168D3
:1019F000CA6842F00102CA6000681149884214D0E6
:101A0000B0F1804F11D00F4988420ED00E49884264
:101A10000BD00E49884208D00D49884205D00D49A7
:101A2000884202D00C49884204D1816801F0070144
:101A3000062903D0016841F00101016000207047D0
:101A4000000001400004004000080040000C00407D
:101A500000040140004001400018004070B50446F9
:101A600090F83C000025012817D0012684F83C603E
:101A7000022084F83D002068826822F0770222F478
:101A80007F4282600868502838D00DDC20284FD073
:101A900005DC90B3102811D14AE0022070BD302837
:101AA00046D040280AD13BE060282FD070280DD0C6
:101AB000B0F5805F03D0B0F5005F12D0012584F847
:101AC0003D60002084F83C00284670BDCB68D1E919
:101AD0000121206800F028FD2068816841F077012D
:101AE00009E0CB68D1E90121206800F01DFD2068E4
:101AF000816841F480418160E1E719E0CA68496882
:101B0000206800F023FD5021206806E0CA6849687B
:101B1000206800F02CFD6021206800F00FFDCEE76A
:101B2000CA684968206800F011FD40212068F4E788
:101B3000226801461046F0E770472DE9F04104465F
:101B40000068C66805694FF00007A90713D5B107FB
:101B500011D5F91E01610120207720688069800776
:101B6000204602D0FFF7E8FF04E000F07EF82046B0
:101B700000F07CF82777680716D5700714D5216820
:101B80006FF004000861022020772068806910F45B
:101B9000407F204602D0FFF7CFFF04E000F065F859
:101BA000204600F063F82777280715D5300713D5AE
:101BB00021686FF008000861042020772068C06960
:101BC0008007204602D0FFF7B7FF04E000F04DF891
:101BD000204600F04BF82777E80616D5F00614D516
:101BE00021686FF010000861082020772068C06924
:101BF00010F4407F204602D0FFF79EFF04E000F083
:101C000034F8204600F032F82777E80708D0F007CC
:101C100006D021686FF001000861204600F028F826
:101C2000280608D5300606D521686FF080000861C7
:101C30002046FFF73DFE680608D5700606D52168E8
:101C40006FF040000861204600F01CF8A8060AD595
:101C5000B00608D521686FF0200008612046BDE875
:101C6000F041FFF726BEBDE8F081704770470000E5
:101C700000680349884201D100F086BB704700002C
:101C800000000140704738B5044690F84200202813
:101C900001D0022038BD71B16AB10120206300205B
:101CA0006063204600F016FE0246206B012804D037
:101CB0000122104638BD012038BD20680168406807
:101CC000009020680C3050E8001F41F0100140E8FF
:101CD0000013002BF5D1ECE7034A904202D10846ED
:101CE00000F016BB7047000028010020704700007C
:101CF000F8B5016804460868CA684B6910F00F0F10
:101D00004FF0000559D003F0010602F490773743F5
:101D100065D0C10705D0D10503D5616C41F0010143
:101D20006164410705D5D90703D0616C41F0020118
:101D30006164810705D5D90703D0616C41F00401C6
:101D40006164010707D502F02001314303D0616CC3
:101D500041F008016164616C00293AD0800604D525
:101D6000900602D5204600F0CEFC20684069616CE8
:101D7000C0F38010090700D460B3204600F08EFC49
:101D800020684069400621D52068143050E8001FC3
:101D900021F0400140E80012002AF5D1E06BA8B123
:101DA00072490165E06BFEF7CBFF002811D0E06BB4
:101DB000016D01B0BDE8F040084783060FD59306DA
:101DC0000DD52046BDE8F84000F09DBC2046FFF749
:101DD0008DFFF8BD2046FFF789FF6564F8BD266BCF
:101DE0002023012E7ED1C6067CD5D6067AD508687A
:101DF0004868009048694FF0020640064DD5E26BF6
:101E0000106840684FF480770004000C3AD0A18D30
:101E1000814237D9E085D069B8422DD020680C3096
:101E200050E8001F21F4807140E80012002AF5D12B
:101E30002068143050E8001F21F0010140E8001232
:101E4000002AF5D12068143050E8001F21F040012D
:101E500040E80012002AF5D184F84230256320685A
:101E60000C3050E8001F21F0100140E80012002A59
:101E7000F5D1E06BFEF71BFF6663A08DE18D401A84
:101E800081B206E0A18D8142A8D1D069B842A5D126
:101E900066632046FFF720FFF8BDA08DE18D401A54
:101EA00081B2E08D0028F7D00029F5D020680C30F1
:101EB00050E8002F22F4907240E80027002FF5D15F
:101EC0002068143050E8002F22F0010240E800277B
:101ED000002FF5D184F84230256320680C3050E89B
:101EE000002F00E006E022F0100240E80023002B63
:101EF000F3D1CDE705062BD5150629D594F8410079
:101F00002128C9D1A068B0F5805F01D12069B0B1A6
:101F1000206A411C2162216800784860E08C401EE4
:101F20000004000CE084B7D12068C16821F0800172
:101F3000C1602068C16841F04001C160F8BD206AFD
:101F40000088C0F308004860206A801C2062E5E732
:101F50004006F3D55006F1D5CA68204622F040026B
:101F6000CA6084F8413000F0EBF8F8BDA125000804
:101F700070B5040004D094F84100002510B106E0CB
:101F8000012070BD84F84050204600F023F8242042
:101F900084F841002068C16821F40051C1602046E6
:101FA00000F012FC2068016921F490410161206871
:101FB000416921F02A0141612068C16841F4005162
:101FC000C1606564202084F8410084F842006563A4
:101FD000002070BD2DE9F04387B004461421684607
:101FE000FEF7B9F9504BDFF838C120684D4903229C
:101FF000022600259F024FF4806960453CD1494884
:102000001030D0F800C04CF4002CC0F800C00068BC
:1020100000F400200590086840F00100086008689E
:10202000029500F001000590CDE900260820CDE9D9
:10203000032069461846FFF707F83D4E3B483060DD
:10204000C6E90175C6E903597561B561F561356287
:1020500030467562FEF756FF08B1FEF7E8FAE66310
:10206000002211463420B463FFF744F93420FFF70F
:1020700033F907B0BDE8F083DFF8B8C06045F8D1A8
:1020800028481430D0F800C04CF0100CC0F800C044
:10209000006800F010000590086840F0010008603A
:1020A0000868029500F0010005904FF4C060CDE98A
:1020B00000060720CDE9032069461846FEF7C4FF55
:1020C0001B4E1D486036B8463060C6E90175C6E94A
:1020D00003597561B561F56135624F4630467562E9
:1020E000FEF710FF08B1FEF7A2FAE663B463104EE4
:1020F0001148C0367830E6E802084020A1C60C48F6
:1021000046F81459C030B561F56135627562FEF765
:10211000F9FE08B1FEF78BFAA663B463A9E70000E5
:10212000004C004030380240000002404060024055
:102130007001002000100140406402407047704769
:102140007047FEE70F4810B50D4901600721416057
:1021500000214FF480328160C0E9031252014261D4
:102160000176012242768276C17601774177FEF7C9
:1021700072FC002803D0BDE81040FEF758BA10BD2D
:102180000068004070000020154808B5016841F45F
:1021900000110160016801F400110091016841F42F
:1021A000800101600068002200F480000090114668
:1021B0000D20FFF79FF80D20FFF78EF80022114643
:1021C0003A20FFF797F83A20FFF786F800221146E9
:1021D0004620FFF78FF8BDE808404620FFF77CB89F
:1021E00030380240114808B5016841F0040101602F
:1021F000016801F004010091016841F08001016073
:10220000016801F080010091016841F00101016065
:10221000016801F001010091016841F002010160D3
:10222000006800F00200009008BD00003038024055
:1022300010B586B0002418480094019402940394C9
:102240000494144905940160A721C0E901144FF4D6
:102250007A71C0E903148021C0E90541FFF772FBE0
:1022600008B1FEF7E4F94FF48050009069460A483F
:10227000FFF7F4FB08B1FEF7DAF9049404A9064865
:102280000594FFF717FB002801D0FEF7D0F906B040
:1022900010BD000000000140980000200C4810B55F
:1022A0000A4901604FF4E1314160002181600C2254
:1022B000C160C0E904128161C161FFF759FE0028C5
:1022C00003D0BDE81040FEF7B2B910BD004C00408D
:1022D000E00000200C4810B50A4901604FF4E131DC
:1022E0004160002181600C22C160C0E9041281615B
:1022F000C161FFF73DFE002803D0BDE81040FEF7A6
:1023000096B910BD0010014028010020FEE7FEE74D
:1023100010B5402205490648FFF7B5FC054800689E
:10232000016821F00801016010BD000030000020AC
:1023300028010020D001002010B5402205490648A0
:10234000FFF7A1FC05480068016821F00801016061
:1023500010BD00003000002028010020D001002026
:10236000704700000648012100F8011B00210160B0
:10237000044941604FF480710181891C418170479B
:102380001C000020700000200449D1F8010005283D
:1023900002D2401CC1F80100704700001C00002060
:1023A0007047FEF73FBF000030B593B0302168465C
:1023B000FDF7D1FF14210CA8FDF7CDFF1D48002526
:1023C000016841F080510160006800F08050119078
:1023D0001948016841F4804101600068022400F45A
:1023E00080401190012003901020049000940694E6
:1023F0000820CDE90750A820CDE9090404200B905E
:102400006846FFF795F808B172B6FEE70CA90F20F1
:1024100081E831004FF4A0500F904FF4805010909D
:1024200005210CA8FEF798FF002801D072B6FEE740
:1024300013B030BD403802400070004002480168CF
:1024400041F470010160704788ED00E00148FFF73A
:1024500074BB000098000020F0B50268274D284E9C
:10246000284FDFF8A4C0294B4FF0804EA84209D076
:10247000704507D0B04205D0B84203D0604501D0C6
:10248000984203D122F070044A682243A8421BD02C
:10249000704519D0B04217D0B84215D0604513D05E
:1024A000984211D01A4CA0420ED01A4CA0420BD028
:1024B000194CA04208D0194CA04205D0184CA0429B
:1024C00002D0184CA04203D122F44074CA682243BF
:1024D0004C6922F0800222438C68C4620C688462DA
:1024E000A84201D0984201D109690163016841F015
:1024F00004010160012141610260F0BD0000014062
:102500000004004000080040000C004000040140AE
:1025100000400140004401400048014000180040D4
:10252000001C00400020004010B5846842EA0322ED
:1025300024F47F440A432243826010BD826822F063
:1025400070020A4342F007018160704710B5046AC7
:10255000036A23F001030362836923F0F00343EA73
:10256000021324F00A020A438361026210BD10B50F
:10257000036A046A24F010040462846923F0A0034F
:1025800024F4704444EA023243EA01118261016298
:1025900010BD00000148FFF7ABBB0000E0000020C9
:1025A00010B5806B0021C185FFF7A0FB10BD70B591
:1025B000846B2068406994F84110C0F3C010002576
:1025C000212904D118B1E584204600F08EF8206856
:1025D000406994F84210C0F38010222904D118B148
:1025E000E585204600F05AF8606C40F01000606409
:1025F0002046FFF77BFB70BD10B50146806B096874
:1026000009684FF00003C9052ED4C38501680C3159
:1026100051E8002F22F4807241E80024002CF5D10B
:102620000168143151E8002F22F0010241E8002432
:10263000002CF5D10168143151E8002F22F040023E
:1026400041E80024002CF5D1202180F84210016BD4
:10265000012909D101680C3151E8002F22F0100244
:1026600041E80024002CF5D14363016B012902D01D
:10267000FFF764FD10BD818DFFF72EFB10BD10B577
:10268000806B01214163016B012902D0FFF757FDE7
:1026900010BD818D4908FFF71FFB10BD01680C318B
:1026A00051E8002F22F4907241E80023002BF5D16D
:1026B0000168143151E8002F22F0010241E80023A3
:1026C000002BF5D1016B012909D101680C3151E8CA
:1026D000002F22F0100241E80023002BF5D1202129
:1026E00080F8421000210163704701680C3151E805
:1026F000002F22F0C00241E80023002BF5D1202159
:1027000080F84110704708B590F84210222901D096
:10271000022008BD81684FF48053994201D10269BB
:1027200022B1826A99421BD049B10AE00268816AEB
:102730005268C2F308020A80816A891C08E00169B4
:1027400071B10168496801F07F011170816A491C0B
:102750008162C18D491E0904090CC18503D01BE0AB
:1027600001684968F1E70168CA6822F02002CA607E
:102770000168CA6822F48072CA6001684A6922F05E
:1027800001024A61202180F8421000214163026B5E
:10279000012A03D0FFF7D2FC002008BD01630168C5
:1027A0000C3151E8002F22F0100241E80023002BE9
:1027B000F5D101680A68D20602D50A684968009115
:1027C000818DFFF789FAE7E770B504460068016973
:1027D000E26821F4405111430161A1682069E26976
:1027E00001436069104301432068C26849F20C63E9
:1027F0009A430A43C26020684169A26921F440718A
:102800001143416131492068884202D030498842F1
:1028100002D1FEF74BFE01E0FEF738FEE26900232D
:10282000192164253226B2F5004F626828D0A0FB3A
:102830000101930F9200FDF717FD0146B0FBF5F083
:102840006FF01802504301EB800006EB0010B0FB64
:10285000F5F000F0F002B1FBF5F002EB0012B1FB75
:10286000F5F06FF01803584301EB800006EB001001
:10287000B0FBF5F000F00F0021681044886070BDD7
:10288000A0FB010192185B41FDF7EEFC0146B0FB95
:10289000F5F00201B1FBF5F06FF01803584301EBBE
:1028A000800006EBC000B0FBF5F000F0F80002EB92
:1028B0004002B1FBF5F0584301EB800006EBC0008D
:1028C000B0FBF5F000F00700D6E700000010014073
:1028D0000014014037B582B01346039A8262044661
:1028E000838500206064222184F84210E56B1F4933
:1028F000E963E56B1E492964E56B1E49E964E16BF8
:1029000008652168E06B091DFEF766FB38B11020F1
:102910006064202084F84200012005B030BD2068AA
:10292000016840680090206948B120680C3050E888
:10293000001F41F4807140E80012002AF5D12068A0
:10294000143050E8001F41F0010140E80012002A55
:10295000F5D12068143050E8001F41F0400140E8F4
:102960000012002AF5D10020D7E70000F925000861
:102970007F260008AF250008FEE70907090E00289A
:1029800004DB00F1E02080F80014704700F00F0035
:1029900000F1E02080F8141D7047FEF74BFCFFF7B4
:1029A00003FDFFF71FFCFFF7EFFBFFF793FCFFF7BB
:1029B00075FCFFF7C7FBFFF73BFCFDF73DFDFCE7B0
:1029C0004FF04070E1EE100A704700061016000646
:1029D00010160000000000000000010203040607BA
:1029E0000809000000000102030400000C2A00088E
:1029F000000000201C000000C4010008282A000874
:102A00001C000020D4080000E001000800000000C5
:102A100000000000000000000100000010000000A5
:082A2000000000000024F40096
:040000050800018965
:00000001FF
