:020000040800F2
:10000000B0080020290200083323000875210008E9
:1000100031230008C1040008E127000800000000A7
:10002000000000000000000000000000B9230008EC
:10003000310600080000000035230008BB2300083B
:10004000430200084302000843020008430200087C
:10005000430200084302000843020008430200086C
:10006000430200084302000843020008430200085C
:1000700043020008910500084302000843020008FB
:10008000430200084302000843020008430200083C
:10009000430200084302000843020008430200082C
:1000A00043020008652400084302000843020008D8
:1000B000430200084302000843020008430200080C
:1000C00043020008430200084302000843020008FC
:1000D00043020008D5270008430200084302000835
:1000E00043020008430200084302000843020008DC
:1000F00043020008430200084302000843020008CC
:1001000043020008430200084302000843020008BB
:1001100043020008430200084302000843020008AB
:1001200043020008430200089D050008430200083E
:10013000430200084302000843020008430200088B
:10014000C5040008D1040008430200084302000867
:100150004302000843020008A90500084302000802
:10016000430200084302000843020008430200085B
:100170004302000843020008430200080000000098
:10018000430200084302000800F002F800F03CF8C7
:100190000AA090E8000C82448344AAF10107DA45E2
:1001A00001D100F031F8AFF2090EBAE80F0013F0F8
:1001B000010F18BFFB1A43F00103184798260000EF
:1001C000B8260000103A24BF78C878C1FAD8520780
:1001D00024BF30C830C144BF04680C6070470000C1
:1001E0000023002400250026103A28BF78C1FBD840
:1001F000520728BF30C148BF0B6070471FB502F0DF
:1002000013FB1FBD10B510BD00F0CFF81146FFF76E
:10021000F5FF02F0F6FA00F0EDF803B4FFF7F2FF95
:1002200003BC00F0F5F80000094880470948004782
:10023000FEE7FEE7FEE7FEE7FEE7FEE7FEE7FEE796
:10024000FEE7FEE704480549054A064B70470000F3
:100250005524000889010008B0020020B0080020E1
:10026000B0040020B004002053EA020C00F06980C2
:100270002DE9F04B4FF00006002B1FBFB3FA83F5BA
:1002800003FA05F424FA05F65E4012BF1643B2FAEB
:1002900082F502FA05F4C5F120051EBF22FA05FC1D
:1002A00044EA0C04203556EA044C4FEA144418BFC3
:1002B000641C4FF000084FF00009904271EB030CF2
:1002C00039D3002919BFB1FA81F701FA07F6B0FA5C
:1002D00080F700FA07F6C7F120071EBF20FA07FCD7
:1002E00046EA0C062037B6FBF4FCA7EB0507103FE7
:1002F00007F01F0BCBF120060CFA0BFB2CFA06F6CD
:1003000044BFB3460026202FA4BF5E464FF0000B2B
:100310005BEA060C08BF4FF0010B19EB0B09ABFBB6
:10032000027C48EB0608C01B06FB02CC0BFB03CC8F
:1003300071EB0C01C1E70B46024641464846BDE859
:10034000F08B13B54FF000004FF00001AFF30080C9
:10035000BDE81C4070474FF0000200B513469446BC
:100360009646203922BFA0E80C50A0E80C50B1F10D
:100370002001BFF4F7AF090728BFA0E80C5048BF21
:100380000CC05DF804EB890028BF40F8042B08BFBF
:10039000704748BF20F8022B11F0804F18BF00F8BB
:1003A000012B7047704770477047754600F02CF876
:1003B000AE4605006946534620F00700854618B052
:1003C00020B5FFF73FFFBDE820404FF000064FF09B
:1003D00000074FF000084FF0000B21F00701AC467A
:1003E000ACE8C009ACE8C009ACE8C009ACE8C00999
:1003F0008D46704710B50446AFF300802046BDE837
:100400001040FFF70ABF000000487047500200206C
:1004100001491820ABBEFEE726000200704710B568
:1004200000F01EF800F046F801F086FFBDE810402D
:1004300000F061B810B5094C2078032809D2DFE834
:1004400000F002040900012002E0FFF7E8FF0220AB
:10045000207010BDBDE8104001F080BF00000020FA
:1004600010B5044800F05CFCBDE8104002210148D2
:1004700000F0E1B83000002000B58BB0017A0591A2
:10048000002106910121079130F8021F009130F8F8
:10049000021C01918188029141880391C1680491F5
:1004A000C1790991016908918068694600F03EF9B7
:1004B0000BB000BD014801F0DFBA00005800002079
:1004C000FEE70000014800F032BA000030000020D2
:1004D000014800F02CBA0000300000200A88098A88
:1004E000C08892B289B2904201D1082901D001207E
:1004F00070470020704700F001B8000000B587B0D9
:10050000BDF8020000F01F00ADF802001448009989
:10051000014000919DF8001021F006018DF80010B7
:10052000BDF8061001F01F01ADF806100199014059
:1005300001919DF8040040F006008DF804000E20A3
:100540008DF808000748CDF80A000020CDF80E000D
:100550000120CDF812006846FFF78EFF07B000BDFE
:100560000700E0FF3000002000B587B001230693AC
:100570008388009300230293CDE903328DF8143071
:100580000A46006806AB694600F067F807B000BD90
:10059000014800F053BC000030010020014800F089
:1005A0004DBC000090010020014800F047BC000055
:1005B000F001002001681823CAB2103AB2FBF3F22E
:1005C000054B6FF30901032A9B5CC36500D9091D24
:1005D00081650846704700003228000810B50146C2
:1005E00000208B698A6A4FF0C07453B1B3F5005F85
:1005F00015D072B1012A0CD0022A0AD0032A09D1DF
:1006000004E01AB1012A06D0022A03D1C96AC9013D
:1006100000D5012010BDC96AA142FAD010BD002A40
:10062000F7D0012AF2D0022AF3D0032AF3D010BD6A
:10063000704772B6FEE790F82020012A07D0022A00
:1006400005D0416A41F48021416201207047006871
:1006500042690A43426100207047F0B590F820508B
:100660000468A468012D05D0022D03D0416A41F42D
:10067000802157E014F0406F01D1E5004FD5C4F35D
:1006800001640125A5401D608D684FF4C0739DB1C4
:10069000CE6835434E6845EAC605066803EB041785
:1006A000F5514FF4C275076805EB04150E697E51CC
:1006B000097D012905D009E00E88CD6845EA465537
:1006C000EBE701684E5946F480764E511179D579A1
:1006D000567941EA056195792D0445EA06252943B5
:1006E0004FF4C676056806EB0416A9511178D57843
:1006F00041EA0561957852782D0445EA02221143BA
:100700004FF4C475026805EB04155151006803EB02
:100710000411425842F0010242500020F0BD416AEB
:1007200041F4001141620120F0BD000010B590F8C5
:100730002020012A07D0022A05D0416A41F48021F5
:100740004162012010BD3B48D0F8002242F0010276
:10075000C0F80022D0F8002222F47C52C0F8002217
:10076000D0F800224B6A42EA0322C0F800220A7D38
:1007700002F01F0301229A40D0F81C329343C0F8C4
:100780001C32CB69B3B9D0F80C329343C0F80C32A9
:100790008C894B6864F31F434C6900EBC404C4F8B4
:1007A00040320C890B6864F31F434C6900EBC404AE
:1007B000C4F84432CB69012B16D1D0F80C32134364
:1007C000C0F80C320C884B6864F31F434C6900EB93
:1007D000C404C4F840320C89CB6864F31F434C69ED
:1007E00000EBC404C4F844328B69002BD0F8043207
:1007F0000ED01343C0F804320B69002BD0F814322A
:1008000008D01343C0F81432096A012904D008E063
:100810009343EFE79343F5E7D0F81C121143C0F878
:100820001C12D0F8001221F00101C0F800120020C3
:1008300010BD000000640040704770B590F8204083
:10084000012C05D0022C03D0416A41F4802128E01C
:10085000046809B32469A40720D04FF4D87405684C
:1008600004EB01142D5915F00405956005682D5908
:100870001AD0ED08556005682C5904F00204D460C4
:100880004FF4DA74056804EB01142E5906F00F06D4
:10089000082E0CD308250DE0E468DCE7416A41F43A
:1008A00000114162012070BD6D0D1560E3E72D5907
:1008B00005F00F05156105682D59C5F307259561EC
:1008C00005682C59240C54614FF4DC72046802EB67
:1008D0000112A4581C700468A458240A5C700468AF
:1008E000A458240C9C700468A258120EDA704FF4BD
:1008F000DE72046802EB0112A4581C710468A4584B
:10090000240A5C710468A458240C9C710468A258E1
:10091000120EDA71006829B1016941F0200101610C
:10092000002070BDC16841F02001C160F8E72DE9E9
:10093000F05F0546006800244669D0F80490876897
:10094000D0F80CB0D0F810A0D0F81880F10748D03B
:10095000F90714D001218160B80703D5284600F0BB
:100960000CFA0CE0780702D54FF4006407E0380772
:1009700002D54FF4805402E0284600F0FDF9F80556
:1009800016D529684FF480708860B80503D52846CD
:1009900000F0F5F90CE0780502D544F4005407E0C6
:1009A000380502D544F4804402E0284600F0E6F918
:1009B000F80316D529684FF480308860B80303D552
:1009C000284600F0DEF90CE0780302D544F4004438
:1009D00007E0380302D544F4803402E0284600F0F2
:1009E000CFF9300707D55FEACB6004D5296810201E
:1009F00044F40074C86070074FF0080707D55FEA39
:100A00000B7004D52868C760284600F069F9B00764
:100A100006D52868C068800702D0284600F062F931
:100A2000700607D55FEACA6004D52968102044F42F
:100A300080640861B00607D55FEA0A7004D52868AB
:100A40000761284600F068F9F00606D528680069B5
:100A5000800702D0284600F060F9B00308D55FEAAD
:100A6000C96005D5296810204860284600F056F96D
:100A7000F00307D55FEA097004D528684760284667
:100A800000F080F9300446D55FEA497040D5F005A2
:100A900004D55FEAC87001D044F00104B00504D564
:100AA0005FEA887001D544F00204700504D55FEA5E
:100AB000487001D544F00404300529D518F0700FB2
:100AC00026D008F07000402815D006DC102809D088
:100AD00020280AD0302816D10AE050280ED06028ED
:100AE00011D10EE044F008040DE044F010040AE0D7
:100AF00044F0200407E044F0400404E044F08004A3
:100B000001E044F480742868816921F070018161FA
:100B1000296804204860002C05D0686A2043686278
:100B20002846FFF789FEBDE8F09F70B5040003D0AA
:100B300094F8200010B104E0012070BD204600F0C0
:100B400081F82068016841F00101016000F0A8FB14
:100B50000546052604E000F0A3FB401B0A2811D837
:100B600020684068C007F6D02068016821F00201C3
:100B7000016000F095FB05460BE000F091FB401B87
:100B80000A2806D9606A40F40030606284F8206068
:100B9000D2E7206840688007EFD4207E01282068D3
:100BA00001683DD021F080010160607E012820684D
:100BB000016838D021F040010160A07E0128206842
:100BC000016833D021F020010160E07E0128206817
:100BD00001682ED041F010010160207F01282068BB
:100BE000016829D021F008010160607F0128206898
:100BF000016824D021F004010160D4E90201084316
:100C0000D4E90412114308436168491E084321686E
:100C1000C86100206062012084F82000002070BDBF
:100C200041F08001C0E741F04001C5E741F02001FB
:100C3000CAE721F01001CFE741F00801D4E741F005
:100C40000401D9E710B586B0044614216846FFF7C1
:100C500082FB20492068884239D11F480021026860
:100C600042F080620260026802F0806205920268CF
:100C700042F000720260006800F0007005901648B3
:100C80001038026842F002020260006800F00200C0
:100C900005904FF4405000900220CDE9010103205F
:100CA00003900920049069460C4800F001FA0022E4
:100CB0001146402000F062FB402000F051FB002272
:100CC0001146412000F05AFB412000F049FB06B0DC
:100CD00010BD00000068004040380240000402409F
:100CE0007047000000B5094987B088420CD1084B15
:100CF0006A460021FFF7A1FD08B1FFF79AFC044AFC
:100D000069460448FFF7EAFB07B000BD3000002049
:100D1000010000202100002070477047704700004C
:100D200070B5044690F82000012804D0606A40F4B1
:100D30000020606218E0022084F82000206801682A
:100D400021F00101016000F0ABFA05460EE000BFA2
:100D500000F0A6FA401B0A2808D9606A40F4003067
:100D60006062052084F82000012070BD2068406882
:100D7000C007EDD1606270BD704770477047704723
:100D80007047704770472DE9F0410446876D00F0C9
:100D900087FA064694F835000025022806D0802000
:100DA000606584F834500120BDE8F0812068016856
:100DB00021F0160101602068416921F08001416144
:100DC000206C08B9A06C20B12068016821F00801EE
:100DD00001602068016821F0010101600CE000F071
:100DE0005FFA801B052807D920206065032084F85E
:100DF000350084F83450D7E720680068C007EED18A
:100E000094F85C103F208840B860012084F83500D9
:100E100084F834500020C7E790F83510022903D039
:100E20008021416501207047052180F83510006858
:100E3000016821F001010160002070472DE9F843AD
:100E400004464FF00009CDF8009063484FF4165166
:100E5000A56D0068B0FBF1F72E6894F85C100820CF
:100E600000FA01F131420FD021680A6852070BD510
:100E70000A6822F004020A6094F85C108840A860B6
:100E8000606D40F00100606594F85C104FF001085F
:100E900008FA01F0304208D021684969090604D5F2
:100EA000A860606D40F00200606594F85C1004205A
:100EB0008840304208D021680968890704D5A860B5
:100EC000606D40F00400606594F85C10102088406C
:100ED000304218D021680968090714D5A860206835
:100EE0000168490304D50068000308D5A16C07E038
:100EF0000168C90503D4016821F008010160216C73
:100F000009B12046884794F85C1020208840304280
:100F100031D021680968C9062DD5A86094F835003C
:100F200005282068016806D0490347D500680003FA
:100F30001DD4616C1CE021F016010160206841693C
:100F400021F080014161206C08B9A06C20B12068BB
:100F5000016821F00801016094F85C103F2088408E
:100F6000A86084F8358084F83490216D1FE0E16B2F
:100F700009B120468847606D00282BD0606DC007FE
:100F800014D0052084F835002068016821F00101A3
:100F900001600098401C0090B84203D820680068A7
:100FA000C007F6D184F8358084F83490E16C0029CC
:100FB00010D001B02046BDE8F04308470168C905DC
:100FC000D5D4016821F01001016084F8358084F8DF
:100FD0003490CCE7BDE8F883180000202DE9F041FB
:100FE000044600F05DF906465CB1022084F8350045
:100FF000002584F834502068016821F00101016067
:101000000DE00120BDE8F08100F04AF9801B0528C1
:1010100005D920206065032084F83500F2E72068B8
:101020000068C007F0D12268116820480140D4E967
:1010300001031843D4E90336334318436369184363
:10104000A3691843E3691843236A18430843616A94
:10105000042903D1D4E90B13194308431060206815
:101060004069666A20F0070130460E4301270428D4
:101070000CD1A06A0643E06A40B12046FFF7AEFA01
:1010800020B14020606584F83570BAE72068466179
:101090002046FFF78FFA94F85C203F219140816051
:1010A000656584F835700020ACE700003F8010F0E3
:1010B0002DE9F84FDFF8BCA10022012503264FF0EF
:1010C0000F090AF1040BAAF1040E00BF0B6805FA20
:1010D00002F42340A34270D10F7907F00307012FD8
:1010E00001D0022F16D187684FEA420806FA08FCA1
:1010F00027EA0C07D1F80CC00CFA08FC4CEA070CE4
:10110000C0F808C04768A7430C79C4F300149440A2
:101110003C4344600C79E443A4070AD0C4684FEA16
:10112000420C06FA0CF7BC438F6807FA0CF727430A
:10113000C7600C7904F00304022C12D1D40800EB30
:10114000840CDCF820405707FF0E09FA07F824EA60
:101150000804D1F8108008FA07F848EA0408CCF827
:10116000208004684FEA420C06FA0CF7BC430F7962
:1011700007F0030707FA0CF7274307604C6814F4DD
:10118000403F70D03C4C276847F480472760246874
:1011900022F0030704F480440094384C07EB040C5D
:1011A000DCF8084897074FEA177809FA08F7BC43B4
:1011B000334FB84202D1002724E054E0314FB84207
:1011C00001D101271EE0304FB84201D1022719E0BA
:1011D0002E4FB84201D1032714E02D4FB84201D160
:1011E00004270FE02B4FB84201D105270AE02A4F10
:1011F000B84201D1062705E0284FB84201D10727A0
:1012000000E0082707FA08F72743CCF80878DAF84F
:1012100000405746D1F804C09C435FEACC2C00D56F
:101220001C433C60DBF800405F46D1F804C09C439F
:101230005FEA8C2C00D51C433C60DEF8004077460A
:10124000D1F804C09C435FEA8C3C00D51C433C6051
:10125000084F083F3C68D1F804C09C435FEACC3C8F
:1012600000D51C433C60521C102AFFF42FAFBDE890
:10127000F88F0000083C0140443802400030014033
:10128000000002400004024000080240000C02403E
:10129000001002400014024000180240001C0240EE
:1012A00001488068704700000C00002002488168F7
:1012B00002781144816070470C0000200B4810B583
:1012C000016841F400710160016841F480610160CE
:1012D000016841F480710160032000F06FF80F2075
:1012E00000F006F800F024F8002010BD003C024099
:1012F00070B50D4D04464FF47A712878B1FBF0F0CB
:101300000A490968B1FBF0F000F00CFB48B9102C59
:1013100007D200222146501E00F030F800206C60F9
:1013200070BD012070BD00000C00002018000020DE
:101330000A4808B5016841F480410160006800F482
:10134000804000900548001F016841F08051016015
:10135000006800F08050009008BD00004438024052
:10136000002809DB00F01F020121914040098000A4
:1013700000F1E020C0F8001170470000F0B40E4BFF
:101380001B680C46C3F30223C3F10705042D00D9E3
:101390000425191D072901D2002300E0DB1E0126C8
:1013A00006FA05F1491E214099409E40761E1640DE
:1013B0003143F0BC01F015BA0CED00E0064900F035
:1013C000070208684FF6FF03184040EA0220034A6C
:1013D00010430860704700000CED00E00000FA05C3
:1013E0002DE9F0470E46050065D0DFF81481D8F8E6
:1013F0000000F7B200F00700B04207D288F8007092
:10140000D8F8000000F00700B04254D128683D4CE5
:10141000810712D5400703D5206840F4E0502060D2
:101420002878000703D5206840F4604020602068D9
:10143000A96820F0F000084320602878C0072DD06C
:10144000304968680839012812D0022813D00328CF
:1014500011D00968890700292DDA216821F00301DC
:1014600001432160FFF71CFF814641F2883A0EE0FC
:1014700009688903EFE709688901ECE7FFF710FFC6
:10148000A0EB0901514502D90320BDE8F08720688F
:10149000696800F00C00B0EB810FEFD1D8F80010B4
:1014A000404601F00701B14207D90770006800F01B
:1014B0000700B04201D00120E7E72878400705D5B2
:1014C0002068E96820F4E05008432060287800078D
:1014D00006D52068296920F4604040EAC1002060F8
:1014E00000F038F82168084AC1F30311515CC84084
:1014F0000649086006480068FFF7FAFE0020C4E7C6
:10150000003C0240083802403A2800081800002039
:10151000100000200448054900680968044AC1F326
:101520008221515CC84070471800002008380240F2
:101530004A2800080448054900680968044AC1F3BC
:101540004231515CC8407047180000200838024002
:101550004A280008154810B5006810F00C0214481D
:1015600013D01449042A0FD0082A0ED10F4C241F7F
:101570002268236802F03F025B0207D52068C0F3AF
:101580008810A0FB010106E0084610BD2168C1F3E8
:101590008811A1FB00010023FEF766FE2168C1F35C
:1015A0000141491C4900B0FBF1F010BD0838024070
:1015B0000024F40040787D012DE9F84F04006ED03E
:1015C0002078DFF84C93C007A9F104054AD009F14F
:1015D00004000168C1F38101012908D00068C0F34B
:1015E000810002280AD1D9F80000400206D52868F7
:1015F000800337D560680028E1D033E06068B0F53B
:10160000803F10D0B0F5A02F286810D020F4803093
:101610002860286820F4802028606068A8B1FFF75F
:101620003FFE06460DE0286840F48030F4E740F4C1
:1016300080202860F7E700BFFFF732FE801B642898
:1016400073D828688003F7D50CE0FFF729FE06461B
:1016500005E000BFFFF724FE801B6428F0D828684F
:101660008003F7D42078DFF8AC8280074FF0000ABF
:101670003ED5A748001D016811F00C0F08D0006886
:10168000C0F3810002280BD1D9F80000400207D432
:101690002868800716D5E068012800D112E033E100
:1016A000E068B8B10120C8F80000FFF7F9FD064670
:1016B00005E000BFFFF7F4FD801B0228C0D82868B2
:1016C0008007F7D52868216920F0F80040EAC100BA
:1016D00028600DE0C8F800A0FFF7E2FD064604E030
:1016E000FFF7DEFD801B02281FD828688007F7D48B
:1016F0002078000722D5864F87486169703771B11D
:1017000001210160FFF7CCFD064604E0FFF7C8FDAC
:10171000801B022809D838688007F7D50EE0C0F88A
:1017200000A0FFF7BDFD064605E082E0FFF7B8FD2B
:10173000801B02287DD838688007F7D420784007BE
:1017400068D5DFF8CCB100270BF13C0BDBF80000CB
:10175000C0000BD4DBF8001041F08051CBF8001032
:10176000DBF80000012700F0805000906B4E3068DD
:10177000C00510D4306840F480703060FFF790FDF1
:10178000009005E0FFF78CFD0099401A022850D820
:101790003068C005F6D55E4EA0686C3601280FD0C3
:1017A0000528306810D020F001003060306820F04B
:1017B00004003060A068B8B1FFF772FD00900FE040
:1017C000306840F00100F4E740F004003060F7E7D3
:1017D000FFF766FD0099411A41F28830814266D8D0
:1017E00030688007F4D50EE0FFF75AFD009007E05F
:1017F000FFF756FD0099411A41F28830814256D8D0
:1018000030688007F4D42FB1DBF8001021F080514C
:10181000CBF80010A069C8B33D49091D0968C1F3A0
:10182000810102294AD00228504607D0C8F860003A
:1018300000E03CE0FFF734FD04463BE04746C8F8D3
:101840006000FFF72DFD064605E000BFFFF728FD0D
:10185000801B02282BD828688001F7D4D4E907011F
:101860000843A16A2E4A490802EB0141626A41EA33
:101870008211084394F82C1040EA0161C9F8001065
:1018800001203866FFF70CFD044606E03EE000BF8D
:10189000FFF706FD001B022809D828688001F7D54C
:1018A00034E000BFFFF7FCFC001B022802D9032034
:1018B000BDE8F88F28688001F4D427E00128F7D02C
:1018C000D9F80000E26900F4800191421CD1226A3B
:1018D00000F03F01914217D147F6C071626A0140A2
:1018E000B1EB821F10D1A26A4FF0FF3300F44031F8
:1018F00003EB5202B1EB024F06D194F82C1000F02A
:101900007060B0EB016F01D00120D1E70020CFE77C
:101910000438024000004742800E474200700040F9
:101920000000FFFF10B5401EB0F1807F01D3012001
:1019300010BD4FF0E02460610F21601700F051FFEF
:101940000020A06107202061002010BD7047704773
:1019500070B590F83C20012A32D0012480F83C4038
:10196000022280F83D2003685A689D6822F07006C4
:101970000A6832435A60134B02689A4214D0B2F19B
:10198000804F11D0104B9A420ED0104B9A420BD080
:101990000F4B9A4208D00F4B9A4205D00E4B9A42F9
:1019A00002D00E4B9A4204D1496825F080031943B6
:1019B000916080F83D40002180F83C10084670BDE1
:1019C000022070BD000001400004004000080040FB
:1019D000000C00400004014000400140001800409D
:1019E00010B5040003D094F83D0010B107E00120C9
:1019F00010BD002084F83C00204600F01FF80220B3
:101A000084F83D00211D206800F032FD012084F89B
:101A1000460084F83E0084F83F0084F8400084F8D3
:101A2000410084F8420084F8430084F8440084F8BC
:101A3000450084F83D00002010BD000008B5006896
:101A40000B49884212D10B48016841F00101016045
:101A50000068002200F00100009011461920FFF7F5
:101A60008DFCBDE808401920FFF77ABC08BD0000D6
:101A7000000001404438024090F83D10012901D097
:101A800001207047022180F83D100168CA6842F0C9
:101A90000102CA6000681149884214D0B0F1804F39
:101AA00011D00F4988420ED00E4988420BD00E4902
:101AB000884208D00D49884205D00D49884202D09D
:101AC0000C49884204D1816801F00701062903D03E
:101AD000016841F0010101600020704700000140F1
:101AE0000004004000080040000C004000040140D9
:101AF000004001400018004070B5044690F83C00DA
:101B00000025012817D0012684F83C60022084F8C3
:101B10003D002068826822F0770222F47F428260D2
:101B20000868502838D00DDC20284FD005DC90B351
:101B3000102811D14AE0022070BD302846D040283C
:101B40000AD13BE060282FD070280DD0B0F5805F1F
:101B500003D0B0F5005F12D0012584F83D6000206D
:101B600084F83C00284670BDCB68D1E9012120688B
:101B700000F0E6FC2068816841F0770109E0CB685D
:101B8000D1E90121206800F0DBFC2068816841F484
:101B900080418160E1E719E0CA684968206800F087
:101BA000E1FC5021206806E0CA684968206800F01E
:101BB000EAFC6021206800F0CDFCCEE7CA684968E5
:101BC000206800F0CFFC40212068F4E7226801463D
:101BD0001046F0E770472DE9F04104460068C668FA
:101BE00005694FF00007A90713D5B10711D5F91EF4
:101BF000016101202077206880698007204602D09B
:101C0000FFF7E8FF04E000F07EF8204600F07CF8E3
:101C10002777680716D5700714D521686FF0040080
:101C20000861022020772068806910F4407F2046F8
:101C300002D0FFF7CFFF04E000F065F8204600F087
:101C400063F82777280715D5300713D521686FF07B
:101C500008000861042020772068C06980072046BA
:101C600002D0FFF7B7FF04E000F04DF8204600F087
:101C70004BF82777E80616D5F00614D521686FF0E3
:101C800010000861082020772068C06910F4407FA8
:101C9000204602D0FFF79EFF04E000F034F8204613
:101CA00000F032F82777E80708D0F00706D021685F
:101CB0006FF001000861204600F028F8280608D5DA
:101CC000300606D521686FF0800008612046FFF7D6
:101CD0003DFE680608D5700606D521686FF0400005
:101CE0000861204600F01CF8A8060AD5B00608D501
:101CF00021686FF0200008612046BDE8F041FFF741
:101D000026BEBDE8F08170477047000000680349B7
:101D1000884201D100F032BB704700000000014052
:101D20007047704770470000F8B5016804460868BE
:101D3000CA684B6910F00F0F4FF0000559D003F03F
:101D4000010602F49077374365D0C10705D0D1056D
:101D500003D5616C41F001016164410705D5D907E4
:101D600003D0616C41F002016164810705D5D90798
:101D700003D0616C41F004016164010707D502F0F2
:101D80002001314303D0616C41F008016164616C52
:101D900000293AD0800604D5900602D5204600F0EE
:101DA00032FC20684069616CC0F38010090700D4E0
:101DB00060B3204600F000FC20684069400621D551
:101DC0002068143050E8001F21F0400140E8001264
:101DD000002AF5D1E06BA8B172490165E06BFFF70D
:101DE0001BF8002811D0E06B016D01B0BDE8F04098
:101DF000084783060FD593060DD52046BDE8F84069
:101E000000F001BC2046FFF78DFFF8BD2046FFF72C
:101E100089FF6564F8BD266B2023012E7ED1C6069E
:101E20007CD5D6067AD508684868009048694FF096
:101E3000020640064DD5E26B106840684FF480778B
:101E40000004000C3AD0A18D814237D9E085D069D9
:101E5000B8422DD020680C3050E8001F21F480716A
:101E600040E80012002AF5D12068143050E8001F25
:101E700021F0010140E80012002AF5D12068143059
:101E800050E8001F21F0400140E80012002AF5D17F
:101E900084F84230256320680C3050E8001F21F0A0
:101EA000100140E80012002AF5D1E06BFEF76BFF4D
:101EB0006663A08DE18D401A81B206E0A18D81425A
:101EC000A8D1D069B842A5D166632046FFF729FFA3
:101ED000F8BDA08DE18D401A81B2E08D0028F7D0C9
:101EE0000029F5D020680C3050E8002F22F49072C1
:101EF00040E80027002FF5D12068143050E8002F6B
:101F000022F0010240E80027002FF5D184F842308A
:101F1000256320680C3050E8002F00E006E022F036
:101F2000100240E80023002BF3D1CDE705062BD5A6
:101F3000150629D594F841002128C9D1A068B0F52B
:101F4000805F01D12069B0B1206A411C2162216803
:101F500000784860E08C401E0004000CE084B7D19B
:101F60002068C16821F08001C1602068C16841F02B
:101F70004001C160F8BD206A0088C0F308004860D5
:101F8000206A801C2062E5E74006F3D55006F1D5B3
:101F9000CA68204622F04002CA6084F8413000F04E
:101FA000E8F8F8BDAB25000870B5040004D094F83B
:101FB0004100002510B106E0012070BD84F84050BA
:101FC000204600F023F8242084F841002068C168EE
:101FD00021F40051C160204600F076FB20680169C1
:101FE00021F4904101612068416921F02A01416199
:101FF0002068C16841F40051C1606564202084F804
:10200000410084F842006563002070BD2DE9F04373
:1020100087B0064614216846FEF79DF94F4ADFF85F
:1020200034C135684C4803210223002497024FF441
:102030008069654533D1484D1035D5F800C04CF462
:10204000002CC5F800C02D6805F40025059505682D
:1020500045F001050560006800F0010005908DE87D
:102060001A000820CDE9031069461046FFF720F852
:102070003C4D3B482860C5E90174C5E903496C61E2
:10208000AC61EC612C6228466C62FEF7A7FF08B1D8
:10209000FEF7CFFAF563AE6307B0BDE8F083DFF873
:1020A000C8C06545F8D12C4D1435D5F800C04CF0AA
:1020B000100CC5F800C02D6805F0100505950568E1
:1020C00045F001050560006800F0010005904FF43F
:1020D000C0608DE819000720CDE90310694610465D
:1020E000FEF7E6FF1F4D21486035B8462860C5E978
:1020F0000174C5E903496C61AC61EC612C624F4627
:1021000028466C62FEF76AFF08B1FEF792FAF563A3
:10211000AE63144D1548C0357830E5E8020840201C
:1021200091C5104845F81449C030AC61EC612C628F
:102130006C62FEF753FF08B1FEF77BFAB56300222D
:1021400011462520AE63FFF719F92520FFF708F99E
:10215000A2E70000004C004030380240000002407E
:102160004060024030010020001001404064024005
:1021700070477047FEE700000F4810B50D49016039
:102180000721416000214FF480328160C0E90312D1
:10219000520142610176012242768276C176017750
:1021A0004177FEF7C2FC002803D0BDE81040FEF7DF
:1021B00040BA10BD0068004030000020154808B546
:1021C000016841F480010160016801F4800100911F
:1021D000016841F4001101600068002200F4001061
:1021E000009011460D20FFF7C9F80D20FFF7B8F851
:1021F000002211463A20FFF7C1F83A20FFF7B0F865
:10220000002211464620FFF7B9F8BDE808404620F5
:10221000FFF7A6B8303802400D4808B5016841F014
:1022200080010160016801F080010091016841F0C6
:1022300001010160016801F001010091016841F0B4
:1022400002010160006800F00200009008BD00007B
:102250003038024010B586B000241848009401942C
:10226000029403940494144905940160A721C0E9E1
:1022700001144FF47A71C0E903148021C0E90541CB
:10228000FFF7AEFB08B1FEF7D4F94FF48050009091
:1022900069460A48FFF730FC08B1FEF7CAF9049412
:1022A00004A906480594FFF753FB002801D0FEF768
:1022B000C0F906B010BD0000000001405800002029
:1022C0000C4810B50A4901604FF4E131416000212A
:1022D00081600C22C160C0E904128161C161FFF715
:1022E00063FE002803D0BDE81040FEF7A2B910BD80
:1022F000004C0040A00000200C4810B50A490160C5
:102300004FF4E1314160002181600C22C160C0E9DD
:1023100004128161C161FFF747FE002803D0BDE8C8
:102320001040FEF786B910BD00100140E800002003
:10233000FEE7FEE7704700000648012100F8011B98
:1023400000210160044941604FF480710181891CC2
:10235000418170471C0000203000002006480178B1
:10236000002908D0D0F80110052904D30021C0F8B5
:10237000011000F00FB870471C0000200448D0F88E
:102380000110052902D2491CC0F801107047000055
:102390001C00002007480121082241730C21C18143
:1023A000222101823821418200F10D01401DFEF7FA
:1023B000DBB800001C0000207047FEF777BF00006C
:1023C00030B593B030216846FDF7C5FF14210CA845
:1023D000FDF7C1FF1D480025016841F080510160F3
:1023E000006800F0805011901948016841F4804164
:1023F00001600068022400F48040119001200390E5
:1024000010200490009406940820CDE90750A820DD
:10241000CDE9090404200B906846FFF7CDF808B118
:1024200072B6FEE70CA90F2081E831004FF4A050EE
:102430000F904FF48050109005210CA8FEF7D0FFAC
:10244000002801D072B6FEE713B030BD403802401C
:10245000007000400248016841F47001016070475B
:1024600088ED00E00148FFF7B6BB000058000020EF
:10247000F0B50268274B284D284E294F294C4FF0C4
:10248000804C984209D0604507D0A84205D0B042A0
:1024900003D0B84201D0A04204D122F0700E4A68A5
:1024A00042EA0E0298421BD0604519D0A84217D0CC
:1024B000B04215D0B84213D0A04211D01A4DA84254
:1024C0000ED01A4DA8420BD0194DA84208D0194D74
:1024D000A84205D0184DA84202D0184DA84203D1F9
:1024E00022F44075CA682A434D6922F080022A43CB
:1024F0008D68C5620D688562984201D0A04201D105
:1025000009690163016841F0040101600121416131
:102510000260F0BD000001400004004000080040DF
:10252000000C004000040140004001400044014014
:102530000048014000180040001C004000200040FE
:1025400010B5846842EA032224F47F440A432243FC
:10255000826010BD826822F070020A4342F00701D7
:102560008160704710B5036A046A24F001040462B4
:10257000846924F0F00444EA021423F00A020A43B6
:102580008461026210BD10B5036A046A24F010046D
:102590000462846923F0A00324F4704444EA023204
:1025A00043EA01118261016210BD10B5806B002108
:1025B000C185FFF7B7FB10BD01680C3151E8002F52
:1025C00022F4907241E80023002BF5D10168143108
:1025D00051E8002F22F0010241E80023002BF5D141
:1025E000016B012909D101680C3151E8002F22F05B
:1025F000100241E80023002BF5D1202180F8421081
:1026000000210163704708B590F84210222901D0DB
:10261000022008BD82684FF480539A4201D10169BB
:1026200021B1816A9A421BD04AB10AE00268816AEC
:102630005268C2F308020A80816A891C08E00269B4
:1026400072B10268526802F07F020A70816A491C06
:102650008162C18D491E0904090CC18503D01BE0AC
:1026600002685268F1E70168CA6822F02002CA6075
:102670000168CA6822F48072CA6001684A6922F05F
:1026800001024A61202180F8421000214163026B5F
:10269000012A03D0FFF76CFD002008BD016301682B
:1026A0000C3151E8002F22F0100241E80023002BEA
:1026B000F5D101680A68D20602D50A684968009116
:1026C000818DFFF72EFBE7E770B5044600680169CE
:1026D000E26821F44051114301612169A068E26977
:1026E00008436169114308432168CA6849F20C63D1
:1026F0009A430243CA6020684169A26921F440718B
:102700001143416131492068884202D030498842F2
:1027100002D1FEF70FFF01E0FEF7FCFEE2690023A5
:10272000192164253226B2F5004F626828D0A0FB3B
:102730000101930F9200FDF797FD0146B0FBF5F004
:102740006FF01802504301EB800006EB0010B0FB65
:10275000F5F000F0F002B1FBF5F002EB0012B1FB76
:10276000F5F06FF01803584301EB800006EB001002
:10277000B0FBF5F000F00F0021681044886070BDD8
:10278000A0FB010192185B41FDF76EFD0146B0FB15
:10279000F5F00201B1FBF5F06FF01803584301EBBF
:1027A000800006EBC000B0FBF5F000F0F80002EB93
:1027B0004002B1FBF5F0584301EB800006EBC0008E
:1027C000B0FBF5F000F00700D6E700000010014074
:1027D000001401400148FFF7A7BA0000E8000020FC
:1027E000FEE70907090E002804DB00F1E02080F86D
:1027F0000014704700F00F0000F1E02080F8141D75
:102800007047FEF75BFDFFF7DBFDFFF705FDFFF708
:10281000D5FCFFF771FDFFF753FDFFF7ADFCFFF7A8
:1028200019FDFDF707FEFCE74FF04070E1EE100ADE
:102830007047000610160006101600000000000089
:10284000000001020304060708090000000001025D
:102850000304000074280008000000201C00000091
:10286000C4010008902800081C0000209408000003
:10287000E00100080000000000000000000000006F
:102880000100000010000000000000000024F4001F
:040000050800018965
:00000001FF
