:020000040800F2
:10000000B80D0020A10100084D4500085F3E000822
:1000100009450008C31000089D52000800000000B8
:10002000000000000000000000000000B1480008CF
:10003000F7170008000000004F450008154B0008A6
:10004000BB010008BB010008BB010008BB010008A0
:10005000BB010008BB010008BB010008BB01000890
:10006000BB010008BB010008BB010008BB01000880
:1000700011170008BB010008BB010008BB01000804
:10008000BB010008BB010008BB010008BB01000860
:10009000511100085D110008BB010008BB010008F8
:1000A000BB010008BD4B0008BB010008BB010008F4
:1000B000BB010008BB010008BB010008BB01000830
:1000C000BB010008BB010008BB010008BB01000820
:1000D000BB01000879520008BB01000885520008E6
:1000E000BB010008BB010008BB010008BB01000800
:1000F000BB010008BB010008BB010008BB010008F0
:10010000BB010008BB010008BB010008BB010008DF
:10011000BB010008BB010008BB010008BB010008CF
:10012000BB0100081D17000829170008BB010008C3
:10013000BB010008BB010008BB010008BB010008AF
:100140006911000875110008BB010008BB01000817
:10015000BB0100083517000841170008915200083C
:10016000BB010008BB010008BB010008BB0100087F
:10017000BB010008BB010008BB0100080000000033
:10018000BB010008BB010008DFF810D000F0FAFC4A
:1001900000480047EB5A0008AFF30080B80D00207C
:1001A0000648804706480047FEE7FEE7FEE7FEE711
:1001B000FEE7FEE7FEE7FEE7FEE7FEE7AD4B0008E1
:1001C000890100082DE9F05F0546002092469B4614
:1001D00088460646814640241BE02846414647465D
:1001E000224600F0D6FB53465A46C01A914110D31E
:1001F00011461846224600F0BDFB2D1A67EB010898
:100200004F4622460120002100F0B4FB17EB000905
:100210004E41201EA4F10104DFDC484631462A4647
:100220004346BDE8F09FD2B201E000F8012B491E21
:10023000FBD270470022F6E710B513460A46044683
:100240001946FFF7F0FF204610BD00000FB400B5BF
:100250008DB010A909900B9000914FF0FF300A90DB
:1002600000200C9005480690054807906A4609A8AA
:100270000F9900F0B7FB0DB05DF814FB010A000800
:100280001F0A00082DE9FF4F087883B09946FF2820
:1002900005D0491C2D2804D00024002008E00020AF
:1002A0000BE00124F9E700EB800003EB4000491C60
:1002B0000B78FF2BF7D104B140420023029314784E
:1002C00019461D462D2C01D02B2C04D1521C2D2C4F
:1002D00013D000240294AA461478FF2C0FD00A25CC
:1002E000A3FB057801FB05814FF0000C03FB0C110B
:1002F000521CE3194AEB0101EEE70124EAE78144CD
:1003000053EA010002D019F5C87F06DA03980021EC
:10031000C0E9001107B0BDE8F08F0025AE4E2F46B2
:10032000DFF8B882184600F01FFCCDE90001B9F1F2
:10033000000002DAC9F1000400E004460023A74AE5
:100340001AEB030B42EB045A12E0E00707D02A46EF
:1003500033463846414600F0ECF9074688462A46BF
:1003600033461046194600F0E4F905460E4664107F
:10037000002CEAD1DDE90001B9F1000F5A465346DD
:1003800006DA00F048FA3A46434600F044FA05E03F
:1003900000F0CFF93A46434600F0CBF9029A0AB191
:1003A00081F00041039AC2E90001B3E72DE9FF4F54
:1003B0001F468DB0D7E901464FF0FF382E20454645
:1003C0004FF000090B90B9696D1C0E988847396A87
:1003D000824688470028F6D1BAF1FF3F0AD024F4BC
:1003E000D064002E11DDBAF12B0F08D0BAF12D0F19
:1003F0000BD102E0404611B08DE744F48064B96946
:100400006D1C0E9888478246761E6946600501D5A8
:100410002D2000E02B208DF8000001F1010B0DF1E3
:10042000200809E0B9696D1C0E98884782460F982C
:1004300044F40074761E0560002E02DDBAF1300F20
:10044000F0D00B998A453ED144F0800406E00F9924
:10045000681CA9F1010944F400740860B9696D1CB5
:10046000761E0E98884782463028F0D02BE00B99F4
:100470008A4505D1200603D444F08004761E18E096
:10048000504605F02BFB08B30DF11301761E44F422
:1004900000748B4508D2AAF130000BF8010B20063E
:1004A00007D5A9F1010003E0200602D409F10100FB
:1004B0008146A00502D50F99681C0860B9696D1CBA
:1004C0000E9888478246002ED1DC53E0002E51DD85
:1004D000BAF1650F02D0BAF1450F4BD1A00549D54D
:1004E000B9696D1C24F44074761E0E9888478246C4
:1004F000002E0CDD2B2804D0BAF12D0F07D144F4C7
:100500008074B9696D1C0E9888478246761EE00596
:1005100001D52D2100E02B2108F8011BCDF82C80FE
:1005200021E00DF12901761E44F4007488450CD2B7
:10053000AAF1300010F0FF0088F8000002D10B99FA
:10054000884509D908F1010806E0E00501D52448ED
:1005500001E042F20F708146B9696D1C0E98884720
:1005600082460F980560002E04DD504605F0B6FA6D
:100570000028D6D1F9690E988847FF208BF8000033
:1005800088F800000020069007904B466A4608A9AC
:1005900006A8FFF777FEA00502D46FF001002AE756
:1005A00014F0240F0AD0E00714D1DDE906123868F0
:1005B000031D3B600068C0E900120BE0DDE90601A5
:1005C00000F0BCF90146E00704D13868021D3A602A
:1005D0000068016028460EE7000014400000F03F6C
:1005E000F1D8FFFF2DE9FE4F804681EA0300C00FDE
:1005F0000C46009021F0004123F00045B8EB0200CA
:10060000A94105D24046214690461C460B4602466B
:1006100023F00040104347D0270DC7F30A00C3F36F
:100620000A510290401A019040286BDAC3F313007C
:1006300040F4801B0098924620B10023D2EB030ABD
:1006400063EB0B0B01985946C0F14002504600F095
:1006500091F906460D4650465946019A00F0A9F90F
:1006600010EB08006141002487EA115284EAE77325
:100670001A4340D0009A62B3019A012A4FEA075206
:1006800015DC001B61EB02014FF0004202EA075249
:10069000CDE90042001C41F5801132462B4600F0A6
:1006A00015FA03B0BDE8F08F40462146F9E7001B7C
:1006B00061EB0201001C41F5801300185B4120181A
:1006C000A2F5001747EB030140EAD570B6196D415A
:1006D00011E06D084FEA360645EAC0754FEA075249
:1006E000001B61EB0201001C41F5801149084FEA33
:1006F00030000019514132462B4603B0BDE8F04F9F
:1007000000F0D5B90098012240000023D0EB02028E
:1007100063EBE073009821464FEAE074B8EB000009
:1007200061EB0401E9E783F000435BE781F00041FE
:1007300058E72DE9FE4F81EA030404F0004421F05C
:10074000004100944FF0000B23F0004350EA0104F5
:100750005ED052EA03045BD0C3F30A54C1F30A55D6
:100760002C44A4F2F3340194A0FB0254C1F313010E
:1007700041F48011C3F3130343F4801301FB0244DB
:1007800000FB034E840A970A44EA815447EA8357E0
:10079000A4FB076802958D0A05FB07854FEA932C99
:1007A00004FB0C542705029D4FEA065847EA16370A
:1007B000B5EB08056EEB070C870E920E47EA811722
:1007C00042EA8312A7FB0201B6EB0B0164EB0004C3
:1007D0002B0D43EA0C335E1844EB1C50DA465146AD
:1007E000E7FB0201C5F313044FEA0B3343EA14534A
:1007F0004FEA0432019C43EA0603A4F10C0402947C
:10080000009CCDE900B400F061F903B0BDE8F08FC1
:1008100000200146F9E72DE9F04D81EA030404F0D8
:10082000004B21F0004514464FF0000A23F0004130
:1008300050EA050220D054EA01021DD0C5F30A5740
:100840000246C5F31303C1F31300C1F30A5640F483
:10085000801543F48013A7EB0608101BD64608F258
:10086000FD3873EB050002D308F1010801E092188E
:100870005B41B8F1000F03DA00200146BDE8F08DBE
:1008800000204FF48011064684460EE0171B73EBE0
:10089000050705D3121B63EB050306434CEA010C65
:1008A00049084FEA300092185B4150EA0107EDD148
:1008B00052EA030012D082EA040083EA05010843E9
:1008C00005D0101BAB4106D20122002306E0002216
:1008D0004FF0004302E06FF0010253101AEB0600E4
:1008E0004CEB085110EB0A0041EB0B01BDE8F04D59
:1008F00000F0DDB80EB5C10F80EAE0700844CA0709
:10090000002140F233438DE80E000A460B4600F00A
:10091000DDF803B000BD00F0004230F000400AD026
:10092000C10D01F56071C0F3160042EA0151C20821
:1009300040071143704700200146704701F0004313
:1009400030B421F0004150EA010206D00A0DA2F5B0
:100950006072C1F31301002A02DC30BC0020704732
:10096000440F44EAC104C100E01830BC00EBC2509F
:1009700000F066B8202A04DB203A00FA02F10020D9
:1009800070479140C2F1200320FA03F319439040CD
:100990007047202A04DB203A21FA02F00021704738
:1009A00021FA02F3D040C2F12002914008431946D7
:1009B0007047202A06DBCB17203A41FA02F043EABF
:1009C000E07306E041FA02F3D040C2F12002914008
:1009D000084319467047000002681144137801600B
:1009E00018467047D16004495161044911620021E1
:1009F0001161114600F0DEB8D9090008A90B000802
:100A0000426842B1016811F8013B23B1521EC0E9AE
:100A10000012184670470121C160881E7047426865
:100A20005AB1C368016843B983688B4205D0491E37
:100A3000521CC0E90012002070474FF0FF30704791
:100A40000029A8BF7047401C490008BF20F00100E2
:100A5000704710B4B0FA80FC00FA0CF050EA0104C0
:100A600004BF10BC704749B1CCF1200421FA04F452
:100A700011FA0CF118BF012121430843A3EB0C012B
:100A8000CB1D4FEA00614FEA102042BF002010BC8E
:100A9000704700EBC35010440029A4BF10BC70473E
:100AA000401C490008BF20F0010010BC704710B581
:100AB000141E73F1000408DA401C41F10001921881
:100AC0005B411A4301D120F0010010BD2DE9F04D2A
:100AD00092469B4611B1B1FA81F202E0B0FA80F27F
:100AE00020329046FFF746FF04460F4640EA0A00D0
:100AF00041EA0B0153465A46084313D0114653EAC4
:100B0000010019D0C8F140025046FFF742FF0546E8
:100B10000E46504659464246FFF72CFF084305D083
:100B2000012004E020463946BDE8F08D0020054351
:100B300046EAE0762C4337430A986305E40AA0EBC3
:100B400008000022FD0A44EA47540A3002D500207A
:100B50000146E9E7010510196941DDE90845001979
:100B60006941BDE8F04DA2E70EB540F23342029272
:100B70000022CDE900221346FFF7A8FF03B000BD15
:100B800000207047064C074D06E0E06840F0010386
:100B900094E8070098471034AC42F6D3FFF7F8FA10
:100BA000DC5C0008FC5C0008C0B24FF4F05100F0BF
:100BB00099B900002DE9F34F8BB04FF0000801F117
:100BC0000C000C464FF0010B46460DF1080A01904F
:100BD0006269012101989047051E2DD0252D2CD04A
:100BE000216A8847C0B16269012101989047216A52
:100BF00088470028F7D1411E62690198904700E0BC
:100C0000761CA1690B988847216A88470028F7D18C
:100C1000E1690B988847DBE7A1690B98884707468D
:100C2000A84201D1761CD3E7E1690B9888477F1C65
:100C300002D1B8F1000F6FD047E1002762693D464D
:100C40003946019890472A2804D162690121019808
:100C500090470125DFF88892626901210198904749
:100C6000A0F130010A290AD24F45E5DC07EB8701E4
:100C700000EB4107303FDFD445F01005ECE7E90613
:100C800001D46FF000476C280AD04C2814D0682893
:100C900015D06A280DD074281CD07A281AD01DE0EF
:100CA00062690121019890476C2802D045F0040543
:100CB00014E045F002050DE045F020050AE0626908
:100CC000012101989047682802D045F0080505E009
:100CD00045F400656269012101989047C4E9015714
:100CE00065283DD019DC58287AD00CDC452837D04F
:100CF00004DC252826D0412831D131E046282FD0E8
:100D000047282CD12CE05B2877D0612828D0632895
:100D10007CD0642823D15AE0D1E06F2848D008DC89
:100D200066281DD067281BD0692821D06E2816D1CF
:100D300027E0702845D0732868D0752847D07828D8
:100D40000DD14DE0A1690B988847054625283FF451
:100D500069AFE1690B9888476D1C3FF46AAFB4E056
:100D600023466A466FF001000B99FFF71FFB9FE0D7
:100D700045F040006060A80723464FF0000236D4DB
:100D80003EE0E8077FF447AF2068011D216000685E
:100D9000290501D506701BE7290701D5068017E74D
:100DA000A90703D5F117C0E9006111E706600FE755
:100DB00045F040006060A80723464FF0080216D4B3
:100DC0001EE040F60E0125EA0100606016E045F0E5
:100DD00040006060A80723464FF00A0207D40FE0E6
:100DE00045F040006060A80708D5234610226FF048
:100DF00001000B99AFF300805AE007E02346102270
:100E00006FF001000B99AFF3008051E04FF0000943
:100E10004F464B46632802D05B2807D041E020793B
:100E2000C00601D40120A06001273AE062690121D7
:100E3000019890475E2805D14FF001096269494643
:100E400001989047216939B900210A46534643F871
:100E50002120491C0829FADBB0B3216969B9C117FF
:100E600000EBD16253110AEB830122F01F02821AB8
:100E700001200B68904003430B60626901210198D7
:100E800090475D28E8D1B9F1000F09D00020514604
:100E900051F82020D24341F82020401C0828F7DBDD
:100EA00002AB224600976FF001000B99AFF3008070
:100EB00000280CDA401C08D1BBF1000F05D04FF020
:100EC000FF300DB0BDE8F08FFFE74046F9E7E907D6
:100ED00001D108F1010806444FF0000B78E600004C
:100EE000CCCCCC0C7F2801D9002208E0064A02EBCA
:100EF0005002C007127800D1120902F00F0201203F
:100F000090400840704700009C5C000800280CD00E
:100F1000017A002909D0016800EE901AF4EEC00AA7
:100F2000F1EE10FA02DD00EE101A7047406800EE94
:100F3000900AF4EEC00AF1EE10FAF6D200EE100AB2
:100F4000704700280AD010EE102A026010EE902A96
:100F5000426011EE102AC0F8092001727047002883
:100F600005D0002210EE101A0260416082607047C6
:100F700010B500F06BF800F09DF800F0A1F800F05B
:100F800099FC0C4800F0B2FB02F092FF03F06EF8FF
:100F900000F0B6F800F001F9074803F0B7FA00F0E6
:100FA00009FD03F049FD03F08FFBBDE8104003F09D
:100FB00059BC0000D6050020C40500202DE9F041F1
:100FC000204D0226012728781F4C042835D2DFE85F
:100FD00000F0020408292F702FE0FFF7C9FF2E70E0
:100FE0002BE0194800F004FC002670B103F044FC2B
:100FF00000F058FD03F06AFD44F8316F84F8047086
:1010000003F04EF800F088F817E0D4F83100401CE7
:10101000C4F831000A28F3D90320287044F8316F4E
:101020002671EDE7084800F0E3FB10B12E7084F85C
:10103000357002F0FFFF00F045F8BDE8F04103F025
:101040004DBB000000000020D605002010B5084868
:1010500001F01CFA0221064800F033FE054801F0B9
:1010600015FABDE810400221024800F02ABE000037
:10107000200600204806002000B58BB0017A0591BB
:10108000002106910121079130F8021F009130F8EC
:10109000021C01918188029141880391C1680491E9
:1010A000C1790991016908918068694600F084FE60
:1010B0000BB000BD014802F0FBB800007006002034
:1010C0007047FEE70C4810B50178002913D041683D
:1010D000B1F5FA7F0FD300214160001F0278012A89
:1010E00005D00023054C2468E36312B102E00A2313
:1010F000F8E70121017010BD5C000020B806002057
:101100000349012008700821024802F0D9BA000002
:101110005C000020B806002006480178002908D0AD
:101120004168B1F5FA7F04D30021416002480068AC
:10113000C16370475C000020B80600200348416886
:10114000B1F5FA7F01D2491C416070475C00002074
:10115000014800F032BF000020060020014800F0E6
:101160002CBF000020060020014800F026BF000030
:1011700048060020014800F020BF0000480600207B
:101180000A88098A808892B289B2904201D10829DE
:1011900001D0012070470020704700F001B8000026
:1011A00000B587B0BDF8020000F01F00ADF80200E6
:1011B00014480099014000919DF8001021F00601AB
:1011C0008DF80010BDF8061001F01F01ADF80610F3
:1011D0000199014001919DF8040040F006008DF84E
:1011E00004000E208DF808000748CDF80A00002002
:1011F000CDF80E000120CDF812006846FFF73CFF45
:1012000007B000BD0700E0FF4806002000B587B02A
:10121000012306938388009300230293CDE90332D0
:101220008DF814300A46006806AB694600F05BFD95
:1012300007B000BDF0B50388002441F221060DE09F
:101240000D5D83EA052300251F0402D586EA4303CA
:1012500000E05B006D1C082DF6D3641C9442EFD3B4
:101260000380F0BD00280DD000F8011B10EE101A0D
:10127000016010EE901A416011EE101A816011EEBB
:10128000901AC160704710EE100AB0F17E5F02DD67
:10129000B7EE000A06E010EE100A10F1814F01D9F6
:1012A000BFEE000A20EE001A21EE000A20EE200A0E
:1012B00070470000F0EEC01AF4EEE01AF1EE10FAFA
:1012C00002D29FED120A7047B7EE002AB5EEC00AAF
:1012D00072EE602AF1EE10FA02DD30EE600A01E0F3
:1012E00030EE200AC0EE221A11EE900AB0F17E5FB5
:1012F00002DDF0EE421A06E011EE900A10F1814F85
:1013000001D9FFEE001A21EE810A704700000000AB
:1013100010EE100AF7EE001AB0F17E5F02DDB0EEBB
:10132000610A06E010EE100A10F1814F01D9BFEEFC
:10133000000A71EEE01A60EE800A40EE801A21EE9B
:10134000800A20EE010A704710B510EE100A2DED4C
:10135000028BB0EE418AB0F17E5F02DDB7EE000A8B
:1013600006E010EE100A10F1814F01D9BFEE000A1D
:10137000B5EEC00AF1EE10FA02DBF7EE008A01E0EA
:10138000FFEE008AB0EEC00A04F01CF820EE280A36
:1013900020EE080ABDEC028B10BD10EE100AB0F171
:1013A0007E5F02DDB7EE000A06E010EE100A10F1D3
:1013B000814F01D9BFEE000A20EE200A70470028B5
:1013C00044D00178092941D2DFE801F0050B114032
:1013D000171D272D3600D0F8090000EE900AFFF700
:1013E000DCBFD0F8090000EE900A00F04FB8D0F84A
:1013F000090000EE900AFFF746BFD0F8090000EEA2
:10140000900A00F08BB8D0F80910D0F8010001EE76
:10141000101A00EE900AFFF797BFD0F8090000EE0F
:10142000900A00F053B850F8091F406801EE101AF6
:1014300000EE900AFFF73EBFD0F80510D0F801008B
:1014400001EE101A00EE900AFFF762BF704700002D
:10145000002817D0D0F80D1000EE901AF5EEC00A53
:10146000F1EE10FA0CDDF0EE400AB0EEE01A00EEFC
:10147000901AB4EEE01AF1EE10FA01D29FED020AD2
:10148000FFF79DBF704700000000000010EE100A3B
:10149000B0F17E5F02DDB7EE000A06E010EE100A42
:1014A00010F1814F01D9BFEE000AB5EEC00AF1EE8E
:1014B00010FA02DBB7EE001A01E0BFEE001A21EECF
:1014C000001A21EE000A20EE200A704710EE100AE2
:1014D000B0F17E5F02DDB7EE000A06E010EE100A02
:1014E00010F1814F01D9BFEE000AF0EE001AB5EEFF
:1014F000C00AF1EE10FA02DBB0EE081A01E0B8EE15
:10150000081A60EE211A20EE011A61EE801A21EE0F
:10151000001A01EEC01A21EE200A704710B510EE35
:10152000100A2DED028BB0EE608AB0F17E5F02DD15
:10153000B7EE000A06E010EE100A10F1814F01D953
:10154000BFEE000AB5EEC00AF1EE10FA02DBF7EECC
:10155000008A01E0FFEE008AB0EEC00A04F064FAEF
:1015600020EE280A20EE080ABDEC028B10BD000018
:101570002DE9F05F0D002DED068B04467DD0122A7B
:101580007BD12888C0F30A0020806978AA78C9082E
:1015900041EA4211C1F30A0161808B46A978EA78D9
:1015A000890941EA82012A79A0F5B67041EA8221CF
:1015B000C1F30A01A180884629796A79490841EA7C
:1015C000C211C1F30A07E7802E8A26816979890949
:1015D000A1728A466979C1F30111E1728946FFF768
:1015E00089F99FED3C8B53EC182BFFF7A2F89FED88
:1015F0003B9B53EC192BFFF70EF99FED3AAB53ECE5
:101600001A2BFFF790F8FFF799F9E060ABF5B67089
:10161000FFF770F953EC182BFFF78BF853EC192BED
:10162000FFF7F9F853EC1A2BFFF77DF8FFF786F96F
:101630002061A8F5B670FFF75DF953EC182BFFF7A2
:1016400078F853EC192BFFF7E6F853EC1A2BFFF759
:101650006AF8FFF773F96061A7F5B670FFF74AF90A
:1016600053EC182BFFF765F853EC192BFFF7D3F861
:1016700053EC1A2BFFF757F800E027E0FFF75EF96D
:10168000A061A6F5B670FFF735F953EC182BFFF7FC
:1016900050F853EC192BFFF7BEF853EC1A2BFFF759
:1016A00042F8FFF74BF9E06184F820A084F821901C
:1016B000E88860842889A0842889E084287B84F8CD
:1016C0002800687B84F82900E8896085BDEC068BDA
:1016D000BDE8F09F00000000000000400000000096
:1016E00000A09440000000000000F03F10B500F1A1
:1016F00036011222044802F06AF8044800680168C2
:1017000021F00801016010BD480700209808002062
:10171000014800F049BF000098080020014800F08F
:1017200043BF0000F8080020014800F03DBF000062
:10173000D8070020014800F037BF000058090020FA
:10174000014800F031BF000038080020016818236C
:10175000CAB2103AB2FBF3F2054B6FF30901032A48
:101760009B5CC36500D9091D816508467047000070
:101770003C5B000810B5014600208B698A6A4FF077
:10178000C07453B1B3F5005F15D072B1012A0CD00B
:10179000022A0AD0032A09D104E01AB1012A06D08C
:1017A000022A03D1C96AC90100D5012010BDC96A46
:1017B000A142FAD010BD002AF7D0012AF2D0022AA5
:1017C000F3D0032AF3D010BD30B50468256825F4A2
:1017D00080252560046863608368402B036803D01C
:1017E00099600068C26030BD9A600068C16030BD19
:1017F00090F82D0070477047F0B54488038865BAAB
:10180000848886791848C1EB0111084402EB420133
:1018100050F80A7F0B225BBA02EB810200EE103A0D
:10182000BE540368B8EE400A012606EB810610EEAE
:10183000102A64BA334424B21A6000EE104A0268D7
:10184000052303EB8103B8EEC00A1A44DFED070A53
:101850001580006820EE200A072303EB810110EEBB
:10186000102A08440260F0BD2F00002000008038DC
:1018700030B514460A46014610880D4AC1EB0113E3
:1018800013441D899A7B401B401E80B2451C954223
:1018900001D9012030BDD3F80A3000EB4005012208
:1018A00003F82520C2B22046FFF7A6FF002030BD76
:1018B0002F000020AFF3008000B587B0BDF8020014
:1018C00000F01F00ADF8020014480099014000919B
:1018D0009DF8001021F006018DF80010BDF80610EB
:1018E00001F01F01ADF806100199014001919DF82A
:1018F00004000B4940F006008DF8040000208DF82C
:101900000800CDF80A10CDF80E000120CDF8120025
:101910006846FFF7B1FB07B000BD00000700E0FF1D
:101920002006002070B58AB001260896C0EB00168C
:101930001448DDE90E54304400EB410189880291DE
:1019400000210491059108210691110A8DF80010DB
:101950008DF80120190A8DF80210290A8DF804105B
:101960008DF80550210A8DF806108DF803308DF89A
:101970000740006808AB6A4602A900F0B4F90AB053
:1019800070BD00002F00002010B50446FFF7F0FDE9
:101990002046FFF7ABFE3220C4F82D0010BDD0F872
:1019A0002D10002902D0491EC0F82D10704772B6C4
:1019B000FEE7000010B5274901202DED028B0870CD
:1019C00001F11500044602F05DFE9FED248ADFED73
:1019D000228AB3EE040AF0EE481AB0EE682AB0EE9E
:1019E000481AF0EE480A204602F05CFE19484A30D8
:1019F000044602F047FEB0EE682AF0EE481AB0EE58
:101A0000481AF0EE480AB3EE0E0A204602F04AFEEB
:101A10001048F0EE481A9FED121AF0EE480AB0EEA8
:101A2000480A0321A830FFF71DFC0A489FED0D0A64
:101A30008F30FFF794FABDEC028B01210548BDE819
:101A40001040B2EE041AFBEE0E0A9FED070A9B301F
:101A5000FFF777BA9500002000409C460000000088
:101A6000CDCC4C3F0000B4420000B4C20A489FED08
:101A70000C1A806900EE100A0848C16800EE901A3E
:101A8000F8EEE00A40EE010ABDEEE00A10EE101A90
:101A9000C16002F02DBB0000D6050020C405002067
:101AA0000000C8420A4810B5017800290ED0D0F8CD
:101AB000011000290AD00021C0F8011000F0ACF894
:101AC000FFF7D4FFBDE8104000F056B810BD00008D
:101AD000950000200448D0F80110002902D101210E
:101AE000C0F80110704700009500002010B5416853
:101AF00030EE200A00EE901A164A30EEC00ADFEDF2
:101B0000160A10EE101A914201DD30EE600A134AF7
:101B100010EE101A914201D930EE200ADFED100AC2
:101B2000453060EE200A9FED0F0A02F011FD10EE25
:101B3000100A0E4ADFED0C0A0D49904202DDB0EEAC
:101B4000600A10BD10EE100A8842FAD99FED090A0A
:101B500010BD0000000034430000B443000034C353
:101B6000B005B6410000000000409C4500409C4587
:101B700000409CC500409CC510B524482DED028B4B
:101B800082B09FED218AB0EE480AFFF761FC9FED1D
:101B9000201ADFED200A1D4840EE410A0D38B0EE54
:101BA000600AFFF7B3F9194C10EE101AA83CF0EEDA
:101BB000480AC4F80D1000EE101A601DFFF796FFDA
:101BC000BDEEC00A10EE100A01B2A4F80710601DA5
:101BD00000F064F800EE100A00210B46B8EEC00ACF
:101BE00010EE100AC4F8460000EE100A00910846F4
:101BF000BDEEC00A019110EE102AFFF793FE02B06D
:101C0000BDEC028B10BD0000000000003D01002073
:101C100000003443000070C210B51648164C2DED7C
:101C2000068BD0F80A00B0F8051024F8051FD0F88C
:101C30000100FEF770FE9FED111B9FED128B9FEDD3
:101C4000139B9FED14AB53EC112BFEF76CFD53EC83
:101C50001A2BFEF76EFD53EC182BFEF7DCFD53EC50
:101C6000192BFEF7BFFCFEF769FE6060BDEC068B2A
:101C700010BD00002F000020950000200000000093
:101C8000000000000000000000FFBF400000000056
:101C9000008066C0000000000080764010B530F97A
:101CA000102B00EE102AF8EEC00A00EE101AB8EE63
:101CB000C00A02F04DFCBDEEC00A10EE100A00B2E0
:101CC00010BD90F82020012A07D0022A05D0416AD1
:101CD00041F48021416201207047006842690A4353
:101CE000426100207047F0B590F820500468A46865
:101CF000012D05D0022D03D0416A41F4802157E027
:101D000014F0406F01D1E5004FD5C4F30164012503
:101D1000A5401D608D684FF4C0739DB1CE683543FA
:101D20004E6845EAC605066803EB0417F5514FF403
:101D3000C275076805EB04150E697E51097D0129FE
:101D400005D009E00E88CD6845EA4655EBE7016805
:101D50004E5946F480764E511179D579567941EA3B
:101D6000056195792D0445EA062529434FF4C67689
:101D7000056806EB0416A9511178D57841EA05618A
:101D8000957852782D0445EA022211434FF4C47528
:101D9000026805EB04155151006803EB0411425829
:101DA00042F0010242500020F0BD416A41F40011AE
:101DB00041620120F0BD000010B590F82020012AFA
:101DC00007D0022A05D0416A41F4802141620120F6
:101DD00010BD3B48D0F8002242F00102C0F80022BA
:101DE000D0F8002222F47C52C0F80022D0F8002261
:101DF0004B6A42EA0322C0F800220A7D02F01F0368
:101E000001229A40D0F81C329343C0F81C32CB69AF
:101E1000B3B9D0F80C329343C0F80C328C894B68BC
:101E200064F31F434C6900EBC404C4F840320C89CE
:101E30000B6864F31F434C6900EBC404C4F84432DC
:101E4000CB69012B16D1D0F80C321343C0F80C32F9
:101E50000C884B6864F31F434C6900EBC404C4F85E
:101E600040320C89CB6864F31F434C6900EBC40417
:101E7000C4F844328B69002BD0F804320ED01343DF
:101E8000C0F804320B69002BD0F8143208D0134389
:101E9000C0F81432096A012904D008E09343EFE73F
:101EA0009343F5E7D0F81C121143C0F81C12D0F888
:101EB000001221F00101C0F80012002010BD000046
:101EC00000640040704770B590F82040012C05D0A8
:101ED000022C03D0416A41F4802128E0046809B350
:101EE0002469A40720D04FF4D874056804EB0114CA
:101EF0002D5915F00405956005682D591AD0ED0887
:101F0000556005682C5904F00204D4604FF4DA746B
:101F1000056804EB01142E5906F00F06082E0CD3A9
:101F200008250DE0E468DCE7416A41F400114162F4
:101F3000012070BD6D0D1560E3E72D5905F00F050B
:101F4000156105682D59C5F30725956105682C595C
:101F5000240C54614FF4DC72046802EB0112A458A3
:101F60001C700468A458240A5C700468A458240CEB
:101F70009C700468A258120EDA704FF4DE72046886
:101F800002EB0112A4581C710468A458240A5C7165
:101F90000468A458240C9C710468A258120EDA71CB
:101FA000006829B1016941F020010161002070BD84
:101FB000C16841F02001C160F8E72DE9F05F0546F6
:101FC000006800244669D0F804908768D0F80CB007
:101FD000D0F810A0D0F81880F10748D0F90714D035
:101FE00001218160B80703D5284600F07CFA0CE097
:101FF000780702D54FF4006407E0380702D54FF4A4
:10200000805402E0284600F06DFAF80516D52968DC
:102010004FF480708860B80503D5284600F065FA53
:102020000CE0780502D544F4005407E0380502D5E9
:1020300044F4804402E0284600F056FAF80316D52E
:1020400029684FF480308860B80303D5284600F033
:102050004EFA0CE0780302D544F4004407E038035C
:1020600002D544F4803402E0284600F03FFA3007FD
:1020700007D55FEACB6004D52968102044F40074CA
:10208000C86070074FF0080707D55FEA0B7004D5EA
:102090002868C760284600F0A9F9B00706D5286867
:1020A000C068800702D0284600F0A2F9700607D564
:1020B0005FEACA6004D52968102044F4806408618E
:1020C000B00607D55FEA0A7004D52868076128467C
:1020D00000F0D8F9F00606D528680069800702D01C
:1020E000284600F0D0F9B00308D55FEAC96005D5ED
:1020F000296810204860284600F0C6F9F00307D58B
:102100005FEA097004D528684760284600F0F0F9B6
:10211000300446D55FEA497040D5F00504D55FEA42
:10212000C87001D044F00104B00504D55FEA88709E
:1021300001D544F00204700504D55FEA487001D56A
:1021400044F00404300529D518F0700F26D008F0AB
:102150007000402815D006DC102809D020280AD0AD
:10216000302816D10AE050280ED0602811D10EE098
:1021700044F008040DE044F010040AE044F02004A8
:1021800007E044F0400404E044F0800401E044F43B
:1021900080742868816921F07001816129680420B8
:1021A0004860002C05D0686A204368622846FFF723
:1021B00089FEBDE8F09F70B5040003D094F82000BC
:1021C00010B104E0012070BD204600F081F82068C5
:1021D000016841F00101016000F070FC0546052630
:1021E00004E000F06BFC401B0A2811D8206840680E
:1021F000C007F6D02068016821F00201016000F0FC
:102200005DFC05460BE000F059FC401B0A2806D98E
:10221000606A40F40030606284F82060D2E7206891
:1022200040688007EFD4207E0128206801683DD0F7
:1022300021F080010160607E01282068016838D0AB
:1022400021F040010160A07E01282068016833D0A0
:1022500021F020010160E07E0128206801682ED075
:1022600041F010010160207F01282068016829D019
:1022700021F008010160607F01282068016824D0F6
:1022800021F004010160D4E902010843D4E90412F9
:10229000114308436168491E08432168C861002052
:1022A0006062012084F82000002070BD41F08001B0
:1022B000C0E741F04001C5E741F02001CAE721F045
:1022C0001001CFE741F00801D4E741F00401D9E75C
:1022D000F0B587B0044614216846FDF7ABFF3E4BCE
:1022E0003E48DFF8F0E01968D4F800C03B4A032507
:1022F0000226092710300024491CF4452AD1196010
:10230000012907D1016841F000710160006800F007
:1023100000700590106840F0080010601068CDE96A
:10232000005600F00800CDE9047069462C48CDE95C
:10233000024500F0BDFA00221146142000F02CFCEA
:10234000142000F01BFC00221146152000F024FC94
:1023500015203AE0DFF88CE0F44538D1D0F800C021
:102360004CF0806CC0F800C0D0F800C001290CF01F
:10237000806CCDF814C0196007D1016841F000717C
:102380000160006800F000700590106840F00200E5
:102390001060106802AB00F0020005906020CDE9EB
:1023A000000683E8B00069460F4800F081FA002279
:1023B0001146402000F0F0FB402000F0DFFB00223F
:1023C0001146412000F0E8FB412000F0D7FB07B0A8
:1023D000F0BD00000064004074000020303802406E
:1023E000000C0240006800400004024070470000FA
:1023F00010B504461D488AB084421ED11C4B02AA67
:1024000000212046FFF75FFD08B1FFF7D0FA184A18
:1024100002A90020FFF72CFA002000900190154837
:1024200000231946D0F8460000EE100A1846BDEE0B
:10243000C00A10EE102AFFF775FA0F48844212D135
:102440000E4B02AA00212046FFF73DFD08B1FFF721
:10245000AEFA0A4A02A90120FFF70AFA074A02A9BE
:102460000748FEF78DFE0AB010BD000020060020D0
:102470006400002095000020480600206C00002029
:1024800009000020704770477047000070B504468F
:1024900090F82000012804D0606A40F400206062B7
:1024A00018E0022084F820002068016821F0010172
:1024B000016000F003FB05460EE000BF00F0FEFAED
:1024C000401B0A2808D9606A40F400306062052089
:1024D00084F82000012070BD20684068C007EDD15D
:1024E000606270BD704770477047704770477047B3
:1024F00070472DE9F0410446876D00F0DFFA06468B
:1025000094F835000025022806D08020606584F804
:1025100034500120BDE8F0812068016821F01601E7
:1025200001602068416921F080014161206C08B997
:10253000A06C20B12068016821F0080101602068CA
:10254000016821F0010101600CE000F0B7FA801B86
:10255000052807D920206065032084F8350084F819
:102560003450D7E720680068C007EED194F85C10BB
:102570003F208840B860012084F8350084F834504A
:102580000020C7E790F83510022903D0802141656B
:1025900001207047052180F835100068016821F09E
:1025A00001010160002070472DE9F84304464FF017
:1025B0000009CDF8009063484FF41651A56D0068EE
:1025C000B0FBF1F72E6894F85C10082000FA01F1D6
:1025D00031420FD021680A6852070BD50A6822F0F1
:1025E00004020A6094F85C108840A860606D40F0B6
:1025F0000100606594F85C104FF0010808FA01F0E2
:10260000304208D021684969090604D5A860606D88
:1026100040F00200606594F85C100420884030426D
:1026200008D021680968890704D5A860606D40F06A
:102630000400606594F85C1010208840304218D087
:1026400021680968090714D5A86020680168490352
:1026500004D50068000308D5A16C07E00168C9052E
:1026600003D4016821F008010160216C09B1204602
:10267000884794F85C1020208840304231D021688F
:102680000968C9062DD5A86094F83500052820688A
:10269000016806D0490347D5006800031DD4616C6A
:1026A0001CE021F0160101602068416921F08001E1
:1026B0004161206C08B9A06C20B12068016821F04C
:1026C0000801016094F85C103F208840A86084F8FD
:1026D000358084F83490216D1FE0E16B09B120460C
:1026E0008847606D00282BD0606DC00714D005208E
:1026F00084F835002068016821F00101016000982C
:10270000401C0090B84203D820680068C007F6D18A
:1027100084F8358084F83490E16C002910D001B041
:102720002046BDE8F04308470168C905D5D40168D3
:1027300021F01001016084F8358084F83490CCE7F2
:10274000BDE8F883840000202DE9F041044600F044
:10275000B5F906465CB1022084F83500002584F8FE
:1027600034502068016821F0010101600DE0012072
:10277000BDE8F08100F0A2F9801B052805D92020D2
:102780006065032084F83500F2E720680068C00720
:10279000F0D12268116820480140D4E901031843B0
:1027A000D4E903363343184363691843A3691843D4
:1027B000E3691843236A18430843616A042903D173
:1027C000D4E90B1319430843106020684069666A16
:1027D00020F0070130460E43012704280CD1A06ADF
:1027E0000643E06A40B12046FEF7C4FF20B1402016
:1027F000606584F83570BAE7206846612046FEF7C8
:10280000A5FF94F85C203F2191408160656584F8C4
:1028100035700020ACE700003F8010F02DE9F0415A
:102820000446866D90F83400002501280DD0012063
:1028300084F8340094F835700020012F07D084F814
:10284000340002252846BDE8F0810220FBE702277C
:1028500084F8357060652046FEF7B6FF94F85C108A
:102860003F208840B0602068016841F01601016097
:10287000206C20B12068016841F0080101602068E7
:10288000016841F001010160DCE7000070B5044619
:1028900000F014F90546601C02D004480078044496
:1028A00000F00CF9401BA042FAD370BD7800002064
:1028B0002DE9F84FDFF8BCA10022012503264FF0D7
:1028C0000F090AF1040BAAF1040E00BF0B6805FA08
:1028D00002F42340A34270D10F7907F00307012FC0
:1028E00001D0022F16D187684FEA420806FA08FC89
:1028F00027EA0C07D1F80CC00CFA08FC4CEA070CCC
:10290000C0F808C04768A7430C79C4F3001494408A
:102910003C4344600C79E443A4070AD0C4684FEAFE
:10292000420C06FA0CF7BC438F6807FA0CF72743F2
:10293000C7600C7904F00304022C12D1D40800EB18
:10294000840CDCF820405707FF0E09FA07F824EA48
:102950000804D1F8108008FA07F848EA0408CCF80F
:10296000208004684FEA420C06FA0CF7BC430F794A
:1029700007F0030707FA0CF7274307604C6814F4C5
:10298000403F70D03C4C276847F48047276024685C
:1029900022F0030704F480440094384C07EB040C45
:1029A000DCF8084897074FEA177809FA08F7BC439C
:1029B000334FB84202D1002724E054E0314FB842EF
:1029C00001D101271EE0304FB84201D1022719E0A2
:1029D0002E4FB84201D1032714E02D4FB84201D148
:1029E00004270FE02B4FB84201D105270AE02A4FF8
:1029F000B84201D1062705E0284FB84201D1072788
:102A000000E0082707FA08F72743CCF80878DAF837
:102A100000405746D1F804C09C435FEACC2C00D557
:102A20001C433C60DBF800405F46D1F804C09C4387
:102A30005FEA8C2C00D51C433C60DEF800407746F2
:102A4000D1F804C09C435FEA8C3C00D51C433C6039
:102A5000084F083F3C68D1F804C09C435FEACC3C77
:102A600000D51C433C60521C102AFFF42FAFBDE878
:102A7000F88F0000083C014044380240003001401B
:102A8000000002400004024000080240000C024026
:102A9000001002400014024000180240001C0240D6
:102AA000426921EA02030A4043EA02418161704718
:102AB0000AB1816170470904FBE7000001488068A2
:102AC00070470000780000200248816802781144B5
:102AD00081607047780000200B4810B5016841F410
:102AE00000710160016841F480610160016841F496
:102AF00080710160032000F06FF80F2000F006F8ED
:102B000000F024F8002010BD003C024070B50D4DCF
:102B100004464FF47A712878B1FBF0F00A4909684D
:102B2000B1FBF0F000F00CFB48B9102C07D20022EA
:102B30002146501E00F030F800206C6070BD01206E
:102B400070BD000078000020840000200A4808B50D
:102B5000016841F480410160006800F48040009009
:102B60000548001F016841F080510160006800F0D5
:102B70008050009008BD000044380240002809DB66
:102B800000F01F02012191404009800000F1E02087
:102B9000C0F8001170470000F0B40E4B1B680C46E3
:102BA000C3F30223C3F10705042D00D90425191D21
:102BB000072901D2002300E0DB1E012606FA05F1F9
:102BC000491E214099409E40761E16403143F0BC7C
:102BD00002F0E7BB0CED00E0064900F007020868D0
:102BE0004FF6FF03184040EA0220034A10430860F2
:102BF000704700000CED00E00000FA052DE9F047F9
:102C00000E46050065D0DFF81481D8F80000F7B251
:102C100000F00700B04207D288F80070D8F8000032
:102C200000F00700B04254D128683D4C810712D50E
:102C3000400703D5206840F4E05020602878000762
:102C400003D5206840F4604020602068A96820F027
:102C5000F000084320602878C0072DD0304968680C
:102C60000839012812D0022813D0032811D009688E
:102C7000890700292DDA216821F003010143216031
:102C8000FFF71CFF814641F2883A0EE0096889038C
:102C9000EFE709688901ECE7FFF710FFA0EB0901F6
:102CA000514502D90320BDE8F0872068696800F02B
:102CB0000C00B0EB810FEFD1D8F80010404601F0C6
:102CC0000701B14207D90770006800F00700B04261
:102CD00001D00120E7E72878400705D52068E9689A
:102CE00020F4E050084320602878000706D52068CB
:102CF000296920F4604040EAC100206000F038F803
:102D00002168084AC1F30311515CC84006490860B4
:102D100006480068FFF7FAFE0020C4E7003C0240C6
:102D200008380240445B0008840000207C0000203A
:102D30000448054900680968044AC1F38221515CCE
:102D4000C84070478400002008380240545B0008E7
:102D50000448054900680968044AC1F34231515CDE
:102D6000C84070478400002008380240545B0008C7
:102D7000154810B5006810F00C02144813D014491F
:102D8000042A0FD0082A0ED10F4C241F2268236872
:102D900002F03F025B0207D52068C0F38810A0FB59
:102DA000010106E0084610BD2168C1F38811A1FBAE
:102DB00000010023FDF706FA2168C1F30141491C17
:102DC0004900B0FBF1F010BD083802400024F400C7
:102DD000001BB7002DE9F84F04006ED02078DFF813
:102DE0004C93C007A9F104054AD009F10400016819
:102DF000C1F38101012908D00068C0F381000228D5
:102E00000AD1D9F80000400206D52868800337D5DA
:102E100060680028E1D033E06068B0F5803F10D0F2
:102E2000B0F5A02F286810D020F4803028602868E2
:102E300020F4802028606068A8B1FFF73FFE0646B6
:102E40000DE0286840F48030F4E740F480202860EA
:102E5000F7E700BFFFF732FE801B642873D82868AD
:102E60008003F7D50CE0FFF729FE064605E000BF1A
:102E7000FFF724FE801B6428F0D828688003F7D46D
:102E80002078DFF8AC8280074FF0000A3ED5A748D3
:102E9000001D016811F00C0F08D00068C0F381001C
:102EA00002280BD1D9F80000400207D42868800717
:102EB00016D5E068012800D112E033E1E068B8B12E
:102EC0000120C8F80000FFF7F9FD064605E000BF45
:102ED000FFF7F4FD801B0228C0D828688007F7D5CB
:102EE0002868216920F0F80040EAC10028600DE060
:102EF000C8F800A0FFF7E2FD064604E0FFF7DEFD9C
:102F0000801B02281FD828688007F7D42078000784
:102F100022D5864F87486169703771B10121016000
:102F2000FFF7CCFD064604E0FFF7C8FD801B022832
:102F300009D838688007F7D50EE0C0F800A0FFF781
:102F4000BDFD064605E082E0FFF7B8FD801B0228C4
:102F50007DD838688007F7D42078400768D5DFF837
:102F6000CCB100270BF13C0BDBF80000C0000BD408
:102F7000DBF8001041F08051CBF80010DBF80000C6
:102F8000012700F0805000906B4E3068C00510D4CF
:102F9000306840F480703060FFF790FD009005E0ED
:102FA000FFF78CFD0099401A022850D83068C00500
:102FB000F6D55E4EA0686C3601280FD00528306823
:102FC00010D020F001003060306820F00400306044
:102FD000A068B8B1FFF772FD00900FE0306840F0D4
:102FE0000100F4E740F004003060F7E7FFF766FD0A
:102FF0000099411A41F28830814266D830688007D2
:10300000F4D50EE0FFF75AFD009007E0FFF756FDFC
:103010000099411A41F28830814256D830688007C1
:10302000F4D42FB1DBF8001021F08051CBF8001060
:10303000A069C8B33D49091D0968C1F3810102298E
:103040004AD00228504607D0C8F8600000E03CE0B3
:10305000FFF734FD04463BE04746C8F86000FFF741
:103060002DFD064605E000BFFFF728FD801B022866
:103070002BD828688001F7D4D4E907010843A16A56
:103080002E4A490802EB0141626A41EA8211084373
:1030900094F82C1040EA0161C9F80010012038664C
:1030A000FFF70CFD044606E03EE000BFFFF706FD1B
:1030B000001B022809D828688001F7D534E000BF3A
:1030C000FFF7FCFC001B022802D90320BDE8F88FA3
:1030D00028688001F4D427E00128F7D0D9F800004F
:1030E000E26900F4800191421CD1226A00F03F01A4
:1030F000914217D147F6C071626A0140B1EB821F5D
:1031000010D1A26A4FF0FF3300F4403103EB5202BA
:10311000B1EB024F06D194F82C1000F07060B0EBC8
:10312000016F01D00120D1E70020CFE70438024031
:1031300000004742800E4742007000400000FFFF41
:1031400010B5401EB0F1807F01D3012010BD4FF0BB
:10315000E02460610F21601702F023F90020A061D4
:1031600007202061002010BD7047704770B590F8AF
:103170003C20012A32D0012480F83C40022280F811
:103180003D2003685A689D6822F070060A68324341
:103190005A60134B02689A4214D0B2F1804F11D09A
:1031A000104B9A420ED0104B9A420BD00F4B9A42C2
:1031B00008D00F4B9A4205D00E4B9A4202D00E4BCC
:1031C0009A4204D1496825F080031943916080F840
:1031D0003D40002180F83C10084670BD022070BDC3
:1031E000000001400004004000080040000C0040C6
:1031F00000040140004001400018004010B50400E8
:1032000003D094F83D0010B107E0012010BD00206C
:1032100084F83C00204600F01FF8022084F83D00AE
:10322000211D206801F0D0FC012084F8460084F8BC
:103230003E0084F83F0084F8400084F8410084F8A0
:10324000420084F8430084F8440084F8450084F880
:103250003D00002010BD000008B5006811498842FB
:1032600012D11148016841F001010160006800229B
:1032700000F00100009011461920FFF78DFCBDE819
:1032800008401920FFF77ABC0849884209D106484E
:10329000001F016841F004010160006800F00400B3
:1032A000009008BD00000140443802400008004082
:1032B00090F83D10012901D001207047022180F8CB
:1032C0003D100168CA6842F00102CA6000681149F5
:1032D000884214D0B0F1804F11D00F4988420ED0EF
:1032E0000E4988420BD00E49884208D00D498842C9
:1032F00005D00D49884202D00C49884204D181682A
:1033000001F00701062903D0016841F001010160C5
:103310000020704700000140000400400008004009
:10332000000C004000040140004001400018004033
:1033300070B5044690F83C000025012817D00126FE
:1033400084F83C60022084F83D002068826822F006
:10335000770222F47F4282600868502838D00DDC62
:1033600020284FD005DC90B3102811D14AE002206C
:1033700070BD302846D040280AD13BE060282FD0CD
:1033800070280DD0B0F5805F03D0B0F5005F12D08B
:10339000012584F83D60002084F83C00284670BD7B
:1033A000CB68D1E90121206801F083FC20688168A5
:1033B00041F0770109E0CB68D1E90121206801F0F3
:1033C00078FC2068816841F480418160E1E719E080
:1033D000CA684968206801F041FD5021206806E074
:1033E000CA684968206801F04AFD6021206801F040
:1033F0006AFCCEE7CA684968206801F02FFD4021C9
:103400002068F4E7226801461046F0E770472DE98E
:10341000F04104460068C66805694FF00007A90737
:1034200013D5B10711D5F91E01610120207720685D
:1034300080698007204602D0FFF7E8FF04E000F033
:10344000A9F8204600F03BF92777680716D57007E2
:1034500014D521686FF004000861022020772068ED
:10346000806910F4407F204602D0FFF7CFFF04E0D0
:1034700000F090F8204600F022F92777280715D5AC
:10348000300713D521686FF0080008610420207709
:103490002068C0698007204602D0FFF7B7FF04E02C
:1034A00000F078F8204600F00AF92777E80616D5EC
:1034B000F00614D521686FF010000861082020770D
:1034C0002068C06910F4407F204602D0FFF79EFFBD
:1034D00004E000F05FF8204600F0F1F82777E807F5
:1034E00008D0F00706D021686FF00100086120467F
:1034F00000F04AF9280608D5300606D521686FF095
:10350000800008612046FFF72FFE680608D5700688
:1035100006D521686FF040000861204600F056F99A
:10352000A8060AD5B00608D521686FF0200008610A
:103530002046BDE8F041FFF718BEBDE8F08100006D
:1035400010B586B0044614216846FCF773FE0E4998
:103550002068884215D10D480021026842F0080217
:103560000260006800F0080005904FF48040009071
:103570000220CDE90101CDE9031069460448FFF7B7
:1035800097F906B010BD0000000800403038024036
:10359000000C0240704770B5044690F83C000026CD
:1035A0000D4601280FD0012084F83C006AB1042A9E
:1035B0001DD0082A2FD00C2A3FD00126002084F8E5
:1035C0003C00304670BD022070BD206801F084FBD5
:1035D0002068816941F0080181612068816921F0DA
:1035E00004018161206881692A69114311E0206822
:1035F00001F0A2FB2068816941F4006181612068CB
:10360000816921F480618161206881692A6941EAC8
:1036100002218161D2E7206801F0C4FB2068C16902
:1036200041F00801C1612068C16921F00401C16154
:103630002068C1692A69114311E0206801F0E6FBA6
:103640002068C16941F40061C1612068C16921F449
:103650008061C1612068C1692A6941EA0221C161B2
:10366000ACE710B5040003D094F83D0010B107E0BA
:10367000012010BD002084F83C00204600F01EF818
:10368000022084F83D00211D206801F09DFA0120F0
:1036900084F8460084F83E0084F83F0084F8400037
:1036A00084F8410084F8420084F8430084F8440020
:1036B00084F8450084F83D00002010BD7047704735
:1036C00010B50446022249B104290ED0082913D0AE
:1036D00094F84100012816D0012010BD94F83E0056
:1036E0000128F9D184F83E200FE094F83F0001282A
:1036F000F2D184F83F2008E094F840000128EBD193
:1037000084F8402001E084F841200122206801F083
:10371000C3FA16492068164A884201D0904203D164
:10372000436C43F4004343642068884213D0B0F1F3
:10373000804F10D00F4988420DD00F4988420AD0DF
:103740000E49884207D0904205D00D49884202D0E8
:103750000C49884204D1816801F00701062903D091
:10376000016841F001010160002010BD000001402E
:10377000000401400004004000080040000C00402C
:10378000004001400018004010B500680D49884213
:1037900016D101F081F8FEF79DF901F0AFF900F0C4
:1037A000B5FF01F07DFD01F0DDFD00F0EFFBFDF761
:1037B000C5FC00F093FCBDE810400348FEF7EFB8ED
:1037C00010BD000000000140D6050020704738B54C
:1037D000044690F84200202801D0022038BD51B1A3
:1037E0004AB10120206300206063204601F0F4FC10
:1037F000216B012901D0012038BD21680A68496880
:10380000009121680C3151E8002F42F0100241E88C
:103810000023002BF5D138BD70B50D460446006875
:103820000C49884205D10C49EAB2A1F13600FEF7F5
:10383000ABF80A492068884202D1284600F09AFB7A
:1038400007492068884204D12846BDE8704001F04D
:1038500087BD70BD004800400C06002000100140EC
:103860000014014010B504460068406994F8411006
:10387000C0F3C010212911D180B12068143050E864
:10388000001F21F0800140E80012002AF5D1A06B52
:1038900008B1FEF72EFE204601F0A8FB2068406923
:1038A00094F84210C0F38010222911D180B1206811
:1038B000143050E8001F21F0400140E80012002AB7
:1038C000F5D1E06B08B1FEF714FE204601F067FB6E
:1038D000002010BD10B50068084988420CD16FF077
:1038E0000F0101600648FFF7BDFFBDE81040202230
:1038F00004490548FFF76BBF10BD000000140140EC
:10390000000700200B02002090070020F8B5016896
:1039100004460868CA684B6910F00F0F4FF00005A5
:1039200059D003F0010602F49077374365D0C10700
:1039300005D0D10503D5616C41F0010161644107F7
:1039400005D5D90703D0616C41F00201616481079C
:1039500005D5D90703D0616C41F00401616401070A
:1039600007D502F02001314303D0616C41F008011A
:103970006164616C00293AD0800604D5900602D5B6
:10398000204601F041FB20684069616CC0F3801063
:10399000090700D460B3204601F001FB20684069AC
:1039A000400621D52068143050E8001F21F0400166
:1039B00040E80012002AF5D1E06BA8B17249016518
:1039C000E06BFEF7DFFD002811D0E06B016D01B068
:1039D000BDE8F040084783060FD593060DD5204675
:1039E000BDE8F84001F010BB2046FFF773FFF8BDBB
:1039F0002046FFF76FFF6564F8BD266B2023012E7C
:103A00007ED1C6067CD5D6067AD50868486800906F
:103A100048694FF0020640064DD5E26B10684068D9
:103A20004FF480770004000C3AD0A18D814237D941
:103A3000E085D069B8422DD020680C3050E8001FD6
:103A400021F4807140E80012002AF5D1206814307A
:103A500050E8001F21F0010140E80012002AF5D1D2
:103A60002068143050E8001F21F0400140E80012A7
:103A7000002AF5D184F84230256320680C3050E8E4
:103A8000001F21F0100140E80012002AF5D1E06B80
:103A9000FEF72FFD6663A08DE18D401A81B206E02E
:103AA000A18D8142A8D1D069B842A5D166632046D4
:103AB000FFF7B2FEF8BDA08DE18D401A81B2E08D16
:103AC0000028F7D00029F5D020680C3050E8002FEE
:103AD00022F4907240E80027002FF5D120681430BE
:103AE00050E8002F22F0010240E80027002FF5D116
:103AF00084F84230256320680C3050E8002F00E045
:103B000006E022F0100240E80023002BF3D1CDE7BD
:103B100005062BD5150629D594F841002128C9D1D1
:103B2000A068B0F5805F01D12069B0B1206A411C66
:103B30002162216800784860E08C401E0004000C7F
:103B4000E084B7D12068C16821F08001C16020689D
:103B5000C16841F04001C160F8BD206A0088C0F32F
:103B600008004860206A801C2062E5E74006F3D523
:103B70005006F1D5CA68204622F04002CA6084F897
:103B8000413000F06BF9F8BDA34E000870B5040099
:103B900004D094F84100002510B106E0012070BD6A
:103BA00084F84050204600F023F8242084F8410097
:103BB0002068C16821F40051C160204601F086FAF6
:103BC0002068016921F4904101612068416921F078
:103BD0002A0141612068C16841F40051C1606564F7
:103BE000202084F8410084F842006563002070BD05
:103BF0002DE9F04F87B0044614216846FCF71AFB04
:103C00008A48DFF824821438D4F800C0874A022694
:103C100003210723002507154FF0006A4FF4807B2E
:103C2000C44567D1D2F800C04CF0100CC2F800C0F7
:103C3000126802F010020592026842F0020202606D
:103C4000026802F002020592026842F0010202607C
:103C50000068884600F0010005908020CDE900064C
:103C60000DF1080C99468CE8200369467048FEF770
:103C70001FFE3002CDE900060DF1080C69468CE804
:103C800020036C48FEF714FE6C4E6B48B84630605B
:103C9000C6E901A5C6E903577561C6E9065B356249
:103CA000D1465F4630467562FEF74EFD08B1FDF71E
:103CB0007EFEE663B463614E5F4860367830E6E8C6
:103CC00002094020A6E821015C4846F814596030FA
:103CD000C6E9065735627562FEF736FD08B1FDF795
:103CE00066FEA663002211462520B463FEF754FF4A
:103CF00025203DE0DFF84881C4453ED14B4A121FE4
:103D0000D2F800C04CF4802CC2F800C0126802F453
:103D100080220592026842F0040202600068029567
:103D200000F004000590CDE903134FF44060CDE9A5
:103D3000000669464348FEF7BBFD404E4248C03688
:103D40003060C6E901A5C6E903577561C6E9065B9F
:103D5000356230467562FEF7F7FC08B1FDF727FEC5
:103D6000E663002211462720B463FEF715FF2720E3
:103D7000FEF704FF07B0BDE8F08F344B9C45F9D146
:103D8000136843F020031360126802F020020592CA
:103D9000026842F0400202600068029500F04000B4
:103DA00005904FF48440CDE900060820CDE90310CA
:103DB00069462748FEF77CFD1F48264E18384FF00D
:103DC00020683060C6E90185C6E9035775614FF484
:103DD0004039B561C6E9075930467562FEF7B4FC53
:103DE00008B1FDF7E4FDE663B4631A4E124860368D
:103DF0006030E6E802084020A1C6164846F814598B
:103E00006030B561C6E907597562FEF79DFC08B1DF
:103E1000FDF7CDFDA663002211464720B463FEF7EF
:103E2000BBFE4720A4E700000010014044380240D8
:103E3000000402400000024040640240D807002015
:103E40000048004000080240286002400014014081
:103E500000180240F8080020704770477047FEE7DE
:103E600010B50880C0F3C0028A70C0F30013CB7095
:103E7000C0F380240C71C0F3C0244C71C0F3003037
:103E8000887102B923B10020C8711AB1012002E083
:103E90000120F9E7002008720BB1012000E00020AA
:103EA00048720CB1012000E00020887210BD0000B3
:103EB00010B50B4C012020700020C4F80100C82070
:103EC000FEF7E4FC4FF48072611D0648FFF77FFCAB
:103ED00005480068016821F00801016010BD00007C
:103EE0006804002000070020D807002010B5044611
:103EF000B0F801001D49FFF7B3FF1D48E17880F8D5
:103F000013116168C0F81411E168C0F81C1121692F
:103F1000C0F820116169C0F82411A169C0F8281106
:103F2000E169C0F82C11216AC0F83011616AC0F84B
:103F30003411A16AC0F83811E16AC0F83C11216B54
:103F4000C0F84011616BC0F84411A16BC0F8481172
:103F5000E16BC0F84C11216CC0F85011616CC0F8D5
:103F60005411A16CC0F8581110BD00006D0500205F
:103F70006804002010B5044C0146601D00F012F8E2
:103F80000020C4F8010010BD680400200448D0F8E7
:103F900001100A2902D2491CC0F801107047000024
:103FA000680400202DE9FC4F4FF000090E468246C0
:103FB0004D46A1F1520737E00AEB0504218889B28A
:103FC000A1F525405A3801D06D1C1CE0B4F80280E0
:103FD000B4F804B008F1060080B228440190B04261
:103FE00024D80020ADF80000042221466846FDF7E1
:103FF00021F94246A11D6846FDF71CF9BDF80010E5
:10400000594502D0AD1CADB20EE0A079912809D17E
:10401000B8F14C0F06D3A01DFFF768FF09F10100AE
:104020001FFA80F9019885B2BD42C5DD4846BDE85A
:10403000FC8F00000B4810B50178002911D04168B1
:1040400064290ED300214160074C0A464FF40061F9
:104050002046FEF72DFDA1142046BDE81040FEF7D6
:104060001FBD10BD50000020001C024010B50A49C1
:1040700001200A4C0870810200222046FEF718FD3C
:104080000022E1142046FEF713FD0022A114204671
:10409000BDE81040FEF70CBD50000020001C02409F
:1040A0000C4810B50178002912D0416864290FD35B
:1040B00000214160084C0A464FF480512046FEF72B
:1040C000F7FC20460122BDE81040D102FEF7F0BC0B
:1040D00010BD000050000020001C02400348416851
:1040E000642901D2491C4160704700005000002043
:1040F0001CB51A49D1E90621CDE90021B0F910100B
:104100000288914201DD01880182C268B0F9041081
:104110008A4203DCB0F902108A4200DAC16010F86A
:10412000101F8DF8021030F804190822090A8DF8C2
:10413000031001788DF804100188090A8DF8051024
:104140000168090C8DF8061050F80619090E8DF853
:104150000710694600F012F81CBD00001C5B000847
:104160001CB5054AD2E90412CDE9001208226946BD
:1041700000F004F81CBD00001C5B0008F0B587B01F
:104180000F4604460568164618216846FCF752F8A3
:10419000A088009000233A46694604962846FDF719
:1041A000A2FD07B0F0BD00000F4810B50D49016039
:1041B0000721416000214FF480328160C0E9031281
:1041C000520142610176012242768276C176017700
:1041D0004177FDF7F0FF002803D0BDE81040FDF760
:1041E000E6BB10BD00640040200600200F4810B55B
:1041F0000D4901600721416000214FF48032816048
:10420000C0E90312520142610176012242768276B0
:10421000C17601774177FDF7CEFF002803D0BDE8D6
:104220001040FDF7C4BB10BD0068004048060020E8
:104230001D4808B5016841F400110160016801F4EE
:1042400000110091016841F48001016000680022C2
:1042500000F48000009011460C20FEF79DFC0C201D
:10426000FEF78CFC002211463920FEF795FC392020
:10427000FEF784FC002211463A20FEF78DFC3A201E
:10428000FEF77CFC002211464520FEF785FC452008
:10429000FEF774FC002211464620FEF77DFCBDE8C7
:1042A00008404620FEF76ABC3038024070B586B040
:1042B00014216846FBF7BEFF22480024016841F044
:1042C00002010160016801F002010591016841F0FD
:1042D00040010160016801F040010591016841F071
:1042E00001010160016801F001010591016841F0DF
:1042F00008010160016801F008010591016841F0C1
:1043000004010160016801F004010591016841F0B8
:104310008001016000680C4E00F080004FF4E05511
:104320000590002229463046FEF7C2FB0120009589
:10433000CDE90104694630460394FEF7B9FA06B0A8
:1043400070BD000030380240001C024010B586B03D
:10435000002418480094019402940394049414498E
:1043600005940160A721C0E901144FF47A71C0E9F6
:1043700003148021C0E90541FEF740FF08B1FDF7B5
:1043800016FB4FF48050009069460A48FEF7D0FFB4
:1043900008B1FDF70CFB049404A906480594FEF748
:1043A000E5FE002801D0FDF702FB06B010BD0000BD
:1043B000000001407006002010B58EB00024079464
:1043C000089409940A940B941C2168460C94FBF7FA
:1043D00031FF1F481D4901601521C0E9011440F259
:1043E000E731C0E9031480218161FEF707FF08B1BE
:1043F000FDF7DDFA4FF48050079007A91448FEF747
:1044000097FF08B1FDF7D3FA1148FFF72AF908B171
:10441000FDF7CDFA0B940BA90D480C94FEF7A6FE00
:1044200008B1FDF7C4FA6020CDE900040220029033
:104430000822694604940648FFF7ADF808B1FDF775
:10444000B6FA0348FFF77CF80EB010BD0008004034
:10445000B80600200C4810B50A4901604FF46121EC
:104460004160002181600C22C160C0E904128161B9
:10447000C161FFF78BFB002803D0BDE81040FDF7BA
:1044800096BA10BD00100140000700200E4810B57C
:104490000C4901600D4941604FF480518160490031
:1044A000C160C91001610421416100218161C161C4
:1044B000FFF76CFB002803D0BDE81040FDF777BA8A
:1044C00010BD00000048004048070020A086010001
:1044D0000C4810B50A4901604FF4E13141600021F8
:1044E00081600C22C160C0E904128161C161FFF7E3
:1044F0004DFB002803D0BDE81040FDF758BA10BDB1
:104500000014014090070020FEE7000010B50446AB
:104510000D48C4F8060040F24110608142F210706C
:10452000E0604FF4FA70208220804BF2E01060804F
:1045300044F62060A080A01DFFF712FE2046BDE8D3
:104540001040FFF7D5BD000048060020FEE7704789
:1045500010EE101A10EE902A10B500EE101A00EEB0
:10456000902AC0F81D10C0F8212030EE600AD0F863
:104570001530C0F8193010EE102AC0F81520D0F808
:10458000011000EE102A00EE901A20EE800A10EEC4
:10459000104A00EE102AC0F82540D0F8291000EE8D
:1045A000901AD0F8051001EE101A41EE000A00EE44
:1045B000102A10EE901A00EE903AC0F82910D0F8A8
:1045C000092070EE600A00EE102A20EE800A00EE4C
:1045D000901A10EE103AC0F82D30D0F80D2000EEF1
:1045E000102AF4EEC00AF1EE10FA02DDC0F829201C
:1045F00012E000EE902A00EE101AF1EE600AB4EE1E
:10460000E00AF1EE10FA07D200EE102AB1EE400AED
:1046100010EE101AC0F82910D0F8291000EE104A38
:1046200000EE901A70EE200A00EE103A30EE800A8A
:1046300010EE102AC0F83120D0F8111000EE102A28
:1046400000EE901AB4EEE00AF1EE10FA03DD00BFBE
:10465000C0F8311011E000EE901A00EE102AF1EED1
:10466000600AB4EEE00AF1EE10FA06D200EE101A7B
:10467000B1EE400A10EE101AEAE7D0F8310000EE71
:10468000100A10BD002140F8011F41608160C16027
:10469000016141618161C161016241628162C16206
:1046A0000163704710EE101A40F8011F10EE901AC7
:1046B000416011EE101A816011EE901AC16012EE85
:1046C000101A0161704700000348012180F8221090
:1046D0000021C0F823107047010000200A4810B5DF
:1046E00090F8221000290ED0D0F8231005290AD303
:1046F0000021C0F8231000F047F800F013F8BDE8DF
:10470000104000F073B810BD010000200448D0F83C
:104710002310052902D2491CC0F82310704700005D
:1047200001000020154802219FED160AC1751449A9
:10473000D1F8302100EE902A60EE800AFDEEE00A0A
:1047400010EE902A0283D1F8442100EE902A60EE08
:10475000800AFDEEE00A10EE902A4283D1F848115B
:10476000082200EE901A20EE800ABDEEC00A10EE7C
:10477000101A818300F11701FCF748BD01000020E9
:10478000680400200000C842154801219FED160A68
:1047900001741449CA6800EE902A60EE800AFDEEAA
:1047A000E00A10EE902A20F8112F0A6900EE902AF4
:1047B00060EE800AFDEEE00A10EE902A4280496920
:1047C000082200EE901A20EE800ABDEEC00A10EE1C
:1047D000101A8180024902481031FCF717BD000011
:1047E00001000020D605002000007A44074803217C
:1047F00008228177064991F83510C1770549497932
:1048000080F8201000F11E01FCF700BD010000201F
:10481000D60500208C0000200F4A10B592F8200029
:104820000E4901230024012804D0032804D00228C3
:1048300004D005E04B7103E04C7101E002204871A7
:1048400092F821000649012803D0032800D14B71BA
:1048500010BD4C7110BD0000D60500204E01002097
:104860008C0000200348012101700021C0F80110D4
:10487000704700008C00002006480178002908D00D
:10488000D0F801100A2904D30021C0F80110FFF765
:10489000C3BF70478C0000200448D0F801100A29DB
:1048A00002D2491CC0F80110704700008C000020A3
:1048B000704700007CB5424C0025607920B101288A
:1048C00009D0022816D10EE0C4F80650C4F84350AF
:1048D000C4F880500EE03B48C4F806003A48C4F8DB
:1048E00043003A4804E0C4F806503948C4F843503D
:1048F000C4F88000D4F80A0000EE900AD4F806004C
:10490000E41D00EE100A2E480E30FFF721FEBDEE2A
:10491000C00A10EE100A00B200EE100AB8EEC00A8B
:1049200010EE100AA063206C00EE900AE06B00EE1F
:10493000100A23484B30FFF70BFEBDEEC00A10EE05
:10494000100A00B200EE100AB8EEC00A10EE100A0B
:10495000C4F87500D4F87D0000EE900AD4F8790010
:10496000393400EE100A16488830FFF7F1FDBDEE2D
:10497000C00A002110EE100A00B200EE100AB8EED4
:10498000C00A10EE100AC4F8790000EE100ABDEE5D
:10499000C00A8DED000A0195E06B00EE100A54F894
:1049A000010CBDEEC00A10EE103A00EE100A012014
:1049B000BDEEC00A10EE102AFCF7B4FF7CBD00006B
:1049C0004E0100200080BBC50080BB450000FA45B9
:1049D00000007AC407480849D0F81900B0F91D0052
:1049E00000EE100AB8EEC00A10EE100AC1F88400FA
:1049F000704700002F0000204E0100200C48D0F826
:104A0000191031F9050F00EE100A0A48B8EEC00A75
:104A100010EE102AC0F80A20B1F90C1000EE101A9E
:104A2000B8EEC00A10EE101AC0F847107047000028
:104A30002F0000204E01002010B5214901202DED4E
:104A4000028B087001F10E000446FFF71BFE9FED7C
:104A50001E8ADFED1C8AB0EE000AF0EE481AB0EEB6
:104A6000682AB0EE481AF0EE480A2046FFF71AFE10
:104A700013484B300446FFF705FEB0EE682AF0EE0F
:104A8000481AB0EE481AF0EE480AB0EE000A204686
:104A9000FFF708FE0A4888300446FFF7F3FDB0EE42
:104AA000682AF0EE481AB0EE481AF0EE480ABDEC5B
:104AB000028B2046BDE81040B7EE080AFFF7F2BDB2
:104AC0004E01002000401C46000000000A4810B5BE
:104AD000017800290ED0D0F8011005290AD3002151
:104AE000C0F80110FFF78AFFFFF774FFBDE8104020
:104AF000FFF7E0BE10BD00004E0100200448D0F8D2
:104B00000110052902D2491CC0F8011070470000AD
:104B10004E010020FDF7D8BF30B593B03021684674
:104B2000FBF788FB14210CA8FBF784FB1D4800252C
:104B3000016841F080510160006800F080501190E0
:104B40001948016841F4804101600068022400F4C2
:104B50008040119001200090000401908001CDE977
:104B6000064006200890A820CDE9090404200B90F7
:104B70006846FEF72FF908B172B6FEE70CA90F20C0
:104B800081E831004FF4A0500F904FF48050109006
:104B900005210CA8FEF732F8002801D072B6FEE716
:104BA00013B030BD40380240007000400248016838
:104BB00041F470010160704788ED00E00148FEF7A4
:104BC00026BC000070060020F0B50268274B284D77
:104BD000284E294F294C4FF0804C984209D060450F
:104BE00007D0A84205D0B04203D0B84201D0A042BD
:104BF00004D122F0700E4A6842EA0E0298421BD09D
:104C0000604519D0A84217D0B04215D0B84213D091
:104C1000A04211D01A4DA8420ED01A4DA8420BD076
:104C2000194DA84208D0194DA84205D0184DA842E8
:104C300002D0184DA84203D122F44075CA682A4315
:104C40004D6922F080022A438D68C5620D68856235
:104C5000984201D0A04201D109690163016841F085
:104C600004010160012141610260F0BD00000140CA
:104C70000004004000080040000C00400004014017
:104C8000004001400044014000480140001800403D
:104C9000001C00400020004010B501F01F0301215E
:104CA000046A99408C430462016A9A40114301628C
:104CB00010BD10B5846842EA032224F47F440A43FD
:104CC0002243826010BD826822F070020A4342F0E3
:104CD0000701816070470000F0B5036A026A22F0A4
:104CE0000102026242688469124E24F073050C6866
:104CF0002C4323F002058B682B430D4DA84201D0B5
:104D0000B04205D123F00807CB683B4323F00403EE
:104D1000A84201D0B04205D14D6922F4407215433A
:104D20008A692A4342608461496841630362F0BD35
:104D30000000014000040140F0B5026A036A23F05C
:104D400010030362436884690D6824F4E64444EA6E
:104D500005248D6822F0200242EA05120F4D104E04
:104D6000A84201D0B04206D1CF6822F0800242EAC8
:104D7000071222F04002A84201D0B04207D14D698B
:104D800023F4406343EA85038D6943EA8503436066
:104D90008461496881630262F0BD00000000014047
:104DA00000040140F0B5026A036A23F480730362D1
:104DB0004368C46922F4007224F073050C68124E33
:104DC0002C438D6842EA05220E4DA84201D0B04224
:104DD00006D1CF6822F4006242EA072222F4806200
:104DE000A84201D0B04207D14D6923F4405343EAB1
:104DF00005138D6943EA05134360C4614968C163C3
:104E00000262F0BD000001400004014030B5046AB8
:104E1000026A22F4805202624268C3690D6823F478
:104E2000E64343EA05238D6824F4005444EA05343C
:104E3000084DA84202D0084DA84204D14D6922F481
:104E4000804242EA85124260C3614968016404629B
:104E500030BD0000000001400004014010B5036AAD
:104E6000046A24F001040462846924F0F00444EA32
:104E7000021423F00A020A438461026210BD10B5D5
:104E8000036A046A24F010040462846923F0A00316
:104E900024F4704444EA023243EA0111826101625F
:104EA00010BD10B5806B0021C185FEF713FD10BD4C
:104EB00070B5846B2068406994F84110C0F3C0104D
:104EC0000025212904D118B1E584204600F08EF890
:104ED0002068406994F84210C0F38010222904D160
:104EE00018B1E585204600F05AF8606C40F01000DB
:104EF00060642046FEF7EEFC70BD10B50146806B85
:104F0000096809684FF00002C9052ED4C2850168FE
:104F10000C3151E8003F23F4807341E80034002C49
:104F2000F5D10168143151E8003F23F0010341E855
:104F30000034002CF5D10168143151E8003F23F012
:104F4000400341E80034002CF5D1202180F84210C4
:104F5000016B012909D101680C3151E8003F23F0B0
:104F6000100341E80034002CF5D14263016B0129A4
:104F700002D0FEF771FF10BD818DFEF74DFC10BD14
:104F800010B5806B01214163016B012902D0FEF74E
:104F900064FF10BD818D4908FEF73EFC10BD01681D
:104FA0000C3151E8002F22F4907241E80023002BCD
:104FB000F5D10168143151E8002F22F0010241E8D7
:104FC0000023002BF5D1016B012909D101680C31B7
:104FD00051E8002F22F0100241E80023002BF5D108
:104FE000202180F8421000210163704701680C31D4
:104FF00051E8002F22F0C00241E80023002BF5D138
:10500000202180F84110704708B590F842102229FD
:1050100001D0022008BD82684FF480539A4201D12A
:10502000016921B1816A9A421BD04AB10AE0026843
:10503000816A5268C2F308020A80816A891C08E00A
:10504000026972B10268526802F07F020A70816AD6
:10505000491C8162C18D491E0904090CC18503D018
:105060001BE002685268F1E70168CA6822F020027A
:10507000CA600168CA6822F48072CA6001684A691D
:1050800022F001024A61202180F842100021416390
:10509000026B012A03D0FEF7DFFE002008BD01638A
:1050A00001680C3151E8002F22F0100241E8002382
:1050B000002BF5D101680A68D20602D50A68496852
:1050C0000091818DFEF7A8FBE7E7000070B504466C
:1050D00000680169E26821F44051114301612169CE
:1050E000A068E26908436169114308432168CA68FE
:1050F00049F20C639A430243CA6020684169A2697D
:1051000021F440711143416131492068884202D045
:105110003049884202D1FDF71BFE01E0FDF708FE91
:10512000E2690023192164253226B2F5004F626836
:1051300028D0A0FB0101930F9200FBF743F8014632
:10514000B0FBF5F06FF01802504301EB800006EB66
:105150000010B0FBF5F000F0F002B1FBF5F002EB4F
:105160000012B1FBF5F06FF01803584301EB80001B
:1051700006EB0010B0FBF5F000F00F0021681044C2
:10518000886070BDA0FB010192185B41FBF71AF823
:105190000146B0FBF5F00201B1FBF5F06FF018032A
:1051A000584301EB800006EBC000B0FBF5F000F0C7
:1051B000F80002EB4002B1FBF5F0584301EB800030
:1051C00006EBC000B0FBF5F000F00700D6E70000EA
:1051D000001001400014014038B581620446828508
:1051E000002013466064222284F84220E56B1F4AA7
:1051F000EA63E56B1E4A2A64E56B1E4AEA64E26BC9
:1052000010650A462168E06B091DFDF707FB30B108
:1052100010206064202084F84200012038BD2068FE
:10522000016840680090206948B120680C3050E85F
:10523000001F41F4807140E80012002AF5D1206877
:10524000143050E8001F41F0010140E80012002A2C
:10525000F5D12068143050E8001F41F0400140E8CB
:105260000012002AF5D1002038BD0000FB4E0008D6
:10527000814F0008B14E00080148FEF747BB00000F
:10528000000700200148FEF741BB0000480700204E
:105290000148FEF73BBB000090070020FEE700003E
:1052A0000448D0F801100A2902D2491CC0F80110A4
:1052B000704700002800002010B51948FEF7D2FA08
:1052C0001B48184A18A10446FAF7C0FF154A19A14D
:1052D000121D2046FAF7BAFF124A18A108322046DA
:1052E000FAF7B4FF0F4A17A10C322046FAF7AEFFC7
:1052F0000C4A17A110322046FAF7A8FF8022214657
:105300000748FEF764FA15480068016821F00801B3
:1053100001602046BDE810408021FAF78BBF0000F5
:1053200000070020E00000206B703A25660A0000AC
:10533000B40200206B693A25660A00006B643A25C6
:10534000660A0000696D61783A25660A000000006F
:105350006F75746D61783A25660A0000D8070020E1
:10536000FFF7AABF0448D0F801100A2902D2491C4D
:10537000C0F80110704700002B0200204100080215
:1053800018BF04200A0E18BF40F001004FF07F4202
:1053900032EA010108BF40F00200012808BF0520E1
:1053A00070470907090E002804DB00F1E02080F8AF
:1053B0000014704700F00F0000F1E02080F8141D89
:1053C0007047000010B510EE100A2DED068BB7EEF9
:1053D000001A10EE901AB0EE418A0022A0F5000CDF
:1053E000DFEDFE9A4FF00073BCF1FE4F4FF07F44AB
:1053F00003EB410C80F0B481BCF1804FC0F02082FF
:10540000F74901449FEDF73AB1F5005F40F2D482CD
:1054100000F58021CB0C03F00F0101EE901AC3F3CD
:1054200007137F3BA0EBC350B8EEE12A00EE100A51
:105430001A44DFEDED2AF0EE411A42EE221AF0EEA8
:10544000613A70EE232A30EE632A12EE900A00F5DC
:1054500000606FF30B0001EE900A73EEE13A33EE59
:10546000804AC1EE223A22EE230A10EE100A00F51D
:1054700000606FF30B0000EE100A00EE612A00EEF0
:10548000442A62EE232A70EE221A21EEA12ADFEDD1
:10549000D73A02EE233A23EE023A20EE012A22EE18
:1054A000811A03EE211A32EE010A10EE100A00F5FD
:1054B00000606FF30B0000EE100A72EE401A31EE3E
:1054C000812A9FEDCB1A60EE011A9FEDCA1A20EED9
:1054D000011A9FEDC90A02EE001A31EE810A10EEA0
:1054E000100A00F500606FF30B0000EE100AC348CD
:1054F00071EEC01A31EE812A784400EBC10090EDC4
:10550000003AD0ED011A100101EE100AF8EEC12A9E
:1055100032EE211A31EE001A31EE031A31EE221A60
:1055200011EE100A00F500606FF30B0009EE100A8F
:1055300039EE621A31EE431A31EE400A30EE610A5A
:1055400032EE40AA10EE900A002100F500606FF3E1
:105550000B0008EE900A084670EEE8AAFBF710FB75
:1055600029EE280A00F00C01F0EEC00A10EE900AB5
:10557000B0F18B4F0DDD10EE900AB4EB400F08D365
:1055800010EE100A4FF08B4262F31E0008EE900AF4
:1055900013E069EE2A0A38EEAA1A4AEE010A30EE42
:1055A000201A11EE100A00F500606FF30B0008EEF0
:1055B000900A30EE680A70EE209A0C20FBF7E0FAB1
:1055C00038EEA90AB5EEC00AF1EE10FA34BFFEEECD
:1055D000000AF6EE000A30EE800ABDEEC00A10EEB8
:1055E000100A011100EE101AF8EEC00A00EE100ABF
:1055F000B8EEC00A38EEC00A30EE290ADFED801A94
:105600009FED801A00EE211ADFED7F1A7F4900F02E
:105610000F0040EE011A21EE800A794401EB80016F
:1056200091ED001A7A49794401EB8001D1ED001A1D
:10563000784901EE801A794401EB8000764990EDBB
:10564000000A31EE001AB0EEE00A10EE100A8842AD
:1056500015DA10EE100AB4EB400F10D39FED6F0A6D
:1056600030EE800ADFED6E0A20EE200A68EE010AB5
:10567000BDEC068BBCEEC00A20EE200A10BD10EE79
:10568000100A6849884243DA10EE100AB4EB400F62
:105690003ED3BDEEE00A68EE010A10EE100A00EB00
:1056A000D0725110C90501F17E5100EE101AA0EB25
:1056B0006200C00560EE200A00F17E5000EE100A84
:1056C00060EE808A18EE900AB4EB400F0FD10220F2
:1056D00000F0FEF900F0DCF910EE101A18EE100AD6
:1056E000BDEC068B61F31E0000EE100A10BD18EE33
:1056F000900A400011D018EE900AFFF73FFE0428F0
:1057000008BF00F0CDF9B0EE680ABDEC068B10BD05
:10571000F5EEC00AF1EE10FA0FD2022000F0D8F92F
:1057200000F0BEF910EE101A18EE100ABDEC068B50
:1057300061F31E0000EE100A10BD022000F0C8F94F
:1057400000F0A6F910EE101AB0EE480A10EE100A9A
:10575000BDEC068B61F31E0000EE100A10BD00BF09
:10576000BCF1804F6CD300BF00F1FF43B3F1FE4F9B
:1057700024D200BFB0EEC00A10EE100AC1F3C75326
:105780007F2B0DDB972BBFF63BAEC3F196034FF09B
:10579000010C0CFA03F3A3F1010C1CEA010F08D071
:1057A000012000F095F9BDEC068BBDE8104000F03B
:1057B00067B90B4218BFBFEE008A21E643001CBF49
:1057C0004FF08073B3EB400F34D96FF01A02DFED66
:1057D000161A20EE210A10EE100A27E00000000041
:1057E000001080C0ABAAAA3E0000803D7EE24C3E85
:1057F00000B03842D49AB8BB3BAA384260060000D9
:10580000FC596337C9FF753A1872313DFE05000037
:1058100032060000A20500000000FC420000FE422B
:105820000000004B000040430000004D10F0004F0E
:10583000A0D1E5E5A0F50003B3F1FE4F21D2DFE5ED
:1058400003EB4103B3F1007F11D3F5EEC00AF1EE93
:1058500010FA05D1430018BFB4EB400F76D883E7A8
:1058600001F0004141F0FC5100EE901A7CE7B3F1E9
:10587000807F06D210EE903AA3F5000300EE903A36
:1058800072E720F000426FF0FF4C604C02EB0C031B
:10589000A34210D321F000439C44A4450BD3B0F1A4
:1058A0007E5F18BF5FEA410C50D0B2F1FF4F98BF46
:1058B000B3F1FF4F05D9BDEC068BBDE8104000F0F9
:1058C000DBB8B0F1FF4F0FD0C1F3C7527F2A09DB1D
:1058D000972A11DAC2F19602012303FA02F2531E4B
:1058E0000B4205D0002208E011F0004F55D128E00E
:1058F0000A4218BF012200D1022210F5000F13D076
:1059000028B3B0F1004F26D010F1814F4FD04FF0A7
:10591000FE42B2EB400F94BF01200020012202EBB7
:10592000E171884239D10CE011F0004F02D0012A18
:1059300038D032E0012A02BF9FED350ABDEC068B5C
:1059400010BD9FED340ABDEC068B10BD2FE011F0A9
:10595000004F0CD121E0B1F1FF4F1ED011F5000F27
:1059600005D011F0004F15D00AB1012A08D002204D
:1059700000F0AEF8BDEC068BBDE8104000F072B848
:10598000022000F0A5F800F06DF8BDEC068BB1EE3A
:10599000400A10BD0AB1012A04D0B0EE690ABDEC7C
:1059A000068B10BDBDEC068B9FED1B0A10BDBDEC38
:1059B000068BB7EE000A10BD30EE410AB5EE001AB4
:1059C0009FED172A00EE413AB6EE001A60EE001A7B
:1059D00000EE431A61EEC11A9FED101A20EE011A73
:1059E00020EE020A9FED0F2A01EE820A71EE001AE4
:1059F00011EE900A00F500606FF30B0009EE100A3B
:105A000031EE491A31EE00AA9CE50000FFFF3F008D
:105A1000000080FF0000807F0000008000B0B841DF
:105A2000D49A38BB3BAAB84110B52DED028BB1EE2C
:105A3000C08A18EE100A20F00040C0F1FF40C00FED
:105A40000AD010EE100A20F00040C0F1FF40C00F55
:105A500004BF012000F03CF8B0EE480ABDEC028B18
:105A600010BD0000DFED030AB7EE001A81EE200A38
:105A7000704700000000000030EE200A7047000070
:105A8000DFED020A80EEA00A70470000000000006F
:105A90009FED020A20EE000A70470000000000702F
:105AA0009FED020A20EE000A70470000000000107F
:105AB00002E008C8121F08C1002AFAD170477047D7
:105AC000002001E001C1121F002AFBD17047000035
:105AD00001490860704700008800002030380A281B
